{
  "contractName": "Database",
  "abi": [
    {
      "inputs": [
        {
          "internalType": "contract DataStorage",
          "name": "dataStorageAddress",
          "type": "address"
        }
      ],
      "stateMutability": "nonpayable",
      "type": "constructor"
    },
    {
      "inputs": [
        {
          "internalType": "string",
          "name": "username",
          "type": "string"
        },
        {
          "internalType": "string",
          "name": "emailAddress",
          "type": "string"
        },
        {
          "internalType": "string",
          "name": "password",
          "type": "string"
        },
        {
          "internalType": "string",
          "name": "homeAddress",
          "type": "string"
        },
        {
          "internalType": "uint32",
          "name": "phoneNumber",
          "type": "uint32"
        },
        {
          "internalType": "uint256",
          "name": "userId",
          "type": "uint256"
        }
      ],
      "name": "registerAccount",
      "outputs": [],
      "stateMutability": "nonpayable",
      "type": "function"
    },
    {
      "inputs": [],
      "name": "destroy",
      "outputs": [],
      "stateMutability": "nonpayable",
      "type": "function"
    }
  ],
  "bytecode": "0x608060405233600160006101000a81548173ffffffffffffffffffffffffffffffffffffffff021916908373ffffffffffffffffffffffffffffffffffffffff16021790555034801561005157600080fd5b506040516109ee3803806109ee8339818101604052602081101561007457600080fd5b8101908080519060200190929190505050600160009054906101000a900473ffffffffffffffffffffffffffffffffffffffff1673ffffffffffffffffffffffffffffffffffffffff168173ffffffffffffffffffffffffffffffffffffffff1663893d20e86040518163ffffffff1660e01b815260040160206040518083038186803b15801561010457600080fd5b505afa158015610118573d6000803e3d6000fd5b505050506040513d602081101561012e57600080fd5b810190808051906020019092919050505073ffffffffffffffffffffffffffffffffffffffff16146101ab576040517f08c379a00000000000000000000000000000000000000000000000000000000081526004018080602001828103825260238152602001806109cb6023913960400191505060405180910390fd5b806000806101000a81548173ffffffffffffffffffffffffffffffffffffffff021916908373ffffffffffffffffffffffffffffffffffffffff160217905550506107d0806101fb6000396000f3fe608060405234801561001057600080fd5b50600436106100365760003560e01c806355ba41ea1461003b57806383197ef0146102d5575b600080fd5b6102d3600480360360c081101561005157600080fd5b810190808035906020019064010000000081111561006e57600080fd5b82018360208201111561008057600080fd5b803590602001918460018302840111640100000000831117156100a257600080fd5b91908080601f016020809104026020016040519081016040528093929190818152602001838380828437600081840152601f19601f8201169050808301925050505050505091929192908035906020019064010000000081111561010557600080fd5b82018360208201111561011757600080fd5b8035906020019184600183028401116401000000008311171561013957600080fd5b91908080601f016020809104026020016040519081016040528093929190818152602001838380828437600081840152601f19601f8201169050808301925050505050505091929192908035906020019064010000000081111561019c57600080fd5b8201836020820111156101ae57600080fd5b803590602001918460018302840111640100000000831117156101d057600080fd5b91908080601f016020809104026020016040519081016040528093929190818152602001838380828437600081840152601f19601f8201169050808301925050505050505091929192908035906020019064010000000081111561023357600080fd5b82018360208201111561024557600080fd5b8035906020019184600183028401116401000000008311171561026757600080fd5b91908080601f016020809104026020016040519081016040528093929190818152602001838380828437600081840152601f19601f820116905080830192505050505050509192919290803563ffffffff169060200190929190803590602001909291905050506102df565b005b6102dd610722565b005b600073ffffffffffffffffffffffffffffffffffffffff166000809054906101000a900473ffffffffffffffffffffffffffffffffffffffff1673ffffffffffffffffffffffffffffffffffffffff1663615deb16886040518263ffffffff1660e01b81526004018080602001828103825283818151815260200191508051906020019080838360005b83811015610384578082015181840152602081019050610369565b50505050905090810190601f1680156103b15780820380516001836020036101000a031916815260200191505b509250505060206040518083038186803b1580156103ce57600080fd5b505afa1580156103e2573d6000803e3d6000fd5b505050506040513d60208110156103f857600080fd5b810190808051906020019092919050505073ffffffffffffffffffffffffffffffffffffffff1614610492576040517f08c379a000000000000000000000000000000000000000000000000000000000815260040180806020018281038252600e8152602001807f557365726e616d652074616b656e00000000000000000000000000000000000081525060200191505060405180910390fd5b6000809054906101000a900473ffffffffffffffffffffffffffffffffffffffff1673ffffffffffffffffffffffffffffffffffffffff1663afea7878878787873388886040518863ffffffff1660e01b815260040180806020018060200180602001806020018873ffffffffffffffffffffffffffffffffffffffff1673ffffffffffffffffffffffffffffffffffffffff1681526020018763ffffffff1663ffffffff16815260200186815260200185810385528c818151815260200191508051906020019080838360005b8381101561057b578082015181840152602081019050610560565b50505050905090810190601f1680156105a85780820380516001836020036101000a031916815260200191505b5085810384528b818151815260200191508051906020019080838360005b838110156105e15780820151818401526020810190506105c6565b50505050905090810190601f16801561060e5780820380516001836020036101000a031916815260200191505b5085810383528a818151815260200191508051906020019080838360005b8381101561064757808201518184015260208101905061062c565b50505050905090810190601f1680156106745780820380516001836020036101000a031916815260200191505b50858103825289818151815260200191508051906020019080838360005b838110156106ad578082015181840152602081019050610692565b50505050905090810190601f1680156106da5780820380516001836020036101000a031916815260200191505b509b505050505050505050505050600060405180830381600087803b15801561070257600080fd5b505af1158015610716573d6000803e3d6000fd5b50505050505050505050565b600160009054906101000a900473ffffffffffffffffffffffffffffffffffffffff1673ffffffffffffffffffffffffffffffffffffffff163373ffffffffffffffffffffffffffffffffffffffff161461077c57600080fd5b60003390508073ffffffffffffffffffffffffffffffffffffffff16fffea264697066735822122005159f9a4d376b4f3513b805eb1c9aa20205d3fa6d3d8b4dfe702b5f28a3f97f64736f6c63430006010033446174612073746f72616765206e6f74206f776e656420627920646576656c6f706572",
  "source": "// SPDX-License-Identifier: MIT\npragma solidity >=0.6.1;\n\nimport \"./DataStorage.sol\";\n\ncontract Database {\n    DataStorage dataStorage;\n    address developer = msg.sender;\n\n    constructor(DataStorage dataStorageAddress) public {\n        require(\n            dataStorageAddress.getOwner() == developer,\n            \"Data storage not owned by developer\"\n        );\n        dataStorage = dataStorageAddress;\n    }\n\n    modifier developerOnly() {\n        require(msg.sender == developer);\n        _;\n    }\n\n    function registerAccount(\n        string memory username,\n        string memory emailAddress,\n        string memory password,\n        string memory homeAddress,\n        uint32 phoneNumber,\n        uint256 userId\n    ) public {\n        require(\n            dataStorage.getAccountAddress(username) == address(0),\n            \"Username taken\"\n        );\n        dataStorage.setCredentials(\n            username,\n            emailAddress,\n            password,\n            homeAddress,\n            msg.sender,\n            phoneNumber,\n            userId\n        );\n    }\n\n    function destroy() public developerOnly {\n        address payable addr = payable(msg.sender);\n        selfdestruct(addr);\n    }\n}\n",
  "sourcePath": "/Users/oliviama/AY21:22 sem 2/IS4302/project/contracts/Database.sol",
  "compiler": {
    "name": "solc",
    "version": "0.6.1+commit.e6f7d5a4.Emscripten.clang"
  },
  "schemaVersion": "3.4.4",
  "updatedAt": "2022-03-27T06:06:45.198Z",
  "devdoc": {
    "methods": {}
  },
  "userdoc": {
    "methods": {}
  }
}