{
  "contractName": "DataStorage",
  "abi": [
    {
      "inputs": [],
      "name": "destroy",
      "outputs": [],
      "stateMutability": "nonpayable",
      "type": "function"
    },
    {
      "inputs": [],
      "name": "getOwner",
      "outputs": [
        {
          "internalType": "address",
          "name": "",
          "type": "address"
        }
      ],
      "stateMutability": "view",
      "type": "function"
    },
    {
      "inputs": [
        {
          "internalType": "string",
          "name": "username",
          "type": "string"
        }
      ],
      "name": "getEmailAddress",
      "outputs": [
        {
          "internalType": "string",
          "name": "",
          "type": "string"
        }
      ],
      "stateMutability": "view",
      "type": "function"
    },
    {
      "inputs": [
        {
          "internalType": "string",
          "name": "username",
          "type": "string"
        }
      ],
      "name": "getPassword",
      "outputs": [
        {
          "internalType": "string",
          "name": "",
          "type": "string"
        }
      ],
      "stateMutability": "view",
      "type": "function"
    },
    {
      "inputs": [
        {
          "internalType": "string",
          "name": "username",
          "type": "string"
        }
      ],
      "name": "getHomeAddress",
      "outputs": [
        {
          "internalType": "string",
          "name": "",
          "type": "string"
        }
      ],
      "stateMutability": "view",
      "type": "function"
    },
    {
      "inputs": [
        {
          "internalType": "string",
          "name": "username",
          "type": "string"
        }
      ],
      "name": "getAccountAddress",
      "outputs": [
        {
          "internalType": "address",
          "name": "",
          "type": "address"
        }
      ],
      "stateMutability": "view",
      "type": "function"
    },
    {
      "inputs": [
        {
          "internalType": "string",
          "name": "username",
          "type": "string"
        }
      ],
      "name": "getPhoneNumber",
      "outputs": [
        {
          "internalType": "uint32",
          "name": "",
          "type": "uint32"
        }
      ],
      "stateMutability": "view",
      "type": "function"
    },
    {
      "inputs": [
        {
          "internalType": "string",
          "name": "username",
          "type": "string"
        }
      ],
      "name": "getUserId",
      "outputs": [
        {
          "internalType": "uint256",
          "name": "",
          "type": "uint256"
        }
      ],
      "stateMutability": "view",
      "type": "function"
    },
    {
      "inputs": [
        {
          "internalType": "string",
          "name": "countryCode",
          "type": "string"
        }
      ],
      "name": "getExchangeRate",
      "outputs": [
        {
          "internalType": "uint256",
          "name": "",
          "type": "uint256"
        }
      ],
      "stateMutability": "view",
      "type": "function"
    },
    {
      "inputs": [
        {
          "internalType": "string",
          "name": "username",
          "type": "string"
        },
        {
          "internalType": "string",
          "name": "emailAddress",
          "type": "string"
        },
        {
          "internalType": "string",
          "name": "password",
          "type": "string"
        },
        {
          "internalType": "string",
          "name": "homeAddress",
          "type": "string"
        },
        {
          "internalType": "address",
          "name": "accountAddress",
          "type": "address"
        },
        {
          "internalType": "uint32",
          "name": "phoneNumber",
          "type": "uint32"
        },
        {
          "internalType": "uint256",
          "name": "userId",
          "type": "uint256"
        }
      ],
      "name": "setCredentials",
      "outputs": [],
      "stateMutability": "nonpayable",
      "type": "function"
    },
    {
      "inputs": [
        {
          "internalType": "string",
          "name": "countryCode",
          "type": "string"
        },
        {
          "internalType": "uint256",
          "name": "rate",
          "type": "uint256"
        }
      ],
      "name": "setExchangeRate",
      "outputs": [],
      "stateMutability": "nonpayable",
      "type": "function"
    }
  ],
  "bytecode": "0x6080604052336000806101000a81548173ffffffffffffffffffffffffffffffffffffffff021916908373ffffffffffffffffffffffffffffffffffffffff16021790555034801561005057600080fd5b506114c2806100606000396000f3fe608060405234801561001057600080fd5b50600436106100a95760003560e01c8063615deb1611610071578063615deb16146105ea57806383197ef0146106e5578063893d20e8146106ef578063afea787814610739578063db1ef71f146109f3578063f4b5431414610ac2576100a9565b806301b8c31c146100ae5780630c80246a146101e257806315fbcaa6146102a75780631ca260ac146103db5780633fc675c7146104b6575b600080fd5b610167600480360360208110156100c457600080fd5b81019080803590602001906401000000008111156100e157600080fd5b8201836020820111156100f357600080fd5b8035906020019184600183028401116401000000008311171561011557600080fd5b91908080601f016020809104026020016040519081016040528093929190818152602001838380828437600081840152601f19601f820116905080830192505050505050509192919290505050610b91565b6040518080602001828103825283818151815260200191508051906020019080838360005b838110156101a757808201518184015260208101905061018c565b50505050905090810190601f1680156101d45780820380516001836020036101000a031916815260200191505b509250505060405180910390f35b6102a5600480360360408110156101f857600080fd5b810190808035906020019064010000000081111561021557600080fd5b82018360208201111561022757600080fd5b8035906020019184600183028401116401000000008311171561024957600080fd5b91908080601f016020809104026020016040519081016040528093929190818152602001838380828437600081840152601f19601f82011690508083019250505050505050919291929080359060200190929190505050610c9f565b005b610360600480360360208110156102bd57600080fd5b81019080803590602001906401000000008111156102da57600080fd5b8201836020820111156102ec57600080fd5b8035906020019184600183028401116401000000008311171561030e57600080fd5b91908080601f016020809104026020016040519081016040528093929190818152602001838380828437600081840152601f19601f820116905080830192505050505050509192919290505050610d11565b6040518080602001828103825283818151815260200191508051906020019080838360005b838110156103a0578082015181840152602081019050610385565b50505050905090810190601f1680156103cd5780820380516001836020036101000a031916815260200191505b509250505060405180910390f35b610494600480360360208110156103f157600080fd5b810190808035906020019064010000000081111561040e57600080fd5b82018360208201111561042057600080fd5b8035906020019184600183028401116401000000008311171561044257600080fd5b91908080601f016020809104026020016040519081016040528093929190818152602001838380828437600081840152601f19601f820116905080830192505050505050509192919290505050610e1f565b604051808263ffffffff1663ffffffff16815260200191505060405180910390f35b61056f600480360360208110156104cc57600080fd5b81019080803590602001906401000000008111156104e957600080fd5b8201836020820111156104fb57600080fd5b8035906020019184600183028401116401000000008311171561051d57600080fd5b91908080601f016020809104026020016040519081016040528093929190818152602001838380828437600081840152601f19601f820116905080830192505050505050509192919290505050610ea5565b6040518080602001828103825283818151815260200191508051906020019080838360005b838110156105af578082015181840152602081019050610594565b50505050905090810190601f1680156105dc5780820380516001836020036101000a031916815260200191505b509250505060405180910390f35b6106a36004803603602081101561060057600080fd5b810190808035906020019064010000000081111561061d57600080fd5b82018360208201111561062f57600080fd5b8035906020019184600183028401116401000000008311171561065157600080fd5b91908080601f016020809104026020016040519081016040528093929190818152602001838380828437600081840152601f19601f820116905080830192505050505050509192919290505050610fb3565b604051808273ffffffffffffffffffffffffffffffffffffffff1673ffffffffffffffffffffffffffffffffffffffff16815260200191505060405180910390f35b6106ed611049565b005b6106f76110c0565b604051808273ffffffffffffffffffffffffffffffffffffffff1673ffffffffffffffffffffffffffffffffffffffff16815260200191505060405180910390f35b6109f1600480360360e081101561074f57600080fd5b810190808035906020019064010000000081111561076c57600080fd5b82018360208201111561077e57600080fd5b803590602001918460018302840111640100000000831117156107a057600080fd5b91908080601f016020809104026020016040519081016040528093929190818152602001838380828437600081840152601f19601f8201169050808301925050505050505091929192908035906020019064010000000081111561080357600080fd5b82018360208201111561081557600080fd5b8035906020019184600183028401116401000000008311171561083757600080fd5b91908080601f016020809104026020016040519081016040528093929190818152602001838380828437600081840152601f19601f8201169050808301925050505050505091929192908035906020019064010000000081111561089a57600080fd5b8201836020820111156108ac57600080fd5b803590602001918460018302840111640100000000831117156108ce57600080fd5b91908080601f016020809104026020016040519081016040528093929190818152602001838380828437600081840152601f19601f8201169050808301925050505050505091929192908035906020019064010000000081111561093157600080fd5b82018360208201111561094357600080fd5b8035906020019184600183028401116401000000008311171561096557600080fd5b91908080601f016020809104026020016040519081016040528093929190818152602001838380828437600081840152601f19601f820116905080830192505050505050509192919290803573ffffffffffffffffffffffffffffffffffffffff169060200190929190803563ffffffff169060200190929190803590602001909291905050506110e9565b005b610aac60048036036020811015610a0957600080fd5b8101908080359060200190640100000000811115610a2657600080fd5b820183602082011115610a3857600080fd5b80359060200191846001830284011164010000000083111715610a5a57600080fd5b91908080601f016020809104026020016040519081016040528093929190818152602001838380828437600081840152601f19601f8201169050808301925050505050505091929192905050506112a5565b6040518082815260200191505060405180910390f35b610b7b60048036036020811015610ad857600080fd5b8101908080359060200190640100000000811115610af557600080fd5b820183602082011115610b0757600080fd5b80359060200191846001830284011164010000000083111715610b2957600080fd5b91908080601f016020809104026020016040519081016040528093929190818152602001838380828437600081840152601f19601f82011690508083019250505050505050919291929050505061131b565b6040518082815260200191505060405180910390f35b60606001826040518082805190602001908083835b60208310610bc95780518252602082019150602081019050602083039250610ba6565b6001836020036101000a03801982511681845116808217855250505050505090500191505090815260200160405180910390206002018054600181600116156101000203166002900480601f016020809104026020016040519081016040528092919081815260200182805460018160011615610100020316600290048015610c935780601f10610c6857610100808354040283529160200191610c93565b820191906000526020600020905b815481529060010190602001808311610c7657829003601f168201915b50505050509050919050565b806002836040518082805190602001908083835b60208310610cd65780518252602082019150602081019050602083039250610cb3565b6001836020036101000a0380198251168184511680821785525050505050509050019150509081526020016040518091039020819055505050565b60606001826040518082805190602001908083835b60208310610d495780518252602082019150602081019050602083039250610d26565b6001836020036101000a03801982511681845116808217855250505050505090500191505090815260200160405180910390206001018054600181600116156101000203166002900480601f016020809104026020016040519081016040528092919081815260200182805460018160011615610100020316600290048015610e135780601f10610de857610100808354040283529160200191610e13565b820191906000526020600020905b815481529060010190602001808311610df657829003601f168201915b50505050509050919050565b60006001826040518082805190602001908083835b60208310610e575780518252602082019150602081019050602083039250610e34565b6001836020036101000a038019825116818451168082178552505050505050905001915050908152602001604051809103902060040160149054906101000a900463ffffffff169050919050565b60606001826040518082805190602001908083835b60208310610edd5780518252602082019150602081019050602083039250610eba565b6001836020036101000a03801982511681845116808217855250505050505090500191505090815260200160405180910390206003018054600181600116156101000203166002900480601f016020809104026020016040519081016040528092919081815260200182805460018160011615610100020316600290048015610fa75780601f10610f7c57610100808354040283529160200191610fa7565b820191906000526020600020905b815481529060010190602001808311610f8a57829003601f168201915b50505050509050919050565b60006001826040518082805190602001908083835b60208310610feb5780518252602082019150602081019050602083039250610fc8565b6001836020036101000a038019825116818451168082178552505050505050905001915050908152602001604051809103902060040160009054906101000a900473ffffffffffffffffffffffffffffffffffffffff169050919050565b6000809054906101000a900473ffffffffffffffffffffffffffffffffffffffff1673ffffffffffffffffffffffffffffffffffffffff163373ffffffffffffffffffffffffffffffffffffffff16146110a257600080fd5b60003390508073ffffffffffffffffffffffffffffffffffffffff16ff5b60008060009054906101000a900473ffffffffffffffffffffffffffffffffffffffff16905090565b6110f161138e565b6040518060e001604052808981526020018881526020018781526020018681526020018573ffffffffffffffffffffffffffffffffffffffff1681526020018463ffffffff168152602001838152509050806001896040518082805190602001908083835b602083106111795780518252602082019150602081019050602083039250611156565b6001836020036101000a038019825116818451168082178552505050505050905001915050908152602001604051809103902060008201518160000190805190602001906111c89291906113e7565b5060208201518160010190805190602001906111e59291906113e7565b5060408201518160020190805190602001906112029291906113e7565b50606082015181600301908051906020019061121f9291906113e7565b5060808201518160040160006101000a81548173ffffffffffffffffffffffffffffffffffffffff021916908373ffffffffffffffffffffffffffffffffffffffff16021790555060a08201518160040160146101000a81548163ffffffff021916908363ffffffff16021790555060c082015181600501559050505050505050505050565b60006001826040518082805190602001908083835b602083106112dd57805182526020820191506020810190506020830392506112ba565b6001836020036101000a0380198251168184511680821785525050505050509050019150509081526020016040518091039020600501549050919050565b60006002826040518082805190602001908083835b602083106113535780518252602082019150602081019050602083039250611330565b6001836020036101000a0380198251168184511680821785525050505050509050019150509081526020016040518091039020549050919050565b6040518060e0016040528060608152602001606081526020016060815260200160608152602001600073ffffffffffffffffffffffffffffffffffffffff168152602001600063ffffffff168152602001600081525090565b828054600181600116156101000203166002900490600052602060002090601f016020900481019282601f1061142857805160ff1916838001178555611456565b82800160010185558215611456579182015b8281111561145557825182559160200191906001019061143a565b5b5090506114639190611467565b5090565b61148991905b8082111561148557600081600090555060010161146d565b5090565b9056fea2646970667358221220b5592428b92b7ea8bd5ce8214467810f195756e07c3d68e4c48b9d68d6dc9caa64736f6c63430006010033",
  "source": "// SPDX-License-Identifier: MIT\npragma solidity >=0.6.1;\n\ncontract DataStorage {\n    struct Credentials {\n        string username;\n        string emailAddress;\n        string password;\n        string homeAddress;\n        address accountAddress;\n        uint32 phoneNumber;\n        uint256 userId; \n    }\n\n    address owner = msg.sender;\n    mapping(string => Credentials) loginCredentialsStorage;\n    mapping(string => uint256) exchangeRateStorage;\n\n    modifier ownerOnly() {\n        require(msg.sender == owner);\n        _;\n    }\n\n    function destroy() public ownerOnly {\n        address payable addr = payable(msg.sender);\n        selfdestruct(addr);\n    }\n\n    //Getter methods\n    function getOwner() public view returns (address) {\n        return owner;\n    }\n\n    function getEmailAddress(string memory username) public view returns (string memory) {\n        return loginCredentialsStorage[username].emailAddress;\n    }\n\n    function getPassword(string memory username) public view returns (string memory) {\n        return loginCredentialsStorage[username].password;\n    }\n\n    function getHomeAddress(string memory username) public view returns (string memory) {\n        return loginCredentialsStorage[username].homeAddress;\n    }\n\n    function getAccountAddress(string memory username) public view returns (address) {\n        return loginCredentialsStorage[username].accountAddress;\n    }\n\n    function getPhoneNumber(string memory username) public view returns (uint32) {\n        return loginCredentialsStorage[username].phoneNumber;\n    }\n\n    function getUserId(string memory username) public view returns (uint256) {\n        return loginCredentialsStorage[username].userId;\n    }\n\n    function getExchangeRate(string memory countryCode) public view returns (uint256) {\n        return exchangeRateStorage[countryCode];\n    }\n\n    //Setter methods\n    function setCredentials(string memory username, string memory emailAddress, string memory password, \n        string memory homeAddress, address accountAddress, uint32 phoneNumber, uint256 userId) public {\n            Credentials memory loginCredentials = Credentials(username, emailAddress, password, homeAddress, accountAddress, \n                phoneNumber, userId);\n            loginCredentialsStorage[username] = loginCredentials;\n    }\n\n    function setExchangeRate(string memory countryCode, uint256 rate) public {\n        exchangeRateStorage[countryCode] = rate;\n    }\n}",
  "sourcePath": "/Users/oliviama/AY21:22 sem 2/IS4302/project/contracts/DataStorage.sol",
  "compiler": {
    "name": "solc",
    "version": "0.6.1+commit.e6f7d5a4.Emscripten.clang"
  },
  "schemaVersion": "3.4.4",
  "updatedAt": "2022-03-27T06:06:45.190Z",
  "devdoc": {
    "methods": {}
  },
  "userdoc": {
    "methods": {}
  }
}