{
  "contractName": "DonationMarket",
  "abi": [
    {
      "inputs": [
        {
          "internalType": "contract Token",
          "name": "tokenAddress",
          "type": "address"
        }
      ],
      "stateMutability": "nonpayable",
      "type": "constructor"
    },
    {
      "anonymous": false,
      "inputs": [
        {
          "indexed": false,
          "internalType": "uint256",
          "name": "listingId",
          "type": "uint256"
        },
        {
          "indexed": false,
          "internalType": "uint256",
          "name": "requestId",
          "type": "uint256"
        }
      ],
      "name": "requestAdded",
      "type": "event"
    },
    {
      "anonymous": false,
      "inputs": [
        {
          "indexed": false,
          "internalType": "uint256",
          "name": "listingId",
          "type": "uint256"
        }
      ],
      "name": "tokenCreated",
      "type": "event"
    },
    {
      "anonymous": false,
      "inputs": [
        {
          "indexed": false,
          "internalType": "uint256",
          "name": "listingId",
          "type": "uint256"
        }
      ],
      "name": "tokenUnlisted",
      "type": "event"
    },
    {
      "anonymous": false,
      "inputs": [
        {
          "indexed": false,
          "internalType": "uint256",
          "name": "listingId",
          "type": "uint256"
        }
      ],
      "name": "tokenUnlisting",
      "type": "event"
    },
    {
      "anonymous": false,
      "inputs": [
        {
          "indexed": false,
          "internalType": "uint256",
          "name": "listingId",
          "type": "uint256"
        },
        {
          "indexed": false,
          "internalType": "address",
          "name": "recipient",
          "type": "address"
        }
      ],
      "name": "transferred",
      "type": "event"
    },
    {
      "inputs": [],
      "name": "stopContract",
      "outputs": [],
      "stateMutability": "nonpayable",
      "type": "function"
    },
    {
      "inputs": [],
      "name": "resumeContract",
      "outputs": [],
      "stateMutability": "nonpayable",
      "type": "function"
    },
    {
      "inputs": [],
      "name": "autoDeprecate",
      "outputs": [],
      "stateMutability": "nonpayable",
      "type": "function"
    },
    {
      "inputs": [],
      "name": "hasExpired",
      "outputs": [
        {
          "internalType": "bool",
          "name": "",
          "type": "bool"
        }
      ],
      "stateMutability": "view",
      "type": "function"
    },
    {
      "inputs": [
        {
          "internalType": "uint256",
          "name": "newLimit",
          "type": "uint256"
        }
      ],
      "name": "setBalanceLimit",
      "outputs": [],
      "stateMutability": "nonpayable",
      "type": "function"
    },
    {
      "inputs": [],
      "name": "selfDestruct",
      "outputs": [],
      "stateMutability": "nonpayable",
      "type": "function"
    },
    {
      "inputs": [
        {
          "internalType": "uint256",
          "name": "requestId",
          "type": "uint256"
        },
        {
          "internalType": "uint256",
          "name": "listingId",
          "type": "uint256"
        }
      ],
      "name": "cancelRequest",
      "outputs": [],
      "stateMutability": "nonpayable",
      "type": "function"
    },
    {
      "inputs": [
        {
          "internalType": "uint256",
          "name": "listingId",
          "type": "uint256"
        }
      ],
      "name": "unlist",
      "outputs": [],
      "stateMutability": "nonpayable",
      "type": "function"
    },
    {
      "inputs": [
        {
          "internalType": "uint256",
          "name": "requestId",
          "type": "uint256"
        },
        {
          "internalType": "uint256",
          "name": "listingId",
          "type": "uint256"
        }
      ],
      "name": "approve",
      "outputs": [
        {
          "internalType": "uint256",
          "name": "",
          "type": "uint256"
        }
      ],
      "stateMutability": "nonpayable",
      "type": "function"
    },
    {
      "inputs": [
        {
          "internalType": "uint256",
          "name": "listingId",
          "type": "uint256"
        },
        {
          "internalType": "uint256",
          "name": "recipientId",
          "type": "uint256"
        },
        {
          "internalType": "uint256",
          "name": "amt",
          "type": "uint256"
        },
        {
          "internalType": "uint256",
          "name": "deadline",
          "type": "uint256"
        },
        {
          "internalType": "uint256",
          "name": "requestId",
          "type": "uint256"
        }
      ],
      "name": "addRequest",
      "outputs": [],
      "stateMutability": "nonpayable",
      "type": "function"
    },
    {
      "inputs": [
        {
          "internalType": "uint256",
          "name": "donorId",
          "type": "uint256"
        },
        {
          "internalType": "uint256",
          "name": "amt",
          "type": "uint256"
        },
        {
          "internalType": "string",
          "name": "category",
          "type": "string"
        }
      ],
      "name": "createToken",
      "outputs": [
        {
          "internalType": "uint256",
          "name": "",
          "type": "uint256"
        }
      ],
      "stateMutability": "payable",
      "type": "function"
    },
    {
      "inputs": [
        {
          "internalType": "uint256",
          "name": "listingId",
          "type": "uint256"
        }
      ],
      "name": "getTokenAmt",
      "outputs": [
        {
          "internalType": "uint256",
          "name": "",
          "type": "uint256"
        }
      ],
      "stateMutability": "view",
      "type": "function"
    },
    {
      "inputs": [
        {
          "internalType": "uint256",
          "name": "listingId",
          "type": "uint256"
        }
      ],
      "name": "getRecipientRequest",
      "outputs": [
        {
          "internalType": "uint256[]",
          "name": "",
          "type": "uint256[]"
        }
      ],
      "stateMutability": "view",
      "type": "function"
    },
    {
      "inputs": [
        {
          "internalType": "uint256",
          "name": "requestId",
          "type": "uint256"
        }
      ],
      "name": "getStatus",
      "outputs": [
        {
          "internalType": "bool",
          "name": "",
          "type": "bool"
        }
      ],
      "stateMutability": "view",
      "type": "function"
    },
    {
      "inputs": [
        {
          "internalType": "uint256",
          "name": "requestId",
          "type": "uint256"
        }
      ],
      "name": "getDeadline",
      "outputs": [
        {
          "internalType": "uint256",
          "name": "",
          "type": "uint256"
        }
      ],
      "stateMutability": "view",
      "type": "function"
    },
    {
      "inputs": [
        {
          "internalType": "uint256",
          "name": "requestId",
          "type": "uint256"
        }
      ],
      "name": "getRequestAmt",
      "outputs": [
        {
          "internalType": "uint256",
          "name": "",
          "type": "uint256"
        }
      ],
      "stateMutability": "view",
      "type": "function"
    },
    {
      "inputs": [
        {
          "internalType": "uint256",
          "name": "requestId",
          "type": "uint256"
        }
      ],
      "name": "getAddress",
      "outputs": [
        {
          "internalType": "address",
          "name": "",
          "type": "address"
        }
      ],
      "stateMutability": "view",
      "type": "function"
    },
    {
      "inputs": [
        {
          "internalType": "uint256",
          "name": "listingId",
          "type": "uint256"
        }
      ],
      "name": "getCategory",
      "outputs": [
        {
          "internalType": "string",
          "name": "",
          "type": "string"
        }
      ],
      "stateMutability": "view",
      "type": "function"
    },
    {
      "inputs": [],
      "name": "getOwner",
      "outputs": [
        {
          "internalType": "address",
          "name": "",
          "type": "address"
        }
      ],
      "stateMutability": "view",
      "type": "function"
    },
    {
      "inputs": [
        {
          "internalType": "uint256",
          "name": "listingId",
          "type": "uint256"
        }
      ],
      "name": "checkListing",
      "outputs": [
        {
          "internalType": "bool",
          "name": "",
          "type": "bool"
        }
      ],
      "stateMutability": "view",
      "type": "function"
    },
    {
      "inputs": [],
      "name": "destroyContract",
      "outputs": [],
      "stateMutability": "nonpayable",
      "type": "function"
    },
    {
      "inputs": [],
      "name": "toggleContactStopped",
      "outputs": [],
      "stateMutability": "nonpayable",
      "type": "function"
    }
  ],
  "bytecode": "0x60806040526000600860016101000a81548160ff02191690831515021790555034801561002b57600080fd5b5060405162002965380380620029658339818101604052602081101561005057600080fd5b810190808051906020019092919050505080600660006101000a81548173ffffffffffffffffffffffffffffffffffffffff021916908373ffffffffffffffffffffffffffffffffffffffff160217905550336000806101000a81548173ffffffffffffffffffffffffffffffffffffffff021916908373ffffffffffffffffffffffffffffffffffffffff1602179055506127106002819055506100f96100ff60201b60201c565b5061010d565b620151804201600781905550565b612848806200011d6000396000f3fe6080604052600436106101355760003560e01c806382862275116100ab578063b93f9b0a1161006f578063b93f9b0a14610619578063bf5a4dd314610694578063c4bc5da5146106cf578063c63a2abe146106e6578063d586d2e4146106fd578063f3052d261461074257610135565b8063828622751461049d57806387b0c63c146104ec578063893d20e81461057c57806390e64d13146105d35780639cb8a26a1461060257610135565b806341685972116100fd57806341685972146102555780635443b28a146102a45780635c622a0e146102f75780635d35a3d91461034a5780635f78f436146103a3578063750e6d091461048657610135565b8063092a5cce1461013a57806312253a6c146101515780632ce0a6ee146101685780633240d76c146101a357806338442658146101f2575b600080fd5b34801561014657600080fd5b5061014f6107f6565b005b34801561015d57600080fd5b506101666108da565b005b34801561017457600080fd5b506101a16004803603602081101561018b57600080fd5b810190808035906020019092919050505061099c565b005b3480156101af57600080fd5b506101dc600480360360208110156101c657600080fd5b8101908080359060200190929190505050610ac2565b6040518082815260200191505060405180910390f35b3480156101fe57600080fd5b50610253600480360360a081101561021557600080fd5b810190808035906020019092919080359060200190929190803590602001909291908035906020019092919080359060200190929190505050610b7a565b005b34801561026157600080fd5b5061028e6004803603602081101561027857600080fd5b8101908080359060200190929190505050610e8a565b6040518082815260200191505060405180910390f35b3480156102b057600080fd5b506102dd600480360360208110156102c757600080fd5b8101908080359060200190929190505050610eaa565b604051808215151515815260200191505060405180910390f35b34801561030357600080fd5b506103306004803603602081101561031a57600080fd5b8101908080359060200190929190505050610ed7565b604051808215151515815260200191505060405180910390f35b34801561035657600080fd5b5061038d6004803603604081101561036d57600080fd5b810190808035906020019092919080359060200190929190505050610f04565b6040518082815260200191505060405180910390f35b610470600480360360608110156103b957600080fd5b810190808035906020019092919080359060200190929190803590602001906401000000008111156103ea57600080fd5b8201836020820111156103fc57600080fd5b8035906020019184600183028401116401000000008311171561041e57600080fd5b91908080601f016020809104026020016040519081016040528093929190818152602001838380828437600081840152601f19601f820116905080830192505050505050509192919290505050611632565b6040518082815260200191505060405180910390f35b34801561049257600080fd5b5061049b61181b565b005b3480156104a957600080fd5b506104d6600480360360208110156104c057600080fd5b81019080803590602001909291905050506118ec565b6040518082815260200191505060405180910390f35b3480156104f857600080fd5b506105256004803603602081101561050f57600080fd5b810190808035906020019092919050505061190c565b6040518080602001828103825283818151815260200191508051906020019060200280838360005b8381101561056857808201518184015260208101905061054d565b505050509050019250505060405180910390f35b34801561058857600080fd5b50610591611b55565b604051808273ffffffffffffffffffffffffffffffffffffffff1673ffffffffffffffffffffffffffffffffffffffff16815260200191505060405180910390f35b3480156105df57600080fd5b506105e8611b7e565b604051808215151515815260200191505060405180910390f35b34801561060e57600080fd5b50610617611b98565b005b34801561062557600080fd5b506106526004803603602081101561063c57600080fd5b8101908080359060200190929190505050611c7c565b604051808273ffffffffffffffffffffffffffffffffffffffff1673ffffffffffffffffffffffffffffffffffffffff16815260200191505060405180910390f35b3480156106a057600080fd5b506106cd600480360360208110156106b757600080fd5b8101908080359060200190929190505050611cbc565b005b3480156106db57600080fd5b506106e46121e4565b005b3480156106f257600080fd5b506106fb6122a6565b005b34801561070957600080fd5b506107406004803603604081101561072057600080fd5b8101908080359060200190929190803590602001909291905050506122b4565b005b34801561074e57600080fd5b5061077b6004803603602081101561076557600080fd5b81019080803590602001909291905050506123d5565b6040518080602001828103825283818151815260200191508051906020019080838360005b838110156107bb5780820151818401526020810190506107a0565b50505050905090810190601f1680156107e85780820380516001836020036101000a031916815260200191505b509250505060405180910390f35b6000809054906101000a900473ffffffffffffffffffffffffffffffffffffffff1673ffffffffffffffffffffffffffffffffffffffff163373ffffffffffffffffffffffffffffffffffffffff161461089b576040517f08c379a000000000000000000000000000000000000000000000000000000000815260040180806020018281038252602981526020018061274a6029913960400191505060405180910390fd5b60008060009054906101000a900473ffffffffffffffffffffffffffffffffffffffff1690508073ffffffffffffffffffffffffffffffffffffffff16ff5b6000809054906101000a900473ffffffffffffffffffffffffffffffffffffffff1673ffffffffffffffffffffffffffffffffffffffff163373ffffffffffffffffffffffffffffffffffffffff161461097f576040517f08c379a000000000000000000000000000000000000000000000000000000000815260040180806020018281038252602981526020018061274a6029913960400191505060405180910390fd5b6001600860016101000a81548160ff021916908315150217905550565b6000809054906101000a900473ffffffffffffffffffffffffffffffffffffffff1673ffffffffffffffffffffffffffffffffffffffff163373ffffffffffffffffffffffffffffffffffffffff1614610a41576040517f08c379a000000000000000000000000000000000000000000000000000000000815260040180806020018281038252602981526020018061274a6029913960400191505060405180910390fd5b6101f48111610ab8576040517f08c379a00000000000000000000000000000000000000000000000000000000081526004018080602001828103825260138152602001807f546f6f206c6f77206f662061206c696d6974210000000000000000000000000081525060200191505060405180910390fd5b8060028190555050565b6000816004600082815260200190815260200160002060050160009054906101000a900460ff16610b5b576040517f08c379a000000000000000000000000000000000000000000000000000000000815260040180806020018281038252600e8152602001807f496e76616c696420546f6b656e2100000000000000000000000000000000000081525060200191505060405180910390fd5b6004600084815260200190815260200160002060030154915050919050565b846004600082815260200190815260200160002060050160009054906101000a900460ff16610c11576040517f08c379a000000000000000000000000000000000000000000000000000000000815260040180806020018281038252600e8152602001807f496e76616c696420546f6b656e2100000000000000000000000000000000000081525060200191505060405180910390fd5b610c19611b7e565b610e82576004600087815260200190815260200160002060010160009054906101000a900473ffffffffffffffffffffffffffffffffffffffff1673ffffffffffffffffffffffffffffffffffffffff163273ffffffffffffffffffffffffffffffffffffffff161415610cd8576040517f08c379a000000000000000000000000000000000000000000000000000000000815260040180806020018281038252603d815260200180612799603d913960400191505060405180910390fd5b600062015180840242019050610cec612525565b6040518060e001604052808881526020018781526020016000151581526020018681526020013273ffffffffffffffffffffffffffffffffffffffff1681526020016001151581526020018381525090508060056000868152602001908152602001600020600082015181600001556020820151816001015560408201518160020160006101000a81548160ff0219169083151502179055506060820151816003015560808201518160040160006101000a81548173ffffffffffffffffffffffffffffffffffffffff021916908373ffffffffffffffffffffffffffffffffffffffff16021790555060a08201518160040160146101000a81548160ff02191690831515021790555060c08201518160050155905050600460008981526020019081526020016000206004018490806001815401808255809150506001900390600052602060002001600090919091909150557f77f0be1b7b6a20a26b6fcd837f949cea9981e096b8d85c1090012c3a0178e61e8885604051808381526020018281526020019250505060405180910390a150505b505050505050565b600060056000838152602001908152602001600020600101549050919050565b60006004600083815260200190815260200160002060050160009054906101000a900460ff169050919050565b60006005600083815260200190815260200160002060020160009054906101000a900460ff169050919050565b6000600860009054906101000a900460ff1615610f89576040517f08c379a000000000000000000000000000000000000000000000000000000000815260040180806020018281038252600e8152602001807f4e6f2072652d656e7472616e637900000000000000000000000000000000000081525060200191505060405180910390fd5b816004600082815260200190815260200160002060050160009054906101000a900460ff16611020576040517f08c379a000000000000000000000000000000000000000000000000000000000815260040180806020018281038252600e8152602001807f496e76616c696420546f6b656e2100000000000000000000000000000000000081525060200191505060405180910390fd5b826004600082815260200190815260200160002060010160009054906101000a900473ffffffffffffffffffffffffffffffffffffffff1673ffffffffffffffffffffffffffffffffffffffff163273ffffffffffffffffffffffffffffffffffffffff16146110db576040517f08c379a00000000000000000000000000000000000000000000000000000000081526004018080602001828103825260248152602001806127266024913960400191505060405180910390fd5b600860019054906101000a900460ff16156110f557600080fd5b600860009054906101000a900460ff1615611178576040517f08c379a000000000000000000000000000000000000000000000000000000000815260040180806020018281038252600e8152602001807f4e6f2072652d656e7472616e637900000000000000000000000000000000000081525060200191505060405180910390fd5b6005600086815260200190815260200160002060040160149054906101000a900460ff1661120e576040517f08c379a000000000000000000000000000000000000000000000000000000000815260040180806020018281038252601b8152602001807f7265717565737420686173206265656e2074616b656e20646f776e000000000081525060200191505060405180910390fd5b6001600860006101000a81548160ff021916908315150217905550600060056000878152602001908152602001600020600101549050600081600460008881526020019081526020016000206003015403905080820360015410156112be576040517f08c379a00000000000000000000000000000000000000000000000000000000081526004018080602001828103825260268152602001806127736026913960400191505060405180910390fd5b600660009054906101000a900473ffffffffffffffffffffffffffffffffffffffff1673ffffffffffffffffffffffffffffffffffffffff1663f5537ede6000809054906101000a900473ffffffffffffffffffffffffffffffffffffffff16600560008b815260200190815260200160002060040160009054906101000a900473ffffffffffffffffffffffffffffffffffffffff168486036040518463ffffffff1660e01b8152600401808473ffffffffffffffffffffffffffffffffffffffff1673ffffffffffffffffffffffffffffffffffffffff1681526020018373ffffffffffffffffffffffffffffffffffffffff1673ffffffffffffffffffffffffffffffffffffffff1681526020018281526020019350505050600060405180830381600087803b1580156113f457600080fd5b505af1158015611408573d6000803e3d6000fd5b505050508082036001600082825403925050819055506000600860006101000a81548160ff0219169083151502179055507f56c2e7e77828864604b77615a940a062264e79b54565402c5ac37aececb8260586600560008a815260200190815260200160002060040160009054906101000a900473ffffffffffffffffffffffffffffffffffffffff16604051808381526020018273ffffffffffffffffffffffffffffffffffffffff1673ffffffffffffffffffffffffffffffffffffffff1681526020019250505060405180910390a1600082600460008981526020019081526020016000206003015403101561151b578060056000898152602001908152602001600020600101819055506115a1565b6005600088815260200190815260200160002060008082016000905560018201600090556002820160006101000a81549060ff021916905560038201600090556004820160006101000a81549073ffffffffffffffffffffffffffffffffffffffff02191690556004820160146101000a81549060ff0219169055600582016000905550505b816004600088815260200190815260200160002060030160008282540392505081905550600160046000888152602001908152602001600020600301541015611625577f518caf9299542d4f85a53e80e73085ad6b4795a354ee002c15312c2b4bcfa616866040518082815260200191505060405180910390a161162486611cbc565b5b8094505050505092915050565b60006002546001541115611691576040517f08c379a000000000000000000000000000000000000000000000000000000000815260040180806020018281038252603d8152602001806127d6603d913960400191505060405180910390fd5b8260016000828254019250508190555060606000600354905060016003600082825401925050819055506116c361257c565b6040518060c001604052808881526020013273ffffffffffffffffffffffffffffffffffffffff16815260200186815260200187815260200184815260200160011515815250905080600460008481526020019081526020016000206000820151816000015560208201518160010160006101000a81548173ffffffffffffffffffffffffffffffffffffffff021916908373ffffffffffffffffffffffffffffffffffffffff160217905550604082015181600201908051906020019061178c9291906125ca565b506060820151816003015560808201518160040190805190602001906117b392919061264a565b5060a08201518160050160006101000a81548160ff0219169083151502179055509050507f0a6b2a25f2764bb23ba81dc1f3c7e5885291c116a26ba73b46c15ed494831741826040518082815260200191505060405180910390a18193505050509392505050565b6000809054906101000a900473ffffffffffffffffffffffffffffffffffffffff1673ffffffffffffffffffffffffffffffffffffffff163373ffffffffffffffffffffffffffffffffffffffff16146118c0576040517f08c379a000000000000000000000000000000000000000000000000000000000815260040180806020018281038252602981526020018061274a6029913960400191505060405180910390fd5b600860019054906101000a900460ff1615600860016101000a81548160ff021916908315150217905550565b600060056000838152602001908152602001600020600301549050919050565b6060816004600082815260200190815260200160002060010160009054906101000a900473ffffffffffffffffffffffffffffffffffffffff1673ffffffffffffffffffffffffffffffffffffffff163273ffffffffffffffffffffffffffffffffffffffff16146119c9576040517f08c379a00000000000000000000000000000000000000000000000000000000081526004018080602001828103825260248152602001806127266024913960400191505060405180910390fd5b826004600082815260200190815260200160002060050160009054906101000a900460ff16611a60576040517f08c379a000000000000000000000000000000000000000000000000000000000815260040180806020018281038252600e8152602001807f496e76616c696420546f6b656e2100000000000000000000000000000000000081525060200191505060405180910390fd5b6060600080905060008090505b60046000888152602001908152602001600020600401805490508160ff161015611b485760056000600460008a81526020019081526020016000206004018360ff1681548110611ab957fe5b9060005260206000200154815260200190815260200160002060040160149054906101000a900460ff1615611b3b57600460008881526020019081526020016000206004018160ff1681548110611b0c57fe5b9060005260206000200154838360ff1681518110611b2657fe5b60200260200101818152505081806001019250505b8080600101915050611a6d565b5081945050505050919050565b60008060009054906101000a900473ffffffffffffffffffffffffffffffffffffffff16905090565b60006007544211611b90576000611b93565b60015b905090565b6000809054906101000a900473ffffffffffffffffffffffffffffffffffffffff1673ffffffffffffffffffffffffffffffffffffffff163373ffffffffffffffffffffffffffffffffffffffff1614611c3d576040517f08c379a000000000000000000000000000000000000000000000000000000000815260040180806020018281038252602981526020018061274a6029913960400191505060405180910390fd5b60008060009054906101000a900473ffffffffffffffffffffffffffffffffffffffff1690508073ffffffffffffffffffffffffffffffffffffffff16ff5b60006005600083815260200190815260200160002060040160009054906101000a900473ffffffffffffffffffffffffffffffffffffffff169050919050565b600860009054906101000a900460ff1615611d3f576040517f08c379a000000000000000000000000000000000000000000000000000000000815260040180806020018281038252600e8152602001807f4e6f2072652d656e7472616e637900000000000000000000000000000000000081525060200191505060405180910390fd5b806004600082815260200190815260200160002060050160009054906101000a900460ff16611dd6576040517f08c379a000000000000000000000000000000000000000000000000000000000815260040180806020018281038252600e8152602001807f496e76616c696420546f6b656e2100000000000000000000000000000000000081525060200191505060405180910390fd5b816004600082815260200190815260200160002060010160009054906101000a900473ffffffffffffffffffffffffffffffffffffffff1673ffffffffffffffffffffffffffffffffffffffff163273ffffffffffffffffffffffffffffffffffffffff1614611e91576040517f08c379a00000000000000000000000000000000000000000000000000000000081526004018080602001828103825260248152602001806127266024913960400191505060405180910390fd5b600860019054906101000a900460ff1615611eab57600080fd5b600860009054906101000a900460ff1615611f2e576040517f08c379a000000000000000000000000000000000000000000000000000000000815260040180806020018281038252600e8152602001807f4e6f2072652d656e7472616e637900000000000000000000000000000000000081525060200191505060405180910390fd5b600460008481526020019081526020016000206000808201600090556001820160006101000a81549073ffffffffffffffffffffffffffffffffffffffff0219169055600282016000611f819190612697565b6003820160009055600482016000611f9991906126df565b6005820160006101000a81549060ff021916905550506001600860006101000a81548160ff0219169083151502179055506004600084815260200190815260200160002060030154600154101561203b576040517f08c379a00000000000000000000000000000000000000000000000000000000081526004018080602001828103825260268152602001806127736026913960400191505060405180910390fd5b600660009054906101000a900473ffffffffffffffffffffffffffffffffffffffff1673ffffffffffffffffffffffffffffffffffffffff1663f5537ede6000809054906101000a900473ffffffffffffffffffffffffffffffffffffffff163260046000888152602001908152602001600020600301546040518463ffffffff1660e01b8152600401808473ffffffffffffffffffffffffffffffffffffffff1673ffffffffffffffffffffffffffffffffffffffff1681526020018373ffffffffffffffffffffffffffffffffffffffff1673ffffffffffffffffffffffffffffffffffffffff1681526020018281526020019350505050600060405180830381600087803b15801561214f57600080fd5b505af1158015612163573d6000803e3d6000fd5b5050505060046000848152602001908152602001600020600301546001600082825403925050819055506000600860006101000a81548160ff0219169083151502179055507f759c7f73934e3d1cb6f132398fccd39cdc1d53fd9b96a0bece8be3740d60f8ab836040518082815260200191505060405180910390a1505050565b6000809054906101000a900473ffffffffffffffffffffffffffffffffffffffff1673ffffffffffffffffffffffffffffffffffffffff163373ffffffffffffffffffffffffffffffffffffffff1614612289576040517f08c379a000000000000000000000000000000000000000000000000000000000815260040180806020018281038252602981526020018061274a6029913960400191505060405180910390fd5b6000600860016101000a81548160ff021916908315150217905550565b620151804201600781905550565b806004600082815260200190815260200160002060050160009054906101000a900460ff1661234b576040517f08c379a000000000000000000000000000000000000000000000000000000000815260040180806020018281038252600e8152602001807f496e76616c696420546f6b656e2100000000000000000000000000000000000081525060200191505060405180910390fd5b6005600084815260200190815260200160002060008082016000905560018201600090556002820160006101000a81549060ff021916905560038201600090556004820160006101000a81549073ffffffffffffffffffffffffffffffffffffffff02191690556004820160146101000a81549060ff021916905560058201600090555050505050565b6060816004600082815260200190815260200160002060050160009054906101000a900460ff1661246e576040517f08c379a000000000000000000000000000000000000000000000000000000000815260040180806020018281038252600e8152602001807f496e76616c696420546f6b656e2100000000000000000000000000000000000081525060200191505060405180910390fd5b600460008481526020019081526020016000206002018054600181600116156101000203166002900480601f0160208091040260200160405190810160405280929190818152602001828054600181600116156101000203166002900480156125185780601f106124ed57610100808354040283529160200191612518565b820191906000526020600020905b8154815290600101906020018083116124fb57829003601f168201915b5050505050915050919050565b6040518060e00160405280600081526020016000815260200160001515815260200160008152602001600073ffffffffffffffffffffffffffffffffffffffff168152602001600015158152602001600081525090565b6040518060c0016040528060008152602001600073ffffffffffffffffffffffffffffffffffffffff1681526020016060815260200160008152602001606081526020016000151581525090565b828054600181600116156101000203166002900490600052602060002090601f016020900481019282601f1061260b57805160ff1916838001178555612639565b82800160010185558215612639579182015b8281111561263857825182559160200191906001019061261d565b5b5090506126469190612700565b5090565b828054828255906000526020600020908101928215612686579160200282015b8281111561268557825182559160200191906001019061266a565b5b5090506126939190612700565b5090565b50805460018160011615610100020316600290046000825580601f106126bd57506126dc565b601f0160209004906000526020600020908101906126db9190612700565b5b50565b50805460008255906000526020600020908101906126fd9190612700565b50565b61272291905b8082111561271e576000816000905550600101612706565b5090565b9056fe596f7520617265206e6f742074686520646f6e6f72206f66207468697320746f6b656e21596f7520617265206e6f7420616c6c6f77656420746f2075736520746869732066756e6374696f6e21496e73756666696369656e742062616c616e636520696e20636f6e747261637420706f6f6c21596f752063616e6e6f74207265717565737420666f7220796f7572206f776e20746f6b656e2c2074727920756e6c697374696e6720696e737465616421546865206c696d6974656420616d6f756e74206f66204554482073746f72656420696e207468697320636f6e7472616374206973207265616368656421a26469706673582212206afb613943efb861570a34650743488e7f418f299d122d2a9fea7e267fdb9c4d64736f6c63430006010033",
  "source": "// SPDX-License-Identifier: MIT\npragma solidity >=0.6.0;\nimport \"./Token.sol\";\n\ncontract DonationMarket {\n    address owner;\n    uint256 contractEthBalance;\n    uint256 balanceLimit;\n    uint256 listingCount;\n    mapping(uint256 => listing) Listings;\n    mapping (uint256 => state) ListingRequests; \n    Token tokenContract;\n    uint contract_maintenance; // time tracker, deprecate the withdrawToken() and check for expiration daily\n\n    struct listing {\n        uint256 donorId;\n        address donorAddress;\n        string category;\n        uint256 amt;\n        uint256[] requestIdList;\n        bool isValue;\n\n    }\n\n    struct state {\n        uint256 recipientId;\n        uint256 requestAmt;\n        bool isCompleted;\n        uint256 deadline;\n        address recipientAddress;\n        bool isValue;\n        uint expired;\n    }\n    \n\n    constructor(Token tokenAddress) public {\n        tokenContract = tokenAddress;\n        owner = msg.sender;\n        balanceLimit = 10000;\n        autoDeprecate(); // set daily contract check\n    }\n\n\n    //Access Restrictions\n    modifier tokenDonorOnly(uint256 listingId) {\n        require(tx.origin == Listings[listingId].donorAddress, \"You are not the donor of this token!\");\n        _;\n    }\n\n\n    modifier validTokenOnly(uint256 listingId) {\n        require(Listings[listingId].isValue, \"Invalid Token!\");\n         _;\n    }\n\n    modifier ownerOnly() {\n        require(msg.sender == owner, \"You are not allowed to use this function!\");\n         _;\n    }\n\n    //Security Functions \n\n    bool internal locked;\n    bool isStopped = false;\n\n    modifier noReentrancy() {\n        require(!locked, \"No re-entrancy\");\n        _;\n    }\n\n\n    modifier stoppedInEmergency {\n        require(!isStopped);\n        _;\n    }\n\n    //Emergency Stop\n    function stopContract() public ownerOnly() {\n        isStopped = true;\n    }\n\n    function resumeContract() public  ownerOnly()  {\n        isStopped = false;\n    }\n\n    // deprecate daily to check if the token has expired before allowing withdrawal of tokens\n    function autoDeprecate() public {\n        contract_maintenance = block.timestamp + 1 days;\n    }\n\n    function hasExpired() public view returns (bool) {\n        return block.timestamp > contract_maintenance ? true : false;\n    }\n\n    modifier isActive {\n        if (! hasExpired()) _;\n    }\n\n    modifier whenDeprecated {\n        if (hasExpired()) _;\n    }\n\n    //setter function for contract balance limit\n    function setBalanceLimit(uint256 newLimit) public  ownerOnly() {\n        require(newLimit >500 ,\"Too low of a limit!\");\n        balanceLimit = newLimit;\n        \n    }\n    \n    function selfDestruct() public ownerOnly() {\n        address payable addr = payable(owner);\n        selfdestruct(addr); \n    }\n\n    //Events\n    event transferred(uint256 listingId, address recipient);\n    event tokenUnlisting(uint256 listingId);\n    event requestAdded(uint256 listingId, uint256 requestId);\n    event tokenCreated(uint256 listingId);\n    event tokenUnlisted(uint256 listingId); \n\n\n    //Automatic Deprecation of listing and unlisting (check the deadline)\n    function autoUnlist() internal whenDeprecated {\n        for (uint listId; listId < listingCount; listId++) {\n            for (uint req; req < Listings[listId].requestIdList.length; req++) {\n                if (block.timestamp > ListingRequests[req].expired) {\n                    cancelRequest(req, listId); // request has expired, removed request\n                }\n            }\n        }\n        autoDeprecate();\n    }\n\n    //Core Functions\n    function cancelRequest(uint256 requestId, uint256 listingId) public validTokenOnly(listingId) {\n        delete ListingRequests[requestId];\n    }\n\n    function unlist(uint256 listingId) public  noReentrancy() validTokenOnly(listingId) tokenDonorOnly(listingId) stoppedInEmergency {\n        require(!locked, \"No re-entrancy\");\n        //TODO: unlist from Donation Market\n        delete Listings[listingId];\n        locked = true;\n        require(contractEthBalance >= Listings[listingId].amt, \"Insufficient balance in contract pool!\");\n        tokenContract.transferToken(owner, tx.origin, Listings[listingId].amt);\n        contractEthBalance -= Listings[listingId].amt;\n        locked = false;\n        emit tokenUnlisted(listingId);\n      \n        \n    }\n    \n\n    //approve function - send eth to recipients, minus amt from token \n    function approve(uint256 requestId, uint256 listingId) public  noReentrancy() validTokenOnly(listingId) tokenDonorOnly(listingId) stoppedInEmergency returns (uint256){\n        require(!locked, \"No re-entrancy\");\n        require(ListingRequests[requestId].isValue, \"request has been taken down\");\n        //transfer tokens\n        locked = true;\n        uint256 amount = ListingRequests[requestId].requestAmt;\n        uint256 leftoverAmt= Listings[listingId].amt - amount;\n        require(contractEthBalance >= amount - leftoverAmt, \"Insufficient balance in contract pool!\");\n        tokenContract.transferToken(owner, ListingRequests[requestId].recipientAddress, amount - leftoverAmt);\n        contractEthBalance -= amount - leftoverAmt;\n        locked = false;\n        emit transferred(listingId, ListingRequests[requestId].recipientAddress);\n        // transfer end, check \n        if (Listings[listingId].amt - amount < 0) {\n            ListingRequests[requestId].requestAmt = leftoverAmt; \n       \n        } else {\n            delete ListingRequests[requestId]; \n        }\n        Listings[listingId].amt -= amount;\n        if (Listings[listingId].amt  < 1) { \n            emit tokenUnlisting(listingId);\n            unlist(listingId);\n        }\n        return leftoverAmt;\n\n    \n\n    }\n    \n    //add request to listing\n    function addRequest(uint256 listingId, uint256 recipientId, uint256 amt , uint256 deadline, uint256 requestId) public  validTokenOnly(listingId) isActive {\n        require(tx.origin != Listings[listingId].donorAddress, \"You cannot request for your own token, try unlisting instead!\");\n        uint expirationTime = block.timestamp + deadline * (1 days);\n        state memory newState = state(recipientId, amt, false, deadline, tx.origin, true, expirationTime);\n        ListingRequests[requestId] = newState;\n        Listings[listingId].requestIdList.push(requestId);\n        emit requestAdded(listingId, requestId);\n    }\n\n\n    // create token + list \n    function createToken(uint256 donorId, uint256 amt, string memory category) public payable returns (uint256) {\n        require(contractEthBalance <= balanceLimit, \"The limited amount of ETH stored in this contract is reached!\");\n        contractEthBalance += amt;\n        uint256[] memory recipientList;\n        uint256 listingId = listingCount;\n        listingCount += 1;\n        listing memory newToken = listing(donorId,tx.origin, category, amt,recipientList, true);\n        Listings[listingId]= newToken;\n        emit tokenCreated(listingId);\n        return listingId;\n\n    }\n\n\n\n\n    //Getter Functions\n    //getter function for the amt of each token\n     function getTokenAmt(uint256 listingId) public view  validTokenOnly(listingId) returns (uint256) {\n        return Listings[listingId].amt;\n    }\n\n\n    //getter function for the requests in each listing\n    function getRecipientRequest(uint256 listingId) public view tokenDonorOnly(listingId) validTokenOnly(listingId) returns (uint256[] memory) {\n        uint256[] memory activeRequest;\n        uint8 counter = 0;\n        for (uint8 i=0; i < Listings[listingId].requestIdList.length;  i++) {\n            if (ListingRequests[Listings[listingId].requestIdList[i]].isValue) {\n                activeRequest[counter] =  Listings[listingId].requestIdList[i];\n                counter ++;\n            }\n        }\n        return activeRequest;\n    }\n\n    //getter function of status for the each request of each token\n    function  getStatus(uint256 requestId) public view returns (bool) {\n        return  ListingRequests[requestId].isCompleted;\n    }\n\n    //getter function of deadline for the each request of each token\n    function getDeadline(uint256 requestId) public view  returns (uint256) {\n        return   ListingRequests[requestId].deadline;\n    }\n\n        //getter function of request for the each request of each token\n    function  getRequestAmt(uint256 requestId) public view  returns (uint256) {\n        return  ListingRequests[requestId].requestAmt;\n    }\n    \n          //getter function of address for the each request of each token\n    function  getAddress(uint256 requestId) public view returns (address) {\n        return  ListingRequests[requestId].recipientAddress;\n    }\n    \n\n    //getter function for token category for matching algorithm \n    function getCategory(uint256 listingId) public view validTokenOnly(listingId) returns (string memory) {\n        return Listings[listingId].category;\n    }\n\n    //getter function for owner\n    function getOwner() public view returns(address) {\n        return owner;\n    }\n\n    //getter function to check if lsiting still avaliable \n    function checkListing(uint256 listingId) public view returns (bool) {\n        return Listings[listingId].isValue;\n    }\n    \n        // self-destruct function \n     function destroyContract() public ownerOnly {\n        address payable receiver = payable(owner);\n         selfdestruct(receiver);\n     }\n\n    //Emergency \n    function toggleContactStopped() public  ownerOnly {\n        isStopped= !isStopped;\n    }\n}",
  "sourcePath": "/Users/oliviama/AY21:22 sem 2/IS4302/project/contracts/DonationMarket.sol",
  "compiler": {
    "name": "solc",
    "version": "0.6.1+commit.e6f7d5a4.Emscripten.clang"
  },
  "schemaVersion": "3.4.4",
  "updatedAt": "2022-03-29T15:51:56.253Z",
  "devdoc": {
    "methods": {}
  },
  "userdoc": {
    "methods": {}
  }
}