{
  "contractName": "DonationMarketStorage",
  "abi": [
    {
      "inputs": [],
      "name": "getOwner",
      "outputs": [
        {
          "internalType": "address",
          "name": "",
          "type": "address"
        }
      ],
      "stateMutability": "view",
      "type": "function"
    },
    {
      "inputs": [
        {
          "internalType": "uint256",
          "name": "listingId",
          "type": "uint256"
        },
        {
          "internalType": "uint256",
          "name": "donorId",
          "type": "uint256"
        },
        {
          "internalType": "address",
          "name": "donorAddress",
          "type": "address"
        },
        {
          "internalType": "string",
          "name": "category",
          "type": "string"
        },
        {
          "internalType": "uint256",
          "name": "amt",
          "type": "uint256"
        }
      ],
      "name": "addListing",
      "outputs": [],
      "stateMutability": "nonpayable",
      "type": "function"
    },
    {
      "inputs": [
        {
          "internalType": "uint256",
          "name": "listingId",
          "type": "uint256"
        }
      ],
      "name": "getListingRequests",
      "outputs": [
        {
          "internalType": "uint256[]",
          "name": "",
          "type": "uint256[]"
        }
      ],
      "stateMutability": "view",
      "type": "function"
    },
    {
      "inputs": [
        {
          "internalType": "uint256",
          "name": "listingId",
          "type": "uint256"
        }
      ],
      "name": "getListingAmount",
      "outputs": [
        {
          "internalType": "uint256",
          "name": "",
          "type": "uint256"
        }
      ],
      "stateMutability": "view",
      "type": "function"
    },
    {
      "inputs": [
        {
          "internalType": "uint256",
          "name": "listingId",
          "type": "uint256"
        }
      ],
      "name": "getListingDonorAddress",
      "outputs": [
        {
          "internalType": "address",
          "name": "",
          "type": "address"
        }
      ],
      "stateMutability": "view",
      "type": "function"
    },
    {
      "inputs": [
        {
          "internalType": "uint256",
          "name": "listingId",
          "type": "uint256"
        }
      ],
      "name": "getListingCategory",
      "outputs": [
        {
          "internalType": "string",
          "name": "",
          "type": "string"
        }
      ],
      "stateMutability": "view",
      "type": "function"
    },
    {
      "inputs": [
        {
          "internalType": "uint256",
          "name": "listingId",
          "type": "uint256"
        }
      ],
      "name": "checkListing",
      "outputs": [
        {
          "internalType": "bool",
          "name": "",
          "type": "bool"
        }
      ],
      "stateMutability": "view",
      "type": "function"
    },
    {
      "inputs": [
        {
          "internalType": "uint256",
          "name": "listingId",
          "type": "uint256"
        }
      ],
      "name": "removeListing",
      "outputs": [],
      "stateMutability": "nonpayable",
      "type": "function"
    },
    {
      "inputs": [
        {
          "internalType": "uint256",
          "name": "listingId",
          "type": "uint256"
        },
        {
          "internalType": "uint256",
          "name": "amount",
          "type": "uint256"
        },
        {
          "internalType": "string",
          "name": "operation",
          "type": "string"
        }
      ],
      "name": "modifyListingAmount",
      "outputs": [],
      "stateMutability": "nonpayable",
      "type": "function"
    },
    {
      "inputs": [
        {
          "internalType": "uint256",
          "name": "requestId",
          "type": "uint256"
        },
        {
          "internalType": "uint256",
          "name": "listingId",
          "type": "uint256"
        },
        {
          "internalType": "uint256",
          "name": "recipientId",
          "type": "uint256"
        },
        {
          "internalType": "uint256",
          "name": "requestAmt",
          "type": "uint256"
        },
        {
          "internalType": "uint256",
          "name": "deadline",
          "type": "uint256"
        },
        {
          "internalType": "address",
          "name": "recipientAddress",
          "type": "address"
        },
        {
          "internalType": "uint256",
          "name": "expired",
          "type": "uint256"
        }
      ],
      "name": "addRequest",
      "outputs": [],
      "stateMutability": "nonpayable",
      "type": "function"
    },
    {
      "inputs": [
        {
          "internalType": "uint256",
          "name": "requestId",
          "type": "uint256"
        }
      ],
      "name": "getRequestStatus",
      "outputs": [
        {
          "internalType": "bool",
          "name": "",
          "type": "bool"
        }
      ],
      "stateMutability": "view",
      "type": "function"
    },
    {
      "inputs": [
        {
          "internalType": "uint256",
          "name": "requestId",
          "type": "uint256"
        }
      ],
      "name": "getRequestDeadline",
      "outputs": [
        {
          "internalType": "uint256",
          "name": "",
          "type": "uint256"
        }
      ],
      "stateMutability": "view",
      "type": "function"
    },
    {
      "inputs": [
        {
          "internalType": "uint256",
          "name": "requestId",
          "type": "uint256"
        }
      ],
      "name": "getRequestAmt",
      "outputs": [
        {
          "internalType": "uint256",
          "name": "",
          "type": "uint256"
        }
      ],
      "stateMutability": "view",
      "type": "function"
    },
    {
      "inputs": [
        {
          "internalType": "uint256",
          "name": "requestId",
          "type": "uint256"
        }
      ],
      "name": "getRequestRecipientAddress",
      "outputs": [
        {
          "internalType": "address",
          "name": "",
          "type": "address"
        }
      ],
      "stateMutability": "view",
      "type": "function"
    },
    {
      "inputs": [
        {
          "internalType": "uint256",
          "name": "requestId",
          "type": "uint256"
        }
      ],
      "name": "getRequestExpiry",
      "outputs": [
        {
          "internalType": "uint256",
          "name": "",
          "type": "uint256"
        }
      ],
      "stateMutability": "view",
      "type": "function"
    },
    {
      "inputs": [
        {
          "internalType": "uint256",
          "name": "requestId",
          "type": "uint256"
        }
      ],
      "name": "checkRequest",
      "outputs": [
        {
          "internalType": "bool",
          "name": "",
          "type": "bool"
        }
      ],
      "stateMutability": "view",
      "type": "function"
    },
    {
      "inputs": [
        {
          "internalType": "uint256",
          "name": "requestId",
          "type": "uint256"
        }
      ],
      "name": "removeRequest",
      "outputs": [],
      "stateMutability": "nonpayable",
      "type": "function"
    }
  ],
  "bytecode": "0x6080604052336000806101000a81548173ffffffffffffffffffffffffffffffffffffffff021916908373ffffffffffffffffffffffffffffffffffffffff16021790555034801561005057600080fd5b50611195806100606000396000f3fe608060405234801561001057600080fd5b506004361061010b5760003560e01c80635443b28a116100a2578063a95dc2b911610071578063a95dc2b91461052e578063c1b7c7d514610627578063d8a4676f146106a7578063f7b0a0ee146106ed578063fc56ded91461075b5761010b565b80635443b28a14610389578063652dc6d8146103cf578063893d20e81461043d578063965f438c146104875761010b565b806341685972116100de57806341685972146102a957806344786fc3146102eb578063479ad4c31461031957806352d37af0146103475761010b565b80630f3d08061461011057806321206d41146101df57806340b56aac1461022157806340c5799814610263575b600080fd5b6101dd6004803603606081101561012657600080fd5b8101908080359060200190929190803590602001909291908035906020019064010000000081111561015757600080fd5b82018360208201111561016957600080fd5b8035906020019184600183028401116401000000008311171561018b57600080fd5b91908080601f016020809104026020016040519081016040528093929190818152602001838380828437600081840152601f19601f8201169050808301925050505050505091929192905050506107de565b005b61020b600480360360208110156101f557600080fd5b81019080803590602001909291905050506108f0565b6040518082815260200191505060405180910390f35b61024d6004803603602081101561023757600080fd5b8101908080359060200190929190505050610910565b6040518082815260200191505060405180910390f35b61028f6004803603602081101561027957600080fd5b8101908080359060200190929190505050610930565b604051808215151515815260200191505060405180910390f35b6102d5600480360360208110156102bf57600080fd5b810190808035906020019092919050505061095d565b6040518082815260200191505060405180910390f35b6103176004803603602081101561030157600080fd5b810190808035906020019092919050505061097d565b005b6103456004803603602081101561032f57600080fd5b8101908080359060200190929190505050610a05565b005b6103736004803603602081101561035d57600080fd5b8101908080359060200190929190505050610a89565b6040518082815260200191505060405180910390f35b6103b56004803603602081101561039f57600080fd5b8101908080359060200190929190505050610aa9565b604051808215151515815260200191505060405180910390f35b6103fb600480360360208110156103e557600080fd5b8101908080359060200190929190505050610ad6565b604051808273ffffffffffffffffffffffffffffffffffffffff1673ffffffffffffffffffffffffffffffffffffffff16815260200191505060405180910390f35b610445610b16565b604051808273ffffffffffffffffffffffffffffffffffffffff1673ffffffffffffffffffffffffffffffffffffffff16815260200191505060405180910390f35b6104b36004803603602081101561049d57600080fd5b8101908080359060200190929190505050610b3f565b6040518080602001828103825283818151815260200191508051906020019080838360005b838110156104f35780820151818401526020810190506104d8565b50505050905090810190601f1680156105205780820380516001836020036101000a031916815260200191505b509250505060405180910390f35b610625600480360360a081101561054457600080fd5b810190808035906020019092919080359060200190929190803573ffffffffffffffffffffffffffffffffffffffff1690602001909291908035906020019064010000000081111561059557600080fd5b8201836020820111156105a757600080fd5b803590602001918460018302840111640100000000831117156105c957600080fd5b91908080601f016020809104026020016040519081016040528093929190818152602001838380828437600081840152601f19601f82011690508083019250505050505050919291929080359060200190929190505050610bf7565b005b6106a5600480360360e081101561063d57600080fd5b810190808035906020019092919080359060200190929190803590602001909291908035906020019092919080359060200190929190803573ffffffffffffffffffffffffffffffffffffffff16906020019092919080359060200190929190505050610d1e565b005b6106d3600480360360208110156106bd57600080fd5b8101908080359060200190929190505050610e84565b604051808215151515815260200191505060405180910390f35b6107196004803603602081101561070357600080fd5b8101908080359060200190929190505050610eb1565b604051808273ffffffffffffffffffffffffffffffffffffffff1673ffffffffffffffffffffffffffffffffffffffff16815260200191505060405180910390f35b6107876004803603602081101561077157600080fd5b8101908080359060200190929190505050610ef1565b6040518080602001828103825283818151815260200191508051906020019060200280838360005b838110156107ca5780820151818401526020810190506107af565b505050509050019250505060405180910390f35b60405160200180807f2b00000000000000000000000000000000000000000000000000000000000000815250600101905060405160208183030381529060405280519060200120816040516020018082805190602001908083835b6020831061085c5780518252602082019150602081019050602083039250610839565b6001836020036101000a0380198251168184511680821785525050505050509050019150506040516020818303038152906040528051906020012014156108c6578160016000858152602001908152602001600020600301600082825401925050819055506108eb565b8160016000858152602001908152602001600020600301600082825403925050819055505b505050565b600060026000838152602001908152602001600020600301549050919050565b600060016000838152602001908152602001600020600301549050919050565b60006002600083815260200190815260200160002060040160149054906101000a900460ff169050919050565b600060026000838152602001908152602001600020600101549050919050565b6002600082815260200190815260200160002060008082016000905560018201600090556002820160006101000a81549060ff021916905560038201600090556004820160006101000a81549073ffffffffffffffffffffffffffffffffffffffff02191690556004820160146101000a81549060ff02191690556005820160009055505050565b600160008281526020019081526020016000206000808201600090556001820160006101000a81549073ffffffffffffffffffffffffffffffffffffffff0219169055600282016000610a589190610f5f565b6003820160009055600482016000610a709190610fa7565b6005820160006101000a81549060ff0219169055505050565b600060026000838152602001908152602001600020600501549050919050565b60006001600083815260200190815260200160002060050160009054906101000a900460ff169050919050565b60006002600083815260200190815260200160002060040160009054906101000a900473ffffffffffffffffffffffffffffffffffffffff169050919050565b60008060009054906101000a900473ffffffffffffffffffffffffffffffffffffffff16905090565b6060600160008381526020019081526020016000206002018054600181600116156101000203166002900480601f016020809104026020016040519081016040528092919081815260200182805460018160011615610100020316600290048015610beb5780601f10610bc057610100808354040283529160200191610beb565b820191906000526020600020905b815481529060010190602001808311610bce57829003601f168201915b50505050509050919050565b6060610c01610fc8565b6040518060c001604052808781526020018673ffffffffffffffffffffffffffffffffffffffff16815260200185815260200184815260200183815260200160011515815250905080600160008981526020019081526020016000206000820151816000015560208201518160010160006101000a81548173ffffffffffffffffffffffffffffffffffffffff021916908373ffffffffffffffffffffffffffffffffffffffff1602179055506040820151816002019080519060200190610cca929190611016565b50606082015181600301556080820151816004019080519060200190610cf1929190611096565b5060a08201518160050160006101000a81548160ff02191690831515021790555090505050505050505050565b610d266110e3565b6040518060e001604052808781526020018681526020016000151581526020018581526020018473ffffffffffffffffffffffffffffffffffffffff16815260200160011515815260200183815250905080600260008a8152602001908152602001600020600082015181600001556020820151816001015560408201518160020160006101000a81548160ff0219169083151502179055506060820151816003015560808201518160040160006101000a81548173ffffffffffffffffffffffffffffffffffffffff021916908373ffffffffffffffffffffffffffffffffffffffff16021790555060a08201518160040160146101000a81548160ff02191690831515021790555060c08201518160050155905050600160008881526020019081526020016000206004018890806001815401808255809150506001900390600052602060002001600090919091909150555050505050505050565b60006002600083815260200190815260200160002060020160009054906101000a900460ff169050919050565b60006001600083815260200190815260200160002060010160009054906101000a900473ffffffffffffffffffffffffffffffffffffffff169050919050565b606060016000838152602001908152602001600020600401805480602002602001604051908101604052809291908181526020018280548015610f5357602002820191906000526020600020905b815481526020019060010190808311610f3f575b50505050509050919050565b50805460018160011615610100020316600290046000825580601f10610f855750610fa4565b601f016020900490600052602060002090810190610fa3919061113a565b5b50565b5080546000825590600052602060002090810190610fc5919061113a565b50565b6040518060c0016040528060008152602001600073ffffffffffffffffffffffffffffffffffffffff1681526020016060815260200160008152602001606081526020016000151581525090565b828054600181600116156101000203166002900490600052602060002090601f016020900481019282601f1061105757805160ff1916838001178555611085565b82800160010185558215611085579182015b82811115611084578251825591602001919060010190611069565b5b509050611092919061113a565b5090565b8280548282559060005260206000209081019282156110d2579160200282015b828111156110d15782518255916020019190600101906110b6565b5b5090506110df919061113a565b5090565b6040518060e00160405280600081526020016000815260200160001515815260200160008152602001600073ffffffffffffffffffffffffffffffffffffffff168152602001600015158152602001600081525090565b61115c91905b80821115611158576000816000905550600101611140565b5090565b9056fea26469706673582212207ac25dfc1385784252d908fd58ea8202e7955bc8c0116ef31f778e718feec93e64736f6c63430006010033",
  "source": "// SPDX-License-Identifier: MIT\npragma solidity >=0.6.1;\n\ncontract DonationMarketStorage {\n\n    struct listing {\n        uint256 donorId;\n        address donorAddress;\n        string category;\n        uint256 amt;\n        uint256[] requestIdList;\n        bool isValue;\n\n    }\n\n    struct state {\n        uint256 recipientId;\n        uint256 requestAmt;\n        bool isCompleted;\n        uint256 deadline;\n        address recipientAddress;\n        bool isValue;\n        uint expired;\n    }\n\n    address owner = msg.sender; // set deployer as owner of storage\n    mapping(uint256 => listing) Listings;\n    mapping (uint256 => state) ListingRequests; \n\n    //getter function for owner\n    function getOwner() public view returns(address) {\n        return owner;\n    }\n\n    // LISTING LEVEL\n\n    // add new listing to mapping\n    function addListing(uint256 listingId, uint256 donorId, address donorAddress, string memory category, uint256 amt) public {\n        uint256[] memory recipientList;\n        listing memory newListing = listing(donorId, donorAddress, category, amt, recipientList, true);\n        Listings[listingId]= newListing;\n    }\n\n    // getter function to return list of requests belong to listing\n    function getListingRequests(uint256 listingId) public view returns (uint256[] memory) {\n        return Listings[listingId].requestIdList;\n    }\n\n    // getter function to return listing amount\n    function getListingAmount(uint256 listingId) public view returns (uint256) {\n        return Listings[listingId].amt;\n    }\n\n    // getter function to return listing's donor address\n    function getListingDonorAddress(uint256 listingId) public view returns (address) {\n        return Listings[listingId].donorAddress;\n    }\n\n    // getter function to return listing category\n    function getListingCategory(uint256 listingId) public view returns (string memory) {\n        return Listings[listingId].category;\n    }\n\n    //getter function to check if lsiting still avaliable \n    function checkListing(uint256 listingId) public view returns (bool) {\n        return Listings[listingId].isValue;\n    }\n    \n    //setter function to remove request from mapping\n    function removeListing(uint256 listingId) public {\n        delete Listings[listingId];\n    }\n\n    // modify listing amount, operation = \"+\" for credit, operation = \"-\" for debit\n    function modifyListingAmount (uint256 listingId, uint256 amount, string memory operation) public {\n        if (keccak256(abi.encodePacked(operation)) == keccak256(abi.encodePacked(\"+\"))) {\n            Listings[listingId].amt += amount;\n        } else {\n            Listings[listingId].amt -= amount;\n        }\n    }\n\n    // REQUEST LEVEL\n\n    // add new request to mapping and to corresponding listing\n    function addRequest(uint256 requestId, uint256 listingId, uint256 recipientId, uint256 requestAmt,  uint256 deadline, address recipientAddress, uint expired) public {\n        state memory newState = state(recipientId, requestAmt, false, deadline, recipientAddress, true, expired);\n        ListingRequests[requestId] = newState;\n        Listings[listingId].requestIdList.push(requestId);\n    }\n\n    //getter function of status for the each request of each listing\n    function getRequestStatus(uint256 requestId) public view returns (bool) {\n        return ListingRequests[requestId].isCompleted;\n    }\n\n    //getter function of deadline for the each request of each listing\n    function getRequestDeadline(uint256 requestId) public view  returns (uint256) {\n        return ListingRequests[requestId].deadline;\n    }\n\n    //getter function of request for the each request of each listing\n    function getRequestAmt(uint256 requestId) public view  returns (uint256) {\n        return ListingRequests[requestId].requestAmt;\n    }\n    \n    //getter function of address for the each request of each listing\n    function getRequestRecipientAddress(uint256 requestId) public view returns (address) {\n        return ListingRequests[requestId].recipientAddress;\n    }\n\n    //getter function of request expiry\n    function getRequestExpiry(uint256 requestId) public view returns (uint) {\n        return ListingRequests[requestId].expired;\n    }\n\n    //getter function to check if request still avaliable \n    function checkRequest(uint256 requestId) public view returns (bool) {\n        return ListingRequests[requestId].isValue;\n    }\n\n    //setter function to remove request from mapping\n    function removeRequest(uint256 requestId) public {\n        delete ListingRequests[requestId];\n    }\n\n}",
  "sourcePath": "/Users/oliviama/AY21:22 sem 2/IS4302/project/contracts/DonationMarketStorage.sol",
  "compiler": {
    "name": "solc",
    "version": "0.6.1+commit.e6f7d5a4.Emscripten.clang"
  },
  "schemaVersion": "3.4.4",
  "updatedAt": "2022-04-09T05:06:33.209Z",
  "devdoc": {
    "methods": {}
  },
  "userdoc": {
    "methods": {}
  }
}