{
  "contractName": "DonationMarket",
  "abi": [
    {
      "inputs": [
        {
          "internalType": "contract Token",
          "name": "tokenAddress",
          "type": "address"
        },
        {
          "internalType": "contract DonationMarketStorage",
          "name": "storageAddress",
          "type": "address"
        }
      ],
      "stateMutability": "nonpayable",
      "type": "constructor"
    },
    {
      "anonymous": false,
      "inputs": [
        {
          "indexed": false,
          "internalType": "uint256",
          "name": "listingId",
          "type": "uint256"
        }
      ],
      "name": "listingCreated",
      "type": "event"
    },
    {
      "anonymous": false,
      "inputs": [
        {
          "indexed": false,
          "internalType": "uint256",
          "name": "listingId",
          "type": "uint256"
        }
      ],
      "name": "listingUnlisted",
      "type": "event"
    },
    {
      "anonymous": false,
      "inputs": [
        {
          "indexed": false,
          "internalType": "uint256",
          "name": "listingId",
          "type": "uint256"
        }
      ],
      "name": "listingUnlisting",
      "type": "event"
    },
    {
      "anonymous": false,
      "inputs": [
        {
          "indexed": false,
          "internalType": "uint256",
          "name": "listingId",
          "type": "uint256"
        },
        {
          "indexed": false,
          "internalType": "uint256",
          "name": "requestId",
          "type": "uint256"
        }
      ],
      "name": "requestAdded",
      "type": "event"
    },
    {
      "anonymous": false,
      "inputs": [
        {
          "indexed": false,
          "internalType": "uint256",
          "name": "listingId",
          "type": "uint256"
        },
        {
          "indexed": false,
          "internalType": "address",
          "name": "recipient",
          "type": "address"
        }
      ],
      "name": "transferred",
      "type": "event"
    },
    {
      "inputs": [],
      "name": "toggleContactStopped",
      "outputs": [],
      "stateMutability": "nonpayable",
      "type": "function"
    },
    {
      "inputs": [],
      "name": "autoDeprecate",
      "outputs": [],
      "stateMutability": "nonpayable",
      "type": "function"
    },
    {
      "inputs": [],
      "name": "hasExpired",
      "outputs": [
        {
          "internalType": "bool",
          "name": "",
          "type": "bool"
        }
      ],
      "stateMutability": "view",
      "type": "function",
      "constant": true
    },
    {
      "inputs": [],
      "name": "selfDestruct",
      "outputs": [],
      "stateMutability": "nonpayable",
      "type": "function"
    },
    {
      "inputs": [
        {
          "internalType": "uint256",
          "name": "requestId",
          "type": "uint256"
        },
        {
          "internalType": "uint256",
          "name": "listingId",
          "type": "uint256"
        }
      ],
      "name": "cancelRequest",
      "outputs": [],
      "stateMutability": "nonpayable",
      "type": "function"
    },
    {
      "inputs": [
        {
          "internalType": "uint256",
          "name": "listingId",
          "type": "uint256"
        }
      ],
      "name": "unlist",
      "outputs": [],
      "stateMutability": "nonpayable",
      "type": "function"
    },
    {
      "inputs": [
        {
          "internalType": "uint256",
          "name": "requestId",
          "type": "uint256"
        },
        {
          "internalType": "uint256",
          "name": "listingId",
          "type": "uint256"
        }
      ],
      "name": "approve",
      "outputs": [],
      "stateMutability": "nonpayable",
      "type": "function"
    },
    {
      "inputs": [
        {
          "internalType": "uint256",
          "name": "listingId",
          "type": "uint256"
        },
        {
          "internalType": "uint256",
          "name": "recipientId",
          "type": "uint256"
        },
        {
          "internalType": "uint256",
          "name": "amt",
          "type": "uint256"
        },
        {
          "internalType": "uint256",
          "name": "deadline",
          "type": "uint256"
        },
        {
          "internalType": "uint256",
          "name": "requestId",
          "type": "uint256"
        }
      ],
      "name": "addRequest",
      "outputs": [],
      "stateMutability": "nonpayable",
      "type": "function"
    },
    {
      "inputs": [
        {
          "internalType": "uint256",
          "name": "donorId",
          "type": "uint256"
        },
        {
          "internalType": "uint256",
          "name": "amt",
          "type": "uint256"
        },
        {
          "internalType": "string",
          "name": "category",
          "type": "string"
        }
      ],
      "name": "createListing",
      "outputs": [
        {
          "internalType": "uint256",
          "name": "",
          "type": "uint256"
        }
      ],
      "stateMutability": "nonpayable",
      "type": "function"
    },
    {
      "inputs": [
        {
          "internalType": "uint256",
          "name": "listingId",
          "type": "uint256"
        }
      ],
      "name": "getRecipientRequest",
      "outputs": [
        {
          "internalType": "uint256[]",
          "name": "",
          "type": "uint256[]"
        }
      ],
      "stateMutability": "view",
      "type": "function",
      "constant": true
    },
    {
      "inputs": [
        {
          "internalType": "uint256",
          "name": "listingId",
          "type": "uint256"
        }
      ],
      "name": "getCategory",
      "outputs": [
        {
          "internalType": "string",
          "name": "",
          "type": "string"
        }
      ],
      "stateMutability": "view",
      "type": "function",
      "constant": true
    },
    {
      "inputs": [
        {
          "internalType": "uint256",
          "name": "listingId",
          "type": "uint256"
        }
      ],
      "name": "checkListing",
      "outputs": [
        {
          "internalType": "bool",
          "name": "",
          "type": "bool"
        }
      ],
      "stateMutability": "view",
      "type": "function",
      "constant": true
    },
    {
      "inputs": [],
      "name": "getOwner",
      "outputs": [
        {
          "internalType": "address",
          "name": "",
          "type": "address"
        }
      ],
      "stateMutability": "view",
      "type": "function",
      "constant": true
    },
    {
      "inputs": [],
      "name": "getAllListings",
      "outputs": [
        {
          "internalType": "uint256[]",
          "name": "",
          "type": "uint256[]"
        }
      ],
      "stateMutability": "view",
      "type": "function",
      "constant": true
    },
    {
      "inputs": [
        {
          "internalType": "uint256",
          "name": "listingId",
          "type": "uint256"
        }
      ],
      "name": "getActiveRequest",
      "outputs": [
        {
          "internalType": "uint256[]",
          "name": "",
          "type": "uint256[]"
        }
      ],
      "stateMutability": "view",
      "type": "function",
      "constant": true
    }
  ],
  "bytecode": "0x60806040526000600460016101000a81548160ff0219169083151502179055503480156200002c57600080fd5b506040516200356638038062003566833981810160405260408110156200005257600080fd5b81019080805190602001909291908051906020019092919050505081600160006101000a81548173ffffffffffffffffffffffffffffffffffffffff021916908373ffffffffffffffffffffffffffffffffffffffff16021790555080600260006101000a81548173ffffffffffffffffffffffffffffffffffffffff021916908373ffffffffffffffffffffffffffffffffffffffff160217905550336000806101000a81548173ffffffffffffffffffffffffffffffffffffffff021916908373ffffffffffffffffffffffffffffffffffffffff1602179055506200013f6200014760201b60201c565b505062000155565b620151804201600381905550565b61340180620001656000396000f3fe608060405234801561001057600080fd5b50600436106100f55760003560e01c806390e64d1311610097578063c63a2abe11610066578063c63a2abe14610441578063d586d2e41461044b578063f3052d2614610483578063ffb696741461052a576100f5565b806390e64d13146103885780639cb8a26a146103aa578063ae73ccec146103b4578063bf5a4dd314610413576100f5565b80635d35a3d9116100d35780635d35a3d914610279578063750e6d09146102b157806387b0c63c146102bb578063893d20e81461033e576100f5565b806338442658146100fa57806341449e7f146101505780635443b28a14610233575b600080fd5b61014e600480360360a081101561011057600080fd5b8101908080359060200190929190803590602001909291908035906020019092919080359060200190929190803590602001909291905050506105ad565b005b61021d6004803603606081101561016657600080fd5b8101908080359060200190929190803590602001909291908035906020019064010000000081111561019757600080fd5b8201836020820111156101a957600080fd5b803590602001918460018302840111640100000000831117156101cb57600080fd5b91908080601f016020809104026020016040519081016040528093929190818152602001838380828437600081840152601f19601f8201169050808301925050505050505091929192905050506109b1565b6040518082815260200191505060405180910390f35b61025f6004803603602081101561024957600080fd5b8101908080359060200190929190505050610bf5565b604051808215151515815260200191505060405180910390f35b6102af6004803603604081101561028f57600080fd5b810190808035906020019092919080359060200190929190505050610cac565b005b6102b9611847565b005b6102e7600480360360208110156102d157600080fd5b8101908080359060200190929190505050611918565b6040518080602001828103825283818151815260200191508051906020019060200280838360005b8381101561032a57808201518184015260208101905061030f565b505050509050019250505060405180910390f35b610346611e13565b604051808273ffffffffffffffffffffffffffffffffffffffff1673ffffffffffffffffffffffffffffffffffffffff16815260200191505060405180910390f35b610390611e3c565b604051808215151515815260200191505060405180910390f35b6103b2611e56565b005b6103bc611f3a565b6040518080602001828103825283818151815260200191508051906020019060200280838360005b838110156103ff5780820151818401526020810190506103e4565b505050509050019250505060405180910390f35b61043f6004803603602081101561042957600080fd5b8101908080359060200190929190505050612284565b005b61044961298d565b005b6104816004803603604081101561046157600080fd5b81019080803590602001909291908035906020019092919050505061299b565b005b6104af6004803603602081101561049957600080fd5b8101908080359060200190929190505050612b4e565b6040518080602001828103825283818151815260200191508051906020019080838360005b838110156104ef5780820151818401526020810190506104d4565b50505050905090810190601f16801561051c5780820380516001836020036101000a031916815260200191505b509250505060405180910390f35b6105566004803603602081101561054057600080fd5b8101908080359060200190929190505050612de5565b6040518080602001828103825283818151815260200191508051906020019060200280838360005b8381101561059957808201518184015260208101905061057e565b505050509050019250505060405180910390f35b84600260009054906101000a900473ffffffffffffffffffffffffffffffffffffffff1673ffffffffffffffffffffffffffffffffffffffff16635443b28a826040518263ffffffff1660e01b81526004018082815260200191505060206040518083038186803b15801561062157600080fd5b505afa158015610635573d6000803e3d6000fd5b505050506040513d602081101561064b57600080fd5b81019080805190602001909291905050506106ce576040517f08c379a00000000000000000000000000000000000000000000000000000000081526004018080602001828103825260108152602001807f496e76616c6964204c697374696e67210000000000000000000000000000000081525060200191505060405180910390fd5b6106d6611e3c565b15610749576040517f08c379a000000000000000000000000000000000000000000000000000000000815260040180806020018281038252600b8152602001807f4e6f74206163746976652100000000000000000000000000000000000000000081525060200191505060405180910390fd5b600260009054906101000a900473ffffffffffffffffffffffffffffffffffffffff1673ffffffffffffffffffffffffffffffffffffffff1663f7b0a0ee876040518263ffffffff1660e01b81526004018082815260200191505060206040518083038186803b1580156107bc57600080fd5b505afa1580156107d0573d6000803e3d6000fd5b505050506040513d60208110156107e657600080fd5b810190808051906020019092919050505073ffffffffffffffffffffffffffffffffffffffff163273ffffffffffffffffffffffffffffffffffffffff16141561087b576040517f08c379a000000000000000000000000000000000000000000000000000000000815260040180806020018281038252603f815260200180613364603f913960400191505060405180910390fd5b6000839050600260009054906101000a900473ffffffffffffffffffffffffffffffffffffffff1673ffffffffffffffffffffffffffffffffffffffff1663c1b7c7d5848989898932886040518863ffffffff1660e01b8152600401808881526020018781526020018681526020018581526020018481526020018373ffffffffffffffffffffffffffffffffffffffff1673ffffffffffffffffffffffffffffffffffffffff168152602001828152602001975050505050505050600060405180830381600087803b15801561095157600080fd5b505af1158015610965573d6000803e3d6000fd5b505050507f77f0be1b7b6a20a26b6fcd837f949cea9981e096b8d85c1090012c3a0178e61e8784604051808381526020018281526020019250505060405180910390a150505050505050565b600080600260009054906101000a900473ffffffffffffffffffffffffffffffffffffffff1673ffffffffffffffffffffffffffffffffffffffff166387ed92d76040518163ffffffff1660e01b815260040160206040518083038186803b158015610a1c57600080fd5b505afa158015610a30573d6000803e3d6000fd5b505050506040513d6020811015610a4657600080fd5b81019080805190602001909291905050509050600260009054906101000a900473ffffffffffffffffffffffffffffffffffffffff1673ffffffffffffffffffffffffffffffffffffffff1663b6949b8d863286886040518563ffffffff1660e01b8152600401808581526020018473ffffffffffffffffffffffffffffffffffffffff1673ffffffffffffffffffffffffffffffffffffffff16815260200180602001838152602001828103825284818151815260200191508051906020019080838360005b83811015610b28578082015181840152602081019050610b0d565b50505050905090810190601f168015610b555780820380516001836020036101000a031916815260200191505b5095505050505050602060405180830381600087803b158015610b7757600080fd5b505af1158015610b8b573d6000803e3d6000fd5b505050506040513d6020811015610ba157600080fd5b8101908080519060200190929190505050507fd206beffd2e44cded178889ecd9ceaff7b9ed20ef2b03c9213c27933792995a7816040518082815260200191505060405180910390a1809150509392505050565b6000600260009054906101000a900473ffffffffffffffffffffffffffffffffffffffff1673ffffffffffffffffffffffffffffffffffffffff16635443b28a836040518263ffffffff1660e01b81526004018082815260200191505060206040518083038186803b158015610c6a57600080fd5b505afa158015610c7e573d6000803e3d6000fd5b505050506040513d6020811015610c9457600080fd5b81019080805190602001909291905050509050919050565b600460009054906101000a900460ff1615610d2f576040517f08c379a000000000000000000000000000000000000000000000000000000000815260040180806020018281038252600e8152602001807f4e6f2072652d656e7472616e637900000000000000000000000000000000000081525060200191505060405180910390fd5b80600260009054906101000a900473ffffffffffffffffffffffffffffffffffffffff1673ffffffffffffffffffffffffffffffffffffffff16635443b28a826040518263ffffffff1660e01b81526004018082815260200191505060206040518083038186803b158015610da357600080fd5b505afa158015610db7573d6000803e3d6000fd5b505050506040513d6020811015610dcd57600080fd5b8101908080519060200190929190505050610e50576040517f08c379a00000000000000000000000000000000000000000000000000000000081526004018080602001828103825260108152602001807f496e76616c6964204c697374696e67210000000000000000000000000000000081525060200191505060405180910390fd5b81600260009054906101000a900473ffffffffffffffffffffffffffffffffffffffff1673ffffffffffffffffffffffffffffffffffffffff1663f7b0a0ee826040518263ffffffff1660e01b81526004018082815260200191505060206040518083038186803b158015610ec457600080fd5b505afa158015610ed8573d6000803e3d6000fd5b505050506040513d6020811015610eee57600080fd5b810190808051906020019092919050505073ffffffffffffffffffffffffffffffffffffffff163273ffffffffffffffffffffffffffffffffffffffff1614610f82576040517f08c379a00000000000000000000000000000000000000000000000000000000081526004018080602001828103825260268152602001806133036026913960400191505060405180910390fd5b600460019054906101000a900460ff1615611005576040517f08c379a00000000000000000000000000000000000000000000000000000000081526004018080602001828103825260118152602001807f636f6e74726163742073746f707065642100000000000000000000000000000081525060200191505060405180910390fd5b600260009054906101000a900473ffffffffffffffffffffffffffffffffffffffff1673ffffffffffffffffffffffffffffffffffffffff166340c57998856040518263ffffffff1660e01b81526004018082815260200191505060206040518083038186803b15801561107857600080fd5b505afa15801561108c573d6000803e3d6000fd5b505050506040513d60208110156110a257600080fd5b8101908080519060200190929190505050611125576040517f08c379a000000000000000000000000000000000000000000000000000000000815260040180806020018281038252601b8152602001807f7265717565737420686173206265656e2074616b656e20646f776e000000000081525060200191505060405180910390fd5b6001600460006101000a81548160ff0219169083151502179055506000600260009054906101000a900473ffffffffffffffffffffffffffffffffffffffff1673ffffffffffffffffffffffffffffffffffffffff166341685972866040518263ffffffff1660e01b81526004018082815260200191505060206040518083038186803b1580156111b557600080fd5b505afa1580156111c9573d6000803e3d6000fd5b505050506040513d60208110156111df57600080fd5b8101908080519060200190929190505050905080600260009054906101000a900473ffffffffffffffffffffffffffffffffffffffff1673ffffffffffffffffffffffffffffffffffffffff166340b56aac866040518263ffffffff1660e01b81526004018082815260200191505060206040518083038186803b15801561126657600080fd5b505afa15801561127a573d6000803e3d6000fd5b505050506040513d602081101561129057600080fd5b810190808051906020019092919050505010156112f8576040517f08c379a000000000000000000000000000000000000000000000000000000000815260040180806020018281038252603b815260200180613329603b913960400191505060405180910390fd5b600160009054906101000a900473ffffffffffffffffffffffffffffffffffffffff1673ffffffffffffffffffffffffffffffffffffffff1663f5537ede6000809054906101000a900473ffffffffffffffffffffffffffffffffffffffff16600260009054906101000a900473ffffffffffffffffffffffffffffffffffffffff1673ffffffffffffffffffffffffffffffffffffffff1663652dc6d8896040518263ffffffff1660e01b81526004018082815260200191505060206040518083038186803b1580156113cb57600080fd5b505afa1580156113df573d6000803e3d6000fd5b505050506040513d60208110156113f557600080fd5b8101908080519060200190929190505050846040518463ffffffff1660e01b8152600401808473ffffffffffffffffffffffffffffffffffffffff1673ffffffffffffffffffffffffffffffffffffffff1681526020018373ffffffffffffffffffffffffffffffffffffffff1673ffffffffffffffffffffffffffffffffffffffff1681526020018281526020019350505050600060405180830381600087803b1580156114a357600080fd5b505af11580156114b7573d6000803e3d6000fd5b505050506000600460006101000a81548160ff0219169083151502179055507f56c2e7e77828864604b77615a940a062264e79b54565402c5ac37aececb8260584600260009054906101000a900473ffffffffffffffffffffffffffffffffffffffff1673ffffffffffffffffffffffffffffffffffffffff1663652dc6d8886040518263ffffffff1660e01b81526004018082815260200191505060206040518083038186803b15801561156b57600080fd5b505afa15801561157f573d6000803e3d6000fd5b505050506040513d602081101561159557600080fd5b8101908080519060200190929190505050604051808381526020018273ffffffffffffffffffffffffffffffffffffffff1673ffffffffffffffffffffffffffffffffffffffff1681526020019250505060405180910390a1600260009054906101000a900473ffffffffffffffffffffffffffffffffffffffff1673ffffffffffffffffffffffffffffffffffffffff166344786fc3866040518263ffffffff1660e01b815260040180828152602001915050600060405180830381600087803b15801561166357600080fd5b505af1158015611677573d6000803e3d6000fd5b50505050600260009054906101000a900473ffffffffffffffffffffffffffffffffffffffff1673ffffffffffffffffffffffffffffffffffffffff16630f3d080685836040518363ffffffff1660e01b81526004018083815260200182815260200180602001828103825260018152602001807f2d000000000000000000000000000000000000000000000000000000000000008152506020019350505050600060405180830381600087803b15801561173157600080fd5b505af1158015611745573d6000803e3d6000fd5b505050506001600260009054906101000a900473ffffffffffffffffffffffffffffffffffffffff1673ffffffffffffffffffffffffffffffffffffffff166340b56aac866040518263ffffffff1660e01b81526004018082815260200191505060206040518083038186803b1580156117be57600080fd5b505afa1580156117d2573d6000803e3d6000fd5b505050506040513d60208110156117e857600080fd5b81019080805190602001909291905050501015611840577f4185a87418a325f3aba6a952863f98ace4ecc0e0c1348e076f6462a7808e09d2846040518082815260200191505060405180910390a161183f84612284565b5b5050505050565b6000809054906101000a900473ffffffffffffffffffffffffffffffffffffffff1673ffffffffffffffffffffffffffffffffffffffff163373ffffffffffffffffffffffffffffffffffffffff16146118ec576040517f08c379a00000000000000000000000000000000000000000000000000000000081526004018080602001828103825260298152602001806133a36029913960400191505060405180910390fd5b600460019054906101000a900460ff1615600460016101000a81548160ff021916908315150217905550565b606081600260009054906101000a900473ffffffffffffffffffffffffffffffffffffffff1673ffffffffffffffffffffffffffffffffffffffff1663f7b0a0ee826040518263ffffffff1660e01b81526004018082815260200191505060206040518083038186803b15801561198e57600080fd5b505afa1580156119a2573d6000803e3d6000fd5b505050506040513d60208110156119b857600080fd5b810190808051906020019092919050505073ffffffffffffffffffffffffffffffffffffffff163273ffffffffffffffffffffffffffffffffffffffff1614611a4c576040517f08c379a00000000000000000000000000000000000000000000000000000000081526004018080602001828103825260268152602001806133036026913960400191505060405180910390fd5b82600260009054906101000a900473ffffffffffffffffffffffffffffffffffffffff1673ffffffffffffffffffffffffffffffffffffffff16635443b28a826040518263ffffffff1660e01b81526004018082815260200191505060206040518083038186803b158015611ac057600080fd5b505afa158015611ad4573d6000803e3d6000fd5b505050506040513d6020811015611aea57600080fd5b8101908080519060200190929190505050611b6d576040517f08c379a00000000000000000000000000000000000000000000000000000000081526004018080602001828103825260108152602001807f496e76616c6964204c697374696e67210000000000000000000000000000000081525060200191505060405180910390fd5b6060600260009054906101000a900473ffffffffffffffffffffffffffffffffffffffff1673ffffffffffffffffffffffffffffffffffffffff1663fc56ded9866040518263ffffffff1660e01b81526004018082815260200191505060006040518083038186803b158015611be257600080fd5b505afa158015611bf6573d6000803e3d6000fd5b505050506040513d6000823e3d601f19601f820116820180604052506020811015611c2057600080fd5b8101908080516040519392919084640100000000821115611c4057600080fd5b83820191506020820185811115611c5657600080fd5b8251866020820283011164010000000082111715611c7357600080fd5b8083526020830192505050908051906020019060200280838360005b83811015611caa578082015181840152602081019050611c8f565b50505050905001604052505050905060608151604051908082528060200260200182016040528015611ceb5781602001602082028038833980820191505090505b509050600080905060008090505b83518160ff161015611e05576000848260ff1681518110611d1657fe5b60200260200101519050600260009054906101000a900473ffffffffffffffffffffffffffffffffffffffff1673ffffffffffffffffffffffffffffffffffffffff1663d8a4676f826040518263ffffffff1660e01b81526004018082815260200191505060206040518083038186803b158015611d9357600080fd5b505afa158015611da7573d6000803e3d6000fd5b505050506040513d6020811015611dbd57600080fd5b8101908080519060200190929190505050611df75780848460ff1681518110611de257fe5b60200260200101818152505082806001019350505b508080600101915050611cf9565b508195505050505050919050565b60008060009054906101000a900473ffffffffffffffffffffffffffffffffffffffff16905090565b60006003544211611e4e576000611e51565b60015b905090565b6000809054906101000a900473ffffffffffffffffffffffffffffffffffffffff1673ffffffffffffffffffffffffffffffffffffffff163373ffffffffffffffffffffffffffffffffffffffff1614611efb576040517f08c379a00000000000000000000000000000000000000000000000000000000081526004018080602001828103825260298152602001806133a36029913960400191505060405180910390fd5b60008060009054906101000a900473ffffffffffffffffffffffffffffffffffffffff1690508073ffffffffffffffffffffffffffffffffffffffff16ff5b606080600260009054906101000a900473ffffffffffffffffffffffffffffffffffffffff1673ffffffffffffffffffffffffffffffffffffffff1663774208446040518163ffffffff1660e01b815260040160206040518083038186803b158015611fa557600080fd5b505afa158015611fb9573d6000803e3d6000fd5b505050506040513d6020811015611fcf57600080fd5b810190808051906020019092919050505060405190808252806020026020018201604052801561200e5781602001602082028038833980820191505090505b5090506060600260009054906101000a900473ffffffffffffffffffffffffffffffffffffffff1673ffffffffffffffffffffffffffffffffffffffff1663467efe5a6040518163ffffffff1660e01b815260040160006040518083038186803b15801561207b57600080fd5b505afa15801561208f573d6000803e3d6000fd5b505050506040513d6000823e3d601f19601f8201168201806040525060208110156120b957600080fd5b81019080805160405193929190846401000000008211156120d957600080fd5b838201915060208201858111156120ef57600080fd5b825186602082028301116401000000008211171561210c57600080fd5b8083526020830192505050908051906020019060200280838360005b83811015612143578082015181840152602081019050612128565b505050509050016040525050509050600080905060008090505b82518160ff16101561227a57600260009054906101000a900473ffffffffffffffffffffffffffffffffffffffff1673ffffffffffffffffffffffffffffffffffffffff16635443b28a848360ff16815181106121b657fe5b60200260200101516040518263ffffffff1660e01b81526004018082815260200191505060206040518083038186803b1580156121f257600080fd5b505afa158015612206573d6000803e3d6000fd5b505050506040513d602081101561221c57600080fd5b81019080805190602001909291905050501561226d57828160ff168151811061224157fe5b6020026020010151848360ff168151811061225857fe5b60200260200101818152505081806001019250505b808060010191505061215d565b5082935050505090565b600460009054906101000a900460ff1615612307576040517f08c379a000000000000000000000000000000000000000000000000000000000815260040180806020018281038252600e8152602001807f4e6f2072652d656e7472616e637900000000000000000000000000000000000081525060200191505060405180910390fd5b80600260009054906101000a900473ffffffffffffffffffffffffffffffffffffffff1673ffffffffffffffffffffffffffffffffffffffff16635443b28a826040518263ffffffff1660e01b81526004018082815260200191505060206040518083038186803b15801561237b57600080fd5b505afa15801561238f573d6000803e3d6000fd5b505050506040513d60208110156123a557600080fd5b8101908080519060200190929190505050612428576040517f08c379a00000000000000000000000000000000000000000000000000000000081526004018080602001828103825260108152602001807f496e76616c6964204c697374696e67210000000000000000000000000000000081525060200191505060405180910390fd5b81600260009054906101000a900473ffffffffffffffffffffffffffffffffffffffff1673ffffffffffffffffffffffffffffffffffffffff1663f7b0a0ee826040518263ffffffff1660e01b81526004018082815260200191505060206040518083038186803b15801561249c57600080fd5b505afa1580156124b0573d6000803e3d6000fd5b505050506040513d60208110156124c657600080fd5b810190808051906020019092919050505073ffffffffffffffffffffffffffffffffffffffff163273ffffffffffffffffffffffffffffffffffffffff161461255a576040517f08c379a00000000000000000000000000000000000000000000000000000000081526004018080602001828103825260268152602001806133036026913960400191505060405180910390fd5b600460019054906101000a900460ff16156125dd576040517f08c379a00000000000000000000000000000000000000000000000000000000081526004018080602001828103825260118152602001807f636f6e74726163742073746f707065642100000000000000000000000000000081525060200191505060405180910390fd5b600460009054906101000a900460ff1615612660576040517f08c379a000000000000000000000000000000000000000000000000000000000815260040180806020018281038252600e8152602001807f4e6f2072652d656e7472616e637900000000000000000000000000000000000081525060200191505060405180910390fd5b600260009054906101000a900473ffffffffffffffffffffffffffffffffffffffff1673ffffffffffffffffffffffffffffffffffffffff1663479ad4c3846040518263ffffffff1660e01b815260040180828152602001915050600060405180830381600087803b1580156126d557600080fd5b505af11580156126e9573d6000803e3d6000fd5b505050506001600460006101000a81548160ff021916908315150217905550600160009054906101000a900473ffffffffffffffffffffffffffffffffffffffff1673ffffffffffffffffffffffffffffffffffffffff1663f5537ede6000809054906101000a900473ffffffffffffffffffffffffffffffffffffffff1632600260009054906101000a900473ffffffffffffffffffffffffffffffffffffffff1673ffffffffffffffffffffffffffffffffffffffff166340b56aac886040518263ffffffff1660e01b81526004018082815260200191505060206040518083038186803b1580156127dc57600080fd5b505afa1580156127f0573d6000803e3d6000fd5b505050506040513d602081101561280657600080fd5b81019080805190602001909291905050506040518463ffffffff1660e01b8152600401808473ffffffffffffffffffffffffffffffffffffffff1673ffffffffffffffffffffffffffffffffffffffff1681526020018373ffffffffffffffffffffffffffffffffffffffff1673ffffffffffffffffffffffffffffffffffffffff1681526020018281526020019350505050600060405180830381600087803b1580156128b357600080fd5b505af11580156128c7573d6000803e3d6000fd5b505050507f56c2e7e77828864604b77615a940a062264e79b54565402c5ac37aececb826058332604051808381526020018273ffffffffffffffffffffffffffffffffffffffff1673ffffffffffffffffffffffffffffffffffffffff1681526020019250505060405180910390a16000600460006101000a81548160ff0219169083151502179055507fffd32e47d603cfd366fb689e9d28dcf2bc6f949c7d73bab598315d49b18e56b1836040518082815260200191505060405180910390a1505050565b620151804201600381905550565b80600260009054906101000a900473ffffffffffffffffffffffffffffffffffffffff1673ffffffffffffffffffffffffffffffffffffffff16635443b28a826040518263ffffffff1660e01b81526004018082815260200191505060206040518083038186803b158015612a0f57600080fd5b505afa158015612a23573d6000803e3d6000fd5b505050506040513d6020811015612a3957600080fd5b8101908080519060200190929190505050612abc576040517f08c379a00000000000000000000000000000000000000000000000000000000081526004018080602001828103825260108152602001807f496e76616c6964204c697374696e67210000000000000000000000000000000081525060200191505060405180910390fd5b600260009054906101000a900473ffffffffffffffffffffffffffffffffffffffff1673ffffffffffffffffffffffffffffffffffffffff166344786fc3846040518263ffffffff1660e01b815260040180828152602001915050600060405180830381600087803b158015612b3157600080fd5b505af1158015612b45573d6000803e3d6000fd5b50505050505050565b606081600260009054906101000a900473ffffffffffffffffffffffffffffffffffffffff1673ffffffffffffffffffffffffffffffffffffffff16635443b28a826040518263ffffffff1660e01b81526004018082815260200191505060206040518083038186803b158015612bc457600080fd5b505afa158015612bd8573d6000803e3d6000fd5b505050506040513d6020811015612bee57600080fd5b8101908080519060200190929190505050612c71576040517f08c379a00000000000000000000000000000000000000000000000000000000081526004018080602001828103825260108152602001807f496e76616c6964204c697374696e67210000000000000000000000000000000081525060200191505060405180910390fd5b600260009054906101000a900473ffffffffffffffffffffffffffffffffffffffff1673ffffffffffffffffffffffffffffffffffffffff1663965f438c846040518263ffffffff1660e01b81526004018082815260200191505060006040518083038186803b158015612ce457600080fd5b505afa158015612cf8573d6000803e3d6000fd5b505050506040513d6000823e3d601f19601f820116820180604052506020811015612d2257600080fd5b8101908080516040519392919084640100000000821115612d4257600080fd5b83820191506020820185811115612d5857600080fd5b8251866001820283011164010000000082111715612d7557600080fd5b8083526020830192505050908051906020019080838360005b83811015612da9578082015181840152602081019050612d8e565b50505050905090810190601f168015612dd65780820380516001836020036101000a031916815260200191505b50604052505050915050919050565b606081600260009054906101000a900473ffffffffffffffffffffffffffffffffffffffff1673ffffffffffffffffffffffffffffffffffffffff16635443b28a826040518263ffffffff1660e01b81526004018082815260200191505060206040518083038186803b158015612e5b57600080fd5b505afa158015612e6f573d6000803e3d6000fd5b505050506040513d6020811015612e8557600080fd5b8101908080519060200190929190505050612f08576040517f08c379a00000000000000000000000000000000000000000000000000000000081526004018080602001828103825260108152602001807f496e76616c6964204c697374696e67210000000000000000000000000000000081525060200191505060405180910390fd5b82600260009054906101000a900473ffffffffffffffffffffffffffffffffffffffff1673ffffffffffffffffffffffffffffffffffffffff1663f7b0a0ee826040518263ffffffff1660e01b81526004018082815260200191505060206040518083038186803b158015612f7c57600080fd5b505afa158015612f90573d6000803e3d6000fd5b505050506040513d6020811015612fa657600080fd5b810190808051906020019092919050505073ffffffffffffffffffffffffffffffffffffffff163273ffffffffffffffffffffffffffffffffffffffff161461303a576040517f08c379a00000000000000000000000000000000000000000000000000000000081526004018080602001828103825260268152602001806133036026913960400191505060405180910390fd5b6060600260009054906101000a900473ffffffffffffffffffffffffffffffffffffffff1673ffffffffffffffffffffffffffffffffffffffff1663fc56ded9866040518263ffffffff1660e01b81526004018082815260200191505060006040518083038186803b1580156130af57600080fd5b505afa1580156130c3573d6000803e3d6000fd5b505050506040513d6000823e3d601f19601f8201168201806040525060208110156130ed57600080fd5b810190808051604051939291908464010000000082111561310d57600080fd5b8382019150602082018581111561312357600080fd5b825186602082028301116401000000008211171561314057600080fd5b8083526020830192505050908051906020019060200280838360005b8381101561317757808201518184015260208101905061315c565b505050509050016040525050509050606081516040519080825280602002602001820160405280156131b85781602001602082028038833980820191505090505b50905060005b82518160ff1610156132f557600260009054906101000a900473ffffffffffffffffffffffffffffffffffffffff1673ffffffffffffffffffffffffffffffffffffffff166340c57998848360ff168151811061321757fe5b60200260200101516040518263ffffffff1660e01b81526004018082815260200191505060206040518083038186803b15801561325357600080fd5b505afa158015613267573d6000803e3d6000fd5b505050506040513d602081101561327d57600080fd5b8101908080519060200190929190505050156132ca57828160ff16815181106132a257fe5b6020026020010151828260ff16815181106132b957fe5b6020026020010181815250506132e8565b6000828260ff16815181106132db57fe5b6020026020010181815250505b80806001019150506131be565b508094505050505091905056fe596f7520617265206e6f742074686520646f6e6f72206f662074686973206c697374696e6721496e73756666696369656e742062616c616e636520696e206c697374696e6720746f20617070726f76652074686973207472616e73616374696f6e596f752063616e6e6f74207265717565737420666f7220796f7572206f776e206c697374696e672c2074727920756e6c697374696e6720696e737465616421596f7520617265206e6f7420616c6c6f77656420746f2075736520746869732066756e6374696f6e21a26469706673582212204dd4a77f6de53b979c874e32a2cb4a5993fd593eae184717216066570589077964736f6c63430006010033",
  "source": "// SPDX-License-Identifier: MIT\r\npragma solidity >=0.6.0;\r\nimport \"./Token.sol\";\r\nimport \"./DonationMarketStorage.sol\";\r\n\r\ncontract DonationMarket {\r\n    address owner;\r\n    Token tokenContract;\r\n    DonationMarketStorage donationMarketStorage;\r\n    uint256 contract_maintenance; // time tracker, deprecate the withdrawToken() and check for expiration daily\r\n\r\n    constructor(Token tokenAddress, DonationMarketStorage storageAddress)\r\n        public\r\n    {\r\n        tokenContract = tokenAddress;\r\n        donationMarketStorage = storageAddress;\r\n        owner = msg.sender;\r\n        autoDeprecate(); // set daily contract check\r\n    }\r\n\r\n    //Access Restrictions\r\n    modifier listingDonorOnly(uint256 listingId) {\r\n        require(\r\n            tx.origin ==\r\n                donationMarketStorage.getListingDonorAddress(listingId),\r\n            \"You are not the donor of this listing!\"\r\n        );\r\n        _;\r\n    }\r\n\r\n    modifier contractOwnerOnly() {\r\n        require(\r\n            msg.sender == owner,\r\n            \"You are not allowed to use this function!\"\r\n        );\r\n        _;\r\n    }\r\n    modifier noReentrancy() {\r\n        require(!locked, \"No re-entrancy\");\r\n        _;\r\n    }\r\n\r\n    modifier stoppedInEmergency() {\r\n        require(!isStopped, \"contract stopped!\");\r\n        _;\r\n    }\r\n    modifier isActive() {\r\n        require(!hasExpired(), \"Not active!\");\r\n        _;\r\n    }\r\n\r\n    modifier whenDeprecated() {\r\n        require(hasExpired(), \"has not expired!\");\r\n        _;\r\n    }\r\n    modifier validListingOnly(uint256 listingId) {\r\n        require(\r\n            donationMarketStorage.checkListing(listingId),\r\n            \"Invalid Listing!\"\r\n        );\r\n        _;\r\n    }\r\n\r\n    //Security Functions\r\n\r\n    bool internal locked;\r\n    bool isStopped = false;\r\n\r\n    //Emergency Stop\r\n    function toggleContactStopped() public contractOwnerOnly {\r\n        isStopped = !isStopped;\r\n    }\r\n\r\n    // Deprecate daily to check if the token has expired before allowing withdrawal of tokens\r\n    function autoDeprecate() public {\r\n        contract_maintenance = block.timestamp + 1 days;\r\n    }\r\n\r\n    //Automatic Deprecation of requests(check the deadline)\r\n    function autoRemoveExpiredRequest() internal whenDeprecated {\r\n        uint256[] memory activeListing = getAllListings();\r\n        for (uint8 i; i < activeListing.length; i++) {\r\n            uint256 listId = activeListing[i];\r\n            uint256[] memory requestId = getActiveRequest(listId);\r\n            for (uint256 req; req < requestId.length; req++) {\r\n                if (\r\n                    requestId[req] != 0 &&\r\n                    block.timestamp >\r\n                    donationMarketStorage.getRequestExpiry(requestId[req])\r\n                ) {\r\n                    cancelRequest(req, listId); // request has expired, removed request\r\n                }\r\n            }\r\n        }\r\n        autoDeprecate();\r\n    }\r\n\r\n    //Checking process of whether or not the request have expired\r\n    function hasExpired() public view returns (bool) {\r\n        return block.timestamp > contract_maintenance ? true : false;\r\n    }\r\n\r\n    //Self Destruct Function of contract\r\n    function selfDestruct() public contractOwnerOnly {\r\n        address payable addr = payable(owner);\r\n        selfdestruct(addr);\r\n    }\r\n\r\n    //Events\r\n    event transferred(uint256 listingId, address recipient);\r\n    event listingUnlisting(uint256 listingId);\r\n    event requestAdded(uint256 listingId, uint256 requestId);\r\n    event listingCreated(uint256 listingId);\r\n    event listingUnlisted(uint256 listingId);\r\n\r\n    //Core Functions\r\n\r\n    // Allow for removal of request in all the listing that this request has requested.\r\n    function cancelRequest(uint256 requestId, uint256 listingId)\r\n        public\r\n        validListingOnly(listingId)\r\n    {\r\n        donationMarketStorage.removeRequest(requestId);\r\n    }\r\n\r\n    function unlist(uint256 listingId)\r\n        public\r\n        noReentrancy\r\n        validListingOnly(listingId)\r\n        listingDonorOnly(listingId)\r\n        stoppedInEmergency\r\n    {\r\n        require(!locked, \"No re-entrancy\");\r\n        donationMarketStorage.removeListing(listingId);\r\n        locked = true;\r\n        tokenContract.transferToken(\r\n            owner,\r\n            tx.origin,\r\n            donationMarketStorage.getListingAmount(listingId)\r\n        );\r\n        emit transferred(listingId, tx.origin);\r\n        locked = false;\r\n        emit listingUnlisted(listingId);\r\n    }\r\n\r\n    //Approve function : send tokens to recipients, remove request from all other listing to prevent multiple trasnfer of that request.\r\n    // Re-entrancy security function since transferring of tokens occur here\r\n    // there will be no partial transfer of tokens. (either all requested tokens or none)\r\n    function approve(uint256 requestId, uint256 listingId)\r\n        public\r\n        noReentrancy\r\n        validListingOnly(listingId)\r\n        listingDonorOnly(listingId)\r\n        stoppedInEmergency\r\n    {\r\n        require(\r\n            donationMarketStorage.checkRequest(requestId),\r\n            \"request has been taken down\"\r\n        );\r\n        //transfer tokens\r\n        locked = true;\r\n        uint256 amount = donationMarketStorage.getRequestAmt(requestId);\r\n        require(\r\n            donationMarketStorage.getListingAmount(listingId) >= amount,\r\n            \"Insufficient balance in listing to approve this transaction\"\r\n        );\r\n        tokenContract.transferToken(\r\n            owner,\r\n            donationMarketStorage.getRequestRecipientAddress(requestId),\r\n            amount\r\n        );\r\n        locked = false;\r\n        emit transferred(\r\n            listingId,\r\n            donationMarketStorage.getRequestRecipientAddress(requestId)\r\n        );\r\n        // transfer end, check\r\n        donationMarketStorage.removeRequest(requestId);\r\n        donationMarketStorage.modifyListingAmount(listingId, amount, \"-\");\r\n\r\n        if (donationMarketStorage.getListingAmount(listingId) < 1) {\r\n            emit listingUnlisting(listingId);\r\n            unlist(listingId);\r\n        }\r\n    }\r\n\r\n    //add request to listing\r\n    function addRequest(\r\n        uint256 listingId,\r\n        uint256 recipientId,\r\n        uint256 amt,\r\n        uint256 deadline,\r\n        uint256 requestId\r\n    ) public validListingOnly(listingId) isActive {\r\n        require(\r\n            tx.origin !=\r\n                donationMarketStorage.getListingDonorAddress(listingId),\r\n            \"You cannot request for your own listing, try unlisting instead!\"\r\n        );\r\n        uint256 expirationTime = deadline;\r\n        donationMarketStorage.addRequest(\r\n            requestId,\r\n            listingId,\r\n            recipientId,\r\n            amt,\r\n            deadline,\r\n            tx.origin,\r\n            expirationTime\r\n        );\r\n        emit requestAdded(listingId, requestId);\r\n    }\r\n\r\n    // list the listing created by donor\r\n    function createListing(\r\n        uint256 donorId,\r\n        uint256 amt,\r\n        string memory category\r\n    ) public returns (uint256) {\r\n        uint256 listingId = donationMarketStorage.getListingCount();\r\n        donationMarketStorage.addListing(donorId, tx.origin, category, amt);\r\n        emit listingCreated(listingId);\r\n        return listingId;\r\n    }\r\n\r\n    // getters in place to ensure that other contracts cannot directly access the donation market storage data layer\r\n    // and to enforce access modifiers for external contracts\r\n    //getter function for the requests in each listing\r\n    function getRecipientRequest(uint256 listingId)\r\n        public\r\n        view\r\n        listingDonorOnly(listingId)\r\n        validListingOnly(listingId)\r\n        returns (uint256[] memory)\r\n    {\r\n        uint256[] memory requests = donationMarketStorage.getListingRequests(\r\n            listingId\r\n        );\r\n        uint256[] memory activeRequest = new uint256[](requests.length);\r\n        uint8 counter = 0;\r\n        for (uint8 i = 0; i < requests.length; i++) {\r\n            uint256 id = requests[i];\r\n            if (!donationMarketStorage.getRequestStatus(id)) {\r\n                activeRequest[counter] = id;\r\n                counter++;\r\n            }\r\n        }\r\n        return activeRequest;\r\n    }\r\n\r\n    //getter function for listing category for matching algorithm\r\n    function getCategory(uint256 listingId)\r\n        public\r\n        view\r\n        validListingOnly(listingId)\r\n        returns (string memory)\r\n    {\r\n        return donationMarketStorage.getListingCategory(listingId);\r\n    }\r\n\r\n    //getter function to check if lsiting still avaliable\r\n    function checkListing(uint256 listingId) public view returns (bool) {\r\n        return donationMarketStorage.checkListing(listingId);\r\n    }\r\n\r\n    //getter function to get owner of contract\r\n    function getOwner() public view returns (address) {\r\n        return owner;\r\n    }\r\n\r\n    //getter functions to get all active listing in the market\r\n    function getAllListings() public view returns (uint256[] memory) {\r\n        uint256[] memory allActiveListing = new uint256[](\r\n            donationMarketStorage.getActiveListingCount()\r\n        );\r\n        uint256[] memory allListingId = donationMarketStorage.getAllListing();\r\n        uint8 counter = 0;\r\n        for (uint8 i = 0; i < allListingId.length; i++) {\r\n            if (donationMarketStorage.checkListing(allListingId[i])) {\r\n                allActiveListing[counter] = allListingId[i];\r\n                counter++;\r\n            }\r\n        }\r\n        return allActiveListing;\r\n    }\r\n\r\n    //get all active request of selected listing\r\n    function getActiveRequest(uint256 listingId)\r\n        public\r\n        view\r\n        validListingOnly(listingId)\r\n        listingDonorOnly(listingId)\r\n        returns (uint256[] memory)\r\n    {\r\n        uint256[] memory allRequestId = donationMarketStorage\r\n            .getListingRequests(listingId);\r\n        uint256[] memory activeRequests = new uint256[](allRequestId.length);\r\n        for (uint8 i; i < allRequestId.length; i++) {\r\n            if (donationMarketStorage.checkRequest(allRequestId[i])) {\r\n                activeRequests[i] = allRequestId[i];\r\n            } else {\r\n                activeRequests[i] = 0; //frontend to filter off 0 (representing inactive request) as request id start with 1\r\n            }\r\n        }\r\n        return activeRequests;\r\n    }\r\n}\r\n",
  "sourcePath": "C:\\Users\\geral\\Desktop\\NUS\\Y3S2\\IS4302\\Project\\IS4302_GRP6\\contracts\\DonationMarket.sol",
  "compiler": {
    "name": "solc",
    "version": "0.6.1+commit.e6f7d5a4.Emscripten.clang"
  },
  "schemaVersion": "3.4.4",
  "updatedAt": "2022-04-12T12:44:58.302Z",
  "networkType": "ethereum",
  "devdoc": {
    "methods": {}
  },
  "userdoc": {
    "methods": {}
  }
}