{
  "contractName": "DonationMarket",
  "abi": [
    {
      "inputs": [
        {
          "internalType": "contract Token",
          "name": "tokenAddress",
          "type": "address"
        }
      ],
      "stateMutability": "nonpayable",
      "type": "constructor"
    },
    {
      "anonymous": false,
      "inputs": [
        {
          "indexed": false,
          "internalType": "uint256",
          "name": "listingId",
          "type": "uint256"
        },
        {
          "indexed": false,
          "internalType": "uint256",
          "name": "requestId",
          "type": "uint256"
        }
      ],
      "name": "requestAdded",
      "type": "event"
    },
    {
      "anonymous": false,
      "inputs": [
        {
          "indexed": false,
          "internalType": "uint256",
          "name": "listingId",
          "type": "uint256"
        }
      ],
      "name": "tokenCreated",
      "type": "event"
    },
    {
      "anonymous": false,
      "inputs": [
        {
          "indexed": false,
          "internalType": "uint256",
          "name": "listingId",
          "type": "uint256"
        }
      ],
      "name": "tokenUnlisted",
      "type": "event"
    },
    {
      "anonymous": false,
      "inputs": [
        {
          "indexed": false,
          "internalType": "uint256",
          "name": "listingId",
          "type": "uint256"
        }
      ],
      "name": "tokenUnlisting",
      "type": "event"
    },
    {
      "anonymous": false,
      "inputs": [
        {
          "indexed": false,
          "internalType": "uint256",
          "name": "listingId",
          "type": "uint256"
        },
        {
          "indexed": false,
          "internalType": "address",
          "name": "recipient",
          "type": "address"
        }
      ],
      "name": "transferred",
      "type": "event"
    },
    {
      "inputs": [],
      "name": "stopContract",
      "outputs": [],
      "stateMutability": "nonpayable",
      "type": "function"
    },
    {
      "inputs": [],
      "name": "resumeContract",
      "outputs": [],
      "stateMutability": "nonpayable",
      "type": "function"
    },
    {
      "inputs": [
        {
          "internalType": "uint256",
          "name": "newLimit",
          "type": "uint256"
        }
      ],
      "name": "setBalanceLimit",
      "outputs": [],
      "stateMutability": "nonpayable",
      "type": "function"
    },
    {
      "inputs": [],
      "name": "selfDestruct",
      "outputs": [],
      "stateMutability": "nonpayable",
      "type": "function"
    },
    {
      "inputs": [
        {
          "internalType": "uint256",
          "name": "listingId",
          "type": "uint256"
        }
      ],
      "name": "unlist",
      "outputs": [],
      "stateMutability": "nonpayable",
      "type": "function"
    },
    {
      "inputs": [
        {
          "internalType": "uint256",
          "name": "requestId",
          "type": "uint256"
        },
        {
          "internalType": "uint256",
          "name": "listingId",
          "type": "uint256"
        }
      ],
      "name": "approve",
      "outputs": [
        {
          "internalType": "uint256",
          "name": "",
          "type": "uint256"
        }
      ],
      "stateMutability": "nonpayable",
      "type": "function"
    },
    {
      "inputs": [
        {
          "internalType": "uint256",
          "name": "listingId",
          "type": "uint256"
        },
        {
          "internalType": "uint256",
          "name": "recipientId",
          "type": "uint256"
        },
        {
          "internalType": "uint256",
          "name": "amt",
          "type": "uint256"
        },
        {
          "internalType": "uint256",
          "name": "deadline",
          "type": "uint256"
        },
        {
          "internalType": "uint256",
          "name": "requestId",
          "type": "uint256"
        }
      ],
      "name": "addRequest",
      "outputs": [],
      "stateMutability": "nonpayable",
      "type": "function"
    },
    {
      "inputs": [
        {
          "internalType": "uint256",
          "name": "donorId",
          "type": "uint256"
        },
        {
          "internalType": "uint256",
          "name": "amt",
          "type": "uint256"
        },
        {
          "internalType": "string",
          "name": "category",
          "type": "string"
        }
      ],
      "name": "createToken",
      "outputs": [
        {
          "internalType": "uint256",
          "name": "",
          "type": "uint256"
        }
      ],
      "stateMutability": "payable",
      "type": "function"
    },
    {
      "inputs": [
        {
          "internalType": "uint256",
          "name": "listingId",
          "type": "uint256"
        }
      ],
      "name": "getTokenAmt",
      "outputs": [
        {
          "internalType": "uint256",
          "name": "",
          "type": "uint256"
        }
      ],
      "stateMutability": "view",
      "type": "function"
    },
    {
      "inputs": [
        {
          "internalType": "uint256",
          "name": "listingId",
          "type": "uint256"
        }
      ],
      "name": "getRecipientRequest",
      "outputs": [
        {
          "internalType": "uint256[]",
          "name": "",
          "type": "uint256[]"
        }
      ],
      "stateMutability": "view",
      "type": "function"
    },
    {
      "inputs": [
        {
          "internalType": "uint256",
          "name": "requestId",
          "type": "uint256"
        }
      ],
      "name": "getStatus",
      "outputs": [
        {
          "internalType": "bool",
          "name": "",
          "type": "bool"
        }
      ],
      "stateMutability": "view",
      "type": "function"
    },
    {
      "inputs": [
        {
          "internalType": "uint256",
          "name": "requestId",
          "type": "uint256"
        }
      ],
      "name": "getDeadline",
      "outputs": [
        {
          "internalType": "uint256",
          "name": "",
          "type": "uint256"
        }
      ],
      "stateMutability": "view",
      "type": "function"
    },
    {
      "inputs": [
        {
          "internalType": "uint256",
          "name": "requestId",
          "type": "uint256"
        }
      ],
      "name": "getRequestAmt",
      "outputs": [
        {
          "internalType": "uint256",
          "name": "",
          "type": "uint256"
        }
      ],
      "stateMutability": "view",
      "type": "function"
    },
    {
      "inputs": [
        {
          "internalType": "uint256",
          "name": "requestId",
          "type": "uint256"
        }
      ],
      "name": "getAddress",
      "outputs": [
        {
          "internalType": "address",
          "name": "",
          "type": "address"
        }
      ],
      "stateMutability": "view",
      "type": "function"
    },
    {
      "inputs": [
        {
          "internalType": "uint256",
          "name": "listingId",
          "type": "uint256"
        }
      ],
      "name": "getCategory",
      "outputs": [
        {
          "internalType": "string",
          "name": "",
          "type": "string"
        }
      ],
      "stateMutability": "view",
      "type": "function"
    },
    {
      "inputs": [],
      "name": "getOwner",
      "outputs": [
        {
          "internalType": "address",
          "name": "",
          "type": "address"
        }
      ],
      "stateMutability": "view",
      "type": "function"
    },
    {
      "inputs": [
        {
          "internalType": "uint256",
          "name": "listingId",
          "type": "uint256"
        }
      ],
      "name": "checkListing",
      "outputs": [
        {
          "internalType": "bool",
          "name": "",
          "type": "bool"
        }
      ],
      "stateMutability": "view",
      "type": "function"
    },
    {
      "inputs": [],
      "name": "destroyContract",
      "outputs": [],
      "stateMutability": "nonpayable",
      "type": "function"
    },
    {
      "inputs": [],
      "name": "toggleContactStopped",
      "outputs": [],
      "stateMutability": "nonpayable",
      "type": "function"
    }
  ],
  "bytecode": "0x60806040526000600660156101000a81548160ff02191690831515021790555034801561002b57600080fd5b506040516127133803806127138339818101604052602081101561004e57600080fd5b810190808051906020019092919050505080600660006101000a81548173ffffffffffffffffffffffffffffffffffffffff021916908373ffffffffffffffffffffffffffffffffffffffff160217905550336000806101000a81548173ffffffffffffffffffffffffffffffffffffffff021916908373ffffffffffffffffffffffffffffffffffffffff1602179055506127106002819055505061261a806100f96000396000f3fe6080604052600436106101145760003560e01c80635f78f436116100a05780639cb8a26a116100645780639cb8a26a146105b2578063b93f9b0a146105c9578063bf5a4dd314610644578063c4bc5da51461067f578063f3052d261461069657610114565b80635f78f43614610382578063750e6d0914610465578063828622751461047c57806387b0c63c146104cb578063893d20e81461055b57610114565b806338442658116100e757806338442658146101d157806341685972146102345780635443b28a146102835780635c622a0e146102d65780635d35a3d91461032957610114565b8063092a5cce1461011957806312253a6c146101305780632ce0a6ee146101475780633240d76c14610182575b600080fd5b34801561012557600080fd5b5061012e61074a565b005b34801561013c57600080fd5b5061014561082e565b005b34801561015357600080fd5b506101806004803603602081101561016a57600080fd5b81019080803590602001909291905050506108f0565b005b34801561018e57600080fd5b506101bb600480360360208110156101a557600080fd5b8101908080359060200190929190505050610a16565b6040518082815260200191505060405180910390f35b3480156101dd57600080fd5b50610232600480360360a08110156101f457600080fd5b810190808035906020019092919080359060200190929190803590602001909291908035906020019092919080359060200190929190505050610ace565b005b34801561024057600080fd5b5061026d6004803603602081101561025757600080fd5b8101908080359060200190929190505050610db4565b6040518082815260200191505060405180910390f35b34801561028f57600080fd5b506102bc600480360360208110156102a657600080fd5b8101908080359060200190929190505050610dd4565b604051808215151515815260200191505060405180910390f35b3480156102e257600080fd5b5061030f600480360360208110156102f957600080fd5b8101908080359060200190929190505050610e01565b604051808215151515815260200191505060405180910390f35b34801561033557600080fd5b5061036c6004803603604081101561034c57600080fd5b810190808035906020019092919080359060200190929190505050610e2e565b6040518082815260200191505060405180910390f35b61044f6004803603606081101561039857600080fd5b810190808035906020019092919080359060200190929190803590602001906401000000008111156103c957600080fd5b8201836020820111156103db57600080fd5b803590602001918460018302840111640100000000831117156103fd57600080fd5b91908080601f016020809104026020016040519081016040528093929190818152602001838380828437600081840152601f19601f820116905080830192505050505050509192919290505050611554565b6040518082815260200191505060405180910390f35b34801561047157600080fd5b5061047a61173d565b005b34801561048857600080fd5b506104b56004803603602081101561049f57600080fd5b810190808035906020019092919050505061180e565b6040518082815260200191505060405180910390f35b3480156104d757600080fd5b50610504600480360360208110156104ee57600080fd5b810190808035906020019092919050505061182e565b6040518080602001828103825283818151815260200191508051906020019060200280838360005b8381101561054757808201518184015260208101905061052c565b505050509050019250505060405180910390f35b34801561056757600080fd5b50610570611a77565b604051808273ffffffffffffffffffffffffffffffffffffffff1673ffffffffffffffffffffffffffffffffffffffff16815260200191505060405180910390f35b3480156105be57600080fd5b506105c7611aa0565b005b3480156105d557600080fd5b50610602600480360360208110156105ec57600080fd5b8101908080359060200190929190505050611b84565b604051808273ffffffffffffffffffffffffffffffffffffffff1673ffffffffffffffffffffffffffffffffffffffff16815260200191505060405180910390f35b34801561065057600080fd5b5061067d6004803603602081101561066757600080fd5b8101908080359060200190929190505050611bc4565b005b34801561068b57600080fd5b506106946120ec565b005b3480156106a257600080fd5b506106cf600480360360208110156106b957600080fd5b81019080803590602001909291905050506121ae565b6040518080602001828103825283818151815260200191508051906020019080838360005b8381101561070f5780820151818401526020810190506106f4565b50505050905090810190601f16801561073c5780820380516001836020036101000a031916815260200191505b509250505060405180910390f35b6000809054906101000a900473ffffffffffffffffffffffffffffffffffffffff1673ffffffffffffffffffffffffffffffffffffffff163373ffffffffffffffffffffffffffffffffffffffff16146107ef576040517f08c379a000000000000000000000000000000000000000000000000000000000815260040180806020018281038252602981526020018061251c6029913960400191505060405180910390fd5b60008060009054906101000a900473ffffffffffffffffffffffffffffffffffffffff1690508073ffffffffffffffffffffffffffffffffffffffff16ff5b6000809054906101000a900473ffffffffffffffffffffffffffffffffffffffff1673ffffffffffffffffffffffffffffffffffffffff163373ffffffffffffffffffffffffffffffffffffffff16146108d3576040517f08c379a000000000000000000000000000000000000000000000000000000000815260040180806020018281038252602981526020018061251c6029913960400191505060405180910390fd5b6001600660156101000a81548160ff021916908315150217905550565b6000809054906101000a900473ffffffffffffffffffffffffffffffffffffffff1673ffffffffffffffffffffffffffffffffffffffff163373ffffffffffffffffffffffffffffffffffffffff1614610995576040517f08c379a000000000000000000000000000000000000000000000000000000000815260040180806020018281038252602981526020018061251c6029913960400191505060405180910390fd5b6101f48111610a0c576040517f08c379a00000000000000000000000000000000000000000000000000000000081526004018080602001828103825260138152602001807f546f6f206c6f77206f662061206c696d6974210000000000000000000000000081525060200191505060405180910390fd5b8060028190555050565b6000816004600082815260200190815260200160002060050160009054906101000a900460ff16610aaf576040517f08c379a000000000000000000000000000000000000000000000000000000000815260040180806020018281038252600e8152602001807f496e76616c696420546f6b656e2100000000000000000000000000000000000081525060200191505060405180910390fd5b6004600084815260200190815260200160002060030154915050919050565b846004600082815260200190815260200160002060050160009054906101000a900460ff16610b65576040517f08c379a000000000000000000000000000000000000000000000000000000000815260040180806020018281038252600e8152602001807f496e76616c696420546f6b656e2100000000000000000000000000000000000081525060200191505060405180910390fd5b6004600087815260200190815260200160002060010160009054906101000a900473ffffffffffffffffffffffffffffffffffffffff1673ffffffffffffffffffffffffffffffffffffffff163273ffffffffffffffffffffffffffffffffffffffff161415610c20576040517f08c379a000000000000000000000000000000000000000000000000000000000815260040180806020018281038252603d81526020018061256b603d913960400191505060405180910390fd5b610c286122fe565b6040518060c001604052808781526020018681526020016000151581526020018581526020013273ffffffffffffffffffffffffffffffffffffffff1681526020016001151581525090508060056000858152602001908152602001600020600082015181600001556020820151816001015560408201518160020160006101000a81548160ff0219169083151502179055506060820151816003015560808201518160040160006101000a81548173ffffffffffffffffffffffffffffffffffffffff021916908373ffffffffffffffffffffffffffffffffffffffff16021790555060a08201518160040160146101000a81548160ff021916908315150217905550905050600460008881526020019081526020016000206004018390806001815401808255809150506001900390600052602060002001600090919091909150557f77f0be1b7b6a20a26b6fcd837f949cea9981e096b8d85c1090012c3a0178e61e8784604051808381526020018281526020019250505060405180910390a150505050505050565b600060056000838152602001908152602001600020600101549050919050565b60006004600083815260200190815260200160002060050160009054906101000a900460ff169050919050565b60006005600083815260200190815260200160002060020160009054906101000a900460ff169050919050565b6000600660149054906101000a900460ff1615610eb3576040517f08c379a000000000000000000000000000000000000000000000000000000000815260040180806020018281038252600e8152602001807f4e6f2072652d656e7472616e637900000000000000000000000000000000000081525060200191505060405180910390fd5b816004600082815260200190815260200160002060050160009054906101000a900460ff16610f4a576040517f08c379a000000000000000000000000000000000000000000000000000000000815260040180806020018281038252600e8152602001807f496e76616c696420546f6b656e2100000000000000000000000000000000000081525060200191505060405180910390fd5b826004600082815260200190815260200160002060010160009054906101000a900473ffffffffffffffffffffffffffffffffffffffff1673ffffffffffffffffffffffffffffffffffffffff163273ffffffffffffffffffffffffffffffffffffffff1614611005576040517f08c379a00000000000000000000000000000000000000000000000000000000081526004018080602001828103825260248152602001806124f86024913960400191505060405180910390fd5b600660159054906101000a900460ff161561101f57600080fd5b600660149054906101000a900460ff16156110a2576040517f08c379a000000000000000000000000000000000000000000000000000000000815260040180806020018281038252600e8152602001807f4e6f2072652d656e7472616e637900000000000000000000000000000000000081525060200191505060405180910390fd5b6005600086815260200190815260200160002060040160149054906101000a900460ff16611138576040517f08c379a000000000000000000000000000000000000000000000000000000000815260040180806020018281038252601b8152602001807f7265717565737420686173206265656e2074616b656e20646f776e000000000081525060200191505060405180910390fd5b6001600660146101000a81548160ff021916908315150217905550600060056000878152602001908152602001600020600101549050600081600460008881526020019081526020016000206003015403905080820360015410156111e8576040517f08c379a00000000000000000000000000000000000000000000000000000000081526004018080602001828103825260268152602001806125456026913960400191505060405180910390fd5b600660009054906101000a900473ffffffffffffffffffffffffffffffffffffffff1673ffffffffffffffffffffffffffffffffffffffff1663beabacc86000809054906101000a900473ffffffffffffffffffffffffffffffffffffffff16600560008b815260200190815260200160002060040160009054906101000a900473ffffffffffffffffffffffffffffffffffffffff168486036040518463ffffffff1660e01b8152600401808473ffffffffffffffffffffffffffffffffffffffff1673ffffffffffffffffffffffffffffffffffffffff1681526020018373ffffffffffffffffffffffffffffffffffffffff1673ffffffffffffffffffffffffffffffffffffffff1681526020018281526020019350505050600060405180830381600087803b15801561131e57600080fd5b505af1158015611332573d6000803e3d6000fd5b505050508082036001600082825403925050819055506000600660146101000a81548160ff0219169083151502179055507f56c2e7e77828864604b77615a940a062264e79b54565402c5ac37aececb8260586600560008a815260200190815260200160002060040160009054906101000a900473ffffffffffffffffffffffffffffffffffffffff16604051808381526020018273ffffffffffffffffffffffffffffffffffffffff1673ffffffffffffffffffffffffffffffffffffffff1681526020019250505060405180910390a16000826004600089815260200190815260200160002060030154031015611445578060056000898152602001908152602001600020600101819055506114c3565b6005600088815260200190815260200160002060008082016000905560018201600090556002820160006101000a81549060ff021916905560038201600090556004820160006101000a81549073ffffffffffffffffffffffffffffffffffffffff02191690556004820160146101000a81549060ff021916905550505b816004600088815260200190815260200160002060030160008282540392505081905550600160046000888152602001908152602001600020600301541015611547577f518caf9299542d4f85a53e80e73085ad6b4795a354ee002c15312c2b4bcfa616866040518082815260200191505060405180910390a161154686611bc4565b5b8094505050505092915050565b600060025460015411156115b3576040517f08c379a000000000000000000000000000000000000000000000000000000000815260040180806020018281038252603d8152602001806125a8603d913960400191505060405180910390fd5b8260016000828254019250508190555060606000600354905060016003600082825401925050819055506115e561234e565b6040518060c001604052808881526020013273ffffffffffffffffffffffffffffffffffffffff16815260200186815260200187815260200184815260200160011515815250905080600460008481526020019081526020016000206000820151816000015560208201518160010160006101000a81548173ffffffffffffffffffffffffffffffffffffffff021916908373ffffffffffffffffffffffffffffffffffffffff16021790555060408201518160020190805190602001906116ae92919061239c565b506060820151816003015560808201518160040190805190602001906116d592919061241c565b5060a08201518160050160006101000a81548160ff0219169083151502179055509050507f0a6b2a25f2764bb23ba81dc1f3c7e5885291c116a26ba73b46c15ed494831741826040518082815260200191505060405180910390a18193505050509392505050565b6000809054906101000a900473ffffffffffffffffffffffffffffffffffffffff1673ffffffffffffffffffffffffffffffffffffffff163373ffffffffffffffffffffffffffffffffffffffff16146117e2576040517f08c379a000000000000000000000000000000000000000000000000000000000815260040180806020018281038252602981526020018061251c6029913960400191505060405180910390fd5b600660159054906101000a900460ff1615600660156101000a81548160ff021916908315150217905550565b600060056000838152602001908152602001600020600301549050919050565b6060816004600082815260200190815260200160002060010160009054906101000a900473ffffffffffffffffffffffffffffffffffffffff1673ffffffffffffffffffffffffffffffffffffffff163273ffffffffffffffffffffffffffffffffffffffff16146118eb576040517f08c379a00000000000000000000000000000000000000000000000000000000081526004018080602001828103825260248152602001806124f86024913960400191505060405180910390fd5b826004600082815260200190815260200160002060050160009054906101000a900460ff16611982576040517f08c379a000000000000000000000000000000000000000000000000000000000815260040180806020018281038252600e8152602001807f496e76616c696420546f6b656e2100000000000000000000000000000000000081525060200191505060405180910390fd5b6060600080905060008090505b60046000888152602001908152602001600020600401805490508160ff161015611a6a5760056000600460008a81526020019081526020016000206004018360ff16815481106119db57fe5b9060005260206000200154815260200190815260200160002060040160149054906101000a900460ff1615611a5d57600460008881526020019081526020016000206004018160ff1681548110611a2e57fe5b9060005260206000200154838360ff1681518110611a4857fe5b60200260200101818152505081806001019250505b808060010191505061198f565b5081945050505050919050565b60008060009054906101000a900473ffffffffffffffffffffffffffffffffffffffff16905090565b6000809054906101000a900473ffffffffffffffffffffffffffffffffffffffff1673ffffffffffffffffffffffffffffffffffffffff163373ffffffffffffffffffffffffffffffffffffffff1614611b45576040517f08c379a000000000000000000000000000000000000000000000000000000000815260040180806020018281038252602981526020018061251c6029913960400191505060405180910390fd5b60008060009054906101000a900473ffffffffffffffffffffffffffffffffffffffff1690508073ffffffffffffffffffffffffffffffffffffffff16ff5b60006005600083815260200190815260200160002060040160009054906101000a900473ffffffffffffffffffffffffffffffffffffffff169050919050565b600660149054906101000a900460ff1615611c47576040517f08c379a000000000000000000000000000000000000000000000000000000000815260040180806020018281038252600e8152602001807f4e6f2072652d656e7472616e637900000000000000000000000000000000000081525060200191505060405180910390fd5b806004600082815260200190815260200160002060050160009054906101000a900460ff16611cde576040517f08c379a000000000000000000000000000000000000000000000000000000000815260040180806020018281038252600e8152602001807f496e76616c696420546f6b656e2100000000000000000000000000000000000081525060200191505060405180910390fd5b816004600082815260200190815260200160002060010160009054906101000a900473ffffffffffffffffffffffffffffffffffffffff1673ffffffffffffffffffffffffffffffffffffffff163273ffffffffffffffffffffffffffffffffffffffff1614611d99576040517f08c379a00000000000000000000000000000000000000000000000000000000081526004018080602001828103825260248152602001806124f86024913960400191505060405180910390fd5b600660159054906101000a900460ff1615611db357600080fd5b600660149054906101000a900460ff1615611e36576040517f08c379a000000000000000000000000000000000000000000000000000000000815260040180806020018281038252600e8152602001807f4e6f2072652d656e7472616e637900000000000000000000000000000000000081525060200191505060405180910390fd5b600460008481526020019081526020016000206000808201600090556001820160006101000a81549073ffffffffffffffffffffffffffffffffffffffff0219169055600282016000611e899190612469565b6003820160009055600482016000611ea191906124b1565b6005820160006101000a81549060ff021916905550506001600660146101000a81548160ff02191690831515021790555060046000848152602001908152602001600020600301546001541015611f43576040517f08c379a00000000000000000000000000000000000000000000000000000000081526004018080602001828103825260268152602001806125456026913960400191505060405180910390fd5b600660009054906101000a900473ffffffffffffffffffffffffffffffffffffffff1673ffffffffffffffffffffffffffffffffffffffff1663beabacc86000809054906101000a900473ffffffffffffffffffffffffffffffffffffffff163260046000888152602001908152602001600020600301546040518463ffffffff1660e01b8152600401808473ffffffffffffffffffffffffffffffffffffffff1673ffffffffffffffffffffffffffffffffffffffff1681526020018373ffffffffffffffffffffffffffffffffffffffff1673ffffffffffffffffffffffffffffffffffffffff1681526020018281526020019350505050600060405180830381600087803b15801561205757600080fd5b505af115801561206b573d6000803e3d6000fd5b5050505060046000848152602001908152602001600020600301546001600082825403925050819055506000600660146101000a81548160ff0219169083151502179055507f759c7f73934e3d1cb6f132398fccd39cdc1d53fd9b96a0bece8be3740d60f8ab836040518082815260200191505060405180910390a1505050565b6000809054906101000a900473ffffffffffffffffffffffffffffffffffffffff1673ffffffffffffffffffffffffffffffffffffffff163373ffffffffffffffffffffffffffffffffffffffff1614612191576040517f08c379a000000000000000000000000000000000000000000000000000000000815260040180806020018281038252602981526020018061251c6029913960400191505060405180910390fd5b6000600660156101000a81548160ff021916908315150217905550565b6060816004600082815260200190815260200160002060050160009054906101000a900460ff16612247576040517f08c379a000000000000000000000000000000000000000000000000000000000815260040180806020018281038252600e8152602001807f496e76616c696420546f6b656e2100000000000000000000000000000000000081525060200191505060405180910390fd5b600460008481526020019081526020016000206002018054600181600116156101000203166002900480601f0160208091040260200160405190810160405280929190818152602001828054600181600116156101000203166002900480156122f15780601f106122c6576101008083540402835291602001916122f1565b820191906000526020600020905b8154815290600101906020018083116122d457829003601f168201915b5050505050915050919050565b6040518060c00160405280600081526020016000815260200160001515815260200160008152602001600073ffffffffffffffffffffffffffffffffffffffff1681526020016000151581525090565b6040518060c0016040528060008152602001600073ffffffffffffffffffffffffffffffffffffffff1681526020016060815260200160008152602001606081526020016000151581525090565b828054600181600116156101000203166002900490600052602060002090601f016020900481019282601f106123dd57805160ff191683800117855561240b565b8280016001018555821561240b579182015b8281111561240a5782518255916020019190600101906123ef565b5b50905061241891906124d2565b5090565b828054828255906000526020600020908101928215612458579160200282015b8281111561245757825182559160200191906001019061243c565b5b50905061246591906124d2565b5090565b50805460018160011615610100020316600290046000825580601f1061248f57506124ae565b601f0160209004906000526020600020908101906124ad91906124d2565b5b50565b50805460008255906000526020600020908101906124cf91906124d2565b50565b6124f491905b808211156124f05760008160009055506001016124d8565b5090565b9056fe596f7520617265206e6f742074686520646f6e6f72206f66207468697320746f6b656e21596f7520617265206e6f7420616c6c6f77656420746f2075736520746869732066756e6374696f6e21496e73756666696369656e742062616c616e636520696e20636f6e747261637420706f6f6c21596f752063616e6e6f74207265717565737420666f7220796f7572206f776e20746f6b656e2c2074727920756e6c697374696e6720696e737465616421546865206c696d6974656420616d6f756e74206f66204554482073746f72656420696e207468697320636f6e7472616374206973207265616368656421a264697066735822122076e6941f606f8bccb66e3e8bcf2dfe563988314e9640a9e692c9d43534c6824c64736f6c63430006010033",
  "source": "// SPDX-License-Identifier: MIT\npragma solidity >=0.6.0;\nimport \"./Token.sol\";\n\ncontract DonationMarket {\n    address owner;\n    uint256 contractEthBalance;\n    uint256 balanceLimit;\n    uint256 listingCount;\n    mapping(uint256 => listing) Listings;\n    mapping (uint256 => state) ListingRequests; \n    Token tokenContract;\n\n    struct listing {\n        uint256 donorId;\n        address donorAddress;\n        string category;\n        uint256 amt;\n        uint256[] requestIdList;\n        bool isValue;\n\n    }\n\n    struct state {\n        uint256 recipientId;\n        uint256 requestAmt;\n        bool isCompleted;\n        uint256 deadline;\n        address recipientAddress;\n        bool isValue;\n    }\n    \n\n    constructor(Token tokenAddress) public {\n        tokenContract = tokenAddress;\n        owner = msg.sender;\n        balanceLimit = 10000;\n        //add recipient and donor contract ?\n    }\n\n\n    //Access Restrictions\n    modifier tokenDonorOnly(uint256 listingId) {\n        require(tx.origin == Listings[listingId].donorAddress, \"You are not the donor of this token!\");\n        _;\n    }\n\n\n    modifier validTokenOnly(uint256 listingId) {\n        require(Listings[listingId].isValue, \"Invalid Token!\");\n         _;\n    }\n\n    modifier ownerOnly() {\n        require(msg.sender == owner, \"You are not allowed to use this function!\");\n         _;\n    }\n\n    //Security Functions \n\n    bool internal locked;\n    bool isStopped = false;\n\n    modifier noReentrancy() {\n        require(!locked, \"No re-entrancy\");\n        _;\n    }\n\n\n    modifier stoppedInEmergency {\n        require(!isStopped);\n        _;\n    }\n\n    //Emergency Stop\n    function stopContract() public ownerOnly() {\n        isStopped = true;\n    }\n\n    function resumeContract() public  ownerOnly()  {\n        isStopped = false;\n    }\n\n    //setter function for contract balance limit\n    function setBalanceLimit(uint256 newLimit) public  ownerOnly() {\n        require(newLimit >500 ,\"Too low of a limit!\");\n        balanceLimit = newLimit;\n        \n    }\n    \n    function selfDestruct() public ownerOnly() {\n        address payable addr = payable(owner);\n        selfdestruct(addr); \n    }\n\n    //Events\n    event transferred(uint256 listingId, address recipient);\n    event tokenUnlisting(uint256 listingId);\n    event requestAdded(uint256 listingId, uint256 requestId);\n    event tokenCreated(uint256 listingId);\n    event tokenUnlisted(uint256 listingId); \n\n\n\n\n    //Core Functions\n    function unlist(uint256 listingId) public  noReentrancy() validTokenOnly(listingId) tokenDonorOnly(listingId) stoppedInEmergency {\n        require(!locked, \"No re-entrancy\");\n        //TODO: unlist from Donation Market\n        delete Listings[listingId];\n        locked = true;\n        require(contractEthBalance >= Listings[listingId].amt, \"Insufficient balance in contract pool!\");\n        tokenContract.transfer(owner, tx.origin, Listings[listingId].amt);\n        contractEthBalance -= Listings[listingId].amt;\n        locked = false;\n        emit tokenUnlisted(listingId);\n      \n        \n    }\n    \n\n    //approve function - send eth to recipients, minus amt from token \n    function approve(uint256 requestId, uint256 listingId) public  noReentrancy() validTokenOnly(listingId) tokenDonorOnly(listingId) stoppedInEmergency returns (uint256){\n        require(!locked, \"No re-entrancy\");\n        require(ListingRequests[requestId].isValue, \"request has been taken down\");\n        //transfer tokens\n        locked = true;\n        uint256 amount = ListingRequests[requestId].requestAmt;\n        uint256 leftoverAmt= Listings[listingId].amt - amount;\n        require(contractEthBalance >= amount - leftoverAmt, \"Insufficient balance in contract pool!\");\n        tokenContract.transfer(owner, ListingRequests[requestId].recipientAddress, amount - leftoverAmt);\n        contractEthBalance -= amount - leftoverAmt;\n        locked = false;\n        emit transferred(listingId, ListingRequests[requestId].recipientAddress);\n        // transfer end, check \n        if (Listings[listingId].amt - amount < 0) {\n            ListingRequests[requestId].requestAmt = leftoverAmt; \n       \n        } else {\n            delete ListingRequests[requestId]; \n        }\n        Listings[listingId].amt -= amount;\n        if (Listings[listingId].amt  < 1) { \n            emit tokenUnlisting(listingId);\n            unlist(listingId);\n        }\n        return leftoverAmt;\n\n    \n\n    }\n    \n    //add request to listing\n    function addRequest(uint256 listingId, uint256 recipientId, uint256 amt , uint256 deadline, uint256 requestId) public  validTokenOnly(listingId){\n        require(tx.origin != Listings[listingId].donorAddress, \"You cannot request for your own token, try unlisting instead!\");\n        state memory newState = state(recipientId, amt, false, deadline, tx.origin, true);\n        ListingRequests[requestId] = newState;\n        Listings[listingId].requestIdList.push(requestId);\n        emit requestAdded(listingId, requestId);\n    }\n\n    // create token + list \n    function createToken(uint256 donorId, uint256 amt, string memory category) public payable returns (uint256) {\n        require(contractEthBalance <= balanceLimit, \"The limited amount of ETH stored in this contract is reached!\");\n        contractEthBalance += amt;\n        uint256[] memory recipientList;\n        uint256 listingId = listingCount;\n        listingCount += 1;\n        listing memory newToken = listing(donorId,tx.origin, category, amt,recipientList, true);\n        Listings[listingId]= newToken;\n        emit tokenCreated(listingId);\n        return listingId;\n\n    }\n\n\n\n\n    //Getter Functions\n    //getter function for the amt of each token\n     function getTokenAmt(uint256 listingId) public view  validTokenOnly(listingId) returns (uint256) {\n        return Listings[listingId].amt;\n    }\n\n\n    //getter function for the requests in each listing\n    function getRecipientRequest(uint256 listingId) public view tokenDonorOnly(listingId) validTokenOnly(listingId) returns (uint256[] memory) {\n        uint256[] memory activeRequest;\n        uint8 counter = 0;\n        for (uint8 i=0; i < Listings[listingId].requestIdList.length;  i++) {\n            if (ListingRequests[Listings[listingId].requestIdList[i]].isValue) {\n                activeRequest[counter] =  Listings[listingId].requestIdList[i];\n                counter ++;\n            }\n        }\n        return activeRequest;\n    }\n\n    //getter function of status for the each request of each token\n    function  getStatus(uint256 requestId) public view returns (bool) {\n        return  ListingRequests[requestId].isCompleted;\n    }\n\n    //getter function of deadline for the each request of each token\n    function getDeadline(uint256 requestId) public view  returns (uint256) {\n        return   ListingRequests[requestId].deadline;\n    }\n\n        //getter function of request for the each request of each token\n    function  getRequestAmt(uint256 requestId) public view  returns (uint256) {\n        return  ListingRequests[requestId].requestAmt;\n    }\n    \n          //getter function of address for the each request of each token\n    function  getAddress(uint256 requestId) public view returns (address) {\n        return  ListingRequests[requestId].recipientAddress;\n    }\n    \n\n    //getter function for token category for matching algorithm \n    function getCategory(uint256 listingId) public view validTokenOnly(listingId) returns (string memory) {\n        return Listings[listingId].category;\n    }\n\n    //getter function for owner\n    function getOwner() public view returns(address) {\n        return owner;\n    }\n\n    //getter function to check if lsiting still avaliable \n    function checkListing(uint256 listingId) public view returns (bool) {\n        return Listings[listingId].isValue;\n    }\n    \n        // self-destruct function \n     function destroyContract() public ownerOnly {\n        address payable receiver = payable(owner);\n         selfdestruct(receiver);\n     }\n\n    //Emergency \n    function toggleContactStopped() public  ownerOnly {\n        isStopped= !isStopped;\n    }\n}",
  "sourcePath": "/Users/oliviama/AY21:22 sem 2/IS4302/project/contracts/DonationMarket.sol",
  "compiler": {
    "name": "solc",
    "version": "0.6.1+commit.e6f7d5a4.Emscripten.clang"
  },
  "schemaVersion": "3.4.4",
  "updatedAt": "2022-03-28T17:50:16.998Z",
  "devdoc": {
    "methods": {}
  },
  "userdoc": {
    "methods": {}
  }
}