{
  "contractName": "DonationMarketStorage",
  "abi": [
    {
      "inputs": [],
      "name": "locked",
      "outputs": [
        {
          "internalType": "bool",
          "name": "",
          "type": "bool"
        }
      ],
      "stateMutability": "view",
      "type": "function",
      "constant": true
    },
    {
      "inputs": [],
      "name": "destroyContract",
      "outputs": [],
      "stateMutability": "nonpayable",
      "type": "function"
    },
    {
      "inputs": [],
      "name": "getOwner",
      "outputs": [
        {
          "internalType": "address",
          "name": "",
          "type": "address"
        }
      ],
      "stateMutability": "view",
      "type": "function",
      "constant": true
    },
    {
      "inputs": [
        {
          "internalType": "uint256",
          "name": "donorId",
          "type": "uint256"
        },
        {
          "internalType": "address",
          "name": "donorAddress",
          "type": "address"
        },
        {
          "internalType": "string",
          "name": "category",
          "type": "string"
        },
        {
          "internalType": "uint256",
          "name": "amt",
          "type": "uint256"
        }
      ],
      "name": "addListing",
      "outputs": [
        {
          "internalType": "uint256",
          "name": "",
          "type": "uint256"
        }
      ],
      "stateMutability": "nonpayable",
      "type": "function"
    },
    {
      "inputs": [],
      "name": "getListingCount",
      "outputs": [
        {
          "internalType": "uint256",
          "name": "",
          "type": "uint256"
        }
      ],
      "stateMutability": "view",
      "type": "function",
      "constant": true
    },
    {
      "inputs": [],
      "name": "getActiveListingCount",
      "outputs": [
        {
          "internalType": "uint256",
          "name": "",
          "type": "uint256"
        }
      ],
      "stateMutability": "view",
      "type": "function",
      "constant": true
    },
    {
      "inputs": [],
      "name": "getAllListing",
      "outputs": [
        {
          "internalType": "uint256[]",
          "name": "",
          "type": "uint256[]"
        }
      ],
      "stateMutability": "view",
      "type": "function",
      "constant": true
    },
    {
      "inputs": [
        {
          "internalType": "uint256",
          "name": "listingId",
          "type": "uint256"
        }
      ],
      "name": "getListingRequests",
      "outputs": [
        {
          "internalType": "uint256[]",
          "name": "",
          "type": "uint256[]"
        }
      ],
      "stateMutability": "view",
      "type": "function",
      "constant": true
    },
    {
      "inputs": [
        {
          "internalType": "uint256",
          "name": "listingId",
          "type": "uint256"
        }
      ],
      "name": "getListingAmount",
      "outputs": [
        {
          "internalType": "uint256",
          "name": "",
          "type": "uint256"
        }
      ],
      "stateMutability": "view",
      "type": "function",
      "constant": true
    },
    {
      "inputs": [
        {
          "internalType": "uint256",
          "name": "listingId",
          "type": "uint256"
        }
      ],
      "name": "getListingDonorAddress",
      "outputs": [
        {
          "internalType": "address",
          "name": "",
          "type": "address"
        }
      ],
      "stateMutability": "view",
      "type": "function",
      "constant": true
    },
    {
      "inputs": [
        {
          "internalType": "uint256",
          "name": "listingId",
          "type": "uint256"
        }
      ],
      "name": "getListingCategory",
      "outputs": [
        {
          "internalType": "string",
          "name": "",
          "type": "string"
        }
      ],
      "stateMutability": "view",
      "type": "function",
      "constant": true
    },
    {
      "inputs": [
        {
          "internalType": "uint256",
          "name": "listingId",
          "type": "uint256"
        }
      ],
      "name": "checkListing",
      "outputs": [
        {
          "internalType": "bool",
          "name": "",
          "type": "bool"
        }
      ],
      "stateMutability": "view",
      "type": "function",
      "constant": true
    },
    {
      "inputs": [
        {
          "internalType": "uint256",
          "name": "listingId",
          "type": "uint256"
        }
      ],
      "name": "removeListing",
      "outputs": [],
      "stateMutability": "nonpayable",
      "type": "function"
    },
    {
      "inputs": [
        {
          "internalType": "uint256",
          "name": "listingId",
          "type": "uint256"
        },
        {
          "internalType": "uint256",
          "name": "amount",
          "type": "uint256"
        },
        {
          "internalType": "string",
          "name": "operation",
          "type": "string"
        }
      ],
      "name": "modifyListingAmount",
      "outputs": [],
      "stateMutability": "nonpayable",
      "type": "function"
    },
    {
      "inputs": [
        {
          "internalType": "uint256",
          "name": "requestId",
          "type": "uint256"
        },
        {
          "internalType": "uint256",
          "name": "listingId",
          "type": "uint256"
        },
        {
          "internalType": "uint256",
          "name": "recipientId",
          "type": "uint256"
        },
        {
          "internalType": "uint256",
          "name": "requestAmt",
          "type": "uint256"
        },
        {
          "internalType": "uint256",
          "name": "deadline",
          "type": "uint256"
        },
        {
          "internalType": "address",
          "name": "recipientAddress",
          "type": "address"
        },
        {
          "internalType": "uint256",
          "name": "expired",
          "type": "uint256"
        }
      ],
      "name": "addRequest",
      "outputs": [],
      "stateMutability": "nonpayable",
      "type": "function"
    },
    {
      "inputs": [
        {
          "internalType": "uint256",
          "name": "requestId",
          "type": "uint256"
        }
      ],
      "name": "getRequestStatus",
      "outputs": [
        {
          "internalType": "bool",
          "name": "",
          "type": "bool"
        }
      ],
      "stateMutability": "view",
      "type": "function",
      "constant": true
    },
    {
      "inputs": [
        {
          "internalType": "uint256",
          "name": "requestId",
          "type": "uint256"
        }
      ],
      "name": "getRequestDeadline",
      "outputs": [
        {
          "internalType": "uint256",
          "name": "",
          "type": "uint256"
        }
      ],
      "stateMutability": "view",
      "type": "function",
      "constant": true
    },
    {
      "inputs": [
        {
          "internalType": "uint256",
          "name": "requestId",
          "type": "uint256"
        }
      ],
      "name": "getRequestAmt",
      "outputs": [
        {
          "internalType": "uint256",
          "name": "",
          "type": "uint256"
        }
      ],
      "stateMutability": "view",
      "type": "function",
      "constant": true
    },
    {
      "inputs": [
        {
          "internalType": "uint256",
          "name": "requestId",
          "type": "uint256"
        }
      ],
      "name": "getRequestRecipientAddress",
      "outputs": [
        {
          "internalType": "address",
          "name": "",
          "type": "address"
        }
      ],
      "stateMutability": "view",
      "type": "function",
      "constant": true
    },
    {
      "inputs": [
        {
          "internalType": "uint256",
          "name": "requestId",
          "type": "uint256"
        }
      ],
      "name": "getRequestExpiry",
      "outputs": [
        {
          "internalType": "uint256",
          "name": "",
          "type": "uint256"
        }
      ],
      "stateMutability": "view",
      "type": "function",
      "constant": true
    },
    {
      "inputs": [
        {
          "internalType": "uint256",
          "name": "requestId",
          "type": "uint256"
        }
      ],
      "name": "checkRequest",
      "outputs": [
        {
          "internalType": "bool",
          "name": "",
          "type": "bool"
        }
      ],
      "stateMutability": "view",
      "type": "function",
      "constant": true
    },
    {
      "inputs": [
        {
          "internalType": "uint256",
          "name": "requestId",
          "type": "uint256"
        }
      ],
      "name": "removeRequest",
      "outputs": [],
      "stateMutability": "nonpayable",
      "type": "function"
    }
  ],
  "bytecode": "0x6080604052336000806101000a81548173ffffffffffffffffffffffffffffffffffffffff021916908373ffffffffffffffffffffffffffffffffffffffff1602179055506000600660006101000a81548160ff02191690831515021790555034801561006b57600080fd5b506114928061007b6000396000f3fe608060405234801561001057600080fd5b50600436106101425760003560e01c8063652dc6d8116100b8578063b6949b8d1161007c578063b6949b8d1461060a578063c1b7c7d51461070d578063cf3090121461078d578063d8a4676f146107af578063f7b0a0ee146107f5578063fc56ded91461086357610142565b8063652dc6d81461046f57806377420844146104dd57806387ed92d7146104fb578063893d20e814610519578063965f438c1461056357610142565b8063416859721161010a57806341685972146102ea57806344786fc31461032c578063467efe5a1461035a578063479ad4c3146103b957806352d37af0146103e75780635443b28a1461042957610142565b8063092a5cce146101475780630f3d08061461015157806321206d411461022057806340b56aac1461026257806340c57998146102a4575b600080fd5b61014f6108e6565b005b61021e6004803603606081101561016757600080fd5b8101908080359060200190929190803590602001909291908035906020019064010000000081111561019857600080fd5b8201836020820111156101aa57600080fd5b803590602001918460018302840111640100000000831117156101cc57600080fd5b91908080601f016020809104026020016040519081016040528093929190818152602001838380828437600081840152601f19601f8201169050808301925050505050505091929192905050506109ca565b005b61024c6004803603602081101561023657600080fd5b8101908080359060200190929190505050610adc565b6040518082815260200191505060405180910390f35b61028e6004803603602081101561027857600080fd5b8101908080359060200190929190505050610afc565b6040518082815260200191505060405180910390f35b6102d0600480360360208110156102ba57600080fd5b8101908080359060200190929190505050610b1c565b604051808215151515815260200191505060405180910390f35b6103166004803603602081101561030057600080fd5b8101908080359060200190929190505050610b49565b6040518082815260200191505060405180910390f35b6103586004803603602081101561034257600080fd5b8101908080359060200190929190505050610b69565b005b610362610bf1565b6040518080602001828103825283818151815260200191508051906020019060200280838360005b838110156103a557808201518184015260208101905061038a565b505050509050019250505060405180910390f35b6103e5600480360360208110156103cf57600080fd5b8101908080359060200190929190505050610c49565b005b610413600480360360208110156103fd57600080fd5b8101908080359060200190929190505050610cde565b6040518082815260200191505060405180910390f35b6104556004803603602081101561043f57600080fd5b8101908080359060200190929190505050610cfe565b604051808215151515815260200191505060405180910390f35b61049b6004803603602081101561048557600080fd5b8101908080359060200190929190505050610d2b565b604051808273ffffffffffffffffffffffffffffffffffffffff1673ffffffffffffffffffffffffffffffffffffffff16815260200191505060405180910390f35b6104e5610d6b565b6040518082815260200191505060405180910390f35b610503610d75565b6040518082815260200191505060405180910390f35b610521610d7f565b604051808273ffffffffffffffffffffffffffffffffffffffff1673ffffffffffffffffffffffffffffffffffffffff16815260200191505060405180910390f35b61058f6004803603602081101561057957600080fd5b8101908080359060200190929190505050610da8565b6040518080602001828103825283818151815260200191508051906020019080838360005b838110156105cf5780820151818401526020810190506105b4565b50505050905090810190601f1680156105fc5780820380516001836020036101000a031916815260200191505b509250505060405180910390f35b6106f76004803603608081101561062057600080fd5b8101908080359060200190929190803573ffffffffffffffffffffffffffffffffffffffff1690602001909291908035906020019064010000000081111561066757600080fd5b82018360208201111561067957600080fd5b8035906020019184600183028401116401000000008311171561069b57600080fd5b91908080601f016020809104026020016040519081016040528093929190818152602001838380828437600081840152601f19601f82011690508083019250505050505050919291929080359060200190929190505050610e60565b6040518082815260200191505060405180910390f35b61078b600480360360e081101561072357600080fd5b810190808035906020019092919080359060200190929190803590602001909291908035906020019092919080359060200190929190803573ffffffffffffffffffffffffffffffffffffffff16906020019092919080359060200190929190505050610fe0565b005b610795611146565b604051808215151515815260200191505060405180910390f35b6107db600480360360208110156107c557600080fd5b8101908080359060200190929190505050611159565b604051808215151515815260200191505060405180910390f35b6108216004803603602081101561080b57600080fd5b8101908080359060200190929190505050611186565b604051808273ffffffffffffffffffffffffffffffffffffffff1673ffffffffffffffffffffffffffffffffffffffff16815260200191505060405180910390f35b61088f6004803603602081101561087957600080fd5b81019080803590602001909291905050506111c6565b6040518080602001828103825283818151815260200191508051906020019060200280838360005b838110156108d25780820151818401526020810190506108b7565b505050509050019250505060405180910390f35b6000809054906101000a900473ffffffffffffffffffffffffffffffffffffffff1673ffffffffffffffffffffffffffffffffffffffff163373ffffffffffffffffffffffffffffffffffffffff161461098b576040517f08c379a00000000000000000000000000000000000000000000000000000000081526004018080602001828103825260288152602001806114356028913960400191505060405180910390fd5b60008060009054906101000a900473ffffffffffffffffffffffffffffffffffffffff1690508073ffffffffffffffffffffffffffffffffffffffff16ff5b60405160200180807f2b00000000000000000000000000000000000000000000000000000000000000815250600101905060405160208183030381529060405280519060200120816040516020018082805190602001908083835b60208310610a485780518252602082019150602081019050602083039250610a25565b6001836020036101000a038019825116818451168082178552505050505050905001915050604051602081830303815290604052805190602001201415610ab257816001600085815260200190815260200160002060030160008282540192505081905550610ad7565b8160016000858152602001908152602001600020600301600082825403925050819055505b505050565b600060026000838152602001908152602001600020600301549050919050565b600060016000838152602001908152602001600020600301549050919050565b60006002600083815260200190815260200160002060040160149054906101000a900460ff169050919050565b600060026000838152602001908152602001600020600101549050919050565b6002600082815260200190815260200160002060008082016000905560018201600090556002820160006101000a81549060ff021916905560038201600090556004820160006101000a81549073ffffffffffffffffffffffffffffffffffffffff02191690556004820160146101000a81549060ff02191690556005820160009055505050565b60606003805480602002602001604051908101604052809291908181526020018280548015610c3f57602002820191906000526020600020905b815481526020019060010190808311610c2b575b5050505050905090565b6001600560008282540392505081905550600160008281526020019081526020016000206000808201600090556001820160006101000a81549073ffffffffffffffffffffffffffffffffffffffff0219169055600282016000610cad9190611234565b6003820160009055600482016000610cc5919061127c565b6005820160006101000a81549060ff0219169055505050565b600060026000838152602001908152602001600020600501549050919050565b60006001600083815260200190815260200160002060050160009054906101000a900460ff169050919050565b60006002600083815260200190815260200160002060040160009054906101000a900473ffffffffffffffffffffffffffffffffffffffff169050919050565b6000600554905090565b6000600454905090565b60008060009054906101000a900473ffffffffffffffffffffffffffffffffffffffff16905090565b6060600160008381526020019081526020016000206002018054600181600116156101000203166002900480601f016020809104026020016040519081016040528092919081815260200182805460018160011615610100020316600290048015610e545780601f10610e2957610100808354040283529160200191610e54565b820191906000526020600020905b815481529060010190602001808311610e3757829003601f168201915b50505050509050919050565b6000606060006004549050600160046000828254019250508190555060016005600082825401925050819055506003819080600181540180825580915050600190039060005260206000200160009091909190915055610ebe61129d565b6040518060c001604052808981526020018873ffffffffffffffffffffffffffffffffffffffff16815260200187815260200186815260200184815260200160011515815250905080600160008481526020019081526020016000206000820151816000015560208201518160010160006101000a81548173ffffffffffffffffffffffffffffffffffffffff021916908373ffffffffffffffffffffffffffffffffffffffff1602179055506040820151816002019080519060200190610f879291906112eb565b50606082015181600301556080820151816004019080519060200190610fae92919061136b565b5060a08201518160050160006101000a81548160ff021916908315150217905550905050819350505050949350505050565b610fe86113b8565b6040518060e001604052808781526020018681526020016000151581526020018581526020018473ffffffffffffffffffffffffffffffffffffffff16815260200160011515815260200183815250905080600260008a8152602001908152602001600020600082015181600001556020820151816001015560408201518160020160006101000a81548160ff0219169083151502179055506060820151816003015560808201518160040160006101000a81548173ffffffffffffffffffffffffffffffffffffffff021916908373ffffffffffffffffffffffffffffffffffffffff16021790555060a08201518160040160146101000a81548160ff02191690831515021790555060c08201518160050155905050600160008881526020019081526020016000206004018890806001815401808255809150506001900390600052602060002001600090919091909150555050505050505050565b600660009054906101000a900460ff1681565b60006002600083815260200190815260200160002060020160009054906101000a900460ff169050919050565b60006001600083815260200190815260200160002060010160009054906101000a900473ffffffffffffffffffffffffffffffffffffffff169050919050565b60606001600083815260200190815260200160002060040180548060200260200160405190810160405280929190818152602001828054801561122857602002820191906000526020600020905b815481526020019060010190808311611214575b50505050509050919050565b50805460018160011615610100020316600290046000825580601f1061125a5750611279565b601f016020900490600052602060002090810190611278919061140f565b5b50565b508054600082559060005260206000209081019061129a919061140f565b50565b6040518060c0016040528060008152602001600073ffffffffffffffffffffffffffffffffffffffff1681526020016060815260200160008152602001606081526020016000151581525090565b828054600181600116156101000203166002900490600052602060002090601f016020900481019282601f1061132c57805160ff191683800117855561135a565b8280016001018555821561135a579182015b8281111561135957825182559160200191906001019061133e565b5b509050611367919061140f565b5090565b8280548282559060005260206000209081019282156113a7579160200282015b828111156113a657825182559160200191906001019061138b565b5b5090506113b4919061140f565b5090565b6040518060e00160405280600081526020016000815260200160001515815260200160008152602001600073ffffffffffffffffffffffffffffffffffffffff168152602001600015158152602001600081525090565b61143191905b8082111561142d576000816000905550600101611415565b5090565b9056fe796f7520617265206e6f7420616c6c6f77656420746f2075736520746869732066756e6374696f6ea2646970667358221220933d19d0f5988a4a2501a2ffca49c79f16bf995d67b846bf5d563e9dafcdaf7f64736f6c63430006010033",
  "source": "// SPDX-License-Identifier: MIT\r\npragma solidity >=0.6.1;\r\n\r\ncontract DonationMarketStorage {\r\n\r\n    struct listing {\r\n        uint256 donorId;\r\n        address donorAddress;\r\n        string category;\r\n        uint256 amt;\r\n        uint256[] requestIdList;\r\n        bool isValue;\r\n\r\n    }\r\n\r\n    struct state {\r\n        uint256 recipientId;\r\n        uint256 requestAmt;\r\n        bool isCompleted;\r\n        uint256 deadline;\r\n        address recipientAddress;\r\n        bool isValue;\r\n        uint expired;\r\n    }\r\n\r\n    address owner = msg.sender; // set deployer as owner of storage\r\n    mapping(uint256 => listing) Listings;\r\n    mapping (uint256 => state) ListingRequests; \r\n    uint256[] allListingId;\r\n    uint256 listingCount;\r\n    uint256 numActiveListing;\r\n    //Access Restriction \r\n    modifier contractOwnerOnly() {\r\n        require(\r\n            msg.sender == owner,\r\n            \"you are not allowed to use this function\"\r\n        );\r\n        _;\r\n    }\r\n    \r\n    //Security Functions\r\n    \r\n    //Self-destruct function\r\n    bool public locked = false;\r\n    function destroyContract() public contractOwnerOnly {\r\n        address payable receiver = payable(owner);\r\n        selfdestruct(receiver);\r\n    }\r\n\r\n    \r\n    //getter function for owner\r\n    function getOwner() public view returns(address) {\r\n        return owner;\r\n    }\r\n\r\n    // LISTING LEVEL\r\n\r\n    // add new listing to mapping\r\n    function addListing( uint256 donorId, address donorAddress, string memory category, uint256 amt) public returns (uint256){\r\n        uint256[] memory recipientList;\r\n        uint256 listingId = listingCount;\r\n        listingCount += 1;\r\n        numActiveListing += 1;\r\n        allListingId.push(listingId);\r\n        listing memory newListing = listing(donorId, donorAddress, category, amt, recipientList, true);\r\n        Listings[listingId]= newListing;\r\n        return listingId;\r\n    }\r\n\r\n    // getter function for listing ID \r\n    function getListingCount() public view returns (uint256) {\r\n        return listingCount;\r\n    }\r\n\r\n    // getter function for  number of active listing\r\n    function getActiveListingCount() public view returns (uint256) {\r\n        return numActiveListing;\r\n    }\r\n\r\n    // getter function for array of active listing ID\r\n    function getAllListing() public view returns (uint256[] memory) {\r\n        return allListingId;\r\n    }\r\n    // getter function to return list of requests belong to listing\r\n    function getListingRequests(uint256 listingId) public view returns (uint256[] memory) {\r\n        return Listings[listingId].requestIdList;\r\n    }\r\n\r\n    // getter function to return listing amount\r\n    function getListingAmount(uint256 listingId) public view returns (uint256) {\r\n        return Listings[listingId].amt;\r\n    }\r\n\r\n    // getter function to return listing's donor address\r\n    function getListingDonorAddress(uint256 listingId) public view returns (address) {\r\n        return Listings[listingId].donorAddress;\r\n    }\r\n\r\n    // getter function to return listing category\r\n    function getListingCategory(uint256 listingId) public view returns (string memory) {\r\n        return Listings[listingId].category;\r\n    }\r\n\r\n    //getter function to check if lsiting still avaliable \r\n    function checkListing(uint256 listingId) public view returns (bool) {\r\n        return Listings[listingId].isValue;\r\n    }\r\n    \r\n    //setter function to remove request from mapping\r\n    function removeListing(uint256 listingId) public {\r\n        numActiveListing -= 1;\r\n        delete Listings[listingId];\r\n    }\r\n\r\n    // modify listing amount, operation = \"+\" for credit, operation = \"-\" for debit\r\n    function modifyListingAmount (uint256 listingId, uint256 amount, string memory operation) public {\r\n        if (keccak256(abi.encodePacked(operation)) == keccak256(abi.encodePacked(\"+\"))) {\r\n            Listings[listingId].amt += amount;\r\n        } else {\r\n            Listings[listingId].amt -= amount;\r\n        }\r\n    }\r\n\r\n    // REQUEST LEVEL\r\n\r\n    // add new request to mapping and to corresponding listing\r\n    function addRequest(uint256 requestId, uint256 listingId, uint256 recipientId, uint256 requestAmt,  uint256 deadline, address recipientAddress, uint expired) public {\r\n        state memory newState = state(recipientId, requestAmt, false, deadline, recipientAddress, true, expired);\r\n        ListingRequests[requestId] = newState;\r\n        Listings[listingId].requestIdList.push(requestId);\r\n    }\r\n\r\n    //getter function of status for the each request of each listing\r\n    function getRequestStatus(uint256 requestId) public view returns (bool) {\r\n        return ListingRequests[requestId].isCompleted;\r\n    }\r\n\r\n    //getter function of deadline for the each request of each listing\r\n    function getRequestDeadline(uint256 requestId) public view  returns (uint256) {\r\n        return ListingRequests[requestId].deadline;\r\n    }\r\n\r\n    //getter function of request for the each request of each listing\r\n    function getRequestAmt(uint256 requestId) public view  returns (uint256) {\r\n        return ListingRequests[requestId].requestAmt;\r\n    }\r\n    \r\n    //getter function of address for the each request of each listing\r\n    function getRequestRecipientAddress(uint256 requestId) public view returns (address) {\r\n        return ListingRequests[requestId].recipientAddress;\r\n    }\r\n\r\n    //getter function of request expiry\r\n    function getRequestExpiry(uint256 requestId) public view returns (uint) {\r\n        return ListingRequests[requestId].expired;\r\n    }\r\n\r\n    //getter function to check if request still avaliable \r\n    function checkRequest(uint256 requestId) public view returns (bool) {\r\n        return ListingRequests[requestId].isValue;\r\n    }\r\n\r\n    //setter function to remove request from mapping\r\n    function removeRequest(uint256 requestId) public {\r\n        delete ListingRequests[requestId];\r\n    }\r\n\r\n}",
  "sourcePath": "C:\\Users\\geral\\Desktop\\NUS\\Y3S2\\IS4302\\Project\\IS4302_GRP6\\contracts\\DonationMarketStorage.sol",
  "compiler": {
    "name": "solc",
    "version": "0.6.1+commit.e6f7d5a4.Emscripten.clang"
  },
  "schemaVersion": "3.4.4",
  "updatedAt": "2022-04-14T06:53:15.126Z",
  "networkType": "ethereum",
  "devdoc": {
    "methods": {}
  },
  "userdoc": {
    "methods": {}
  }
}