{
  "contractName": "DonationMarket",
  "abi": [
    {
      "inputs": [
        {
          "internalType": "contract Token",
          "name": "tokenAddress",
          "type": "address"
        },
        {
          "internalType": "contract DonationMarketStorage",
          "name": "storageAddress",
          "type": "address"
        }
      ],
      "stateMutability": "nonpayable",
      "type": "constructor"
    },
    {
      "anonymous": false,
      "inputs": [
        {
          "indexed": false,
          "internalType": "uint256",
          "name": "listingId",
          "type": "uint256"
        }
      ],
      "name": "listingCreated",
      "type": "event"
    },
    {
      "anonymous": false,
      "inputs": [
        {
          "indexed": false,
          "internalType": "uint256",
          "name": "listingId",
          "type": "uint256"
        }
      ],
      "name": "listingUnlisted",
      "type": "event"
    },
    {
      "anonymous": false,
      "inputs": [
        {
          "indexed": false,
          "internalType": "uint256",
          "name": "listingId",
          "type": "uint256"
        }
      ],
      "name": "listingUnlisting",
      "type": "event"
    },
    {
      "anonymous": false,
      "inputs": [
        {
          "indexed": false,
          "internalType": "uint256",
          "name": "listingId",
          "type": "uint256"
        },
        {
          "indexed": false,
          "internalType": "uint256",
          "name": "requestId",
          "type": "uint256"
        }
      ],
      "name": "requestAdded",
      "type": "event"
    },
    {
      "anonymous": false,
      "inputs": [
        {
          "indexed": false,
          "internalType": "uint256",
          "name": "listingId",
          "type": "uint256"
        },
        {
          "indexed": false,
          "internalType": "address",
          "name": "recipient",
          "type": "address"
        }
      ],
      "name": "transferred",
      "type": "event"
    },
    {
      "inputs": [],
      "name": "toggleContactStopped",
      "outputs": [],
      "stateMutability": "nonpayable",
      "type": "function"
    },
    {
      "inputs": [],
      "name": "autoDeprecate",
      "outputs": [],
      "stateMutability": "nonpayable",
      "type": "function"
    },
    {
      "inputs": [],
      "name": "hasExpired",
      "outputs": [
        {
          "internalType": "bool",
          "name": "",
          "type": "bool"
        }
      ],
      "stateMutability": "view",
      "type": "function",
      "constant": true
    },
    {
      "inputs": [],
      "name": "selfDestruct",
      "outputs": [],
      "stateMutability": "nonpayable",
      "type": "function"
    },
    {
      "inputs": [
        {
          "internalType": "uint256",
          "name": "requestId",
          "type": "uint256"
        },
        {
          "internalType": "uint256",
          "name": "listingId",
          "type": "uint256"
        }
      ],
      "name": "cancelRequest",
      "outputs": [],
      "stateMutability": "nonpayable",
      "type": "function"
    },
    {
      "inputs": [
        {
          "internalType": "uint256",
          "name": "listingId",
          "type": "uint256"
        }
      ],
      "name": "unlist",
      "outputs": [],
      "stateMutability": "nonpayable",
      "type": "function"
    },
    {
      "inputs": [
        {
          "internalType": "uint256",
          "name": "requestId",
          "type": "uint256"
        },
        {
          "internalType": "uint256",
          "name": "listingId",
          "type": "uint256"
        }
      ],
      "name": "approve",
      "outputs": [],
      "stateMutability": "nonpayable",
      "type": "function"
    },
    {
      "inputs": [
        {
          "internalType": "uint256",
          "name": "listingId",
          "type": "uint256"
        },
        {
          "internalType": "uint256",
          "name": "recipientId",
          "type": "uint256"
        },
        {
          "internalType": "uint256",
          "name": "amt",
          "type": "uint256"
        },
        {
          "internalType": "uint256",
          "name": "deadline",
          "type": "uint256"
        },
        {
          "internalType": "uint256",
          "name": "requestId",
          "type": "uint256"
        }
      ],
      "name": "addRequest",
      "outputs": [],
      "stateMutability": "nonpayable",
      "type": "function"
    },
    {
      "inputs": [
        {
          "internalType": "uint256",
          "name": "donorId",
          "type": "uint256"
        },
        {
          "internalType": "uint256",
          "name": "amt",
          "type": "uint256"
        },
        {
          "internalType": "string",
          "name": "category",
          "type": "string"
        }
      ],
      "name": "createListing",
      "outputs": [
        {
          "internalType": "uint256",
          "name": "",
          "type": "uint256"
        }
      ],
      "stateMutability": "nonpayable",
      "type": "function"
    },
    {
      "inputs": [
        {
          "internalType": "uint256",
          "name": "listingId",
          "type": "uint256"
        }
      ],
      "name": "getRecipientRequest",
      "outputs": [
        {
          "internalType": "uint256[]",
          "name": "",
          "type": "uint256[]"
        }
      ],
      "stateMutability": "view",
      "type": "function",
      "constant": true
    },
    {
      "inputs": [
        {
          "internalType": "uint256",
          "name": "listingId",
          "type": "uint256"
        }
      ],
      "name": "getCategory",
      "outputs": [
        {
          "internalType": "string",
          "name": "",
          "type": "string"
        }
      ],
      "stateMutability": "view",
      "type": "function",
      "constant": true
    },
    {
      "inputs": [
        {
          "internalType": "uint256",
          "name": "listingId",
          "type": "uint256"
        }
      ],
      "name": "checkListing",
      "outputs": [
        {
          "internalType": "bool",
          "name": "",
          "type": "bool"
        }
      ],
      "stateMutability": "view",
      "type": "function",
      "constant": true
    },
    {
      "inputs": [],
      "name": "getOwner",
      "outputs": [
        {
          "internalType": "address",
          "name": "",
          "type": "address"
        }
      ],
      "stateMutability": "view",
      "type": "function",
      "constant": true
    },
    {
      "inputs": [],
      "name": "destroyContract",
      "outputs": [],
      "stateMutability": "nonpayable",
      "type": "function"
    }
  ],
  "bytecode": "0x60806040526000600660016101000a81548160ff0219169083151502179055503480156200002c57600080fd5b5060405162002d3a38038062002d3a833981810160405260408110156200005257600080fd5b81019080805190602001909291908051906020019092919050505081600360006101000a81548173ffffffffffffffffffffffffffffffffffffffff021916908373ffffffffffffffffffffffffffffffffffffffff16021790555080600460006101000a81548173ffffffffffffffffffffffffffffffffffffffff021916908373ffffffffffffffffffffffffffffffffffffffff160217905550336000806101000a81548173ffffffffffffffffffffffffffffffffffffffff021916908373ffffffffffffffffffffffffffffffffffffffff1602179055506200013f6200014760201b60201c565b505062000155565b620151804201600581905550565b612bd580620001656000396000f3fe608060405234801561001057600080fd5b50600436106100ea5760003560e01c8063893d20e81161008c578063bf5a4dd311610066578063bf5a4dd3146103b3578063c63a2abe146103e1578063d586d2e4146103eb578063f3052d2614610423576100ea565b8063893d20e81461033d57806390e64d13146103875780639cb8a26a146103a9576100ea565b80635443b28a116100c85780635443b28a146102325780635d35a3d914610278578063750e6d09146102b057806387b0c63c146102ba576100ea565b8063092a5cce146100ef57806338442658146100f957806341449e7f1461014f575b600080fd5b6100f76104ca565b005b61014d600480360360a081101561010f57600080fd5b8101908080359060200190929190803590602001909291908035906020019092919080359060200190929190803590602001909291905050506105ae565b005b61021c6004803603606081101561016557600080fd5b8101908080359060200190929190803590602001909291908035906020019064010000000081111561019657600080fd5b8201836020820111156101a857600080fd5b803590602001918460018302840111640100000000831117156101ca57600080fd5b91908080601f016020809104026020016040519081016040528093929190818152602001838380828437600081840152601f19601f8201169050808301925050505050505091929192905050506109b9565b6040518082815260200191505060405180910390f35b61025e6004803603602081101561024857600080fd5b8101908080359060200190929190505050610b63565b604051808215151515815260200191505060405180910390f35b6102ae6004803603604081101561028e57600080fd5b810190808035906020019092919080359060200190929190505050610c1a565b005b6102b86117c5565b005b6102e6600480360360208110156102d057600080fd5b8101908080359060200190929190505050611896565b6040518080602001828103825283818151815260200191508051906020019060200280838360005b8381101561032957808201518184015260208101905061030e565b505050509050019250505060405180910390f35b610345611d91565b604051808273ffffffffffffffffffffffffffffffffffffffff1673ffffffffffffffffffffffffffffffffffffffff16815260200191505060405180910390f35b61038f611dba565b604051808215151515815260200191505060405180910390f35b6103b1611dd4565b005b6103df600480360360208110156103c957600080fd5b8101908080359060200190929190505050611eb8565b005b6103e961267e565b005b6104216004803603604081101561040157600080fd5b81019080803590602001909291908035906020019092919050505061268c565b005b61044f6004803603602081101561043957600080fd5b810190808035906020019092919050505061283f565b6040518080602001828103825283818151815260200191508051906020019080838360005b8381101561048f578082015181840152602081019050610474565b50505050905090810190601f1680156104bc5780820380516001836020036101000a031916815260200191505b509250505060405180910390f35b6000809054906101000a900473ffffffffffffffffffffffffffffffffffffffff1673ffffffffffffffffffffffffffffffffffffffff163373ffffffffffffffffffffffffffffffffffffffff161461056f576040517f08c379a0000000000000000000000000000000000000000000000000000000008152600401808060200182810382526029815260200180612b776029913960400191505060405180910390fd5b60008060009054906101000a900473ffffffffffffffffffffffffffffffffffffffff1690508073ffffffffffffffffffffffffffffffffffffffff16ff5b84600460009054906101000a900473ffffffffffffffffffffffffffffffffffffffff1673ffffffffffffffffffffffffffffffffffffffff16635443b28a826040518263ffffffff1660e01b81526004018082815260200191505060206040518083038186803b15801561062257600080fd5b505afa158015610636573d6000803e3d6000fd5b505050506040513d602081101561064c57600080fd5b81019080805190602001909291905050506106cf576040517f08c379a00000000000000000000000000000000000000000000000000000000081526004018080602001828103825260108152602001807f496e76616c6964204c697374696e67210000000000000000000000000000000081525060200191505060405180910390fd5b6106d7611dba565b1561074a576040517f08c379a000000000000000000000000000000000000000000000000000000000815260040180806020018281038252600b8152602001807f4e6f74206163746976652100000000000000000000000000000000000000000081525060200191505060405180910390fd5b600460009054906101000a900473ffffffffffffffffffffffffffffffffffffffff1673ffffffffffffffffffffffffffffffffffffffff1663f7b0a0ee876040518263ffffffff1660e01b81526004018082815260200191505060206040518083038186803b1580156107bd57600080fd5b505afa1580156107d1573d6000803e3d6000fd5b505050506040513d60208110156107e757600080fd5b810190808051906020019092919050505073ffffffffffffffffffffffffffffffffffffffff163273ffffffffffffffffffffffffffffffffffffffff16141561087c576040517f08c379a000000000000000000000000000000000000000000000000000000000815260040180806020018281038252603f815260200180612b38603f913960400191505060405180910390fd5b600062015180840242019050600460009054906101000a900473ffffffffffffffffffffffffffffffffffffffff1673ffffffffffffffffffffffffffffffffffffffff1663c1b7c7d5848989898932886040518863ffffffff1660e01b8152600401808881526020018781526020018681526020018581526020018481526020018373ffffffffffffffffffffffffffffffffffffffff1673ffffffffffffffffffffffffffffffffffffffff168152602001828152602001975050505050505050600060405180830381600087803b15801561095957600080fd5b505af115801561096d573d6000803e3d6000fd5b505050507f77f0be1b7b6a20a26b6fcd837f949cea9981e096b8d85c1090012c3a0178e61e8784604051808381526020018281526020019250505060405180910390a150505050505050565b600082600160008282540192505081905550600060025490506001600260008282540192505081905550600460009054906101000a900473ffffffffffffffffffffffffffffffffffffffff1673ffffffffffffffffffffffffffffffffffffffff1663a95dc2b982873287896040518663ffffffff1660e01b8152600401808681526020018581526020018473ffffffffffffffffffffffffffffffffffffffff1673ffffffffffffffffffffffffffffffffffffffff16815260200180602001838152602001828103825284818151815260200191508051906020019080838360005b83811015610ab9578082015181840152602081019050610a9e565b50505050905090810190601f168015610ae65780820380516001836020036101000a031916815260200191505b509650505050505050600060405180830381600087803b158015610b0957600080fd5b505af1158015610b1d573d6000803e3d6000fd5b505050507fd206beffd2e44cded178889ecd9ceaff7b9ed20ef2b03c9213c27933792995a7816040518082815260200191505060405180910390a1809150509392505050565b6000600460009054906101000a900473ffffffffffffffffffffffffffffffffffffffff1673ffffffffffffffffffffffffffffffffffffffff16635443b28a836040518263ffffffff1660e01b81526004018082815260200191505060206040518083038186803b158015610bd857600080fd5b505afa158015610bec573d6000803e3d6000fd5b505050506040513d6020811015610c0257600080fd5b81019080805190602001909291905050509050919050565b600660009054906101000a900460ff1615610c9d576040517f08c379a000000000000000000000000000000000000000000000000000000000815260040180806020018281038252600e8152602001807f4e6f2072652d656e7472616e637900000000000000000000000000000000000081525060200191505060405180910390fd5b80600460009054906101000a900473ffffffffffffffffffffffffffffffffffffffff1673ffffffffffffffffffffffffffffffffffffffff16635443b28a826040518263ffffffff1660e01b81526004018082815260200191505060206040518083038186803b158015610d1157600080fd5b505afa158015610d25573d6000803e3d6000fd5b505050506040513d6020811015610d3b57600080fd5b8101908080519060200190929190505050610dbe576040517f08c379a00000000000000000000000000000000000000000000000000000000081526004018080602001828103825260108152602001807f496e76616c6964204c697374696e67210000000000000000000000000000000081525060200191505060405180910390fd5b81600460009054906101000a900473ffffffffffffffffffffffffffffffffffffffff1673ffffffffffffffffffffffffffffffffffffffff1663f7b0a0ee826040518263ffffffff1660e01b81526004018082815260200191505060206040518083038186803b158015610e3257600080fd5b505afa158015610e46573d6000803e3d6000fd5b505050506040513d6020811015610e5c57600080fd5b810190808051906020019092919050505073ffffffffffffffffffffffffffffffffffffffff163273ffffffffffffffffffffffffffffffffffffffff1614610ef0576040517f08c379a0000000000000000000000000000000000000000000000000000000008152600401808060200182810382526026815260200180612ad76026913960400191505060405180910390fd5b600660019054906101000a900460ff1615610f73576040517f08c379a00000000000000000000000000000000000000000000000000000000081526004018080602001828103825260118152602001807f636f6e74726163742073746f707065642100000000000000000000000000000081525060200191505060405180910390fd5b600460009054906101000a900473ffffffffffffffffffffffffffffffffffffffff1673ffffffffffffffffffffffffffffffffffffffff166340c57998856040518263ffffffff1660e01b81526004018082815260200191505060206040518083038186803b158015610fe657600080fd5b505afa158015610ffa573d6000803e3d6000fd5b505050506040513d602081101561101057600080fd5b8101908080519060200190929190505050611093576040517f08c379a000000000000000000000000000000000000000000000000000000000815260040180806020018281038252601b8152602001807f7265717565737420686173206265656e2074616b656e20646f776e000000000081525060200191505060405180910390fd5b6001600660006101000a81548160ff0219169083151502179055506000600460009054906101000a900473ffffffffffffffffffffffffffffffffffffffff1673ffffffffffffffffffffffffffffffffffffffff166341685972866040518263ffffffff1660e01b81526004018082815260200191505060206040518083038186803b15801561112357600080fd5b505afa158015611137573d6000803e3d6000fd5b505050506040513d602081101561114d57600080fd5b8101908080519060200190929190505050905080600460009054906101000a900473ffffffffffffffffffffffffffffffffffffffff1673ffffffffffffffffffffffffffffffffffffffff166340b56aac866040518263ffffffff1660e01b81526004018082815260200191505060206040518083038186803b1580156111d457600080fd5b505afa1580156111e8573d6000803e3d6000fd5b505050506040513d60208110156111fe57600080fd5b81019080805190602001909291905050501015611266576040517f08c379a000000000000000000000000000000000000000000000000000000000815260040180806020018281038252603b815260200180612afd603b913960400191505060405180910390fd5b600360009054906101000a900473ffffffffffffffffffffffffffffffffffffffff1673ffffffffffffffffffffffffffffffffffffffff1663f5537ede6000809054906101000a900473ffffffffffffffffffffffffffffffffffffffff16600460009054906101000a900473ffffffffffffffffffffffffffffffffffffffff1673ffffffffffffffffffffffffffffffffffffffff1663652dc6d8896040518263ffffffff1660e01b81526004018082815260200191505060206040518083038186803b15801561133957600080fd5b505afa15801561134d573d6000803e3d6000fd5b505050506040513d602081101561136357600080fd5b8101908080519060200190929190505050846040518463ffffffff1660e01b8152600401808473ffffffffffffffffffffffffffffffffffffffff1673ffffffffffffffffffffffffffffffffffffffff1681526020018373ffffffffffffffffffffffffffffffffffffffff1673ffffffffffffffffffffffffffffffffffffffff1681526020018281526020019350505050600060405180830381600087803b15801561141157600080fd5b505af1158015611425573d6000803e3d6000fd5b50505050806001600082825403925050819055506000600660006101000a81548160ff0219169083151502179055507f56c2e7e77828864604b77615a940a062264e79b54565402c5ac37aececb8260584600460009054906101000a900473ffffffffffffffffffffffffffffffffffffffff1673ffffffffffffffffffffffffffffffffffffffff1663652dc6d8886040518263ffffffff1660e01b81526004018082815260200191505060206040518083038186803b1580156114e957600080fd5b505afa1580156114fd573d6000803e3d6000fd5b505050506040513d602081101561151357600080fd5b8101908080519060200190929190505050604051808381526020018273ffffffffffffffffffffffffffffffffffffffff1673ffffffffffffffffffffffffffffffffffffffff1681526020019250505060405180910390a1600460009054906101000a900473ffffffffffffffffffffffffffffffffffffffff1673ffffffffffffffffffffffffffffffffffffffff166344786fc3866040518263ffffffff1660e01b815260040180828152602001915050600060405180830381600087803b1580156115e157600080fd5b505af11580156115f5573d6000803e3d6000fd5b50505050600460009054906101000a900473ffffffffffffffffffffffffffffffffffffffff1673ffffffffffffffffffffffffffffffffffffffff16630f3d080685836040518363ffffffff1660e01b81526004018083815260200182815260200180602001828103825260018152602001807f2d000000000000000000000000000000000000000000000000000000000000008152506020019350505050600060405180830381600087803b1580156116af57600080fd5b505af11580156116c3573d6000803e3d6000fd5b505050506001600460009054906101000a900473ffffffffffffffffffffffffffffffffffffffff1673ffffffffffffffffffffffffffffffffffffffff166340b56aac866040518263ffffffff1660e01b81526004018082815260200191505060206040518083038186803b15801561173c57600080fd5b505afa158015611750573d6000803e3d6000fd5b505050506040513d602081101561176657600080fd5b810190808051906020019092919050505010156117be577f4185a87418a325f3aba6a952863f98ace4ecc0e0c1348e076f6462a7808e09d2846040518082815260200191505060405180910390a16117bd84611eb8565b5b5050505050565b6000809054906101000a900473ffffffffffffffffffffffffffffffffffffffff1673ffffffffffffffffffffffffffffffffffffffff163373ffffffffffffffffffffffffffffffffffffffff161461186a576040517f08c379a0000000000000000000000000000000000000000000000000000000008152600401808060200182810382526029815260200180612b776029913960400191505060405180910390fd5b600660019054906101000a900460ff1615600660016101000a81548160ff021916908315150217905550565b606081600460009054906101000a900473ffffffffffffffffffffffffffffffffffffffff1673ffffffffffffffffffffffffffffffffffffffff1663f7b0a0ee826040518263ffffffff1660e01b81526004018082815260200191505060206040518083038186803b15801561190c57600080fd5b505afa158015611920573d6000803e3d6000fd5b505050506040513d602081101561193657600080fd5b810190808051906020019092919050505073ffffffffffffffffffffffffffffffffffffffff163273ffffffffffffffffffffffffffffffffffffffff16146119ca576040517f08c379a0000000000000000000000000000000000000000000000000000000008152600401808060200182810382526026815260200180612ad76026913960400191505060405180910390fd5b82600460009054906101000a900473ffffffffffffffffffffffffffffffffffffffff1673ffffffffffffffffffffffffffffffffffffffff16635443b28a826040518263ffffffff1660e01b81526004018082815260200191505060206040518083038186803b158015611a3e57600080fd5b505afa158015611a52573d6000803e3d6000fd5b505050506040513d6020811015611a6857600080fd5b8101908080519060200190929190505050611aeb576040517f08c379a00000000000000000000000000000000000000000000000000000000081526004018080602001828103825260108152602001807f496e76616c6964204c697374696e67210000000000000000000000000000000081525060200191505060405180910390fd5b6060600460009054906101000a900473ffffffffffffffffffffffffffffffffffffffff1673ffffffffffffffffffffffffffffffffffffffff1663fc56ded9866040518263ffffffff1660e01b81526004018082815260200191505060006040518083038186803b158015611b6057600080fd5b505afa158015611b74573d6000803e3d6000fd5b505050506040513d6000823e3d601f19601f820116820180604052506020811015611b9e57600080fd5b8101908080516040519392919084640100000000821115611bbe57600080fd5b83820191506020820185811115611bd457600080fd5b8251866020820283011164010000000082111715611bf157600080fd5b8083526020830192505050908051906020019060200280838360005b83811015611c28578082015181840152602081019050611c0d565b50505050905001604052505050905060608151604051908082528060200260200182016040528015611c695781602001602082028038833980820191505090505b509050600080905060008090505b83518160ff161015611d83576000848260ff1681518110611c9457fe5b60200260200101519050600460009054906101000a900473ffffffffffffffffffffffffffffffffffffffff1673ffffffffffffffffffffffffffffffffffffffff1663d8a4676f826040518263ffffffff1660e01b81526004018082815260200191505060206040518083038186803b158015611d1157600080fd5b505afa158015611d25573d6000803e3d6000fd5b505050506040513d6020811015611d3b57600080fd5b8101908080519060200190929190505050611d755780848460ff1681518110611d6057fe5b60200260200101818152505082806001019350505b508080600101915050611c77565b508195505050505050919050565b60008060009054906101000a900473ffffffffffffffffffffffffffffffffffffffff16905090565b60006005544211611dcc576000611dcf565b60015b905090565b6000809054906101000a900473ffffffffffffffffffffffffffffffffffffffff1673ffffffffffffffffffffffffffffffffffffffff163373ffffffffffffffffffffffffffffffffffffffff1614611e79576040517f08c379a0000000000000000000000000000000000000000000000000000000008152600401808060200182810382526029815260200180612b776029913960400191505060405180910390fd5b60008060009054906101000a900473ffffffffffffffffffffffffffffffffffffffff1690508073ffffffffffffffffffffffffffffffffffffffff16ff5b600660009054906101000a900460ff1615611f3b576040517f08c379a000000000000000000000000000000000000000000000000000000000815260040180806020018281038252600e8152602001807f4e6f2072652d656e7472616e637900000000000000000000000000000000000081525060200191505060405180910390fd5b80600460009054906101000a900473ffffffffffffffffffffffffffffffffffffffff1673ffffffffffffffffffffffffffffffffffffffff16635443b28a826040518263ffffffff1660e01b81526004018082815260200191505060206040518083038186803b158015611faf57600080fd5b505afa158015611fc3573d6000803e3d6000fd5b505050506040513d6020811015611fd957600080fd5b810190808051906020019092919050505061205c576040517f08c379a00000000000000000000000000000000000000000000000000000000081526004018080602001828103825260108152602001807f496e76616c6964204c697374696e67210000000000000000000000000000000081525060200191505060405180910390fd5b81600460009054906101000a900473ffffffffffffffffffffffffffffffffffffffff1673ffffffffffffffffffffffffffffffffffffffff1663f7b0a0ee826040518263ffffffff1660e01b81526004018082815260200191505060206040518083038186803b1580156120d057600080fd5b505afa1580156120e4573d6000803e3d6000fd5b505050506040513d60208110156120fa57600080fd5b810190808051906020019092919050505073ffffffffffffffffffffffffffffffffffffffff163273ffffffffffffffffffffffffffffffffffffffff161461218e576040517f08c379a0000000000000000000000000000000000000000000000000000000008152600401808060200182810382526026815260200180612ad76026913960400191505060405180910390fd5b600660019054906101000a900460ff1615612211576040517f08c379a00000000000000000000000000000000000000000000000000000000081526004018080602001828103825260118152602001807f636f6e74726163742073746f707065642100000000000000000000000000000081525060200191505060405180910390fd5b600660009054906101000a900460ff1615612294576040517f08c379a000000000000000000000000000000000000000000000000000000000815260040180806020018281038252600e8152602001807f4e6f2072652d656e7472616e637900000000000000000000000000000000000081525060200191505060405180910390fd5b600460009054906101000a900473ffffffffffffffffffffffffffffffffffffffff1673ffffffffffffffffffffffffffffffffffffffff1663479ad4c3846040518263ffffffff1660e01b815260040180828152602001915050600060405180830381600087803b15801561230957600080fd5b505af115801561231d573d6000803e3d6000fd5b505050506001600660006101000a81548160ff021916908315150217905550600360009054906101000a900473ffffffffffffffffffffffffffffffffffffffff1673ffffffffffffffffffffffffffffffffffffffff1663f5537ede6000809054906101000a900473ffffffffffffffffffffffffffffffffffffffff1632600460009054906101000a900473ffffffffffffffffffffffffffffffffffffffff1673ffffffffffffffffffffffffffffffffffffffff166340b56aac886040518263ffffffff1660e01b81526004018082815260200191505060206040518083038186803b15801561241057600080fd5b505afa158015612424573d6000803e3d6000fd5b505050506040513d602081101561243a57600080fd5b81019080805190602001909291905050506040518463ffffffff1660e01b8152600401808473ffffffffffffffffffffffffffffffffffffffff1673ffffffffffffffffffffffffffffffffffffffff1681526020018373ffffffffffffffffffffffffffffffffffffffff1673ffffffffffffffffffffffffffffffffffffffff1681526020018281526020019350505050600060405180830381600087803b1580156124e757600080fd5b505af11580156124fb573d6000803e3d6000fd5b505050507f56c2e7e77828864604b77615a940a062264e79b54565402c5ac37aececb826058332604051808381526020018273ffffffffffffffffffffffffffffffffffffffff1673ffffffffffffffffffffffffffffffffffffffff1681526020019250505060405180910390a1600460009054906101000a900473ffffffffffffffffffffffffffffffffffffffff1673ffffffffffffffffffffffffffffffffffffffff166340b56aac846040518263ffffffff1660e01b81526004018082815260200191505060206040518083038186803b1580156125dd57600080fd5b505afa1580156125f1573d6000803e3d6000fd5b505050506040513d602081101561260757600080fd5b81019080805190602001909291905050506001600082825403925050819055506000600660006101000a81548160ff0219169083151502179055507fffd32e47d603cfd366fb689e9d28dcf2bc6f949c7d73bab598315d49b18e56b1836040518082815260200191505060405180910390a1505050565b620151804201600581905550565b80600460009054906101000a900473ffffffffffffffffffffffffffffffffffffffff1673ffffffffffffffffffffffffffffffffffffffff16635443b28a826040518263ffffffff1660e01b81526004018082815260200191505060206040518083038186803b15801561270057600080fd5b505afa158015612714573d6000803e3d6000fd5b505050506040513d602081101561272a57600080fd5b81019080805190602001909291905050506127ad576040517f08c379a00000000000000000000000000000000000000000000000000000000081526004018080602001828103825260108152602001807f496e76616c6964204c697374696e67210000000000000000000000000000000081525060200191505060405180910390fd5b600460009054906101000a900473ffffffffffffffffffffffffffffffffffffffff1673ffffffffffffffffffffffffffffffffffffffff166344786fc3846040518263ffffffff1660e01b815260040180828152602001915050600060405180830381600087803b15801561282257600080fd5b505af1158015612836573d6000803e3d6000fd5b50505050505050565b606081600460009054906101000a900473ffffffffffffffffffffffffffffffffffffffff1673ffffffffffffffffffffffffffffffffffffffff16635443b28a826040518263ffffffff1660e01b81526004018082815260200191505060206040518083038186803b1580156128b557600080fd5b505afa1580156128c9573d6000803e3d6000fd5b505050506040513d60208110156128df57600080fd5b8101908080519060200190929190505050612962576040517f08c379a00000000000000000000000000000000000000000000000000000000081526004018080602001828103825260108152602001807f496e76616c6964204c697374696e67210000000000000000000000000000000081525060200191505060405180910390fd5b600460009054906101000a900473ffffffffffffffffffffffffffffffffffffffff1673ffffffffffffffffffffffffffffffffffffffff1663965f438c846040518263ffffffff1660e01b81526004018082815260200191505060006040518083038186803b1580156129d557600080fd5b505afa1580156129e9573d6000803e3d6000fd5b505050506040513d6000823e3d601f19601f820116820180604052506020811015612a1357600080fd5b8101908080516040519392919084640100000000821115612a3357600080fd5b83820191506020820185811115612a4957600080fd5b8251866001820283011164010000000082111715612a6657600080fd5b8083526020830192505050908051906020019080838360005b83811015612a9a578082015181840152602081019050612a7f565b50505050905090810190601f168015612ac75780820380516001836020036101000a031916815260200191505b5060405250505091505091905056fe596f7520617265206e6f742074686520646f6e6f72206f662074686973206c697374696e6721496e73756666696369656e742062616c616e636520696e206c697374696e6720746f20617070726f76652074686973207472616e73616374696f6e596f752063616e6e6f74207265717565737420666f7220796f7572206f776e206c697374696e672c2074727920756e6c697374696e6720696e737465616421596f7520617265206e6f7420616c6c6f77656420746f2075736520746869732066756e6374696f6e21a2646970667358221220e1df7a0e731b7d6be0de9053c7f10fe1ee3ebd6e27f6322b024119006930da9b64736f6c63430006010033",
  "source": "// SPDX-License-Identifier: MIT\r\npragma solidity >=0.6.0;\r\nimport \"./Token.sol\";\r\nimport \"./DonationMarketStorage.sol\";\r\n\r\ncontract DonationMarket {\r\n    address owner;\r\n    uint256 contractEthBalance;\r\n    uint256 listingCount;\r\n    Token tokenContract;\r\n    DonationMarketStorage donationMarketStorage;\r\n    uint contract_maintenance; // time tracker, deprecate the withdrawToken() and check for expiration daily\r\n\r\n\r\n    constructor(Token tokenAddress, DonationMarketStorage storageAddress) public {\r\n        tokenContract = tokenAddress;\r\n        donationMarketStorage = storageAddress;\r\n        owner = msg.sender;\r\n        autoDeprecate(); // set daily contract check\r\n    }\r\n\r\n    //Access Restrictions\r\n    modifier listingDonorOnly(uint256 listingId) {\r\n        require(tx.origin == donationMarketStorage.getListingDonorAddress(listingId), \"You are not the donor of this listing!\");\r\n        _;\r\n    }\r\n\r\n    modifier ownerOnly() {\r\n        require(msg.sender == owner, \"You are not allowed to use this function!\");\r\n         _;\r\n    }\r\n\r\n    //Security Functions \r\n\r\n    bool internal locked;\r\n    bool isStopped = false;\r\n\r\n    modifier noReentrancy() {\r\n        require(!locked, \"No re-entrancy\");\r\n        _;\r\n    }\r\n\r\n\r\n    modifier stoppedInEmergency {\r\n        require(!isStopped, \"contract stopped!\");\r\n        _;\r\n    }\r\n\r\n    modifier validListingOnly(uint256 listingId) {\r\n        require(donationMarketStorage.checkListing(listingId), \"Invalid Listing!\");\r\n         _;\r\n    }\r\n\r\n    //Emergency Stop\r\n    function toggleContactStopped() public ownerOnly() {\r\n        isStopped = !isStopped;\r\n    }\r\n\r\n    // deprecate daily to check if the token has expired before allowing withdrawal of tokens\r\n    function autoDeprecate() public {\r\n        contract_maintenance = block.timestamp + 1 days;\r\n    }\r\n\r\n    function hasExpired() public view returns (bool) {\r\n        return block.timestamp > contract_maintenance ? true : false;\r\n    }\r\n\r\n    modifier isActive {\r\n        require(! hasExpired(), \"Not active!\");\r\n        _;\r\n    }\r\n\r\n    modifier whenDeprecated {\r\n        require(hasExpired(), \"has not expired!\");\r\n        _;\r\n    }\r\n\r\n    \r\n    function selfDestruct() public ownerOnly() {\r\n        address payable addr = payable(owner);\r\n        selfdestruct(addr); \r\n    }\r\n\r\n    //Events\r\n    event transferred(uint256 listingId, address recipient);\r\n    event listingUnlisting(uint256 listingId);\r\n    event requestAdded(uint256 listingId, uint256 requestId);\r\n    event listingCreated(uint256 listingId);\r\n    event listingUnlisted(uint256 listingId); \r\n\r\n\r\n    //Automatic Deprecation of listing and unlisting (check the deadline)\r\n    function autoUnlist() internal whenDeprecated {\r\n        for (uint listId; listId < listingCount; listId++) {\r\n            for (uint req; req < donationMarketStorage.getListingRequests(req).length; req++) {\r\n                if (block.timestamp > donationMarketStorage.getRequestExpiry(req)) {\r\n                    cancelRequest(req, listId); // request has expired, removed request\r\n                }\r\n            }\r\n        }\r\n        autoDeprecate();\r\n    }\r\n\r\n    //Core Functions \r\n    function cancelRequest(uint256 requestId, uint256 listingId) public validListingOnly(listingId) {\r\n        donationMarketStorage.removeRequest(requestId);\r\n    }\r\n\r\n    function unlist(uint256 listingId) public  noReentrancy() validListingOnly(listingId) listingDonorOnly(listingId) stoppedInEmergency {\r\n        require(!locked, \"No re-entrancy\");\r\n        //TODO: unlist from Donation Market\r\n        donationMarketStorage.removeListing(listingId);\r\n        locked = true;\r\n        tokenContract.transferToken(owner, tx.origin, donationMarketStorage.getListingAmount(listingId));\r\n        emit transferred(listingId, tx.origin);\r\n        contractEthBalance -= donationMarketStorage.getListingAmount(listingId);\r\n        locked = false;\r\n        emit listingUnlisted(listingId);\r\n    }\r\n    \r\n\r\n    //approve function - send eth to recipients, minus amt from listing \r\n    // there will be no partial transfer! \r\n    function approve(uint256 requestId, uint256 listingId) public  noReentrancy() validListingOnly(listingId) listingDonorOnly(listingId) stoppedInEmergency {\r\n        require(donationMarketStorage.checkRequest(requestId), \"request has been taken down\");\r\n        //transfer tokens\r\n        locked = true;\r\n        uint256 amount = donationMarketStorage.getRequestAmt(requestId);\r\n        require(donationMarketStorage.getListingAmount(listingId) >= amount, \"Insufficient balance in listing to approve this transaction\");\r\n        tokenContract.transferToken(owner, donationMarketStorage.getRequestRecipientAddress(requestId), amount);\r\n        contractEthBalance -= amount ;\r\n        locked = false;\r\n        emit transferred(listingId, donationMarketStorage.getRequestRecipientAddress(requestId));\r\n        // transfer end, check \r\n        \r\n        donationMarketStorage.removeRequest(requestId);\r\n        donationMarketStorage.modifyListingAmount(listingId, amount, \"-\");\r\n\r\n        if (donationMarketStorage.getListingAmount(listingId) < 1) {\r\n            emit listingUnlisting(listingId);\r\n            unlist(listingId);\r\n        }\r\n\r\n    }\r\n    \r\n    //add request to listing\r\n    function addRequest(uint256 listingId, uint256 recipientId, uint256 amt , uint256 deadline, uint256 requestId) public  validListingOnly(listingId) isActive {\r\n        require(tx.origin != donationMarketStorage.getListingDonorAddress(listingId), \"You cannot request for your own listing, try unlisting instead!\");\r\n        uint expirationTime = block.timestamp + deadline * (1 days);\r\n        donationMarketStorage.addRequest(requestId, listingId, recipientId, amt, deadline, tx.origin, expirationTime);\r\n        emit requestAdded(listingId, requestId);\r\n    }\r\n\r\n\r\n    // create Listing + list \r\n    function createListing(uint256 donorId, uint256 amt, string memory category) public returns (uint256) {\r\n        contractEthBalance += amt;\r\n        uint256 listingId = listingCount;\r\n        listingCount += 1;\r\n        donationMarketStorage.addListing(listingId, donorId, tx.origin, category, amt);\r\n        emit listingCreated(listingId);\r\n        return listingId;\r\n    }\r\n\r\n    // getters in place to ensure that other contracts cannot directly access the donation market storage data layer\r\n    // and to enforce access modifiers for external contracts\r\n\r\n    //getter function for the requests in each listing\r\n    function getRecipientRequest(uint256 listingId) public view listingDonorOnly(listingId) validListingOnly(listingId) returns (uint256[] memory) {\r\n        uint256[] memory requests = donationMarketStorage.getListingRequests(listingId);\r\n        uint256[] memory activeRequest = new uint256[] ( requests.length);\r\n        uint8 counter = 0;\r\n        for (uint8 i=0; i <  requests.length;  i++) {\r\n            uint256 id = requests[i];\r\n            if (! donationMarketStorage.getRequestStatus(id)) {\r\n                activeRequest[counter] =  id;\r\n                counter ++;\r\n            }\r\n        }\r\n        return activeRequest;\r\n    }\r\n\r\n    //getter function for listing category for matching algorithm \r\n    function getCategory(uint256 listingId) public view validListingOnly(listingId) returns (string memory) {\r\n        return donationMarketStorage.getListingCategory(listingId);\r\n    }\r\n\r\n    //getter function to check if lsiting still avaliable \r\n    function checkListing(uint256 listingId) public view returns (bool) {\r\n        return donationMarketStorage.checkListing(listingId);\r\n    }\r\n\r\n    //getter function to get owner of contract\r\n    function getOwner() public view returns (address) {\r\n        return owner;\r\n    }\r\n    \r\n        // self-destruct function \r\n     function destroyContract() public ownerOnly {\r\n        address payable receiver = payable(owner);\r\n         selfdestruct(receiver);\r\n     }\r\n\r\n\r\n}",
  "sourcePath": "C:\\Users\\geral\\Desktop\\NUS\\Y3S2\\IS4302\\Project\\IS4302_GRP6\\contracts\\DonationMarket.sol",
  "compiler": {
    "name": "solc",
    "version": "0.6.1+commit.e6f7d5a4.Emscripten.clang"
  },
  "schemaVersion": "3.4.4",
  "updatedAt": "2022-04-06T13:05:51.022Z",
  "networkType": "ethereum",
  "devdoc": {
    "methods": {}
  },
  "userdoc": {
    "methods": {}
  }
}