{
  "contractName": "DonationMarket",
  "abi": [
    {
      "inputs": [
        {
          "internalType": "contract Token",
          "name": "tokenAddress",
          "type": "address"
        }
      ],
      "stateMutability": "nonpayable",
      "type": "constructor"
    },
    {
      "anonymous": false,
      "inputs": [
        {
          "indexed": false,
          "internalType": "uint256",
          "name": "listingId",
          "type": "uint256"
        }
      ],
      "name": "listingCreated",
      "type": "event"
    },
    {
      "anonymous": false,
      "inputs": [
        {
          "indexed": false,
          "internalType": "uint256",
          "name": "listingId",
          "type": "uint256"
        }
      ],
      "name": "listingUnlisted",
      "type": "event"
    },
    {
      "anonymous": false,
      "inputs": [
        {
          "indexed": false,
          "internalType": "uint256",
          "name": "listingId",
          "type": "uint256"
        }
      ],
      "name": "listingUnlisting",
      "type": "event"
    },
    {
      "anonymous": false,
      "inputs": [
        {
          "indexed": false,
          "internalType": "uint256",
          "name": "listingId",
          "type": "uint256"
        },
        {
          "indexed": false,
          "internalType": "uint256",
          "name": "requestId",
          "type": "uint256"
        }
      ],
      "name": "requestAdded",
      "type": "event"
    },
    {
      "anonymous": false,
      "inputs": [
        {
          "indexed": false,
          "internalType": "uint256",
          "name": "listingId",
          "type": "uint256"
        },
        {
          "indexed": false,
          "internalType": "address",
          "name": "recipient",
          "type": "address"
        }
      ],
      "name": "transferred",
      "type": "event"
    },
    {
      "inputs": [],
      "name": "toggleContactStopped",
      "outputs": [],
      "stateMutability": "nonpayable",
      "type": "function"
    },
    {
      "inputs": [],
      "name": "autoDeprecate",
      "outputs": [],
      "stateMutability": "nonpayable",
      "type": "function"
    },
    {
      "inputs": [],
      "name": "hasExpired",
      "outputs": [
        {
          "internalType": "bool",
          "name": "",
          "type": "bool"
        }
      ],
      "stateMutability": "view",
      "type": "function",
      "constant": true
    },
    {
      "inputs": [],
      "name": "selfDestruct",
      "outputs": [],
      "stateMutability": "nonpayable",
      "type": "function"
    },
    {
      "inputs": [
        {
          "internalType": "uint256",
          "name": "requestId",
          "type": "uint256"
        },
        {
          "internalType": "uint256",
          "name": "listingId",
          "type": "uint256"
        }
      ],
      "name": "cancelRequest",
      "outputs": [],
      "stateMutability": "nonpayable",
      "type": "function"
    },
    {
      "inputs": [
        {
          "internalType": "uint256",
          "name": "listingId",
          "type": "uint256"
        }
      ],
      "name": "unlist",
      "outputs": [],
      "stateMutability": "nonpayable",
      "type": "function"
    },
    {
      "inputs": [
        {
          "internalType": "uint256",
          "name": "requestId",
          "type": "uint256"
        },
        {
          "internalType": "uint256",
          "name": "listingId",
          "type": "uint256"
        }
      ],
      "name": "approve",
      "outputs": [],
      "stateMutability": "nonpayable",
      "type": "function"
    },
    {
      "inputs": [
        {
          "internalType": "uint256",
          "name": "listingId",
          "type": "uint256"
        },
        {
          "internalType": "uint256",
          "name": "recipientId",
          "type": "uint256"
        },
        {
          "internalType": "uint256",
          "name": "amt",
          "type": "uint256"
        },
        {
          "internalType": "uint256",
          "name": "deadline",
          "type": "uint256"
        },
        {
          "internalType": "uint256",
          "name": "requestId",
          "type": "uint256"
        }
      ],
      "name": "addRequest",
      "outputs": [],
      "stateMutability": "nonpayable",
      "type": "function"
    },
    {
      "inputs": [
        {
          "internalType": "uint256",
          "name": "donorId",
          "type": "uint256"
        },
        {
          "internalType": "uint256",
          "name": "amt",
          "type": "uint256"
        },
        {
          "internalType": "string",
          "name": "category",
          "type": "string"
        }
      ],
      "name": "createListing",
      "outputs": [
        {
          "internalType": "uint256",
          "name": "",
          "type": "uint256"
        }
      ],
      "stateMutability": "nonpayable",
      "type": "function"
    },
    {
      "inputs": [
        {
          "internalType": "uint256",
          "name": "listingId",
          "type": "uint256"
        }
      ],
      "name": "getListingAmt",
      "outputs": [
        {
          "internalType": "uint256",
          "name": "",
          "type": "uint256"
        }
      ],
      "stateMutability": "view",
      "type": "function",
      "constant": true
    },
    {
      "inputs": [
        {
          "internalType": "uint256",
          "name": "listingId",
          "type": "uint256"
        }
      ],
      "name": "getRecipientRequest",
      "outputs": [
        {
          "internalType": "uint256[]",
          "name": "",
          "type": "uint256[]"
        }
      ],
      "stateMutability": "view",
      "type": "function",
      "constant": true
    },
    {
      "inputs": [
        {
          "internalType": "uint256",
          "name": "requestId",
          "type": "uint256"
        }
      ],
      "name": "getStatus",
      "outputs": [
        {
          "internalType": "bool",
          "name": "",
          "type": "bool"
        }
      ],
      "stateMutability": "view",
      "type": "function",
      "constant": true
    },
    {
      "inputs": [
        {
          "internalType": "uint256",
          "name": "requestId",
          "type": "uint256"
        }
      ],
      "name": "getDeadline",
      "outputs": [
        {
          "internalType": "uint256",
          "name": "",
          "type": "uint256"
        }
      ],
      "stateMutability": "view",
      "type": "function",
      "constant": true
    },
    {
      "inputs": [
        {
          "internalType": "uint256",
          "name": "requestId",
          "type": "uint256"
        }
      ],
      "name": "getRequestAmt",
      "outputs": [
        {
          "internalType": "uint256",
          "name": "",
          "type": "uint256"
        }
      ],
      "stateMutability": "view",
      "type": "function",
      "constant": true
    },
    {
      "inputs": [
        {
          "internalType": "uint256",
          "name": "requestId",
          "type": "uint256"
        }
      ],
      "name": "getAddress",
      "outputs": [
        {
          "internalType": "address",
          "name": "",
          "type": "address"
        }
      ],
      "stateMutability": "view",
      "type": "function",
      "constant": true
    },
    {
      "inputs": [
        {
          "internalType": "uint256",
          "name": "listingId",
          "type": "uint256"
        }
      ],
      "name": "getCategory",
      "outputs": [
        {
          "internalType": "string",
          "name": "",
          "type": "string"
        }
      ],
      "stateMutability": "view",
      "type": "function",
      "constant": true
    },
    {
      "inputs": [],
      "name": "getOwner",
      "outputs": [
        {
          "internalType": "address",
          "name": "",
          "type": "address"
        }
      ],
      "stateMutability": "view",
      "type": "function",
      "constant": true
    },
    {
      "inputs": [
        {
          "internalType": "uint256",
          "name": "listingId",
          "type": "uint256"
        }
      ],
      "name": "checkListing",
      "outputs": [
        {
          "internalType": "bool",
          "name": "",
          "type": "bool"
        }
      ],
      "stateMutability": "view",
      "type": "function",
      "constant": true
    },
    {
      "inputs": [],
      "name": "destroyContract",
      "outputs": [],
      "stateMutability": "nonpayable",
      "type": "function"
    }
  ],
  "bytecode": "0x60806040526000600760016101000a81548160ff02191690831515021790555034801561002b57600080fd5b506040516125533803806125538339818101604052602081101561004e57600080fd5b810190808051906020019092919050505080600560006101000a81548173ffffffffffffffffffffffffffffffffffffffff021916908373ffffffffffffffffffffffffffffffffffffffff160217905550336000806101000a81548173ffffffffffffffffffffffffffffffffffffffff021916908373ffffffffffffffffffffffffffffffffffffffff1602179055506100ee6100f460201b60201c565b50610102565b620151804201600681905550565b612442806101116000396000f3fe608060405234801561001057600080fd5b50600436106101215760003560e01c806387b0c63c116100ad578063be523ab611610071578063be523ab614610522578063bf5a4dd314610564578063c63a2abe14610592578063d586d2e41461059c578063f3052d26146105d457610121565b806387b0c63c146103bb578063893d20e81461043e57806390e64d13146104885780639cb8a26a146104aa578063b93f9b0a146104b457610121565b80635443b28a116100f45780635443b28a146102ab5780635c622a0e146102f15780635d35a3d914610337578063750e6d091461036f578063828622751461037957610121565b8063092a5cce14610126578063384426581461013057806341449e7f146101865780634168597214610269575b600080fd5b61012e61067b565b005b610184600480360360a081101561014657600080fd5b81019080803590602001909291908035906020019092919080359060200190929190803590602001909291908035906020019092919050505061075f565b005b6102536004803603606081101561019c57600080fd5b810190808035906020019092919080359060200190929190803590602001906401000000008111156101cd57600080fd5b8201836020820111156101df57600080fd5b8035906020019184600183028401116401000000008311171561020157600080fd5b91908080601f016020809104026020016040519081016040528093929190818152602001838380828437600081840152601f19601f820116905080830192505050505050509192919290505050610add565b6040518082815260200191505060405180910390f35b6102956004803603602081101561027f57600080fd5b8101908080359060200190929190505050610c69565b6040518082815260200191505060405180910390f35b6102d7600480360360208110156102c157600080fd5b8101908080359060200190929190505050610c89565b604051808215151515815260200191505060405180910390f35b61031d6004803603602081101561030757600080fd5b8101908080359060200190929190505050610cb6565b604051808215151515815260200191505060405180910390f35b61036d6004803603604081101561034d57600080fd5b810190808035906020019092919080359060200190929190505050610ce3565b005b6103776113c2565b005b6103a56004803603602081101561038f57600080fd5b8101908080359060200190929190505050611493565b6040518082815260200191505060405180910390f35b6103e7600480360360208110156103d157600080fd5b81019080803590602001909291905050506114b3565b6040518080602001828103825283818151815260200191508051906020019060200280838360005b8381101561042a57808201518184015260208101905061040f565b505050509050019250505060405180910390f35b61044661171e565b604051808273ffffffffffffffffffffffffffffffffffffffff1673ffffffffffffffffffffffffffffffffffffffff16815260200191505060405180910390f35b610490611747565b604051808215151515815260200191505060405180910390f35b6104b2611761565b005b6104e0600480360360208110156104ca57600080fd5b8101908080359060200190929190505050611845565b604051808273ffffffffffffffffffffffffffffffffffffffff1673ffffffffffffffffffffffffffffffffffffffff16815260200191505060405180910390f35b61054e6004803603602081101561053857600080fd5b8101908080359060200190929190505050611885565b6040518082815260200191505060405180910390f35b6105906004803603602081101561057a57600080fd5b810190808035906020019092919050505061193d565b005b61059a611ec8565b005b6105d2600480360360408110156105b257600080fd5b810190808035906020019092919080359060200190929190505050611ed6565b005b610600600480360360208110156105ea57600080fd5b8101908080359060200190929190505050611ff7565b6040518080602001828103825283818151815260200191508051906020019080838360005b83811015610640578082015181840152602081019050610625565b50505050905090810190601f16801561066d5780820380516001836020036101000a031916815260200191505b509250505060405180910390f35b6000809054906101000a900473ffffffffffffffffffffffffffffffffffffffff1673ffffffffffffffffffffffffffffffffffffffff163373ffffffffffffffffffffffffffffffffffffffff1614610720576040517f08c379a00000000000000000000000000000000000000000000000000000000081526004018080602001828103825260298152602001806123a76029913960400191505060405180910390fd5b60008060009054906101000a900473ffffffffffffffffffffffffffffffffffffffff1690508073ffffffffffffffffffffffffffffffffffffffff16ff5b846003600082815260200190815260200160002060050160009054906101000a900460ff166107f6576040517f08c379a000000000000000000000000000000000000000000000000000000000815260040180806020018281038252600e8152602001807f496e76616c696420546f6b656e2100000000000000000000000000000000000081525060200191505060405180910390fd5b6107fe611747565b15610871576040517f08c379a000000000000000000000000000000000000000000000000000000000815260040180806020018281038252600b8152602001807f4e6f74206163746976652100000000000000000000000000000000000000000081525060200191505060405180910390fd5b6003600087815260200190815260200160002060010160009054906101000a900473ffffffffffffffffffffffffffffffffffffffff1673ffffffffffffffffffffffffffffffffffffffff163273ffffffffffffffffffffffffffffffffffffffff16141561092c576040517f08c379a000000000000000000000000000000000000000000000000000000000815260040180806020018281038252603d8152602001806123d0603d913960400191505060405180910390fd5b600062015180840242019050610940612147565b6040518060e001604052808881526020018781526020016000151581526020018681526020013273ffffffffffffffffffffffffffffffffffffffff1681526020016001151581526020018381525090508060046000868152602001908152602001600020600082015181600001556020820151816001015560408201518160020160006101000a81548160ff0219169083151502179055506060820151816003015560808201518160040160006101000a81548173ffffffffffffffffffffffffffffffffffffffff021916908373ffffffffffffffffffffffffffffffffffffffff16021790555060a08201518160040160146101000a81548160ff02191690831515021790555060c08201518160050155905050600360008981526020019081526020016000206004018490806001815401808255809150506001900390600052602060002001600090919091909150557f77f0be1b7b6a20a26b6fcd837f949cea9981e096b8d85c1090012c3a0178e61e8885604051808381526020018281526020019250505060405180910390a15050505050505050565b6000826001600082825401925050819055506060600060025490506001600260008282540192505081905550610b1161219e565b6040518060c001604052808881526020013273ffffffffffffffffffffffffffffffffffffffff16815260200186815260200187815260200184815260200160011515815250905080600360008481526020019081526020016000206000820151816000015560208201518160010160006101000a81548173ffffffffffffffffffffffffffffffffffffffff021916908373ffffffffffffffffffffffffffffffffffffffff1602179055506040820151816002019080519060200190610bda9291906121ec565b50606082015181600301556080820151816004019080519060200190610c0192919061226c565b5060a08201518160050160006101000a81548160ff0219169083151502179055509050507fd206beffd2e44cded178889ecd9ceaff7b9ed20ef2b03c9213c27933792995a7826040518082815260200191505060405180910390a18193505050509392505050565b600060046000838152602001908152602001600020600101549050919050565b60006003600083815260200190815260200160002060050160009054906101000a900460ff169050919050565b60006004600083815260200190815260200160002060020160009054906101000a900460ff169050919050565b600760009054906101000a900460ff1615610d66576040517f08c379a000000000000000000000000000000000000000000000000000000000815260040180806020018281038252600e8152602001807f4e6f2072652d656e7472616e637900000000000000000000000000000000000081525060200191505060405180910390fd5b806003600082815260200190815260200160002060050160009054906101000a900460ff16610dfd576040517f08c379a000000000000000000000000000000000000000000000000000000000815260040180806020018281038252600e8152602001807f496e76616c696420546f6b656e2100000000000000000000000000000000000081525060200191505060405180910390fd5b816003600082815260200190815260200160002060010160009054906101000a900473ffffffffffffffffffffffffffffffffffffffff1673ffffffffffffffffffffffffffffffffffffffff163273ffffffffffffffffffffffffffffffffffffffff1614610eb8576040517f08c379a00000000000000000000000000000000000000000000000000000000081526004018080602001828103825260248152602001806123486024913960400191505060405180910390fd5b600760019054906101000a900460ff1615610f3b576040517f08c379a00000000000000000000000000000000000000000000000000000000081526004018080602001828103825260118152602001807f636f6e74726163742073746f707065642100000000000000000000000000000081525060200191505060405180910390fd5b6004600085815260200190815260200160002060040160149054906101000a900460ff16610fd1576040517f08c379a000000000000000000000000000000000000000000000000000000000815260040180806020018281038252601b8152602001807f7265717565737420686173206265656e2074616b656e20646f776e000000000081525060200191505060405180910390fd5b6001600760006101000a81548160ff0219169083151502179055506000600460008681526020019081526020016000206001015490508060036000868152602001908152602001600020600301541015611076576040517f08c379a000000000000000000000000000000000000000000000000000000000815260040180806020018281038252603b81526020018061236c603b913960400191505060405180910390fd5b600560009054906101000a900473ffffffffffffffffffffffffffffffffffffffff1673ffffffffffffffffffffffffffffffffffffffff1663f5537ede6000809054906101000a900473ffffffffffffffffffffffffffffffffffffffff166004600089815260200190815260200160002060040160009054906101000a900473ffffffffffffffffffffffffffffffffffffffff16846040518463ffffffff1660e01b8152600401808473ffffffffffffffffffffffffffffffffffffffff1673ffffffffffffffffffffffffffffffffffffffff1681526020018373ffffffffffffffffffffffffffffffffffffffff1673ffffffffffffffffffffffffffffffffffffffff1681526020018281526020019350505050600060405180830381600087803b1580156111aa57600080fd5b505af11580156111be573d6000803e3d6000fd5b50505050806001600082825403925050819055506000600760006101000a81548160ff0219169083151502179055507f56c2e7e77828864604b77615a940a062264e79b54565402c5ac37aececb82605846004600088815260200190815260200160002060040160009054906101000a900473ffffffffffffffffffffffffffffffffffffffff16604051808381526020018273ffffffffffffffffffffffffffffffffffffffff1673ffffffffffffffffffffffffffffffffffffffff1681526020019250505060405180910390a16004600086815260200190815260200160002060008082016000905560018201600090556002820160006101000a81549060ff021916905560038201600090556004820160006101000a81549073ffffffffffffffffffffffffffffffffffffffff02191690556004820160146101000a81549060ff0219169055600582016000905550508060036000868152602001908152602001600020600301600082825403925050819055508060036000868152602001908152602001600020600301600082825403925050819055506001600360008681526020019081526020016000206003015410156113bb577f4185a87418a325f3aba6a952863f98ace4ecc0e0c1348e076f6462a7808e09d2846040518082815260200191505060405180910390a16113ba8461193d565b5b5050505050565b6000809054906101000a900473ffffffffffffffffffffffffffffffffffffffff1673ffffffffffffffffffffffffffffffffffffffff163373ffffffffffffffffffffffffffffffffffffffff1614611467576040517f08c379a00000000000000000000000000000000000000000000000000000000081526004018080602001828103825260298152602001806123a76029913960400191505060405180910390fd5b600760019054906101000a900460ff1615600760016101000a81548160ff021916908315150217905550565b600060046000838152602001908152602001600020600301549050919050565b6060816003600082815260200190815260200160002060010160009054906101000a900473ffffffffffffffffffffffffffffffffffffffff1673ffffffffffffffffffffffffffffffffffffffff163273ffffffffffffffffffffffffffffffffffffffff1614611570576040517f08c379a00000000000000000000000000000000000000000000000000000000081526004018080602001828103825260248152602001806123486024913960400191505060405180910390fd5b826003600082815260200190815260200160002060050160009054906101000a900460ff16611607576040517f08c379a000000000000000000000000000000000000000000000000000000000815260040180806020018281038252600e8152602001807f496e76616c696420546f6b656e2100000000000000000000000000000000000081525060200191505060405180910390fd5b606060036000868152602001908152602001600020600401805490506040519080825280602002602001820160405280156116515781602001602082028038833980820191505090505b509050600080905060008090505b60036000888152602001908152602001600020600401805490508160ff161015611711576000600360008981526020019081526020016000206004018260ff16815481106116a957fe5b906000526020600020015490506004600082815260200190815260200160002060020160009054906101000a900460ff166117035780848460ff16815181106116ee57fe5b60200260200101818152505082806001019350505b50808060010191505061165f565b5081945050505050919050565b60008060009054906101000a900473ffffffffffffffffffffffffffffffffffffffff16905090565b6000600654421161175957600061175c565b60015b905090565b6000809054906101000a900473ffffffffffffffffffffffffffffffffffffffff1673ffffffffffffffffffffffffffffffffffffffff163373ffffffffffffffffffffffffffffffffffffffff1614611806576040517f08c379a00000000000000000000000000000000000000000000000000000000081526004018080602001828103825260298152602001806123a76029913960400191505060405180910390fd5b60008060009054906101000a900473ffffffffffffffffffffffffffffffffffffffff1690508073ffffffffffffffffffffffffffffffffffffffff16ff5b60006004600083815260200190815260200160002060040160009054906101000a900473ffffffffffffffffffffffffffffffffffffffff169050919050565b6000816003600082815260200190815260200160002060050160009054906101000a900460ff1661191e576040517f08c379a000000000000000000000000000000000000000000000000000000000815260040180806020018281038252600e8152602001807f496e76616c696420546f6b656e2100000000000000000000000000000000000081525060200191505060405180910390fd5b6003600084815260200190815260200160002060030154915050919050565b600760009054906101000a900460ff16156119c0576040517f08c379a000000000000000000000000000000000000000000000000000000000815260040180806020018281038252600e8152602001807f4e6f2072652d656e7472616e637900000000000000000000000000000000000081525060200191505060405180910390fd5b806003600082815260200190815260200160002060050160009054906101000a900460ff16611a57576040517f08c379a000000000000000000000000000000000000000000000000000000000815260040180806020018281038252600e8152602001807f496e76616c696420546f6b656e2100000000000000000000000000000000000081525060200191505060405180910390fd5b816003600082815260200190815260200160002060010160009054906101000a900473ffffffffffffffffffffffffffffffffffffffff1673ffffffffffffffffffffffffffffffffffffffff163273ffffffffffffffffffffffffffffffffffffffff1614611b12576040517f08c379a00000000000000000000000000000000000000000000000000000000081526004018080602001828103825260248152602001806123486024913960400191505060405180910390fd5b600760019054906101000a900460ff1615611b95576040517f08c379a00000000000000000000000000000000000000000000000000000000081526004018080602001828103825260118152602001807f636f6e74726163742073746f707065642100000000000000000000000000000081525060200191505060405180910390fd5b600760009054906101000a900460ff1615611c18576040517f08c379a000000000000000000000000000000000000000000000000000000000815260040180806020018281038252600e8152602001807f4e6f2072652d656e7472616e637900000000000000000000000000000000000081525060200191505060405180910390fd5b600360008481526020019081526020016000206000808201600090556001820160006101000a81549073ffffffffffffffffffffffffffffffffffffffff0219169055600282016000611c6b91906122b9565b6003820160009055600482016000611c839190612301565b6005820160006101000a81549060ff021916905550506001600760006101000a81548160ff021916908315150217905550600560009054906101000a900473ffffffffffffffffffffffffffffffffffffffff1673ffffffffffffffffffffffffffffffffffffffff1663f5537ede6000809054906101000a900473ffffffffffffffffffffffffffffffffffffffff163260036000888152602001908152602001600020600301546040518463ffffffff1660e01b8152600401808473ffffffffffffffffffffffffffffffffffffffff1673ffffffffffffffffffffffffffffffffffffffff1681526020018373ffffffffffffffffffffffffffffffffffffffff1673ffffffffffffffffffffffffffffffffffffffff1681526020018281526020019350505050600060405180830381600087803b158015611dc857600080fd5b505af1158015611ddc573d6000803e3d6000fd5b505050507f56c2e7e77828864604b77615a940a062264e79b54565402c5ac37aececb826058332604051808381526020018273ffffffffffffffffffffffffffffffffffffffff1673ffffffffffffffffffffffffffffffffffffffff1681526020019250505060405180910390a160036000848152602001908152602001600020600301546001600082825403925050819055506000600760006101000a81548160ff0219169083151502179055507fffd32e47d603cfd366fb689e9d28dcf2bc6f949c7d73bab598315d49b18e56b1836040518082815260200191505060405180910390a1505050565b620151804201600681905550565b806003600082815260200190815260200160002060050160009054906101000a900460ff16611f6d576040517f08c379a000000000000000000000000000000000000000000000000000000000815260040180806020018281038252600e8152602001807f496e76616c696420546f6b656e2100000000000000000000000000000000000081525060200191505060405180910390fd5b6004600084815260200190815260200160002060008082016000905560018201600090556002820160006101000a81549060ff021916905560038201600090556004820160006101000a81549073ffffffffffffffffffffffffffffffffffffffff02191690556004820160146101000a81549060ff021916905560058201600090555050505050565b6060816003600082815260200190815260200160002060050160009054906101000a900460ff16612090576040517f08c379a000000000000000000000000000000000000000000000000000000000815260040180806020018281038252600e8152602001807f496e76616c696420546f6b656e2100000000000000000000000000000000000081525060200191505060405180910390fd5b600360008481526020019081526020016000206002018054600181600116156101000203166002900480601f01602080910402602001604051908101604052809291908181526020018280546001816001161561010002031660029004801561213a5780601f1061210f5761010080835404028352916020019161213a565b820191906000526020600020905b81548152906001019060200180831161211d57829003601f168201915b5050505050915050919050565b6040518060e00160405280600081526020016000815260200160001515815260200160008152602001600073ffffffffffffffffffffffffffffffffffffffff168152602001600015158152602001600081525090565b6040518060c0016040528060008152602001600073ffffffffffffffffffffffffffffffffffffffff1681526020016060815260200160008152602001606081526020016000151581525090565b828054600181600116156101000203166002900490600052602060002090601f016020900481019282601f1061222d57805160ff191683800117855561225b565b8280016001018555821561225b579182015b8281111561225a57825182559160200191906001019061223f565b5b5090506122689190612322565b5090565b8280548282559060005260206000209081019282156122a8579160200282015b828111156122a757825182559160200191906001019061228c565b5b5090506122b59190612322565b5090565b50805460018160011615610100020316600290046000825580601f106122df57506122fe565b601f0160209004906000526020600020908101906122fd9190612322565b5b50565b508054600082559060005260206000209081019061231f9190612322565b50565b61234491905b80821115612340576000816000905550600101612328565b5090565b9056fe596f7520617265206e6f742074686520646f6e6f72206f66207468697320746f6b656e21496e73756666696369656e742062616c616e636520696e206c697374696e6720746f20617070726f76652074686973207472616e73616374696f6e596f7520617265206e6f7420616c6c6f77656420746f2075736520746869732066756e6374696f6e21596f752063616e6e6f74207265717565737420666f7220796f7572206f776e20746f6b656e2c2074727920756e6c697374696e6720696e737465616421a2646970667358221220ca072c125ba35c2e7732af0ab1c11307e12bb1128b4552ca435ade1a85c41bcc64736f6c63430006010033",
  "source": "// SPDX-License-Identifier: MIT\npragma solidity >=0.6.0;\nimport \"./Token.sol\";\n\ncontract DonationMarket {\n    address owner;\n    uint256 contractEthBalance;\n    uint256 listingCount;\n    mapping(uint256 => listing) Listings;\n    mapping (uint256 => state) ListingRequests; \n    Token tokenContract;\n    uint contract_maintenance; // time tracker, deprecate the withdrawToken() and check for expiration daily\n\n    struct listing {\n        uint256 donorId;\n        address donorAddress;\n        string category;\n        uint256 amt;\n        uint256[] requestIdList;\n        bool isValue;\n\n    }\n\n    struct state {\n        uint256 recipientId;\n        uint256 requestAmt;\n        bool isCompleted;\n        uint256 deadline;\n        address recipientAddress;\n        bool isValue;\n        uint expired;\n    }\n    \n\n    constructor(Token tokenAddress) public {\n        tokenContract = tokenAddress;\n        owner = msg.sender;\n        autoDeprecate(); // set daily contract check\n    }\n\n\n    //Access Restrictions\n    modifier listingDonorOnly(uint256 listingId) {\n        require(tx.origin == Listings[listingId].donorAddress, \"You are not the donor of this token!\");\n        _;\n    }\n\n\n    modifier validListingOnly(uint256 listingId) {\n        require(Listings[listingId].isValue, \"Invalid Token!\");\n         _;\n    }\n\n    modifier ownerOnly() {\n        require(msg.sender == owner, \"You are not allowed to use this function!\");\n         _;\n    }\n\n    //Security Functions \n\n    bool internal locked;\n    bool isStopped = false;\n\n    modifier noReentrancy() {\n        require(!locked, \"No re-entrancy\");\n        _;\n    }\n\n\n    modifier stoppedInEmergency {\n        require(!isStopped, \"contract stopped!\");\n        _;\n    }\n\n    //Emergency Stop\n    function toggleContactStopped() public ownerOnly() {\n        isStopped = !isStopped;\n    }\n\n    // deprecate daily to check if the token has expired before allowing withdrawal of tokens\n    function autoDeprecate() public {\n        contract_maintenance = block.timestamp + 1 days;\n    }\n\n    function hasExpired() public view returns (bool) {\n        return block.timestamp > contract_maintenance ? true : false;\n    }\n\n    modifier isActive {\n        require(! hasExpired(), \"Not active!\");\n        _;\n    }\n\n    modifier whenDeprecated {\n        require(hasExpired(), \"has not expired!\");\n        _;\n    }\n\n    \n    function selfDestruct() public ownerOnly() {\n        address payable addr = payable(owner);\n        selfdestruct(addr); \n    }\n\n    //Events\n    event transferred(uint256 listingId, address recipient);\n    event listingUnlisting(uint256 listingId);\n    event requestAdded(uint256 listingId, uint256 requestId);\n    event listingCreated(uint256 listingId);\n    event listingUnlisted(uint256 listingId); \n\n\n    //Automatic Deprecation of listing and unlisting (check the deadline)\n    function autoUnlist() internal whenDeprecated {\n        for (uint listId; listId < listingCount; listId++) {\n            for (uint req; req < Listings[listId].requestIdList.length; req++) {\n                if (block.timestamp > ListingRequests[req].expired) {\n                    cancelRequest(req, listId); // request has expired, removed request\n                }\n            }\n        }\n        autoDeprecate();\n    }\n\n    //Core Functions\n    function cancelRequest(uint256 requestId, uint256 listingId) public validListingOnly(listingId) {\n        delete ListingRequests[requestId];\n    }\n\n    function unlist(uint256 listingId) public  noReentrancy() validListingOnly(listingId) listingDonorOnly(listingId) stoppedInEmergency {\n        require(!locked, \"No re-entrancy\");\n        //TODO: unlist from Donation Market\n        delete Listings[listingId];\n        locked = true;\n        tokenContract.transferToken(owner, tx.origin, Listings[listingId].amt);\n        emit transferred(listingId, tx.origin);\n        contractEthBalance -= Listings[listingId].amt;\n        locked = false;\n        emit listingUnlisted(listingId);\n      \n        \n    }\n    \n\n    //approve function - send eth to recipients, minus amt from listing \n    // there will be no partial transfer! \n    function approve(uint256 requestId, uint256 listingId) public  noReentrancy() validListingOnly(listingId) listingDonorOnly(listingId) stoppedInEmergency {\n        require(ListingRequests[requestId].isValue, \"request has been taken down\");\n        //transfer tokens\n        locked = true;\n        uint256 amount = ListingRequests[requestId].requestAmt;\n        require(Listings[listingId].amt >= amount, \"Insufficient balance in listing to approve this transaction\");\n        tokenContract.transferToken(owner, ListingRequests[requestId].recipientAddress, amount);\n        contractEthBalance -= amount ;\n        locked = false;\n        emit transferred(listingId, ListingRequests[requestId].recipientAddress);\n        // transfer end, check \n        \n        delete ListingRequests[requestId]; \n        Listings[listingId].amt -= amount;\n\n        Listings[listingId].amt -= amount;\n        if (Listings[listingId].amt  < 1) { \n            emit listingUnlisting(listingId);\n            unlist(listingId);\n        }\n    \n\n    }\n    \n    //add request to listing\n    function addRequest(uint256 listingId, uint256 recipientId, uint256 amt , uint256 deadline, uint256 requestId) public  validListingOnly(listingId) isActive {\n        require(tx.origin != Listings[listingId].donorAddress, \"You cannot request for your own token, try unlisting instead!\");\n        uint expirationTime = block.timestamp + deadline * (1 days);\n        state memory newState = state(recipientId, amt, false, deadline, tx.origin, true, expirationTime);\n        ListingRequests[requestId] = newState;\n        Listings[listingId].requestIdList.push(requestId);\n        emit requestAdded(listingId, requestId);\n    }\n\n\n    // create Listing + list \n    function createListing(uint256 donorId, uint256 amt, string memory category) public returns (uint256) {\n        contractEthBalance += amt;\n        uint256[] memory recipientList;\n        uint256 listingId = listingCount;\n        listingCount += 1;\n        listing memory newListing = listing(donorId,tx.origin, category, amt,recipientList, true);\n        Listings[listingId]= newListing;\n        emit listingCreated(listingId);\n        return listingId;\n\n    }\n\n\n\n\n    //Getter Functions\n    //getter function for the amt of each listing\n     function getListingAmt(uint256 listingId) public view  validListingOnly(listingId) returns (uint256) {\n        return Listings[listingId].amt;\n    }\n\n\n    //getter function for the requests in each listing\n    function getRecipientRequest(uint256 listingId) public view listingDonorOnly(listingId) validListingOnly(listingId) returns (uint256[] memory) {\n        uint256[] memory activeRequest = new uint256[] ( Listings[listingId].requestIdList.length);\n        uint8 counter = 0;\n        for (uint8 i=0; i <  Listings[listingId].requestIdList.length;  i++) {\n            uint256 id = Listings[listingId].requestIdList[i];\n            if (! ListingRequests[id].isCompleted) {\n                activeRequest[counter] =  id;\n                counter ++;\n            }\n        }\n        return activeRequest;\n    }\n\n    //getter function of status for the each request of each listing\n    function  getStatus(uint256 requestId) public view returns (bool) {\n        return  ListingRequests[requestId].isCompleted;\n    }\n\n    //getter function of deadline for the each request of each listing\n    function getDeadline(uint256 requestId) public view  returns (uint256) {\n        return   ListingRequests[requestId].deadline;\n    }\n\n        //getter function of request for the each request of each listing\n    function  getRequestAmt(uint256 requestId) public view  returns (uint256) {\n        return  ListingRequests[requestId].requestAmt;\n    }\n    \n          //getter function of address for the each request of each listing\n    function  getAddress(uint256 requestId) public view returns (address) {\n        return  ListingRequests[requestId].recipientAddress;\n    }\n    \n\n    //getter function for listing category for matching algorithm \n    function getCategory(uint256 listingId) public view validListingOnly(listingId) returns (string memory) {\n        return Listings[listingId].category;\n    }\n\n    //getter function for owner\n    function getOwner() public view returns(address) {\n        return owner;\n    }\n\n    //getter function to check if lsiting still avaliable \n    function checkListing(uint256 listingId) public view returns (bool) {\n        return Listings[listingId].isValue;\n    }\n    \n        // self-destruct function \n     function destroyContract() public ownerOnly {\n        address payable receiver = payable(owner);\n         selfdestruct(receiver);\n     }\n\n\n}",
  "sourcePath": "/Users/_mayveeee_/Desktop/IS4302_GRP6/contracts/DonationMarket.sol",
  "compiler": {
    "name": "solc",
    "version": "0.6.1+commit.e6f7d5a4.Emscripten.clang"
  },
  "schemaVersion": "3.4.4",
  "updatedAt": "2022-04-03T11:09:14.684Z",
  "networkType": "ethereum",
  "devdoc": {
    "methods": {}
  },
  "userdoc": {
    "methods": {}
  }
}