{
  "contractName": "Donor",
  "abi": [
    {
      "inputs": [
        {
          "internalType": "contract Token",
          "name": "tokenAddress",
          "type": "address"
        },
        {
          "internalType": "contract Recipient",
          "name": "recipientAddress",
          "type": "address"
        }
      ],
      "stateMutability": "nonpayable",
      "type": "constructor"
    },
    {
      "anonymous": false,
      "inputs": [
        {
          "indexed": false,
          "internalType": "uint256",
          "name": "tokenID",
          "type": "uint256"
        },
        {
          "indexed": false,
          "internalType": "address",
          "name": "recipient",
          "type": "address"
        }
      ],
      "name": "approved",
      "type": "event"
    },
    {
      "anonymous": false,
      "inputs": [
        {
          "indexed": false,
          "internalType": "uint256",
          "name": "tokenId",
          "type": "uint256"
        },
        {
          "indexed": false,
          "internalType": "uint256",
          "name": "recipientId",
          "type": "uint256"
        },
        {
          "indexed": false,
          "internalType": "uint256",
          "name": "donorId",
          "type": "uint256"
        }
      ],
      "name": "approvedRecipient",
      "type": "event"
    },
    {
      "anonymous": false,
      "inputs": [
        {
          "indexed": false,
          "internalType": "uint256",
          "name": "donorId",
          "type": "uint256"
        }
      ],
      "name": "createdDonor",
      "type": "event"
    },
    {
      "anonymous": false,
      "inputs": [
        {
          "indexed": false,
          "internalType": "uint256",
          "name": "donorId",
          "type": "uint256"
        },
        {
          "indexed": false,
          "internalType": "uint256",
          "name": "tokenId",
          "type": "uint256"
        },
        {
          "indexed": false,
          "internalType": "uint256",
          "name": "amt",
          "type": "uint256"
        }
      ],
      "name": "createdToken",
      "type": "event"
    },
    {
      "anonymous": false,
      "inputs": [
        {
          "indexed": false,
          "internalType": "uint256",
          "name": "donorId",
          "type": "uint256"
        },
        {
          "indexed": false,
          "internalType": "uint256",
          "name": "amt",
          "type": "uint256"
        }
      ],
      "name": "toppedUpWallet",
      "type": "event"
    },
    {
      "inputs": [],
      "name": "contractStopped",
      "outputs": [
        {
          "internalType": "bool",
          "name": "",
          "type": "bool"
        }
      ],
      "stateMutability": "view",
      "type": "function"
    },
    {
      "inputs": [
        {
          "internalType": "uint256",
          "name": "",
          "type": "uint256"
        }
      ],
      "name": "donors",
      "outputs": [
        {
          "internalType": "address",
          "name": "owner",
          "type": "address"
        },
        {
          "internalType": "string",
          "name": "username",
          "type": "string"
        },
        {
          "internalType": "string",
          "name": "pw",
          "type": "string"
        },
        {
          "internalType": "uint256",
          "name": "walletValue",
          "type": "uint256"
        }
      ],
      "stateMutability": "view",
      "type": "function"
    },
    {
      "inputs": [],
      "name": "numDonors",
      "outputs": [
        {
          "internalType": "uint256",
          "name": "",
          "type": "uint256"
        }
      ],
      "stateMutability": "view",
      "type": "function"
    },
    {
      "inputs": [
        {
          "internalType": "uint256",
          "name": "",
          "type": "uint256"
        },
        {
          "internalType": "uint256",
          "name": "",
          "type": "uint256"
        }
      ],
      "name": "tokensCreated",
      "outputs": [
        {
          "internalType": "uint256",
          "name": "",
          "type": "uint256"
        }
      ],
      "stateMutability": "view",
      "type": "function"
    },
    {
      "inputs": [
        {
          "internalType": "string",
          "name": "name",
          "type": "string"
        },
        {
          "internalType": "string",
          "name": "password",
          "type": "string"
        }
      ],
      "name": "createDonor",
      "outputs": [
        {
          "internalType": "uint256",
          "name": "",
          "type": "uint256"
        }
      ],
      "stateMutability": "nonpayable",
      "type": "function"
    },
    {
      "inputs": [
        {
          "internalType": "uint256",
          "name": "donorId",
          "type": "uint256"
        },
        {
          "internalType": "uint256",
          "name": "amt",
          "type": "uint256"
        },
        {
          "internalType": "string",
          "name": "category",
          "type": "string"
        }
      ],
      "name": "createToken",
      "outputs": [],
      "stateMutability": "nonpayable",
      "type": "function"
    },
    {
      "inputs": [],
      "name": "toggleContactStopped",
      "outputs": [],
      "stateMutability": "nonpayable",
      "type": "function"
    },
    {
      "inputs": [
        {
          "internalType": "uint256",
          "name": "tokenId",
          "type": "uint256"
        },
        {
          "internalType": "uint256",
          "name": "recipientId",
          "type": "uint256"
        },
        {
          "internalType": "uint256",
          "name": "donorId",
          "type": "uint256"
        }
      ],
      "name": "approveRecipient",
      "outputs": [],
      "stateMutability": "payable",
      "type": "function"
    },
    {
      "inputs": [
        {
          "internalType": "uint256",
          "name": "amt",
          "type": "uint256"
        }
      ],
      "name": "transferToContract",
      "outputs": [],
      "stateMutability": "payable",
      "type": "function"
    },
    {
      "inputs": [
        {
          "internalType": "uint256",
          "name": "donorId",
          "type": "uint256"
        }
      ],
      "name": "topUpWallet",
      "outputs": [],
      "stateMutability": "payable",
      "type": "function"
    },
    {
      "inputs": [
        {
          "internalType": "uint256",
          "name": "donorId",
          "type": "uint256"
        }
      ],
      "name": "getWallet",
      "outputs": [
        {
          "internalType": "uint256",
          "name": "",
          "type": "uint256"
        }
      ],
      "stateMutability": "view",
      "type": "function"
    },
    {
      "inputs": [
        {
          "internalType": "uint256",
          "name": "donorId",
          "type": "uint256"
        }
      ],
      "name": "getDonorAddress",
      "outputs": [
        {
          "internalType": "address",
          "name": "",
          "type": "address"
        }
      ],
      "stateMutability": "view",
      "type": "function"
    },
    {
      "inputs": [
        {
          "internalType": "uint256",
          "name": "donorId",
          "type": "uint256"
        }
      ],
      "name": "getActiveTokens",
      "outputs": [
        {
          "internalType": "uint256[]",
          "name": "",
          "type": "uint256[]"
        }
      ],
      "stateMutability": "view",
      "type": "function"
    },
    {
      "inputs": [],
      "name": "destroyContract",
      "outputs": [],
      "stateMutability": "nonpayable",
      "type": "function"
    }
  ],
  "bytecode": "0x608060405260006003556000600660006101000a81548160ff0219169083151502179055506000600660016101000a81548160ff02191690831515021790555034801561004b57600080fd5b50604051611aad380380611aad8339818101604052604081101561006e57600080fd5b810190808051906020019092919080519060200190929190505050816000806101000a81548173ffffffffffffffffffffffffffffffffffffffff021916908373ffffffffffffffffffffffffffffffffffffffff16021790555080600160006101000a81548173ffffffffffffffffffffffffffffffffffffffff021916908373ffffffffffffffffffffffffffffffffffffffff16021790555033600260006101000a81548173ffffffffffffffffffffffffffffffffffffffff021916908373ffffffffffffffffffffffffffffffffffffffff16021790555050506119518061015c6000396000f3fe6080604052600436106100dd5760003560e01c8063750e6d091161007f578063ba872e6211610059578063ba872e6214610519578063d38b1da714610594578063d555d47314610707578063daea74c514610735576100dd565b8063750e6d09146104475780638d42fcc01461045e5780639034b427146104ee576100dd565b80634abfa163116100bb5780634abfa163146101805780635470b13b146102da5780635f78f4361461032957806365caf80814610405576100dd565b8063092a5cce146100e257806345aa6e98146100f9578063495edb2c14610152575b600080fd5b3480156100ee57600080fd5b506100f7610764565b005b34801561010557600080fd5b5061013c6004803603604081101561011c57600080fd5b81019080803590602001909291908035906020019092919050505061084a565b6040518082815260200191505060405180910390f35b61017e6004803603602081101561016857600080fd5b8101908080359060200190929190505050610878565b005b34801561018c57600080fd5b506101b9600480360360208110156101a357600080fd5b8101908080359060200190929190505050610ac2565b604051808573ffffffffffffffffffffffffffffffffffffffff1673ffffffffffffffffffffffffffffffffffffffff1681526020018060200180602001848152602001838103835286818151815260200191508051906020019080838360005b8381101561023557808201518184015260208101905061021a565b50505050905090810190601f1680156102625780820380516001836020036101000a031916815260200191505b50838103825285818151815260200191508051906020019080838360005b8381101561029b578082015181840152602081019050610280565b50505050905090810190601f1680156102c85780820380516001836020036101000a031916815260200191505b50965050505050505060405180910390f35b3480156102e657600080fd5b50610313600480360360208110156102fd57600080fd5b8101908080359060200190929190505050610c42565b6040518082815260200191505060405180910390f35b34801561033557600080fd5b506104036004803603606081101561034c57600080fd5b8101908080359060200190929190803590602001909291908035906020019064010000000081111561037d57600080fd5b82018360208201111561038f57600080fd5b803590602001918460018302840111640100000000831117156103b157600080fd5b91908080601f016020809104026020016040519081016040528093929190818152602001838380828437600081840152601f19601f820116905080830192505050505050509192919290505050610d4b565b005b6104456004803603606081101561041b57600080fd5b8101908080359060200190929190803590602001909291908035906020019092919050505061100a565b005b34801561045357600080fd5b5061045c6112dd565b005b34801561046a57600080fd5b506104976004803603602081101561048157600080fd5b81019080803590602001909291905050506113af565b6040518080602001828103825283818151815260200191508051906020019060200280838360005b838110156104da5780820151818401526020810190506104bf565b505050509050019250505060405180910390f35b3480156104fa57600080fd5b5061050361141a565b6040518082815260200191505060405180910390f35b34801561052557600080fd5b506105526004803603602081101561053c57600080fd5b8101908080359060200190929190505050611420565b604051808273ffffffffffffffffffffffffffffffffffffffff1673ffffffffffffffffffffffffffffffffffffffff16815260200191505060405180910390f35b3480156105a057600080fd5b506106f1600480360360408110156105b757600080fd5b81019080803590602001906401000000008111156105d457600080fd5b8201836020820111156105e657600080fd5b8035906020019184600183028401116401000000008311171561060857600080fd5b91908080601f016020809104026020016040519081016040528093929190818152602001838380828437600081840152601f19601f8201169050808301925050505050505091929192908035906020019064010000000081111561066b57600080fd5b82018360208201111561067d57600080fd5b8035906020019184600183028401116401000000008311171561069f57600080fd5b91908080601f016020809104026020016040519081016040528093929190818152602001838380828437600081840152601f19601f820116905080830192505050505050509192919290505050611460565b6040518082815260200191505060405180910390f35b6107336004803603602081101561071d57600080fd5b810190808035906020019092919050505061159d565b005b34801561074157600080fd5b5061074a611721565b604051808215151515815260200191505060405180910390f35b600260009054906101000a900473ffffffffffffffffffffffffffffffffffffffff1673ffffffffffffffffffffffffffffffffffffffff163373ffffffffffffffffffffffffffffffffffffffff161461080a576040517f08c379a000000000000000000000000000000000000000000000000000000000815260040180806020018281038252603481526020018061188d6034913960400191505060405180910390fd5b6000600260009054906101000a900473ffffffffffffffffffffffffffffffffffffffff1690508073ffffffffffffffffffffffffffffffffffffffff16ff5b6005602052816000526040600020818154811061086357fe5b90600052602060002001600091509150505481565b803373ffffffffffffffffffffffffffffffffffffffff166004600083815260200190815260200160002060000160009054906101000a900473ffffffffffffffffffffffffffffffffffffffff1673ffffffffffffffffffffffffffffffffffffffff1614610950576040517f08c379a00000000000000000000000000000000000000000000000000000000081526004018080602001828103825260168152602001807f596f7520617265206e6f742074686520646f6e6f72210000000000000000000081525060200191505060405180910390fd5b81600354811061095f57600080fd5b678ac7230489e800003411156109c0576040517f08c379a000000000000000000000000000000000000000000000000000000000815260040180806020018281038252602f81526020018061185e602f913960400191505060405180910390fd5b60003411610a36576040517f08c379a000000000000000000000000000000000000000000000000000000000815260040180806020018281038252601d8152602001807f54686520746f702d75702076616c75652063616e6e6f7420626520302100000081525060200191505060405180910390fd5b346004600085815260200190815260200160002060030160008282540192505081905550610a633461159d565b6000600660006101000a81548160ff0219169083151502179055507f1c3835649180289df9c907c32ec4815e2f50f52d06a4c48d94e264da1cd7f9fa8334604051808381526020018281526020019250505060405180910390a1505050565b60046020528060005260406000206000915090508060000160009054906101000a900473ffffffffffffffffffffffffffffffffffffffff1690806001018054600181600116156101000203166002900480601f016020809104026020016040519081016040528092919081815260200182805460018160011615610100020316600290048015610b945780601f10610b6957610100808354040283529160200191610b94565b820191906000526020600020905b815481529060010190602001808311610b7757829003601f168201915b505050505090806002018054600181600116156101000203166002900480601f016020809104026020016040519081016040528092919081815260200182805460018160011615610100020316600290048015610c325780601f10610c0757610100808354040283529160200191610c32565b820191906000526020600020905b815481529060010190602001808311610c1557829003601f168201915b5050505050908060030154905084565b6000813373ffffffffffffffffffffffffffffffffffffffff166004600083815260200190815260200160002060000160009054906101000a900473ffffffffffffffffffffffffffffffffffffffff1673ffffffffffffffffffffffffffffffffffffffff1614610d1c576040517f08c379a00000000000000000000000000000000000000000000000000000000081526004018080602001828103825260168152602001807f596f7520617265206e6f742074686520646f6e6f72210000000000000000000081525060200191505060405180910390fd5b826003548110610d2b57600080fd5b600460008581526020019081526020016000206003015492505050919050565b826003548110610d5a57600080fd5b82610d6485610c42565b1015610dbb576040517f08c379a00000000000000000000000000000000000000000000000000000000081526004018080602001828103825260318152602001806118c16031913960400191505060405180910390fd5b678ac7230489e800008310610e1b576040517f08c379a00000000000000000000000000000000000000000000000000000000081526004018080602001828103825260468152602001806118186046913960600191505060405180910390fd5b82600460008681526020019081526020016000206003016000828254039250508190555060008060009054906101000a900473ffffffffffffffffffffffffffffffffffffffff1673ffffffffffffffffffffffffffffffffffffffff16635f78f4368686866040518463ffffffff1660e01b81526004018084815260200183815260200180602001828103825283818151815260200191508051906020019080838360005b83811015610edc578082015181840152602081019050610ec1565b50505050905090810190601f168015610f095780820380516001836020036101000a031916815260200191505b50945050505050602060405180830381600087803b158015610f2a57600080fd5b505af1158015610f3e573d6000803e3d6000fd5b505050506040513d6020811015610f5457600080fd5b81019080805190602001909291905050509050600560008681526020019081526020016000208190806001815401808255809150506001900390600052602060002001600090919091909150556000600660006101000a81548160ff0219169083151502179055507f01f00b2d07920866a32b7446ce80f035f151d886b9ae9de1b1a59097a13bc04485828660405180848152602001838152602001828152602001935050505060405180910390a15050505050565b80600354811061101957600080fd5b600660019054906101000a900460ff166112d75760008060009054906101000a900473ffffffffffffffffffffffffffffffffffffffff1673ffffffffffffffffffffffffffffffffffffffff16635d35a3d985876040518363ffffffff1660e01b81526004018083815260200182815260200192505050602060405180830381600087803b1580156110ab57600080fd5b505af11580156110bf573d6000803e3d6000fd5b505050506040513d60208110156110d557600080fd5b81019080805190602001909291905050509050600160009054906101000a900473ffffffffffffffffffffffffffffffffffffffff1673ffffffffffffffffffffffffffffffffffffffff16639c9e38c485876040518363ffffffff1660e01b81526004018083815260200182815260200192505050600060405180830381600087803b15801561116557600080fd5b505af1158015611179573d6000803e3d6000fd5b50505050600281141561128e57600080905060005b60056000868152602001908152602001600020805490508160ff1610156112595786600560008781526020019081526020016000208260ff16815481106111d157fe5b906000526020600020015414156111e757600191505b811561124c57600560008681526020019081526020016000206001820160ff168154811061121157fe5b9060005260206000200154600560008781526020019081526020016000208260ff168154811061123d57fe5b90600052602060002001819055505b808060010191505061118e565b506005600085815260200190815260200160002080548061127657fe5b60019003818190600052602060002001600090559055505b7fdf690ab5660044ec70f7c1e8d997cbf694f8c79fe7a5b450d7925167eab8485285858560405180848152602001838152602001828152602001935050505060405180910390a1505b50505050565b600260009054906101000a900473ffffffffffffffffffffffffffffffffffffffff1673ffffffffffffffffffffffffffffffffffffffff163373ffffffffffffffffffffffffffffffffffffffff1614611383576040517f08c379a000000000000000000000000000000000000000000000000000000000815260040180806020018281038252603481526020018061188d6034913960400191505060405180910390fd5b600660019054906101000a900460ff1615600660016101000a81548160ff021916908315150217905550565b60606005600083815260200190815260200160002080548060200260200160405190810160405280929190818152602001828054801561140e57602002820191906000526020600020905b8154815260200190600101908083116113fa575b50505050509050919050565b60035481565b60006004600083815260200190815260200160002060000160009054906101000a900473ffffffffffffffffffffffffffffffffffffffff169050919050565b600061146a611734565b60405180608001604052803373ffffffffffffffffffffffffffffffffffffffff16815260200185815260200184815260200160008152509050600060036000815480929190600101919050559050816004600083815260200190815260200160002060008201518160000160006101000a81548173ffffffffffffffffffffffffffffffffffffffff021916908373ffffffffffffffffffffffffffffffffffffffff1602179055506020820151816001019080519060200190611530929190611772565b50604082015181600201908051906020019061154d929190611772565b50606082015181600301559050507f29660fbcd5be877e37fa2ed68a363016baeb2a178cbc7647c1215311d48bc706816040518082815260200191505060405180910390a1809250505092915050565b600660009054906101000a900460ff1615611620576040517f08c379a000000000000000000000000000000000000000000000000000000000815260040180806020018281038252600e8152602001807f4e6f2072652d656e7472616e637900000000000000000000000000000000000081525060200191505060405180910390fd5b6001600660006101000a81548160ff02191690831515021790555060008111611694576040517f08c379a000000000000000000000000000000000000000000000000000000000815260040180806020018281038252602a8152602001806118f2602a913960400191505060405180910390fd5b6000600260009054906101000a900473ffffffffffffffffffffffffffffffffffffffff1690508073ffffffffffffffffffffffffffffffffffffffff166108fc839081150290604051600060405180830381858888f19350505050158015611701573d6000803e3d6000fd5b50506000600660006101000a81548160ff02191690831515021790555050565b600660019054906101000a900460ff1681565b6040518060800160405280600073ffffffffffffffffffffffffffffffffffffffff1681526020016060815260200160608152602001600081525090565b828054600181600116156101000203166002900490600052602060002090601f016020900481019282601f106117b357805160ff19168380011785556117e1565b828001600101855582156117e1579182015b828111156117e05782518255916020019190600101906117c5565b5b5090506117ee91906117f2565b5090565b61181491905b808211156118105760008160009055506001016117f8565b5090565b9056fe446f6e6174656420616d6f756e7420686974206c696d69742120446f6e6174656420616d6f756e742063616e6e6f74206265206d6f7265207468616e2031302065746865722154686520746f702d75702076616c7565206973206d6f7265207468616e207468652077616c6c6574206c696d6974216f6e6c7920746865206f776e6572206f662074686520636f6e74726163742063616e2063616c6c2074686973206d6574686f6421446f6e6f7220646f6573206e6f74206861766520656e6f75676820657468657220746f2063726561746520746f6b656e2163616e6e6f74207472616e73666572203020657468657220746f20636f6e7472616374206f776e657221a26469706673582212208cc226f76f803dc5c41a0a8d90e6795b9fb87bdb159f11b657379ba1f795fa3764736f6c63430006010033",
  "source": "// SPDX-License-Identifier: MIT\npragma solidity >=0.6.1;\nimport \"./Token.sol\";\nimport \"./Recipient.sol\";\n\ncontract Donor {\n\n    struct donor {\n        address owner;\n        string username;\n        string pw;\n        uint256 walletValue; // amt of ether in wallet\n    }\n\n    Token tokenContract;\n    Recipient recipientContract;\n    address contractOwner;\n\n    uint256 public numDonors = 0;\n    mapping(uint256 => donor) public donors;\n    mapping(uint256 => uint256[]) public tokensCreated; // donorId => list of tokenID that donor owns\n\n    bool internal locked = false;\n    bool public contractStopped = false;\n\n    constructor (Token tokenAddress, Recipient recipientAddress) public {\n        tokenContract = tokenAddress;\n        recipientContract = recipientAddress;\n        contractOwner = msg.sender;\n    }\n\n    //function to create a new donor, and add to 'donors' map\n    function createDonor (\n        string memory name,\n        string memory password\n    ) public returns(uint256) {\n        \n        donor memory newDonor = donor(\n            msg.sender, // donor address\n            name,\n            password,\n            0\n        );\n\n        uint256 newDonorId = numDonors++;\n        donors[newDonorId] = newDonor; //commit to state variable\n\n        emit createdDonor(newDonorId);\n\n        return newDonorId;  \n    }\n\n    event toppedUpWallet(uint256 donorId, uint256 amt);\n    event approved(uint256 tokenID, address recipient);\n    event createdDonor(uint256 donorId);\n    event createdToken(uint256 donorId, uint256 tokenId, uint256 amt);\n    event approvedRecipient(uint256 tokenId, uint256 recipientId, uint256 donorId);\n\n\n\n    //modifier to ensure a function is callable only by its donor  \n    modifier ownerOnly(uint256 donorId) {\n        require(donors[donorId].owner == msg.sender, \"You are not the donor!\");\n        _;\n    }\n    \n    //modifier to ensure that the donor is valid\n    modifier validDonorId(uint256 donorId) {\n        require(donorId < numDonors);\n        _;\n    }\n\n    // mutex: prevent re-entrant\n    modifier noReEntrant {\n        require(!locked, \"No re-entrancy\");\n        locked = true;\n        _;\n        locked = false;\n    }\n\n    function createToken(uint256 donorId, uint256 amt, string memory category ) validDonorId(donorId) public {\n        require(getWallet(donorId) >= amt, \"Donor does not have enough ether to create token!\");\n        require(amt < 10 ether, \"Donated amount hit limit! Donated amount cannot be more than 10 ether!\");\n        donors[donorId].walletValue -= amt; \n\n        uint256 tokenId = tokenContract.createToken(donorId, amt, category);\n        tokensCreated[donorId].push(tokenId);\n\n        //reset locked to allow for payment for new token creation\n        locked = false;\n\n        emit createdToken(donorId, tokenId, amt);\n    }\n\n    modifier stoppedInEmergency {\n        if (!contractStopped) _;\n    }\n\n    modifier enableInEmergency {\n        if (contractStopped) _;\n    }\n\n    modifier contractOwnerOnly {\n        require(msg.sender == contractOwner, \"only the owner of the contract can call this method!\");\n        _;\n    }\n\n    function toggleContactStopped() public contractOwnerOnly {\n        contractStopped = !contractStopped;\n    }\n\n    //Emergency Stop enabled in approve \n    function approveRecipient(uint256 tokenId, uint256 recipientId, uint256 donorId) validDonorId(donorId) stoppedInEmergency public payable {\n        uint256 tokenIsUnlisted = tokenContract.approve(recipientId, tokenId);\n        recipientContract.completeToken(recipientId, tokenId);\n        if (tokenIsUnlisted == 2) {   \n            bool isIndex = false;\n            for (uint8 i; i< tokensCreated[donorId].length; i++) {\n                if (tokensCreated[donorId][i] == tokenId) {\n                    isIndex = true;\n                }\n                if (isIndex) {\n                    tokensCreated[donorId][i] = tokensCreated[donorId][i+1];\n                }\n            }\n\n             tokensCreated[donorId].pop();\n        }\n        //TODO: store completed tokens in historical database? do we need to as transaction are all recorded in block?\n\n        emit approvedRecipient(tokenId, recipientId, donorId);\n    }\n\n    function transferToContract(uint256 amt) public payable noReEntrant {\n        require(amt > 0, \"cannot transfer 0 ether to contract owner!\");\n        address payable addr = payable(contractOwner);\n        \n        addr.transfer(amt); \n    }\n\n    function topUpWallet(uint256 donorId) ownerOnly(donorId) validDonorId(donorId) public payable {\n        require(msg.value <= 10 ether, \"The top-up value is more than the wallet limit!\"); // limit the amount of ether stored in the wallet\n        require(msg.value > 0, \"The top-up value cannot be 0!\");\n        donors[donorId].walletValue += msg.value;\n\n        transferToContract(msg.value);  // transfer the ether to the contractOwner\n        locked = false;\n\n        emit toppedUpWallet(donorId, msg.value);\n    }\n\n    function getWallet(uint256 donorId) ownerOnly(donorId) validDonorId(donorId) public view returns(uint256) {\n        return donors[donorId].walletValue;\n    } \n\n    function getDonorAddress(uint256 donorId) public view returns (address) { // ownerOnly?\n        return donors[donorId].owner;\n    }\n\n    function getActiveTokens(uint256 donorId) public view returns (uint256[] memory) {\n        return tokensCreated[donorId]; // tokens active now, if want see historical tokens --> view in database \n    }\n\n\n     // self-destruct function \n     function destroyContract() public contractOwnerOnly {\n        address payable receiver = payable(contractOwner);\n         selfdestruct(receiver);\n     }\n\n    \n\n}",
  "sourcePath": "/Users/oliviama/AY21:22 sem 2/IS4302/project/contracts/Donor.sol",
  "compiler": {
    "name": "solc",
    "version": "0.6.1+commit.e6f7d5a4.Emscripten.clang"
  },
  "schemaVersion": "3.4.4",
  "updatedAt": "2022-03-27T06:08:28.262Z",
  "devdoc": {
    "methods": {}
  },
  "userdoc": {
    "methods": {}
  }
}