{
  "contractName": "Donor",
  "abi": [
    {
      "inputs": [
        {
          "internalType": "contract Token",
          "name": "tokenAddress",
          "type": "address"
        },
        {
          "internalType": "contract DonationMarket",
          "name": "marketAddress",
          "type": "address"
        },
        {
          "internalType": "contract Recipient",
          "name": "recipientAddress",
          "type": "address"
        },
        {
          "internalType": "contract DonorStorage",
          "name": "storageAddress",
          "type": "address"
        }
      ],
      "stateMutability": "nonpayable",
      "type": "constructor"
    },
    {
      "anonymous": false,
      "inputs": [
        {
          "indexed": false,
          "internalType": "uint256",
          "name": "listingId",
          "type": "uint256"
        },
        {
          "indexed": false,
          "internalType": "address",
          "name": "recipient",
          "type": "address"
        }
      ],
      "name": "approved",
      "type": "event"
    },
    {
      "anonymous": false,
      "inputs": [
        {
          "indexed": false,
          "internalType": "uint256",
          "name": "listingId",
          "type": "uint256"
        },
        {
          "indexed": false,
          "internalType": "uint256",
          "name": "recipientId",
          "type": "uint256"
        },
        {
          "indexed": false,
          "internalType": "uint256",
          "name": "donorId",
          "type": "uint256"
        },
        {
          "indexed": false,
          "internalType": "uint256",
          "name": "requestId",
          "type": "uint256"
        }
      ],
      "name": "approvedRecipientRequest",
      "type": "event"
    },
    {
      "anonymous": false,
      "inputs": [
        {
          "indexed": false,
          "internalType": "uint256",
          "name": "donorId",
          "type": "uint256"
        }
      ],
      "name": "createdDonor",
      "type": "event"
    },
    {
      "anonymous": false,
      "inputs": [
        {
          "indexed": false,
          "internalType": "uint256",
          "name": "donorId",
          "type": "uint256"
        },
        {
          "indexed": false,
          "internalType": "uint256",
          "name": "listingId",
          "type": "uint256"
        },
        {
          "indexed": false,
          "internalType": "uint256",
          "name": "amt",
          "type": "uint256"
        }
      ],
      "name": "createdListing",
      "type": "event"
    },
    {
      "anonymous": false,
      "inputs": [
        {
          "indexed": false,
          "internalType": "uint256",
          "name": "listingId",
          "type": "uint256"
        }
      ],
      "name": "listingUnlisted",
      "type": "event"
    },
    {
      "inputs": [
        {
          "internalType": "string",
          "name": "name",
          "type": "string"
        },
        {
          "internalType": "string",
          "name": "password",
          "type": "string"
        }
      ],
      "name": "createDonor",
      "outputs": [
        {
          "internalType": "uint256",
          "name": "",
          "type": "uint256"
        }
      ],
      "stateMutability": "nonpayable",
      "type": "function"
    },
    {
      "inputs": [
        {
          "internalType": "uint256",
          "name": "donorId",
          "type": "uint256"
        },
        {
          "internalType": "uint256",
          "name": "amt",
          "type": "uint256"
        },
        {
          "internalType": "string",
          "name": "category",
          "type": "string"
        }
      ],
      "name": "createListing",
      "outputs": [],
      "stateMutability": "nonpayable",
      "type": "function"
    },
    {
      "inputs": [],
      "name": "toggleContactStopped",
      "outputs": [],
      "stateMutability": "nonpayable",
      "type": "function"
    },
    {
      "inputs": [
        {
          "internalType": "uint256",
          "name": "requestId",
          "type": "uint256"
        },
        {
          "internalType": "uint256",
          "name": "listingId",
          "type": "uint256"
        },
        {
          "internalType": "uint256",
          "name": "donorId",
          "type": "uint256"
        },
        {
          "internalType": "uint256",
          "name": "recipientId",
          "type": "uint256"
        }
      ],
      "name": "approveRecipientRequest",
      "outputs": [],
      "stateMutability": "nonpayable",
      "type": "function"
    },
    {
      "inputs": [
        {
          "internalType": "uint256",
          "name": "donorId",
          "type": "uint256"
        }
      ],
      "name": "getActiveListings",
      "outputs": [
        {
          "internalType": "uint256[]",
          "name": "",
          "type": "uint256[]"
        }
      ],
      "stateMutability": "view",
      "type": "function",
      "constant": true
    },
    {
      "inputs": [
        {
          "internalType": "uint256",
          "name": "donorId",
          "type": "uint256"
        }
      ],
      "name": "getListings",
      "outputs": [
        {
          "internalType": "uint256[]",
          "name": "",
          "type": "uint256[]"
        }
      ],
      "stateMutability": "view",
      "type": "function",
      "constant": true
    },
    {
      "inputs": [],
      "name": "destroyContract",
      "outputs": [],
      "stateMutability": "nonpayable",
      "type": "function"
    }
  ],
  "bytecode": "0x60806040526000600460146101000a81548160ff0219169083151502179055506000600460156101000a81548160ff02191690831515021790555034801561004657600080fd5b506040516118903803806118908339818101604052608081101561006957600080fd5b8101908080519060200190929190805190602001909291908051906020019092919080519060200190929190505050826000806101000a81548173ffffffffffffffffffffffffffffffffffffffff021916908373ffffffffffffffffffffffffffffffffffffffff16021790555081600160006101000a81548173ffffffffffffffffffffffffffffffffffffffff021916908373ffffffffffffffffffffffffffffffffffffffff16021790555083600260006101000a81548173ffffffffffffffffffffffffffffffffffffffff021916908373ffffffffffffffffffffffffffffffffffffffff16021790555080600360006101000a81548173ffffffffffffffffffffffffffffffffffffffff021916908373ffffffffffffffffffffffffffffffffffffffff16021790555033600460006101000a81548173ffffffffffffffffffffffffffffffffffffffff021916908373ffffffffffffffffffffffffffffffffffffffff160217905550505050506116a1806101ef6000396000f3fe608060405234801561001057600080fd5b506004361061007d5760003560e01c8063748581141161005b57806374858114146101a7578063750e6d091461022a578063d38b1da714610234578063e69875011461039a5761007d565b8063092a5cce146100825780633c58c6b81461008c57806341449e7f146100d8575b600080fd5b61008a61041d565b005b6100d6600480360360808110156100a257600080fd5b8101908080359060200190929190803590602001909291908035906020019092919080359060200190929190505050610503565b005b6101a5600480360360608110156100ee57600080fd5b8101908080359060200190929190803590602001909291908035906020019064010000000081111561011f57600080fd5b82018360208201111561013157600080fd5b8035906020019184600183028401116401000000008311171561015357600080fd5b91908080601f016020809104026020016040519081016040528093929190818152602001838380828437600081840152601f19601f820116905080830192505050505050509192919290505050610904565b005b6101d3600480360360208110156101bd57600080fd5b8101908080359060200190929190505050610f18565b6040518080602001828103825283818151815260200191508051906020019060200280838360005b838110156102165780820151818401526020810190506101fb565b505050509050019250505060405180910390f35b61023261106e565b005b6103846004803603604081101561024a57600080fd5b810190808035906020019064010000000081111561026757600080fd5b82018360208201111561027957600080fd5b8035906020019184600183028401116401000000008311171561029b57600080fd5b91908080601f016020809104026020016040519081016040528093929190818152602001838380828437600081840152601f19601f820116905080830192505050505050509192919290803590602001906401000000008111156102fe57600080fd5b82018360208201111561031057600080fd5b8035906020019184600183028401116401000000008311171561033257600080fd5b91908080601f016020809104026020016040519081016040528093929190818152602001838380828437600081840152601f19601f820116905080830192505050505050509192919290505050611140565b6040518082815260200191505060405180910390f35b6103c6600480360360208110156103b057600080fd5b8101908080359060200190929190505050611308565b6040518080602001828103825283818151815260200191508051906020019060200280838360005b838110156104095780820151818401526020810190506103ee565b505050509050019250505060405180910390f35b600460009054906101000a900473ffffffffffffffffffffffffffffffffffffffff1673ffffffffffffffffffffffffffffffffffffffff163373ffffffffffffffffffffffffffffffffffffffff16146104c3576040517f08c379a00000000000000000000000000000000000000000000000000000000081526004018080602001828103825260348152602001806116386034913960400191505060405180910390fd5b6000600460009054906101000a900473ffffffffffffffffffffffffffffffffffffffff1690508073ffffffffffffffffffffffffffffffffffffffff16ff5b81600360009054906101000a900473ffffffffffffffffffffffffffffffffffffffff1673ffffffffffffffffffffffffffffffffffffffff1663db23f9f36040518163ffffffff1660e01b815260040160206040518083038186803b15801561056c57600080fd5b505afa158015610580573d6000803e3d6000fd5b505050506040513d602081101561059657600080fd5b8101908080519060200190929190505050811061061b576040517f08c379a00000000000000000000000000000000000000000000000000000000081526004018080602001828103825260158152602001807f646f6e6f724964206973206e6f742076616c696421000000000000000000000081525060200191505060405180910390fd5b600460159054906101000a900460ff161561069e576040517f08c379a00000000000000000000000000000000000000000000000000000000081526004018080602001828103825260118152602001807f636f6e74726163742073746f707065642100000000000000000000000000000081525060200191505060405180910390fd5b6000809054906101000a900473ffffffffffffffffffffffffffffffffffffffff1673ffffffffffffffffffffffffffffffffffffffff16635d35a3d986866040518363ffffffff1660e01b81526004018083815260200182815260200192505050600060405180830381600087803b15801561071a57600080fd5b505af115801561072e573d6000803e3d6000fd5b505050506000600360009054906101000a900473ffffffffffffffffffffffffffffffffffffffff1673ffffffffffffffffffffffffffffffffffffffff1663c41a360a856040518263ffffffff1660e01b81526004018082815260200191505060206040518083038186803b1580156107a757600080fd5b505afa1580156107bb573d6000803e3d6000fd5b505050506040513d60208110156107d157600080fd5b81019080805190602001909291905050509050600160009054906101000a900473ffffffffffffffffffffffffffffffffffffffff1673ffffffffffffffffffffffffffffffffffffffff16639b11ef638787846040518463ffffffff1660e01b8152600401808481526020018381526020018273ffffffffffffffffffffffffffffffffffffffff1673ffffffffffffffffffffffffffffffffffffffff1681526020019350505050600060405180830381600087803b15801561089557600080fd5b505af11580156108a9573d6000803e3d6000fd5b505050507f7a01780b16ee3ad4546a6eea02120da6fba4f5c0c6a9485c51ec96eebc635e16858486896040518085815260200184815260200183815260200182815260200194505050505060405180910390a1505050505050565b82600360009054906101000a900473ffffffffffffffffffffffffffffffffffffffff1673ffffffffffffffffffffffffffffffffffffffff1663db23f9f36040518163ffffffff1660e01b815260040160206040518083038186803b15801561096d57600080fd5b505afa158015610981573d6000803e3d6000fd5b505050506040513d602081101561099757600080fd5b81019080805190602001909291905050508110610a1c576040517f08c379a00000000000000000000000000000000000000000000000000000000081526004018080602001828103825260158152602001807f646f6e6f724964206973206e6f742076616c696421000000000000000000000081525060200191505060405180910390fd5b82600260009054906101000a900473ffffffffffffffffffffffffffffffffffffffff1673ffffffffffffffffffffffffffffffffffffffff16636cba62906040518163ffffffff1660e01b815260040160206040518083038186803b158015610a8557600080fd5b505afa158015610a99573d6000803e3d6000fd5b505050506040513d6020811015610aaf57600080fd5b81019080805190602001909291905050501015610b17576040517f08c379a00000000000000000000000000000000000000000000000000000000081526004018080602001828103825260338152602001806116056033913960400191505060405180910390fd5b678ac7230489e800008310610b77576040517f08c379a00000000000000000000000000000000000000000000000000000000081526004018080602001828103825260468152602001806115bf6046913960600191505060405180910390fd5b60008060009054906101000a900473ffffffffffffffffffffffffffffffffffffffff1673ffffffffffffffffffffffffffffffffffffffff166341449e7f8686866040518463ffffffff1660e01b81526004018084815260200183815260200180602001828103825283818151815260200191508051906020019080838360005b83811015610c14578082015181840152602081019050610bf9565b50505050905090810190601f168015610c415780820380516001836020036101000a031916815260200191505b50945050505050602060405180830381600087803b158015610c6257600080fd5b505af1158015610c76573d6000803e3d6000fd5b505050506040513d6020811015610c8c57600080fd5b81019080805190602001909291905050509050600360009054906101000a900473ffffffffffffffffffffffffffffffffffffffff1673ffffffffffffffffffffffffffffffffffffffff1663da97f92986836040518363ffffffff1660e01b81526004018083815260200182815260200192505050600060405180830381600087803b158015610d1c57600080fd5b505af1158015610d30573d6000803e3d6000fd5b50505050600260009054906101000a900473ffffffffffffffffffffffffffffffffffffffff1673ffffffffffffffffffffffffffffffffffffffff1663f5537ede326000809054906101000a900473ffffffffffffffffffffffffffffffffffffffff1673ffffffffffffffffffffffffffffffffffffffff1663893d20e86040518163ffffffff1660e01b815260040160206040518083038186803b158015610dda57600080fd5b505afa158015610dee573d6000803e3d6000fd5b505050506040513d6020811015610e0457600080fd5b8101908080519060200190929190505050876040518463ffffffff1660e01b8152600401808473ffffffffffffffffffffffffffffffffffffffff1673ffffffffffffffffffffffffffffffffffffffff1681526020018373ffffffffffffffffffffffffffffffffffffffff1673ffffffffffffffffffffffffffffffffffffffff1681526020018281526020019350505050600060405180830381600087803b158015610eb257600080fd5b505af1158015610ec6573d6000803e3d6000fd5b505050507fbb6a1576b39173d9e5a8335b25f08db118259fb669f4e0d6bd689b3bc57ded1485828660405180848152602001838152602001828152602001935050505060405180910390a15050505050565b606080600360009054906101000a900473ffffffffffffffffffffffffffffffffffffffff1673ffffffffffffffffffffffffffffffffffffffff166374858114846040518263ffffffff1660e01b81526004018082815260200191505060006040518083038186803b158015610f8e57600080fd5b505afa158015610fa2573d6000803e3d6000fd5b505050506040513d6000823e3d601f19601f820116820180604052506020811015610fcc57600080fd5b8101908080516040519392919084640100000000821115610fec57600080fd5b8382019150602082018581111561100257600080fd5b825186602082028301116401000000008211171561101f57600080fd5b8083526020830192505050908051906020019060200280838360005b8381101561105657808201518184015260208101905061103b565b50505050905001604052505050905080915050919050565b600460009054906101000a900473ffffffffffffffffffffffffffffffffffffffff1673ffffffffffffffffffffffffffffffffffffffff163373ffffffffffffffffffffffffffffffffffffffff1614611114576040517f08c379a00000000000000000000000000000000000000000000000000000000081526004018080602001828103825260348152602001806116386034913960400191505060405180910390fd5b600460159054906101000a900460ff1615600460156101000a81548160ff021916908315150217905550565b600080600360009054906101000a900473ffffffffffffffffffffffffffffffffffffffff1673ffffffffffffffffffffffffffffffffffffffff1663d38b1da785856040518363ffffffff1660e01b8152600401808060200180602001838103835285818151815260200191508051906020019080838360005b838110156111d65780820151818401526020810190506111bb565b50505050905090810190601f1680156112035780820380516001836020036101000a031916815260200191505b50838103825284818151815260200191508051906020019080838360005b8381101561123c578082015181840152602081019050611221565b50505050905090810190601f1680156112695780820380516001836020036101000a031916815260200191505b50945050505050602060405180830381600087803b15801561128a57600080fd5b505af115801561129e573d6000803e3d6000fd5b505050506040513d60208110156112b457600080fd5b810190808051906020019092919050505090507f29660fbcd5be877e37fa2ed68a363016baeb2a178cbc7647c1215311d48bc706816040518082815260200191505060405180910390a18091505092915050565b606060008090506060600360009054906101000a900473ffffffffffffffffffffffffffffffffffffffff1673ffffffffffffffffffffffffffffffffffffffff166374858114856040518263ffffffff1660e01b81526004018082815260200191505060006040518083038186803b15801561138457600080fd5b505afa158015611398573d6000803e3d6000fd5b505050506040513d6000823e3d601f19601f8201168201806040525060208110156113c257600080fd5b81019080805160405193929190846401000000008211156113e257600080fd5b838201915060208201858111156113f857600080fd5b825186602082028301116401000000008211171561141557600080fd5b8083526020830192505050908051906020019060200280838360005b8381101561144c578082015181840152602081019050611431565b5050505090500160405250505090506060815160405190808252806020026020018201604052801561148d5781602001602082028038833980820191505090505b50905060008090505b82518160ff1610156115b2576000809054906101000a900473ffffffffffffffffffffffffffffffffffffffff1673ffffffffffffffffffffffffffffffffffffffff16635443b28a848360ff16815181106114ee57fe5b60200260200101516040518263ffffffff1660e01b81526004018082815260200191505060206040518083038186803b15801561152a57600080fd5b505afa15801561153e573d6000803e3d6000fd5b505050506040513d602081101561155457600080fd5b8101908080519060200190929190505050156115a557828160ff168151811061157957fe5b6020026020010151828560ff168151811061159057fe5b60200260200101818152505083806001019450505b8080600101915050611496565b5080935050505091905056fe446f6e6174656420616d6f756e7420686974206c696d69742120446f6e6174656420616d6f756e742063616e6e6f74206265206d6f7265207468616e20313020657468657221446f6e6f7220646f6573206e6f74206861766520656e6f75676820657468657220746f20637265617465206c697374696e67216f6e6c7920746865206f776e6572206f662074686520636f6e74726163742063616e2063616c6c2074686973206d6574686f6421a264697066735822122097513db02f80130fdd72efbee9c9bcd101067cb0f8da09b2ce8c89fcc6234e4264736f6c63430006010033",
  "source": "// SPDX-License-Identifier: MIT\npragma solidity >=0.6.1;\nimport \"./Recipient.sol\";\nimport \"./DonationMarket.sol\";\nimport \"./Token.sol\";\nimport \"./DonorStorage.sol\";\n\n\ncontract Donor {\n\n    DonationMarket marketContract;\n    Recipient recipientContract; \n    Token tokenContract;\n    DonorStorage donorStorage;\n    address contractOwner;\n\n    bool internal locked = false;\n    bool internal contractStopped = false;\n\n    constructor (Token tokenAddress, DonationMarket marketAddress, Recipient recipientAddress, DonorStorage storageAddress) public {\n        marketContract = marketAddress;\n        recipientContract = recipientAddress;\n        tokenContract = tokenAddress;\n        donorStorage = storageAddress;\n        contractOwner = msg.sender;\n    }\n\n    //function to create a new donor, and add to 'donors' map\n    function createDonor (\n        string memory name,\n        string memory password\n    ) public returns(uint256) {\n        \n        // create and add store donor in donorStorage\n        uint256 newDonorId = donorStorage.createDonor(name, password);\n        emit createdDonor(newDonorId);\n        return newDonorId;  \n    }\n\n    event approved(uint256 listingId, address recipient);\n    event createdDonor(uint256 donorId);\n    event createdListing(uint256 donorId, uint256 listingId, uint256 amt);\n    event approvedRecipientRequest(uint256 listingId, uint256 recipientId, uint256 donorId, uint256 requestId);\n    event listingUnlisted(uint256 listingId);\n\n\n    //modifier to ensure a function is callable only by its donor  \n    modifier ownerOnly(uint256 donorId) {\n        require(donorStorage.getOwner(donorId) == msg.sender, \"You are not the donor!\");\n        _;\n    }\n    \n    //modifier to ensure that the donor is valid\n    modifier validDonorId(uint256 donorId) {\n        require(donorId < donorStorage.getTotalOwners(), \"donorId is not valid!\");\n        _;\n    }\n\n\n    function createListing(uint256 donorId, uint256 amt, string memory category ) validDonorId(donorId) public {\n        require(tokenContract.checkCredit() >= amt, \"Donor does not have enough ether to create listing!\");\n        require(amt < 10 ether, \"Donated amount hit limit! Donated amount cannot be more than 10 ether!\");\n\n        uint256 listingId = marketContract.createListing(donorId, amt, category);\n        donorStorage.addListingToDonor(donorId, listingId);\n        tokenContract.transferToken(tx.origin, marketContract.getOwner(), amt);\n        emit createdListing(donorId, listingId, amt);\n    }\n\n    modifier stoppedInEmergency {\n        require(!contractStopped, \"contract stopped!\");\n        _;\n    }\n\n\n    modifier contractOwnerOnly {\n        require(msg.sender == contractOwner, \"only the owner of the contract can call this method!\");\n        _;\n    }\n\n    function toggleContactStopped() public contractOwnerOnly {\n        contractStopped = !contractStopped;\n    }\n\n    //Emergency Stop enabled in approve \n    function approveRecipientRequest(uint256 requestId, uint256 listingId, uint256 donorId, uint256 recipientId) validDonorId(donorId) stoppedInEmergency public {\n\n        marketContract.approve(requestId, listingId);\n        address donorAdd = donorStorage.getOwner(donorId);\n        recipientContract.completeRequest(requestId, listingId, donorAdd);\n     \n        emit approvedRecipientRequest(listingId, recipientId, donorId, requestId);\n    }\n\n\n    function getActiveListings(uint256 donorId) public view returns (uint256[] memory) {\n        uint8 counter = 0;\n        uint256[] memory currentListings = donorStorage.getListings(donorId);\n        uint256[] memory activeListing = new uint256[](currentListings.length);\n        for (uint8 i=0; i < currentListings.length;  i++) {\n            if (marketContract.checkListing(currentListings[i])) {\n                activeListing[counter] = currentListings[i];\n                counter ++;\n            }\n        }\n        return activeListing; \n    }\n\n    function getListings(uint256 donorId) public view returns (uint256[] memory) {\n        uint256[] memory currentListings = donorStorage.getListings(donorId);\n        return currentListings;\n    }\n\n\n     // self-destruct function \n     function destroyContract() public contractOwnerOnly {\n        address payable receiver = payable(contractOwner);\n         selfdestruct(receiver);\n     }\n\n    \n\n}",
  "sourcePath": "/Users/_mayveeee_/Desktop/IS4302_GRP6/contracts/Donor.sol",
  "compiler": {
    "name": "solc",
    "version": "0.6.1+commit.e6f7d5a4.Emscripten.clang"
  },
  "schemaVersion": "3.4.4",
  "updatedAt": "2022-04-03T11:09:14.652Z",
  "networkType": "ethereum",
  "devdoc": {
    "methods": {}
  },
  "userdoc": {
    "methods": {}
  }
}