{
  "contractName": "Donor",
  "abi": [
    {
      "inputs": [
        {
          "internalType": "contract Token",
          "name": "tokenAddress",
          "type": "address"
        },
        {
          "internalType": "contract DonationMarket",
          "name": "marketAddress",
          "type": "address"
        },
        {
          "internalType": "contract Recipient",
          "name": "recipientAddress",
          "type": "address"
        },
        {
          "internalType": "contract DonorStorage",
          "name": "storageAddress",
          "type": "address"
        }
      ],
      "stateMutability": "nonpayable",
      "type": "constructor"
    },
    {
      "anonymous": false,
      "inputs": [
        {
          "indexed": false,
          "internalType": "uint256",
          "name": "listingId",
          "type": "uint256"
        },
        {
          "indexed": false,
          "internalType": "address",
          "name": "recipient",
          "type": "address"
        }
      ],
      "name": "approved",
      "type": "event"
    },
    {
      "anonymous": false,
      "inputs": [
        {
          "indexed": false,
          "internalType": "uint256",
          "name": "listingId",
          "type": "uint256"
        },
        {
          "indexed": false,
          "internalType": "uint256",
          "name": "recipientId",
          "type": "uint256"
        },
        {
          "indexed": false,
          "internalType": "uint256",
          "name": "donorId",
          "type": "uint256"
        },
        {
          "indexed": false,
          "internalType": "uint256",
          "name": "requestId",
          "type": "uint256"
        }
      ],
      "name": "approvedRecipientRequest",
      "type": "event"
    },
    {
      "anonymous": false,
      "inputs": [
        {
          "indexed": false,
          "internalType": "uint256",
          "name": "donorId",
          "type": "uint256"
        }
      ],
      "name": "createdDonor",
      "type": "event"
    },
    {
      "anonymous": false,
      "inputs": [
        {
          "indexed": false,
          "internalType": "uint256",
          "name": "donorId",
          "type": "uint256"
        },
        {
          "indexed": false,
          "internalType": "uint256",
          "name": "listingId",
          "type": "uint256"
        },
        {
          "indexed": false,
          "internalType": "uint256",
          "name": "amt",
          "type": "uint256"
        }
      ],
      "name": "createdListing",
      "type": "event"
    },
    {
      "anonymous": false,
      "inputs": [
        {
          "indexed": false,
          "internalType": "uint256",
          "name": "listingId",
          "type": "uint256"
        }
      ],
      "name": "listingUnlisted",
      "type": "event"
    },
    {
      "inputs": [],
      "name": "destroyContract",
      "outputs": [],
      "stateMutability": "nonpayable",
      "type": "function"
    },
    {
      "inputs": [],
      "name": "toggleContactStopped",
      "outputs": [],
      "stateMutability": "nonpayable",
      "type": "function"
    },
    {
      "inputs": [
        {
          "internalType": "uint256",
          "name": "donorId",
          "type": "uint256"
        },
        {
          "internalType": "uint256",
          "name": "amt",
          "type": "uint256"
        },
        {
          "internalType": "string",
          "name": "category",
          "type": "string"
        }
      ],
      "name": "createListing",
      "outputs": [],
      "stateMutability": "nonpayable",
      "type": "function"
    },
    {
      "inputs": [
        {
          "internalType": "string",
          "name": "name",
          "type": "string"
        }
      ],
      "name": "createDonor",
      "outputs": [
        {
          "internalType": "uint256",
          "name": "",
          "type": "uint256"
        }
      ],
      "stateMutability": "nonpayable",
      "type": "function"
    },
    {
      "inputs": [
        {
          "internalType": "uint256",
          "name": "requestId",
          "type": "uint256"
        },
        {
          "internalType": "uint256",
          "name": "listingId",
          "type": "uint256"
        },
        {
          "internalType": "uint256",
          "name": "donorId",
          "type": "uint256"
        },
        {
          "internalType": "uint256",
          "name": "recipientId",
          "type": "uint256"
        }
      ],
      "name": "approveRecipientRequest",
      "outputs": [],
      "stateMutability": "nonpayable",
      "type": "function"
    },
    {
      "inputs": [
        {
          "internalType": "uint256",
          "name": "donorId",
          "type": "uint256"
        },
        {
          "internalType": "uint256",
          "name": "listingId",
          "type": "uint256"
        }
      ],
      "name": "unlist",
      "outputs": [],
      "stateMutability": "nonpayable",
      "type": "function"
    },
    {
      "inputs": [
        {
          "internalType": "uint256",
          "name": "donorId",
          "type": "uint256"
        }
      ],
      "name": "getActiveListings",
      "outputs": [
        {
          "internalType": "uint256[]",
          "name": "",
          "type": "uint256[]"
        }
      ],
      "stateMutability": "view",
      "type": "function",
      "constant": true
    }
  ],
  "bytecode": "0x60806040526000600460146101000a81548160ff0219169083151502179055506000600460156101000a81548160ff02191690831515021790555034801561004657600080fd5b50604051611ac6380380611ac68339818101604052608081101561006957600080fd5b8101908080519060200190929190805190602001909291908051906020019092919080519060200190929190505050826000806101000a81548173ffffffffffffffffffffffffffffffffffffffff021916908373ffffffffffffffffffffffffffffffffffffffff16021790555081600160006101000a81548173ffffffffffffffffffffffffffffffffffffffff021916908373ffffffffffffffffffffffffffffffffffffffff16021790555083600260006101000a81548173ffffffffffffffffffffffffffffffffffffffff021916908373ffffffffffffffffffffffffffffffffffffffff16021790555080600360006101000a81548173ffffffffffffffffffffffffffffffffffffffff021916908373ffffffffffffffffffffffffffffffffffffffff16021790555033600460006101000a81548173ffffffffffffffffffffffffffffffffffffffff021916908373ffffffffffffffffffffffffffffffffffffffff160217905550505050506118d7806101ef6000396000f3fe608060405234801561001057600080fd5b506004361061007d5760003560e01c806341449e7f1161005b57806341449e7f146101a75780634fd69f3c14610276578063750e6d09146102ae578063e6987501146102b85761007d565b8063092a5cce146100825780630df11b1c1461008c5780633c58c6b81461015b575b600080fd5b61008a61033b565b005b610145600480360360208110156100a257600080fd5b81019080803590602001906401000000008111156100bf57600080fd5b8201836020820111156100d157600080fd5b803590602001918460018302840111640100000000831117156100f357600080fd5b91908080601f016020809104026020016040519081016040528093929190818152602001838380828437600081840152601f19601f820116905080830192505050505050509192919290505050610421565b6040518082815260200191505060405180910390f35b6101a56004803603608081101561017157600080fd5b810190808035906020019092919080359060200190929190803590602001909291908035906020019092919050505061057b565b005b610274600480360360608110156101bd57600080fd5b810190808035906020019092919080359060200190929190803590602001906401000000008111156101ee57600080fd5b82018360208201111561020057600080fd5b8035906020019184600183028401116401000000008311171561022257600080fd5b91908080601f016020809104026020016040519081016040528093929190818152602001838380828437600081840152601f19601f820116905080830192505050505050509192919290505050610acc565b005b6102ac6004803603604081101561028c57600080fd5b810190808035906020019092919080359060200190929190505050611080565b005b6102b6611406565b005b6102e4600480360360208110156102ce57600080fd5b81019080803590602001909291905050506114d8565b6040518080602001828103825283818151815260200191508051906020019060200280838360005b8381101561032757808201518184015260208101905061030c565b505050509050019250505060405180910390f35b600460009054906101000a900473ffffffffffffffffffffffffffffffffffffffff1673ffffffffffffffffffffffffffffffffffffffff163373ffffffffffffffffffffffffffffffffffffffff16146103e1576040517f08c379a000000000000000000000000000000000000000000000000000000000815260040180806020018281038252603481526020018061186e6034913960400191505060405180910390fd5b6000600460009054906101000a900473ffffffffffffffffffffffffffffffffffffffff1690508073ffffffffffffffffffffffffffffffffffffffff16ff5b600080600360009054906101000a900473ffffffffffffffffffffffffffffffffffffffff1673ffffffffffffffffffffffffffffffffffffffff16630df11b1c846040518263ffffffff1660e01b81526004018080602001828103825283818151815260200191508051906020019080838360005b838110156104b2578082015181840152602081019050610497565b50505050905090810190601f1680156104df5780820380516001836020036101000a031916815260200191505b5092505050602060405180830381600087803b1580156104fe57600080fd5b505af1158015610512573d6000803e3d6000fd5b505050506040513d602081101561052857600080fd5b810190808051906020019092919050505090507f29660fbcd5be877e37fa2ed68a363016baeb2a178cbc7647c1215311d48bc706816040518082815260200191505060405180910390a180915050919050565b813373ffffffffffffffffffffffffffffffffffffffff16600360009054906101000a900473ffffffffffffffffffffffffffffffffffffffff1673ffffffffffffffffffffffffffffffffffffffff1663c41a360a836040518263ffffffff1660e01b81526004018082815260200191505060206040518083038186803b15801561060657600080fd5b505afa15801561061a573d6000803e3d6000fd5b505050506040513d602081101561063057600080fd5b810190808051906020019092919050505073ffffffffffffffffffffffffffffffffffffffff16146106ca576040517f08c379a00000000000000000000000000000000000000000000000000000000081526004018080602001828103825260168152602001807f596f7520617265206e6f742074686520646f6e6f72210000000000000000000081525060200191505060405180910390fd5b82600360009054906101000a900473ffffffffffffffffffffffffffffffffffffffff1673ffffffffffffffffffffffffffffffffffffffff1663db23f9f36040518163ffffffff1660e01b815260040160206040518083038186803b15801561073357600080fd5b505afa158015610747573d6000803e3d6000fd5b505050506040513d602081101561075d57600080fd5b810190808051906020019092919050505081106107e2576040517f08c379a00000000000000000000000000000000000000000000000000000000081526004018080602001828103825260158152602001807f646f6e6f724964206973206e6f742076616c696421000000000000000000000081525060200191505060405180910390fd5b600460159054906101000a900460ff1615610865576040517f08c379a00000000000000000000000000000000000000000000000000000000081526004018080602001828103825260118152602001807f636f6e74726163742073746f707065642100000000000000000000000000000081525060200191505060405180910390fd5b6000809054906101000a900473ffffffffffffffffffffffffffffffffffffffff1673ffffffffffffffffffffffffffffffffffffffff16635d35a3d987876040518363ffffffff1660e01b81526004018083815260200182815260200192505050600060405180830381600087803b1580156108e157600080fd5b505af11580156108f5573d6000803e3d6000fd5b505050506000600360009054906101000a900473ffffffffffffffffffffffffffffffffffffffff1673ffffffffffffffffffffffffffffffffffffffff1663c41a360a866040518263ffffffff1660e01b81526004018082815260200191505060206040518083038186803b15801561096e57600080fd5b505afa158015610982573d6000803e3d6000fd5b505050506040513d602081101561099857600080fd5b81019080805190602001909291905050509050600160009054906101000a900473ffffffffffffffffffffffffffffffffffffffff1673ffffffffffffffffffffffffffffffffffffffff16639b11ef638888846040518463ffffffff1660e01b8152600401808481526020018381526020018273ffffffffffffffffffffffffffffffffffffffff1673ffffffffffffffffffffffffffffffffffffffff1681526020019350505050600060405180830381600087803b158015610a5c57600080fd5b505af1158015610a70573d6000803e3d6000fd5b505050507f7a01780b16ee3ad4546a6eea02120da6fba4f5c0c6a9485c51ec96eebc635e168685878a6040518085815260200184815260200183815260200182815260200194505050505060405180910390a150505050505050565b82600360009054906101000a900473ffffffffffffffffffffffffffffffffffffffff1673ffffffffffffffffffffffffffffffffffffffff1663db23f9f36040518163ffffffff1660e01b815260040160206040518083038186803b158015610b3557600080fd5b505afa158015610b49573d6000803e3d6000fd5b505050506040513d6020811015610b5f57600080fd5b81019080805190602001909291905050508110610be4576040517f08c379a00000000000000000000000000000000000000000000000000000000081526004018080602001828103825260158152602001807f646f6e6f724964206973206e6f742076616c696421000000000000000000000081525060200191505060405180910390fd5b82600260009054906101000a900473ffffffffffffffffffffffffffffffffffffffff1673ffffffffffffffffffffffffffffffffffffffff16636cba62906040518163ffffffff1660e01b815260040160206040518083038186803b158015610c4d57600080fd5b505afa158015610c61573d6000803e3d6000fd5b505050506040513d6020811015610c7757600080fd5b81019080805190602001909291905050501015610cdf576040517f08c379a000000000000000000000000000000000000000000000000000000000815260040180806020018281038252603381526020018061183b6033913960400191505060405180910390fd5b60008060009054906101000a900473ffffffffffffffffffffffffffffffffffffffff1673ffffffffffffffffffffffffffffffffffffffff166341449e7f8686866040518463ffffffff1660e01b81526004018084815260200183815260200180602001828103825283818151815260200191508051906020019080838360005b83811015610d7c578082015181840152602081019050610d61565b50505050905090810190601f168015610da95780820380516001836020036101000a031916815260200191505b50945050505050602060405180830381600087803b158015610dca57600080fd5b505af1158015610dde573d6000803e3d6000fd5b505050506040513d6020811015610df457600080fd5b81019080805190602001909291905050509050600360009054906101000a900473ffffffffffffffffffffffffffffffffffffffff1673ffffffffffffffffffffffffffffffffffffffff1663da97f92986836040518363ffffffff1660e01b81526004018083815260200182815260200192505050600060405180830381600087803b158015610e8457600080fd5b505af1158015610e98573d6000803e3d6000fd5b50505050600260009054906101000a900473ffffffffffffffffffffffffffffffffffffffff1673ffffffffffffffffffffffffffffffffffffffff1663f5537ede326000809054906101000a900473ffffffffffffffffffffffffffffffffffffffff1673ffffffffffffffffffffffffffffffffffffffff1663893d20e86040518163ffffffff1660e01b815260040160206040518083038186803b158015610f4257600080fd5b505afa158015610f56573d6000803e3d6000fd5b505050506040513d6020811015610f6c57600080fd5b8101908080519060200190929190505050876040518463ffffffff1660e01b8152600401808473ffffffffffffffffffffffffffffffffffffffff1673ffffffffffffffffffffffffffffffffffffffff1681526020018373ffffffffffffffffffffffffffffffffffffffff1673ffffffffffffffffffffffffffffffffffffffff1681526020018281526020019350505050600060405180830381600087803b15801561101a57600080fd5b505af115801561102e573d6000803e3d6000fd5b505050507fbb6a1576b39173d9e5a8335b25f08db118259fb669f4e0d6bd689b3bc57ded1485828660405180848152602001838152602001828152602001935050505060405180910390a15050505050565b813373ffffffffffffffffffffffffffffffffffffffff16600360009054906101000a900473ffffffffffffffffffffffffffffffffffffffff1673ffffffffffffffffffffffffffffffffffffffff1663c41a360a836040518263ffffffff1660e01b81526004018082815260200191505060206040518083038186803b15801561110b57600080fd5b505afa15801561111f573d6000803e3d6000fd5b505050506040513d602081101561113557600080fd5b810190808051906020019092919050505073ffffffffffffffffffffffffffffffffffffffff16146111cf576040517f08c379a00000000000000000000000000000000000000000000000000000000081526004018080602001828103825260168152602001807f596f7520617265206e6f742074686520646f6e6f72210000000000000000000081525060200191505060405180910390fd5b82600360009054906101000a900473ffffffffffffffffffffffffffffffffffffffff1673ffffffffffffffffffffffffffffffffffffffff1663db23f9f36040518163ffffffff1660e01b815260040160206040518083038186803b15801561123857600080fd5b505afa15801561124c573d6000803e3d6000fd5b505050506040513d602081101561126257600080fd5b810190808051906020019092919050505081106112e7576040517f08c379a00000000000000000000000000000000000000000000000000000000081526004018080602001828103825260158152602001807f646f6e6f724964206973206e6f742076616c696421000000000000000000000081525060200191505060405180910390fd5b6000809054906101000a900473ffffffffffffffffffffffffffffffffffffffff1673ffffffffffffffffffffffffffffffffffffffff1663bf5a4dd3846040518263ffffffff1660e01b815260040180828152602001915050600060405180830381600087803b15801561135b57600080fd5b505af115801561136f573d6000803e3d6000fd5b50505050600360009054906101000a900473ffffffffffffffffffffffffffffffffffffffff1673ffffffffffffffffffffffffffffffffffffffff1663479ad4c3856040518263ffffffff1660e01b815260040180828152602001915050600060405180830381600087803b1580156113e857600080fd5b505af11580156113fc573d6000803e3d6000fd5b5050505050505050565b600460009054906101000a900473ffffffffffffffffffffffffffffffffffffffff1673ffffffffffffffffffffffffffffffffffffffff163373ffffffffffffffffffffffffffffffffffffffff16146114ac576040517f08c379a000000000000000000000000000000000000000000000000000000000815260040180806020018281038252603481526020018061186e6034913960400191505060405180910390fd5b600460159054906101000a900460ff1615600460156101000a81548160ff021916908315150217905550565b606060008090506060600360009054906101000a900473ffffffffffffffffffffffffffffffffffffffff1673ffffffffffffffffffffffffffffffffffffffff166374858114856040518263ffffffff1660e01b81526004018082815260200191505060006040518083038186803b15801561155457600080fd5b505afa158015611568573d6000803e3d6000fd5b505050506040513d6000823e3d601f19601f82011682018060405250602081101561159257600080fd5b81019080805160405193929190846401000000008211156115b257600080fd5b838201915060208201858111156115c857600080fd5b82518660208202830111640100000000821117156115e557600080fd5b8083526020830192505050908051906020019060200280838360005b8381101561161c578082015181840152602081019050611601565b5050505090500160405250505090506060600360009054906101000a900473ffffffffffffffffffffffffffffffffffffffff1673ffffffffffffffffffffffffffffffffffffffff1663ac775deb866040518263ffffffff1660e01b81526004018082815260200191505060206040518083038186803b1580156116a057600080fd5b505afa1580156116b4573d6000803e3d6000fd5b505050506040513d60208110156116ca57600080fd5b81019080805190602001909291905050506040519080825280602002602001820160405280156117095781602001602082028038833980820191505090505b50905060008090505b82518160ff16101561182e576000809054906101000a900473ffffffffffffffffffffffffffffffffffffffff1673ffffffffffffffffffffffffffffffffffffffff16635443b28a848360ff168151811061176a57fe5b60200260200101516040518263ffffffff1660e01b81526004018082815260200191505060206040518083038186803b1580156117a657600080fd5b505afa1580156117ba573d6000803e3d6000fd5b505050506040513d60208110156117d057600080fd5b81019080805190602001909291905050501561182157828160ff16815181106117f557fe5b6020026020010151828560ff168151811061180c57fe5b60200260200101818152505083806001019450505b8080600101915050611712565b5080935050505091905056fe446f6e6f7220646f6573206e6f74206861766520656e6f75676820657468657220746f20637265617465206c697374696e67216f6e6c7920746865206f776e6572206f662074686520636f6e74726163742063616e2063616c6c2074686973206d6574686f6421a2646970667358221220775197e283f2881346fb7da8133c38e28f21681a596449fceaa647a4c29fb49464736f6c63430006010033",
  "source": "// SPDX-License-Identifier: MIT\r\npragma solidity >=0.6.1;\r\nimport \"./Recipient.sol\";\r\nimport \"./DonationMarket.sol\";\r\nimport \"./Token.sol\";\r\nimport \"./DonorStorage.sol\";\r\n\r\ncontract Donor {\r\n    DonationMarket marketContract;\r\n    Recipient recipientContract;\r\n    Token tokenContract;\r\n    DonorStorage donorStorage;\r\n    address contractOwner;\r\n\r\n    bool internal locked = false;\r\n    bool internal contractStopped = false;\r\n\r\n    constructor(\r\n        Token tokenAddress,\r\n        DonationMarket marketAddress,\r\n        Recipient recipientAddress,\r\n        DonorStorage storageAddress\r\n    ) public {\r\n        marketContract = marketAddress;\r\n        recipientContract = recipientAddress;\r\n        tokenContract = tokenAddress;\r\n        donorStorage = storageAddress; //Data storage for this contract\r\n        contractOwner = msg.sender;\r\n    }\r\n\r\n\r\n    //Access Restriction Functions\r\n    //modifier to ensure a function is callable only by its donor\r\n    modifier ownerOnly(uint256 donorId) {\r\n        require(\r\n            donorStorage.getOwner(donorId) == msg.sender,\r\n            \"You are not the donor!\"\r\n        );\r\n        _;\r\n    }\r\n\r\n    //modifier to ensure that the donor is valid\r\n    modifier validDonorId(uint256 donorId) {\r\n        require(\r\n            donorId < donorStorage.getTotalOwners(),\r\n            \"donorId is not valid!\"\r\n        );\r\n        _;\r\n    }\r\n    modifier stoppedInEmergency() {\r\n        require(!contractStopped, \"contract stopped!\");\r\n        _;\r\n    }\r\n\r\n    modifier contractOwnerOnly() {\r\n        require(\r\n            msg.sender == contractOwner,\r\n            \"only the owner of the contract can call this method!\"\r\n        );\r\n        _;\r\n    }\r\n\r\n    //Security Functions \r\n    // self-destruct function\r\n    function destroyContract() public contractOwnerOnly {\r\n        address payable receiver = payable(contractOwner);\r\n        selfdestruct(receiver);\r\n    }\r\n\r\n    //Emergency Stop Functions\r\n    function toggleContactStopped() public contractOwnerOnly {\r\n        contractStopped = !contractStopped;\r\n    }\r\n    //Events \r\n    event approved(uint256 listingId, address recipient);\r\n    event createdDonor(uint256 donorId);\r\n    event createdListing(uint256 donorId, uint256 listingId, uint256 amt);\r\n    event approvedRecipientRequest(\r\n        uint256 listingId,\r\n        uint256 recipientId,\r\n        uint256 donorId,\r\n        uint256 requestId\r\n    );\r\n    event listingUnlisted(uint256 listingId);\r\n\r\n    //Core Functions \r\n    // Create a Listing that would be listed in the Donation Market \r\n    function createListing(\r\n        uint256 donorId,\r\n        uint256 amt,\r\n        string memory category\r\n    ) public validDonorId(donorId) {\r\n        require(\r\n            tokenContract.checkCredit() >= amt,\r\n            \"Donor does not have enough ether to create listing!\"\r\n        );\r\n        uint256 listingId = marketContract.createListing(\r\n            donorId,\r\n            amt,\r\n            category\r\n        );\r\n        donorStorage.addListingToDonor(donorId, listingId);\r\n        tokenContract.transferToken(tx.origin, marketContract.getOwner(), amt);\r\n        emit createdListing(donorId, listingId, amt);\r\n    }\r\n\r\n\r\n    //function to create a new donor, and add to 'donors' map\r\n    function createDonor(string memory name)\r\n        public\r\n        returns (uint256)\r\n    {\r\n        // create and add store donor in donorStorage\r\n        uint256 newDonorId = donorStorage.createDonor(name);\r\n        emit createdDonor(newDonorId);\r\n        return newDonorId;\r\n    }\r\n    //Approve Request Function to release tokens to recipeint based on their request \r\n    // Emergency Stop enabled for security purpose since this function include transferring of tokens\r\n    function approveRecipientRequest(\r\n        uint256 requestId,\r\n        uint256 listingId,\r\n        uint256 donorId,\r\n        uint256 recipientId\r\n    ) public ownerOnly(donorId) validDonorId(donorId) stoppedInEmergency {\r\n        marketContract.approve(requestId, listingId);\r\n        address donorAdd = donorStorage.getOwner(donorId);\r\n        recipientContract.completeRequest(requestId, listingId, donorAdd);\r\n\r\n        emit approvedRecipientRequest(\r\n            listingId,\r\n            recipientId,\r\n            donorId,\r\n            requestId\r\n        );\r\n    }\r\n    //Unlist Donor Listing \r\n    function unlist(uint256 donorId, uint256 listingId) public ownerOnly(donorId) validDonorId(donorId){\r\n        marketContract.unlist(listingId);\r\n        donorStorage.removeListing(donorId);\r\n    }\r\n    //Getter Functions \r\n    // Get all active (still listed in market) listing of donors to be shown in Frontend \r\n    function getActiveListings(uint256 donorId)\r\n        public\r\n        view\r\n        returns (uint256[] memory)\r\n    {\r\n        uint8 counter = 0;\r\n        uint256[] memory allListings = donorStorage.getListings(donorId);\r\n        uint256[] memory activeListing = new uint256[](donorStorage.getNumActiveListing(donorId));\r\n        for (uint8 i = 0; i < allListings.length; i++) {\r\n            if (marketContract.checkListing(allListings[i])) {\r\n                activeListing[counter] = allListings[i];\r\n                counter++;\r\n            }\r\n        }\r\n        return activeListing;\r\n    }  \r\n\r\n}\r\n",
  "sourcePath": "C:\\Users\\geral\\Desktop\\NUS\\Y3S2\\IS4302\\Project\\IS4302_GRP6\\contracts\\Donor.sol",
  "compiler": {
    "name": "solc",
    "version": "0.6.1+commit.e6f7d5a4.Emscripten.clang"
  },
  "schemaVersion": "3.4.4",
  "updatedAt": "2022-04-12T12:44:58.264Z",
  "networkType": "ethereum",
  "devdoc": {
    "methods": {}
  },
  "userdoc": {
    "methods": {}
  }
}