{
  "contractName": "Donor",
  "abi": [
    {
      "inputs": [
        {
          "internalType": "contract Token",
          "name": "tokenAddress",
          "type": "address"
        },
        {
          "internalType": "contract DonationMarket",
          "name": "marketAddress",
          "type": "address"
        },
        {
          "internalType": "contract Recipient",
          "name": "recipientAddress",
          "type": "address"
        },
        {
          "internalType": "contract DonorStorage",
          "name": "storageAddress",
          "type": "address"
        }
      ],
      "stateMutability": "nonpayable",
      "type": "constructor"
    },
    {
      "anonymous": false,
      "inputs": [
        {
          "indexed": false,
          "internalType": "uint256",
          "name": "listingId",
          "type": "uint256"
        },
        {
          "indexed": false,
          "internalType": "address",
          "name": "recipient",
          "type": "address"
        }
      ],
      "name": "approved",
      "type": "event"
    },
    {
      "anonymous": false,
      "inputs": [
        {
          "indexed": false,
          "internalType": "uint256",
          "name": "listingId",
          "type": "uint256"
        },
        {
          "indexed": false,
          "internalType": "uint256",
          "name": "recipientId",
          "type": "uint256"
        },
        {
          "indexed": false,
          "internalType": "uint256",
          "name": "donorId",
          "type": "uint256"
        },
        {
          "indexed": false,
          "internalType": "uint256",
          "name": "requestId",
          "type": "uint256"
        }
      ],
      "name": "approvedRecipientRequest",
      "type": "event"
    },
    {
      "anonymous": false,
      "inputs": [
        {
          "indexed": false,
          "internalType": "uint256",
          "name": "donorId",
          "type": "uint256"
        }
      ],
      "name": "createdDonor",
      "type": "event"
    },
    {
      "anonymous": false,
      "inputs": [
        {
          "indexed": false,
          "internalType": "uint256",
          "name": "donorId",
          "type": "uint256"
        },
        {
          "indexed": false,
          "internalType": "uint256",
          "name": "listingId",
          "type": "uint256"
        },
        {
          "indexed": false,
          "internalType": "uint256",
          "name": "amt",
          "type": "uint256"
        }
      ],
      "name": "createdToken",
      "type": "event"
    },
    {
      "anonymous": false,
      "inputs": [
        {
          "indexed": false,
          "internalType": "uint256",
          "name": "listingId",
          "type": "uint256"
        }
      ],
      "name": "listingUnlisted",
      "type": "event"
    },
    {
      "inputs": [
        {
          "internalType": "string",
          "name": "name",
          "type": "string"
        },
        {
          "internalType": "string",
          "name": "password",
          "type": "string"
        }
      ],
      "name": "createDonor",
      "outputs": [
        {
          "internalType": "uint256",
          "name": "",
          "type": "uint256"
        }
      ],
      "stateMutability": "nonpayable",
      "type": "function"
    },
    {
      "inputs": [
        {
          "internalType": "uint256",
          "name": "donorId",
          "type": "uint256"
        },
        {
          "internalType": "uint256",
          "name": "amt",
          "type": "uint256"
        },
        {
          "internalType": "string",
          "name": "category",
          "type": "string"
        }
      ],
      "name": "createListing",
      "outputs": [],
      "stateMutability": "nonpayable",
      "type": "function"
    },
    {
      "inputs": [],
      "name": "toggleContactStopped",
      "outputs": [],
      "stateMutability": "nonpayable",
      "type": "function"
    },
    {
      "inputs": [
        {
          "internalType": "uint256",
          "name": "requestId",
          "type": "uint256"
        },
        {
          "internalType": "uint256",
          "name": "listingId",
          "type": "uint256"
        },
        {
          "internalType": "uint256",
          "name": "donorId",
          "type": "uint256"
        },
        {
          "internalType": "uint256",
          "name": "recipientId",
          "type": "uint256"
        }
      ],
      "name": "approveRecipientRequest",
      "outputs": [],
      "stateMutability": "nonpayable",
      "type": "function"
    },
    {
      "inputs": [
        {
          "internalType": "uint256",
          "name": "donorId",
          "type": "uint256"
        }
      ],
      "name": "getActiveListings",
      "outputs": [
        {
          "internalType": "uint256[]",
          "name": "",
          "type": "uint256[]"
        }
      ],
      "stateMutability": "view",
      "type": "function",
      "constant": true
    },
    {
      "inputs": [
        {
          "internalType": "uint256",
          "name": "donorId",
          "type": "uint256"
        }
      ],
      "name": "getListings",
      "outputs": [
        {
          "internalType": "uint256[]",
          "name": "",
          "type": "uint256[]"
        }
      ],
      "stateMutability": "view",
      "type": "function",
      "constant": true
    },
    {
      "inputs": [],
      "name": "destroyContract",
      "outputs": [],
      "stateMutability": "nonpayable",
      "type": "function"
    }
  ],
  "bytecode": "0x60806040526000600460146101000a81548160ff0219169083151502179055506000600460156101000a81548160ff02191690831515021790555034801561004657600080fd5b506040516119e03803806119e08339818101604052608081101561006957600080fd5b8101908080519060200190929190805190602001909291908051906020019092919080519060200190929190505050826000806101000a81548173ffffffffffffffffffffffffffffffffffffffff021916908373ffffffffffffffffffffffffffffffffffffffff16021790555081600160006101000a81548173ffffffffffffffffffffffffffffffffffffffff021916908373ffffffffffffffffffffffffffffffffffffffff16021790555083600260006101000a81548173ffffffffffffffffffffffffffffffffffffffff021916908373ffffffffffffffffffffffffffffffffffffffff16021790555080600360006101000a81548173ffffffffffffffffffffffffffffffffffffffff021916908373ffffffffffffffffffffffffffffffffffffffff16021790555033600460006101000a81548173ffffffffffffffffffffffffffffffffffffffff021916908373ffffffffffffffffffffffffffffffffffffffff160217905550505050506117f1806101ef6000396000f3fe608060405234801561001057600080fd5b506004361061007d5760003560e01c8063748581141161005b57806374858114146101a7578063750e6d091461022a578063d38b1da714610234578063e69875011461039a5761007d565b8063092a5cce146100825780633c58c6b81461008c57806341449e7f146100d8575b600080fd5b61008a61041d565b005b6100d6600480360360808110156100a257600080fd5b8101908080359060200190929190803590602001909291908035906020019092919080359060200190929190505050610503565b005b6101a5600480360360608110156100ee57600080fd5b8101908080359060200190929190803590602001909291908035906020019064010000000081111561011f57600080fd5b82018360208201111561013157600080fd5b8035906020019184600183028401116401000000008311171561015357600080fd5b91908080601f016020809104026020016040519081016040528093929190818152602001838380828437600081840152601f19601f820116905080830192505050505050509192919290505050610a54565b005b6101d3600480360360208110156101bd57600080fd5b8101908080359060200190929190505050611068565b6040518080602001828103825283818151815260200191508051906020019060200280838360005b838110156102165780820151818401526020810190506101fb565b505050509050019250505060405180910390f35b6102326111be565b005b6103846004803603604081101561024a57600080fd5b810190808035906020019064010000000081111561026757600080fd5b82018360208201111561027957600080fd5b8035906020019184600183028401116401000000008311171561029b57600080fd5b91908080601f016020809104026020016040519081016040528093929190818152602001838380828437600081840152601f19601f820116905080830192505050505050509192919290803590602001906401000000008111156102fe57600080fd5b82018360208201111561031057600080fd5b8035906020019184600183028401116401000000008311171561033257600080fd5b91908080601f016020809104026020016040519081016040528093929190818152602001838380828437600081840152601f19601f820116905080830192505050505050509192919290505050611290565b6040518082815260200191505060405180910390f35b6103c6600480360360208110156103b057600080fd5b8101908080359060200190929190505050611458565b6040518080602001828103825283818151815260200191508051906020019060200280838360005b838110156104095780820151818401526020810190506103ee565b505050509050019250505060405180910390f35b600460009054906101000a900473ffffffffffffffffffffffffffffffffffffffff1673ffffffffffffffffffffffffffffffffffffffff163373ffffffffffffffffffffffffffffffffffffffff16146104c3576040517f08c379a00000000000000000000000000000000000000000000000000000000081526004018080602001828103825260348152602001806117886034913960400191505060405180910390fd5b6000600460009054906101000a900473ffffffffffffffffffffffffffffffffffffffff1690508073ffffffffffffffffffffffffffffffffffffffff16ff5b81600360009054906101000a900473ffffffffffffffffffffffffffffffffffffffff1673ffffffffffffffffffffffffffffffffffffffff1663db23f9f36040518163ffffffff1660e01b815260040160206040518083038186803b15801561056c57600080fd5b505afa158015610580573d6000803e3d6000fd5b505050506040513d602081101561059657600080fd5b8101908080519060200190929190505050811061061b576040517f08c379a00000000000000000000000000000000000000000000000000000000081526004018080602001828103825260158152602001807f646f6e6f724964206973206e6f742076616c696421000000000000000000000081525060200191505060405180910390fd5b600460159054906101000a900460ff161561069e576040517f08c379a00000000000000000000000000000000000000000000000000000000081526004018080602001828103825260118152602001807f636f6e74726163742073746f707065642100000000000000000000000000000081525060200191505060405180910390fd5b823373ffffffffffffffffffffffffffffffffffffffff16600360009054906101000a900473ffffffffffffffffffffffffffffffffffffffff1673ffffffffffffffffffffffffffffffffffffffff1663c41a360a836040518263ffffffff1660e01b81526004018082815260200191505060206040518083038186803b15801561072957600080fd5b505afa15801561073d573d6000803e3d6000fd5b505050506040513d602081101561075357600080fd5b810190808051906020019092919050505073ffffffffffffffffffffffffffffffffffffffff16146107ed576040517f08c379a00000000000000000000000000000000000000000000000000000000081526004018080602001828103825260168152602001807f596f7520617265206e6f742074686520646f6e6f72210000000000000000000081525060200191505060405180910390fd5b6000809054906101000a900473ffffffffffffffffffffffffffffffffffffffff1673ffffffffffffffffffffffffffffffffffffffff16635d35a3d987876040518363ffffffff1660e01b81526004018083815260200182815260200192505050600060405180830381600087803b15801561086957600080fd5b505af115801561087d573d6000803e3d6000fd5b505050506000600360009054906101000a900473ffffffffffffffffffffffffffffffffffffffff1673ffffffffffffffffffffffffffffffffffffffff1663c41a360a866040518263ffffffff1660e01b81526004018082815260200191505060206040518083038186803b1580156108f657600080fd5b505afa15801561090a573d6000803e3d6000fd5b505050506040513d602081101561092057600080fd5b81019080805190602001909291905050509050600160009054906101000a900473ffffffffffffffffffffffffffffffffffffffff1673ffffffffffffffffffffffffffffffffffffffff16639b11ef638888846040518463ffffffff1660e01b8152600401808481526020018381526020018273ffffffffffffffffffffffffffffffffffffffff1673ffffffffffffffffffffffffffffffffffffffff1681526020019350505050600060405180830381600087803b1580156109e457600080fd5b505af11580156109f8573d6000803e3d6000fd5b505050507f7a01780b16ee3ad4546a6eea02120da6fba4f5c0c6a9485c51ec96eebc635e168685878a6040518085815260200184815260200183815260200182815260200194505050505060405180910390a150505050505050565b82600360009054906101000a900473ffffffffffffffffffffffffffffffffffffffff1673ffffffffffffffffffffffffffffffffffffffff1663db23f9f36040518163ffffffff1660e01b815260040160206040518083038186803b158015610abd57600080fd5b505afa158015610ad1573d6000803e3d6000fd5b505050506040513d6020811015610ae757600080fd5b81019080805190602001909291905050508110610b6c576040517f08c379a00000000000000000000000000000000000000000000000000000000081526004018080602001828103825260158152602001807f646f6e6f724964206973206e6f742076616c696421000000000000000000000081525060200191505060405180910390fd5b82600260009054906101000a900473ffffffffffffffffffffffffffffffffffffffff1673ffffffffffffffffffffffffffffffffffffffff16636cba62906040518163ffffffff1660e01b815260040160206040518083038186803b158015610bd557600080fd5b505afa158015610be9573d6000803e3d6000fd5b505050506040513d6020811015610bff57600080fd5b81019080805190602001909291905050501015610c67576040517f08c379a00000000000000000000000000000000000000000000000000000000081526004018080602001828103825260338152602001806117556033913960400191505060405180910390fd5b678ac7230489e800008310610cc7576040517f08c379a000000000000000000000000000000000000000000000000000000000815260040180806020018281038252604681526020018061170f6046913960600191505060405180910390fd5b60008060009054906101000a900473ffffffffffffffffffffffffffffffffffffffff1673ffffffffffffffffffffffffffffffffffffffff166341449e7f8686866040518463ffffffff1660e01b81526004018084815260200183815260200180602001828103825283818151815260200191508051906020019080838360005b83811015610d64578082015181840152602081019050610d49565b50505050905090810190601f168015610d915780820380516001836020036101000a031916815260200191505b50945050505050602060405180830381600087803b158015610db257600080fd5b505af1158015610dc6573d6000803e3d6000fd5b505050506040513d6020811015610ddc57600080fd5b81019080805190602001909291905050509050600360009054906101000a900473ffffffffffffffffffffffffffffffffffffffff1673ffffffffffffffffffffffffffffffffffffffff1663da97f92986836040518363ffffffff1660e01b81526004018083815260200182815260200192505050600060405180830381600087803b158015610e6c57600080fd5b505af1158015610e80573d6000803e3d6000fd5b50505050600260009054906101000a900473ffffffffffffffffffffffffffffffffffffffff1673ffffffffffffffffffffffffffffffffffffffff1663f5537ede326000809054906101000a900473ffffffffffffffffffffffffffffffffffffffff1673ffffffffffffffffffffffffffffffffffffffff1663893d20e86040518163ffffffff1660e01b815260040160206040518083038186803b158015610f2a57600080fd5b505afa158015610f3e573d6000803e3d6000fd5b505050506040513d6020811015610f5457600080fd5b8101908080519060200190929190505050876040518463ffffffff1660e01b8152600401808473ffffffffffffffffffffffffffffffffffffffff1673ffffffffffffffffffffffffffffffffffffffff1681526020018373ffffffffffffffffffffffffffffffffffffffff1673ffffffffffffffffffffffffffffffffffffffff1681526020018281526020019350505050600060405180830381600087803b15801561100257600080fd5b505af1158015611016573d6000803e3d6000fd5b505050507f01f00b2d07920866a32b7446ce80f035f151d886b9ae9de1b1a59097a13bc04485828660405180848152602001838152602001828152602001935050505060405180910390a15050505050565b606080600360009054906101000a900473ffffffffffffffffffffffffffffffffffffffff1673ffffffffffffffffffffffffffffffffffffffff166374858114846040518263ffffffff1660e01b81526004018082815260200191505060006040518083038186803b1580156110de57600080fd5b505afa1580156110f2573d6000803e3d6000fd5b505050506040513d6000823e3d601f19601f82011682018060405250602081101561111c57600080fd5b810190808051604051939291908464010000000082111561113c57600080fd5b8382019150602082018581111561115257600080fd5b825186602082028301116401000000008211171561116f57600080fd5b8083526020830192505050908051906020019060200280838360005b838110156111a657808201518184015260208101905061118b565b50505050905001604052505050905080915050919050565b600460009054906101000a900473ffffffffffffffffffffffffffffffffffffffff1673ffffffffffffffffffffffffffffffffffffffff163373ffffffffffffffffffffffffffffffffffffffff1614611264576040517f08c379a00000000000000000000000000000000000000000000000000000000081526004018080602001828103825260348152602001806117886034913960400191505060405180910390fd5b600460159054906101000a900460ff1615600460156101000a81548160ff021916908315150217905550565b600080600360009054906101000a900473ffffffffffffffffffffffffffffffffffffffff1673ffffffffffffffffffffffffffffffffffffffff1663d38b1da785856040518363ffffffff1660e01b8152600401808060200180602001838103835285818151815260200191508051906020019080838360005b8381101561132657808201518184015260208101905061130b565b50505050905090810190601f1680156113535780820380516001836020036101000a031916815260200191505b50838103825284818151815260200191508051906020019080838360005b8381101561138c578082015181840152602081019050611371565b50505050905090810190601f1680156113b95780820380516001836020036101000a031916815260200191505b50945050505050602060405180830381600087803b1580156113da57600080fd5b505af11580156113ee573d6000803e3d6000fd5b505050506040513d602081101561140457600080fd5b810190808051906020019092919050505090507f29660fbcd5be877e37fa2ed68a363016baeb2a178cbc7647c1215311d48bc706816040518082815260200191505060405180910390a18091505092915050565b606060008090506060600360009054906101000a900473ffffffffffffffffffffffffffffffffffffffff1673ffffffffffffffffffffffffffffffffffffffff166374858114856040518263ffffffff1660e01b81526004018082815260200191505060006040518083038186803b1580156114d457600080fd5b505afa1580156114e8573d6000803e3d6000fd5b505050506040513d6000823e3d601f19601f82011682018060405250602081101561151257600080fd5b810190808051604051939291908464010000000082111561153257600080fd5b8382019150602082018581111561154857600080fd5b825186602082028301116401000000008211171561156557600080fd5b8083526020830192505050908051906020019060200280838360005b8381101561159c578082015181840152602081019050611581565b505050509050016040525050509050606081516040519080825280602002602001820160405280156115dd5781602001602082028038833980820191505090505b50905060008090505b82518160ff161015611702576000809054906101000a900473ffffffffffffffffffffffffffffffffffffffff1673ffffffffffffffffffffffffffffffffffffffff16635443b28a848360ff168151811061163e57fe5b60200260200101516040518263ffffffff1660e01b81526004018082815260200191505060206040518083038186803b15801561167a57600080fd5b505afa15801561168e573d6000803e3d6000fd5b505050506040513d60208110156116a457600080fd5b8101908080519060200190929190505050156116f557828160ff16815181106116c957fe5b6020026020010151828560ff16815181106116e057fe5b60200260200101818152505083806001019450505b80806001019150506115e6565b5080935050505091905056fe446f6e6174656420616d6f756e7420686974206c696d69742120446f6e6174656420616d6f756e742063616e6e6f74206265206d6f7265207468616e20313020657468657221446f6e6f7220646f6573206e6f74206861766520656e6f75676820657468657220746f20637265617465206c697374696e67216f6e6c7920746865206f776e6572206f662074686520636f6e74726163742063616e2063616c6c2074686973206d6574686f6421a2646970667358221220a79bb31ff5039c93431f85a4ef0a1debf07f0c40541c0df40bb15f16c7bb805a64736f6c63430006010033",
  "source": "// SPDX-License-Identifier: MIT\r\npragma solidity >=0.6.1;\r\nimport \"./Recipient.sol\";\r\nimport \"./DonationMarket.sol\";\r\nimport \"./Token.sol\";\r\nimport \"./DonorStorage.sol\";\r\n\r\n\r\ncontract Donor {\r\n\r\n    DonationMarket marketContract;\r\n    Recipient recipientContract; \r\n    Token tokenContract;\r\n    DonorStorage donorStorage;\r\n    address contractOwner;\r\n\r\n    bool internal locked = false;\r\n    bool internal contractStopped = false;\r\n\r\n    constructor (Token tokenAddress, DonationMarket marketAddress, Recipient recipientAddress, DonorStorage storageAddress) public {\r\n        marketContract = marketAddress;\r\n        recipientContract = recipientAddress;\r\n        tokenContract = tokenAddress;\r\n        donorStorage = storageAddress;\r\n        contractOwner = msg.sender;\r\n    }\r\n\r\n    //function to create a new donor, and add to 'donors' map\r\n    function createDonor (\r\n        string memory name,\r\n        string memory password\r\n    ) public returns(uint256) {\r\n        \r\n        // create and add store donor in donorStorage\r\n        uint256 newDonorId = donorStorage.createDonor(name, password);\r\n        emit createdDonor(newDonorId);\r\n        return newDonorId;  \r\n    }\r\n\r\n    event approved(uint256 listingId, address recipient);\r\n    event createdDonor(uint256 donorId);\r\n    event createdToken(uint256 donorId, uint256 listingId, uint256 amt);\r\n    event approvedRecipientRequest(uint256 listingId, uint256 recipientId, uint256 donorId, uint256 requestId);\r\n    event listingUnlisted(uint256 listingId);\r\n\r\n\r\n    //modifier to ensure a function is callable only by its donor  \r\n    modifier ownerOnly(uint256 donorId) {\r\n        require(donorStorage.getOwner(donorId) == msg.sender, \"You are not the donor!\");\r\n        _;\r\n    }\r\n    \r\n    //modifier to ensure that the donor is valid\r\n    modifier validDonorId(uint256 donorId) {\r\n        require(donorId < donorStorage.getTotalOwners(), \"donorId is not valid!\");\r\n        _;\r\n    }\r\n\r\n\r\n    function createListing(uint256 donorId, uint256 amt, string memory category ) validDonorId(donorId) public {\r\n        require(tokenContract.checkCredit() >= amt, \"Donor does not have enough ether to create listing!\");\r\n        require(amt < 10 ether, \"Donated amount hit limit! Donated amount cannot be more than 10 ether!\");\r\n\r\n        uint256 listingId = marketContract.createListing(donorId, amt, category);\r\n        donorStorage.addListingToDonor(donorId, listingId);\r\n        tokenContract.transferToken(tx.origin, marketContract.getOwner(), amt);\r\n        emit createdToken(donorId, listingId, amt);\r\n    }\r\n\r\n    modifier stoppedInEmergency {\r\n        require(!contractStopped, \"contract stopped!\");\r\n        _;\r\n    }\r\n\r\n\r\n    modifier contractOwnerOnly {\r\n        require(msg.sender == contractOwner, \"only the owner of the contract can call this method!\");\r\n        _;\r\n    }\r\n\r\n    function toggleContactStopped() public contractOwnerOnly {\r\n        contractStopped = !contractStopped;\r\n    }\r\n\r\n    //Emergency Stop enabled in approve \r\n    function approveRecipientRequest(uint256 requestId, uint256 listingId, uint256 donorId, uint256 recipientId) validDonorId(donorId) stoppedInEmergency ownerOnly(donorId) public {\r\n\r\n        marketContract.approve(requestId, listingId);\r\n        address donorAdd = donorStorage.getOwner(donorId);\r\n        recipientContract.completeRequest(requestId, listingId, donorAdd);\r\n     \r\n        emit approvedRecipientRequest(listingId, recipientId, donorId, requestId);\r\n    }\r\n\r\n\r\n    function getActiveListings(uint256 donorId) public view returns (uint256[] memory) {\r\n        uint8 counter = 0;\r\n        uint256[] memory currentListings = donorStorage.getListings(donorId);\r\n        uint256[] memory activeListing = new uint256[](currentListings.length);\r\n        for (uint8 i=0; i < currentListings.length;  i++) {\r\n            if (marketContract.checkListing(currentListings[i])) {\r\n                activeListing[counter] = currentListings[i];\r\n                counter ++;\r\n            }\r\n        }\r\n        return activeListing; \r\n    }\r\n\r\n    function getListings(uint256 donorId) public view returns (uint256[] memory) {\r\n        uint256[] memory currentListings = donorStorage.getListings(donorId);\r\n        return currentListings;\r\n    }\r\n\r\n\r\n     // self-destruct function \r\n     function destroyContract() public contractOwnerOnly {\r\n        address payable receiver = payable(contractOwner);\r\n         selfdestruct(receiver);\r\n     }\r\n\r\n    \r\n\r\n}",
  "sourcePath": "C:\\Users\\geral\\Desktop\\NUS\\Y3S2\\IS4302\\Project\\IS4302_GRP6\\contracts\\Donor.sol",
  "compiler": {
    "name": "solc",
    "version": "0.6.1+commit.e6f7d5a4.Emscripten.clang"
  },
  "schemaVersion": "3.4.4",
  "updatedAt": "2022-04-03T09:51:32.934Z",
  "networkType": "ethereum",
  "devdoc": {
    "methods": {}
  },
  "userdoc": {
    "methods": {}
  }
}