{
  "contractName": "DonorStorage",
  "abi": [
    {
      "inputs": [
        {
          "internalType": "string",
          "name": "name",
          "type": "string"
        },
        {
          "internalType": "string",
          "name": "password",
          "type": "string"
        }
      ],
      "name": "createDonor",
      "outputs": [
        {
          "internalType": "uint256",
          "name": "",
          "type": "uint256"
        }
      ],
      "stateMutability": "nonpayable",
      "type": "function"
    },
    {
      "inputs": [
        {
          "internalType": "uint256",
          "name": "donorId",
          "type": "uint256"
        }
      ],
      "name": "getOwner",
      "outputs": [
        {
          "internalType": "address",
          "name": "",
          "type": "address"
        }
      ],
      "stateMutability": "view",
      "type": "function",
      "constant": true
    },
    {
      "inputs": [],
      "name": "getTotalOwners",
      "outputs": [
        {
          "internalType": "uint256",
          "name": "",
          "type": "uint256"
        }
      ],
      "stateMutability": "view",
      "type": "function",
      "constant": true
    },
    {
      "inputs": [
        {
          "internalType": "uint256",
          "name": "donorId",
          "type": "uint256"
        },
        {
          "internalType": "uint256",
          "name": "listingId",
          "type": "uint256"
        }
      ],
      "name": "addListingToDonor",
      "outputs": [],
      "stateMutability": "nonpayable",
      "type": "function"
    },
    {
      "inputs": [
        {
          "internalType": "uint256",
          "name": "donorId",
          "type": "uint256"
        }
      ],
      "name": "getListings",
      "outputs": [
        {
          "internalType": "uint256[]",
          "name": "",
          "type": "uint256[]"
        }
      ],
      "stateMutability": "view",
      "type": "function",
      "constant": true
    }
  ],
  "bytecode": "0x6080604052336000806101000a81548173ffffffffffffffffffffffffffffffffffffffff021916908373ffffffffffffffffffffffffffffffffffffffff160217905550600060015534801561005557600080fd5b50610683806100656000396000f3fe608060405234801561001057600080fd5b50600436106100575760003560e01c8063748581141461005c578063c41a360a146100df578063d38b1da71461014d578063da97f929146102b3578063db23f9f3146102eb575b600080fd5b6100886004803603602081101561007257600080fd5b8101908080359060200190929190505050610309565b6040518080602001828103825283818151815260200191508051906020019060200280838360005b838110156100cb5780820151818401526020810190506100b0565b505050509050019250505060405180910390f35b61010b600480360360208110156100f557600080fd5b8101908080359060200190929190505050610377565b604051808273ffffffffffffffffffffffffffffffffffffffff1673ffffffffffffffffffffffffffffffffffffffff16815260200191505060405180910390f35b61029d6004803603604081101561016357600080fd5b810190808035906020019064010000000081111561018057600080fd5b82018360208201111561019257600080fd5b803590602001918460018302840111640100000000831117156101b457600080fd5b91908080601f016020809104026020016040519081016040528093929190818152602001838380828437600081840152601f19601f8201169050808301925050505050505091929192908035906020019064010000000081111561021757600080fd5b82018360208201111561022957600080fd5b8035906020019184600183028401116401000000008311171561024b57600080fd5b91908080601f016020809104026020016040519081016040528093929190818152602001838380828437600081840152601f19601f8201169050808301925050505050505091929192905050506103b7565b6040518082815260200191505060405180910390f35b6102e9600480360360408110156102c957600080fd5b8101908080359060200190929190803590602001909291905050506104d2565b005b6102f3610513565b6040518082815260200191505060405180910390f35b60606002600083815260200190815260200160002060030180548060200260200160405190810160405280929190818152602001828054801561036b57602002820191906000526020600020905b815481526020019060010190808311610357575b50505050509050919050565b60006002600083815260200190815260200160002060000160009054906101000a900473ffffffffffffffffffffffffffffffffffffffff169050919050565b600060606103c361051d565b60405180608001604052803273ffffffffffffffffffffffffffffffffffffffff168152602001868152602001858152602001838152509050600060016000815480929190600101919050559050816002600083815260200190815260200160002060008201518160000160006101000a81548173ffffffffffffffffffffffffffffffffffffffff021916908373ffffffffffffffffffffffffffffffffffffffff160217905550602082015181600101908051906020019061048892919061055b565b5060408201518160020190805190602001906104a592919061055b565b5060608201518160030190805190602001906104c29291906105db565b5090505080935050505092915050565b600260008381526020019081526020016000206003018190806001815401808255809150506001900390600052602060002001600090919091909150555050565b6000600154905090565b6040518060800160405280600073ffffffffffffffffffffffffffffffffffffffff1681526020016060815260200160608152602001606081525090565b828054600181600116156101000203166002900490600052602060002090601f016020900481019282601f1061059c57805160ff19168380011785556105ca565b828001600101855582156105ca579182015b828111156105c95782518255916020019190600101906105ae565b5b5090506105d79190610628565b5090565b828054828255906000526020600020908101928215610617579160200282015b828111156106165782518255916020019190600101906105fb565b5b5090506106249190610628565b5090565b61064a91905b8082111561064657600081600090555060010161062e565b5090565b9056fea264697066735822122099959ca8826ad4921ff3f7ab92291f92e573aa37aec517efaec2223f9dc212e364736f6c63430006010033",
  "source": "// SPDX-License-Identifier: MIT\npragma solidity >=0.6.1;\n\ncontract DonorStorage {\n\n    struct donor {\n        address owner;\n        string username;\n        string pw;\n        uint256[] listings;\n    }\n\n    address owner = msg.sender; // set deployer as owner of storage\n    uint256  numDonors = 0; // total number of donors\n    mapping(uint256 => donor) donors; // donors\n\n    // stores new donor into mapping\n    function createDonor (\n        string memory name,\n        string memory password\n    ) public returns(uint256) {\n        uint256[] memory initListingsArray;\n        donor memory newDonor = donor(\n                tx.origin, // donor address\n                name,\n                password,\n                initListingsArray\n            );\n            uint256 newDonorId = numDonors++;\n            donors[newDonorId] = newDonor; //commit to state variable\n        return newDonorId;\n    }\n\n    // returns address/owner of donor \n    function getOwner (uint256 donorId) public view returns(address) {\n        return donors[donorId].owner;\n    }\n\n    // get total amount of owners\n    function getTotalOwners () public view returns(uint256) {\n        return numDonors;\n    }\n\n    // add new listingid to corresponding donor\n    function addListingToDonor (uint256 donorId, uint256 listingId) public {\n        donors[donorId].listings.push(listingId);\n    }\n\n    // get collection of listings for donor \n    function getListings (uint256 donorId) public view returns(uint256[] memory) {\n        return donors[donorId].listings;\n    }\n\n}",
  "sourcePath": "/Users/_mayveeee_/Desktop/IS4302_GRP6/contracts/DonorStorage.sol",
  "compiler": {
    "name": "solc",
    "version": "0.6.1+commit.e6f7d5a4.Emscripten.clang"
  },
  "schemaVersion": "3.4.4",
  "updatedAt": "2022-04-03T11:09:14.715Z",
  "networkType": "ethereum",
  "devdoc": {
    "methods": {}
  },
  "userdoc": {
    "methods": {}
  }
}