{
  "contractName": "Donor",
  "abi": [
    {
      "inputs": [
        {
          "internalType": "contract DonationMarket",
          "name": "marketAddress",
          "type": "address"
        },
        {
          "internalType": "contract Recipient",
          "name": "recipientAddress",
          "type": "address"
        },
        {
          "internalType": "contract Token",
          "name": "tokenAddress",
          "type": "address"
        }
      ],
      "stateMutability": "nonpayable",
      "type": "constructor"
    },
    {
      "anonymous": false,
      "inputs": [
        {
          "indexed": false,
          "internalType": "uint256",
          "name": "listingId",
          "type": "uint256"
        },
        {
          "indexed": false,
          "internalType": "address",
          "name": "recipient",
          "type": "address"
        }
      ],
      "name": "approved",
      "type": "event"
    },
    {
      "anonymous": false,
      "inputs": [
        {
          "indexed": false,
          "internalType": "uint256",
          "name": "listingId",
          "type": "uint256"
        },
        {
          "indexed": false,
          "internalType": "uint256",
          "name": "recipientId",
          "type": "uint256"
        },
        {
          "indexed": false,
          "internalType": "uint256",
          "name": "donorId",
          "type": "uint256"
        },
        {
          "indexed": false,
          "internalType": "uint256",
          "name": "requestId",
          "type": "uint256"
        }
      ],
      "name": "approvedRecipientRequest",
      "type": "event"
    },
    {
      "anonymous": false,
      "inputs": [
        {
          "indexed": false,
          "internalType": "uint256",
          "name": "donorId",
          "type": "uint256"
        }
      ],
      "name": "createdDonor",
      "type": "event"
    },
    {
      "anonymous": false,
      "inputs": [
        {
          "indexed": false,
          "internalType": "uint256",
          "name": "donorId",
          "type": "uint256"
        },
        {
          "indexed": false,
          "internalType": "uint256",
          "name": "listingId",
          "type": "uint256"
        },
        {
          "indexed": false,
          "internalType": "uint256",
          "name": "amt",
          "type": "uint256"
        }
      ],
      "name": "createdToken",
      "type": "event"
    },
    {
      "anonymous": false,
      "inputs": [
        {
          "indexed": false,
          "internalType": "uint256",
          "name": "listingId",
          "type": "uint256"
        }
      ],
      "name": "listingUnlisted",
      "type": "event"
    },
    {
      "inputs": [
        {
          "internalType": "uint256",
          "name": "",
          "type": "uint256"
        }
      ],
      "name": "donors",
      "outputs": [
        {
          "internalType": "address",
          "name": "owner",
          "type": "address"
        },
        {
          "internalType": "string",
          "name": "username",
          "type": "string"
        },
        {
          "internalType": "string",
          "name": "pw",
          "type": "string"
        }
      ],
      "stateMutability": "view",
      "type": "function"
    },
    {
      "inputs": [
        {
          "internalType": "uint256",
          "name": "",
          "type": "uint256"
        },
        {
          "internalType": "uint256",
          "name": "",
          "type": "uint256"
        }
      ],
      "name": "listingsCreated",
      "outputs": [
        {
          "internalType": "uint256",
          "name": "",
          "type": "uint256"
        }
      ],
      "stateMutability": "view",
      "type": "function"
    },
    {
      "inputs": [],
      "name": "numDonors",
      "outputs": [
        {
          "internalType": "uint256",
          "name": "",
          "type": "uint256"
        }
      ],
      "stateMutability": "view",
      "type": "function"
    },
    {
      "inputs": [
        {
          "internalType": "string",
          "name": "name",
          "type": "string"
        },
        {
          "internalType": "string",
          "name": "password",
          "type": "string"
        }
      ],
      "name": "createDonor",
      "outputs": [
        {
          "internalType": "uint256",
          "name": "",
          "type": "uint256"
        }
      ],
      "stateMutability": "nonpayable",
      "type": "function"
    },
    {
      "inputs": [
        {
          "internalType": "uint256",
          "name": "donorId",
          "type": "uint256"
        },
        {
          "internalType": "uint256",
          "name": "amt",
          "type": "uint256"
        },
        {
          "internalType": "string",
          "name": "category",
          "type": "string"
        }
      ],
      "name": "createToken",
      "outputs": [],
      "stateMutability": "nonpayable",
      "type": "function"
    },
    {
      "inputs": [],
      "name": "toggleContactStopped",
      "outputs": [],
      "stateMutability": "nonpayable",
      "type": "function"
    },
    {
      "inputs": [
        {
          "internalType": "uint256",
          "name": "listingId",
          "type": "uint256"
        },
        {
          "internalType": "uint256",
          "name": "recipientId",
          "type": "uint256"
        },
        {
          "internalType": "uint256",
          "name": "donorId",
          "type": "uint256"
        },
        {
          "internalType": "uint256",
          "name": "requestId",
          "type": "uint256"
        }
      ],
      "name": "approveRecipientRequest",
      "outputs": [],
      "stateMutability": "nonpayable",
      "type": "function"
    },
    {
      "inputs": [
        {
          "internalType": "uint256",
          "name": "donorId",
          "type": "uint256"
        }
      ],
      "name": "getDonorAddress",
      "outputs": [
        {
          "internalType": "address",
          "name": "",
          "type": "address"
        }
      ],
      "stateMutability": "view",
      "type": "function"
    },
    {
      "inputs": [
        {
          "internalType": "uint256",
          "name": "donorId",
          "type": "uint256"
        }
      ],
      "name": "getActiveListings",
      "outputs": [
        {
          "internalType": "uint256[]",
          "name": "",
          "type": "uint256[]"
        }
      ],
      "stateMutability": "view",
      "type": "function"
    },
    {
      "inputs": [],
      "name": "destroyContract",
      "outputs": [],
      "stateMutability": "nonpayable",
      "type": "function"
    }
  ],
  "bytecode": "0x608060405260006004556000600760006101000a81548160ff0219169083151502179055506001600760016101000a81548160ff02191690831515021790555034801561004b57600080fd5b5060405161166d38038061166d8339818101604052606081101561006e57600080fd5b81019080805190602001909291908051906020019092919080519060200190929190505050826000806101000a81548173ffffffffffffffffffffffffffffffffffffffff021916908373ffffffffffffffffffffffffffffffffffffffff16021790555081600160006101000a81548173ffffffffffffffffffffffffffffffffffffffff021916908373ffffffffffffffffffffffffffffffffffffffff16021790555080600260006101000a81548173ffffffffffffffffffffffffffffffffffffffff021916908373ffffffffffffffffffffffffffffffffffffffff16021790555033600360006101000a81548173ffffffffffffffffffffffffffffffffffffffff021916908373ffffffffffffffffffffffffffffffffffffffff1602179055505050506114c5806101a86000396000f3fe608060405234801561001057600080fd5b506004361061009e5760003560e01c8063750e6d0911610066578063750e6d091461035a5780639034b42714610364578063ba872e6214610382578063d38b1da7146103f0578063e6987501146105565761009e565b8063092a5cce146100a35780633c58c6b8146100ad5780634abfa163146100f95780635f78f4361461023f578063601912f91461030e575b600080fd5b6100ab6105d9565b005b6100f7600480360360808110156100c357600080fd5b81019080803590602001909291908035906020019092919080359060200190929190803590602001909291905050506106bf565b005b6101256004803603602081101561010f57600080fd5b81019080803590602001909291905050506108f6565b604051808473ffffffffffffffffffffffffffffffffffffffff1673ffffffffffffffffffffffffffffffffffffffff1681526020018060200180602001838103835285818151815260200191508051906020019080838360005b8381101561019b578082015181840152602081019050610180565b50505050905090810190601f1680156101c85780820380516001836020036101000a031916815260200191505b50838103825284818151815260200191508051906020019080838360005b838110156102015780820151818401526020810190506101e6565b50505050905090810190601f16801561022e5780820380516001836020036101000a031916815260200191505b509550505050505060405180910390f35b61030c6004803603606081101561025557600080fd5b8101908080359060200190929190803590602001909291908035906020019064010000000081111561028657600080fd5b82018360208201111561029857600080fd5b803590602001918460018302840111640100000000831117156102ba57600080fd5b91908080601f016020809104026020016040519081016040528093929190818152602001838380828437600081840152601f19601f820116905080830192505050505050509192919290505050610a70565b005b6103446004803603604081101561032457600080fd5b810190808035906020019092919080359060200190929190505050610f20565b6040518082815260200191505060405180910390f35b610362610f4e565b005b61036c611020565b6040518082815260200191505060405180910390f35b6103ae6004803603602081101561039857600080fd5b8101908080359060200190929190505050611026565b604051808273ffffffffffffffffffffffffffffffffffffffff1673ffffffffffffffffffffffffffffffffffffffff16815260200191505060405180910390f35b6105406004803603604081101561040657600080fd5b810190808035906020019064010000000081111561042357600080fd5b82018360208201111561043557600080fd5b8035906020019184600183028401116401000000008311171561045757600080fd5b91908080601f016020809104026020016040519081016040528093929190818152602001838380828437600081840152601f19601f820116905080830192505050505050509192919290803590602001906401000000008111156104ba57600080fd5b8201836020820111156104cc57600080fd5b803590602001918460018302840111640100000000831117156104ee57600080fd5b91908080601f016020809104026020016040519081016040528093929190818152602001838380828437600081840152601f19601f820116905080830192505050505050509192919290505050611066565b6040518082815260200191505060405180910390f35b6105826004803603602081101561056c57600080fd5b8101908080359060200190929190505050611192565b6040518080602001828103825283818151815260200191508051906020019060200280838360005b838110156105c55780820151818401526020810190506105aa565b505050509050019250505060405180910390f35b600360009054906101000a900473ffffffffffffffffffffffffffffffffffffffff1673ffffffffffffffffffffffffffffffffffffffff163373ffffffffffffffffffffffffffffffffffffffff161461067f576040517f08c379a000000000000000000000000000000000000000000000000000000000815260040180806020018281038252603481526020018061145c6034913960400191505060405180910390fd5b6000600360009054906101000a900473ffffffffffffffffffffffffffffffffffffffff1690508073ffffffffffffffffffffffffffffffffffffffff16ff5b8160045481106106ce57600080fd5b600760019054906101000a900460ff166108ef576000809054906101000a900473ffffffffffffffffffffffffffffffffffffffff1673ffffffffffffffffffffffffffffffffffffffff16635d35a3d983876040518363ffffffff1660e01b81526004018083815260200182815260200192505050602060405180830381600087803b15801561075e57600080fd5b505af1158015610772573d6000803e3d6000fd5b505050506040513d602081101561078857600080fd5b81019080805190602001909291905050505060006005600085815260200190815260200160002060000160009054906101000a900473ffffffffffffffffffffffffffffffffffffffff169050600160009054906101000a900473ffffffffffffffffffffffffffffffffffffffff1673ffffffffffffffffffffffffffffffffffffffff16639b11ef638488846040518463ffffffff1660e01b8152600401808481526020018381526020018273ffffffffffffffffffffffffffffffffffffffff1673ffffffffffffffffffffffffffffffffffffffff1681526020019350505050600060405180830381600087803b15801561088657600080fd5b505af115801561089a573d6000803e3d6000fd5b505050507f7a01780b16ee3ad4546a6eea02120da6fba4f5c0c6a9485c51ec96eebc635e16868686866040518085815260200184815260200183815260200182815260200194505050505060405180910390a1505b5050505050565b60056020528060005260406000206000915090508060000160009054906101000a900473ffffffffffffffffffffffffffffffffffffffff1690806001018054600181600116156101000203166002900480601f0160208091040260200160405190810160405280929190818152602001828054600181600116156101000203166002900480156109c85780601f1061099d576101008083540402835291602001916109c8565b820191906000526020600020905b8154815290600101906020018083116109ab57829003601f168201915b505050505090806002018054600181600116156101000203166002900480601f016020809104026020016040519081016040528092919081815260200182805460018160011615610100020316600290048015610a665780601f10610a3b57610100808354040283529160200191610a66565b820191906000526020600020905b815481529060010190602001808311610a4957829003601f168201915b5050505050905083565b826004548110610a7f57600080fd5b82600260009054906101000a900473ffffffffffffffffffffffffffffffffffffffff1673ffffffffffffffffffffffffffffffffffffffff16636cba62906040518163ffffffff1660e01b815260040160206040518083038186803b158015610ae857600080fd5b505afa158015610afc573d6000803e3d6000fd5b505050506040513d6020811015610b1257600080fd5b81019080805190602001909291905050501015610b7a576040517f08c379a00000000000000000000000000000000000000000000000000000000081526004018080602001828103825260338152602001806114296033913960400191505060405180910390fd5b678ac7230489e800008310610bda576040517f08c379a00000000000000000000000000000000000000000000000000000000081526004018080602001828103825260468152602001806113e36046913960600191505060405180910390fd5b60008060009054906101000a900473ffffffffffffffffffffffffffffffffffffffff1673ffffffffffffffffffffffffffffffffffffffff16635f78f4368686866040518463ffffffff1660e01b81526004018084815260200183815260200180602001828103825283818151815260200191508051906020019080838360005b83811015610c77578082015181840152602081019050610c5c565b50505050905090810190601f168015610ca45780820380516001836020036101000a031916815260200191505b50945050505050602060405180830381600087803b158015610cc557600080fd5b505af1158015610cd9573d6000803e3d6000fd5b505050506040513d6020811015610cef57600080fd5b8101908080519060200190929190505050905060066000868152602001908152602001600020819080600181540180825580915050600190039060005260206000200160009091909190915055600260009054906101000a900473ffffffffffffffffffffffffffffffffffffffff1673ffffffffffffffffffffffffffffffffffffffff1663f5537ede326000809054906101000a900473ffffffffffffffffffffffffffffffffffffffff1673ffffffffffffffffffffffffffffffffffffffff1663893d20e86040518163ffffffff1660e01b815260040160206040518083038186803b158015610de257600080fd5b505afa158015610df6573d6000803e3d6000fd5b505050506040513d6020811015610e0c57600080fd5b8101908080519060200190929190505050876040518463ffffffff1660e01b8152600401808473ffffffffffffffffffffffffffffffffffffffff1673ffffffffffffffffffffffffffffffffffffffff1681526020018373ffffffffffffffffffffffffffffffffffffffff1673ffffffffffffffffffffffffffffffffffffffff1681526020018281526020019350505050600060405180830381600087803b158015610eba57600080fd5b505af1158015610ece573d6000803e3d6000fd5b505050507f01f00b2d07920866a32b7446ce80f035f151d886b9ae9de1b1a59097a13bc04485828660405180848152602001838152602001828152602001935050505060405180910390a15050505050565b60066020528160005260406000208181548110610f3957fe5b90600052602060002001600091509150505481565b600360009054906101000a900473ffffffffffffffffffffffffffffffffffffffff1673ffffffffffffffffffffffffffffffffffffffff163373ffffffffffffffffffffffffffffffffffffffff1614610ff4576040517f08c379a000000000000000000000000000000000000000000000000000000000815260040180806020018281038252603481526020018061145c6034913960400191505060405180910390fd5b600760019054906101000a900460ff1615600760016101000a81548160ff021916908315150217905550565b60045481565b60006005600083815260200190815260200160002060000160009054906101000a900473ffffffffffffffffffffffffffffffffffffffff169050919050565b6000611070611306565b60405180606001604052803373ffffffffffffffffffffffffffffffffffffffff168152602001858152602001848152509050600060046000815480929190600101919050559050816005600083815260200190815260200160002060008201518160000160006101000a81548173ffffffffffffffffffffffffffffffffffffffff021916908373ffffffffffffffffffffffffffffffffffffffff160217905550602082015181600101908051906020019061112f92919061133d565b50604082015181600201908051906020019061114c92919061133d565b509050507f29660fbcd5be877e37fa2ed68a363016baeb2a178cbc7647c1215311d48bc706816040518082815260200191505060405180910390a1809250505092915050565b606080600080905060008090505b60066000868152602001908152602001600020805490508160ff1610156112fb576000809054906101000a900473ffffffffffffffffffffffffffffffffffffffff1673ffffffffffffffffffffffffffffffffffffffff16635443b28a600660008881526020019081526020016000208360ff168154811061121f57fe5b90600052602060002001546040518263ffffffff1660e01b81526004018082815260200191505060206040518083038186803b15801561125e57600080fd5b505afa158015611272573d6000803e3d6000fd5b505050506040513d602081101561128857600080fd5b8101908080519060200190929190505050156112ee57600660008681526020019081526020016000208160ff16815481106112bf57fe5b9060005260206000200154838360ff16815181106112d957fe5b60200260200101818152505081806001019250505b80806001019150506111a0565b508192505050919050565b6040518060600160405280600073ffffffffffffffffffffffffffffffffffffffff16815260200160608152602001606081525090565b828054600181600116156101000203166002900490600052602060002090601f016020900481019282601f1061137e57805160ff19168380011785556113ac565b828001600101855582156113ac579182015b828111156113ab578251825591602001919060010190611390565b5b5090506113b991906113bd565b5090565b6113df91905b808211156113db5760008160009055506001016113c3565b5090565b9056fe446f6e6174656420616d6f756e7420686974206c696d69742120446f6e6174656420616d6f756e742063616e6e6f74206265206d6f7265207468616e20313020657468657221446f6e6f7220646f6573206e6f74206861766520656e6f75676820657468657220746f20637265617465206c697374696e67216f6e6c7920746865206f776e6572206f662074686520636f6e74726163742063616e2063616c6c2074686973206d6574686f6421a26469706673582212208f49f575cd2500e6facf66fc8219a5b5badecd979b1623bda48ba3830bc0e8b764736f6c63430006010033",
  "source": "// SPDX-License-Identifier: MIT\npragma solidity >=0.6.1;\nimport \"./Recipient.sol\";\nimport \"./DonationMarket.sol\";\nimport \"./Token.sol\";\n\n\ncontract Donor {\n\n    struct donor {\n        address owner;\n        string username;\n        string pw;\n    }\n\n    DonationMarket marketContract;\n    Recipient recipientContract; \n    Token tokenContract;\n    address contractOwner;\n\n    uint256 public numDonors = 0;\n    mapping(uint256 => donor) public donors;\n    mapping(uint256 => uint256[]) public listingsCreated; // donorId => list of listingId that donor owns\n\n    bool internal locked = false;\n    bool internal contractStopped = true;\n\n    constructor (DonationMarket marketAddress, Recipient recipientAddress, Token tokenAddress) public {\n        marketContract = marketAddress;\n        recipientContract = recipientAddress;\n        tokenContract = tokenAddress;\n        contractOwner = msg.sender;\n    }\n\n    \n    //function to create a new donor, and add to 'donors' map\n    function createDonor (\n        string memory name,\n        string memory password\n    ) public returns(uint256) {\n        \n        donor memory newDonor = donor(\n            msg.sender, // donor address\n            name,\n            password\n        );\n\n        uint256 newDonorId = numDonors++;\n        donors[newDonorId] = newDonor; //commit to state variable\n\n        emit createdDonor(newDonorId);\n\n        return newDonorId;  \n    }\n\n    event approved(uint256 listingId, address recipient);\n    event createdDonor(uint256 donorId);\n    event createdToken(uint256 donorId, uint256 listingId, uint256 amt);\n    event approvedRecipientRequest(uint256 listingId, uint256 recipientId, uint256 donorId, uint256 requestId);\n    event listingUnlisted(uint256 listingId);\n\n\n    //modifier to ensure a function is callable only by its donor  \n    modifier ownerOnly(uint256 donorId) {\n        require(donors[donorId].owner == msg.sender, \"You are not the donor!\");\n        _;\n    }\n    \n    //modifier to ensure that the donor is valid\n    modifier validDonorId(uint256 donorId) {\n        require(donorId < numDonors);\n        _;\n    }\n\n\n    function createToken(uint256 donorId, uint256 amt, string memory category ) validDonorId(donorId) public {\n        require(tokenContract.checkCredit() >= amt, \"Donor does not have enough ether to create listing!\");\n        require(amt < 10 ether, \"Donated amount hit limit! Donated amount cannot be more than 10 ether!\");\n\n        uint256 listingId = marketContract.createToken(donorId, amt, category);\n        listingsCreated[donorId].push(listingId);\n        tokenContract.transferToken(tx.origin, marketContract.getOwner(), amt);\n        emit createdToken(donorId, listingId, amt);\n    }\n\n    modifier stoppedInEmergency {\n        if (!contractStopped) _;\n    }\n\n\n    modifier contractOwnerOnly {\n        require(msg.sender == contractOwner, \"only the owner of the contract can call this method!\");\n        _;\n    }\n\n    function toggleContactStopped() public contractOwnerOnly {\n        contractStopped = !contractStopped;\n    }\n\n    //Emergency Stop enabled in approve \n    function approveRecipientRequest(uint256 listingId, uint256 recipientId, uint256 donorId, uint256 requestId) validDonorId(donorId) stoppedInEmergency public {\n        marketContract.approve(requestId, listingId);\n        \n        address donorAdd = donors[donorId].owner;\n        recipientContract.completeRequest(requestId, listingId, donorAdd);\n     \n        emit approvedRecipientRequest(listingId, recipientId, donorId, requestId);\n    }\n\n\n\n    function getDonorAddress(uint256 donorId) public view returns (address) { // ownerOnly?\n        return donors[donorId].owner;\n    }\n\n    function getActiveListings(uint256 donorId) public view returns (uint256[] memory) {\n        uint256[] memory activeListing;\n        uint8 counter = 0;\n        for (uint8 i=0; i < listingsCreated[donorId].length;  i++) {\n            if (marketContract.checkListing(listingsCreated[donorId][i])) {\n                activeListing[counter] =  listingsCreated[donorId][i];\n                counter ++;\n            }\n        }\n        return activeListing; \n    }\n\n\n     // self-destruct function \n     function destroyContract() public contractOwnerOnly {\n        address payable receiver = payable(contractOwner);\n         selfdestruct(receiver);\n     }\n\n    \n\n}",
  "sourcePath": "/Users/oliviama/AY21:22 sem 2/IS4302/project/contracts/Donor.sol",
  "compiler": {
    "name": "solc",
    "version": "0.6.1+commit.e6f7d5a4.Emscripten.clang"
  },
  "schemaVersion": "3.4.4",
  "updatedAt": "2022-03-29T15:51:56.265Z",
  "devdoc": {
    "methods": {}
  },
  "userdoc": {
    "methods": {}
  }
}