{
  "contractName": "Donor",
  "abi": [
    {
      "inputs": [
        {
          "internalType": "contract Token",
          "name": "tokenAddress",
          "type": "address"
        },
        {
          "internalType": "contract Recipient",
          "name": "recipientAddress",
          "type": "address"
        }
      ],
      "stateMutability": "nonpayable",
      "type": "constructor"
    },
    {
      "anonymous": false,
      "inputs": [
        {
          "indexed": false,
          "internalType": "uint256",
          "name": "tokenID",
          "type": "uint256"
        },
        {
          "indexed": false,
          "internalType": "address",
          "name": "recipient",
          "type": "address"
        }
      ],
      "name": "approved",
      "type": "event"
    },
    {
      "inputs": [
        {
          "internalType": "uint256",
          "name": "",
          "type": "uint256"
        }
      ],
      "name": "donors",
      "outputs": [
        {
          "internalType": "enum Donor.donorState",
          "name": "state",
          "type": "uint8"
        },
        {
          "internalType": "address",
          "name": "owner",
          "type": "address"
        },
        {
          "internalType": "string",
          "name": "username",
          "type": "string"
        },
        {
          "internalType": "string",
          "name": "pw",
          "type": "string"
        },
        {
          "internalType": "uint256",
          "name": "walletValue",
          "type": "uint256"
        }
      ],
      "stateMutability": "view",
      "type": "function"
    },
    {
      "inputs": [],
      "name": "numDonors",
      "outputs": [
        {
          "internalType": "uint256",
          "name": "",
          "type": "uint256"
        }
      ],
      "stateMutability": "view",
      "type": "function"
    },
    {
      "inputs": [
        {
          "internalType": "uint256",
          "name": "",
          "type": "uint256"
        },
        {
          "internalType": "uint256",
          "name": "",
          "type": "uint256"
        }
      ],
      "name": "tokensCreated",
      "outputs": [
        {
          "internalType": "uint256",
          "name": "",
          "type": "uint256"
        }
      ],
      "stateMutability": "view",
      "type": "function"
    },
    {
      "inputs": [
        {
          "internalType": "string",
          "name": "name",
          "type": "string"
        },
        {
          "internalType": "string",
          "name": "password",
          "type": "string"
        }
      ],
      "name": "createDonor",
      "outputs": [
        {
          "internalType": "uint256",
          "name": "",
          "type": "uint256"
        }
      ],
      "stateMutability": "nonpayable",
      "type": "function"
    },
    {
      "inputs": [
        {
          "internalType": "uint256",
          "name": "donorId",
          "type": "uint256"
        },
        {
          "internalType": "uint256",
          "name": "amt",
          "type": "uint256"
        },
        {
          "internalType": "string",
          "name": "category",
          "type": "string"
        }
      ],
      "name": "createToken",
      "outputs": [],
      "stateMutability": "payable",
      "type": "function"
    },
    {
      "inputs": [
        {
          "internalType": "uint256",
          "name": "tokenId",
          "type": "uint256"
        },
        {
          "internalType": "uint256",
          "name": "recipientID",
          "type": "uint256"
        },
        {
          "internalType": "uint256",
          "name": "donorId",
          "type": "uint256"
        }
      ],
      "name": "approveRecipient",
      "outputs": [],
      "stateMutability": "nonpayable",
      "type": "function"
    },
    {
      "inputs": [
        {
          "internalType": "uint256",
          "name": "donorId",
          "type": "uint256"
        }
      ],
      "name": "topUpWallet",
      "outputs": [],
      "stateMutability": "payable",
      "type": "function"
    },
    {
      "inputs": [
        {
          "internalType": "uint256",
          "name": "donorId",
          "type": "uint256"
        }
      ],
      "name": "getWallet",
      "outputs": [
        {
          "internalType": "uint256",
          "name": "",
          "type": "uint256"
        }
      ],
      "stateMutability": "view",
      "type": "function"
    },
    {
      "inputs": [
        {
          "internalType": "uint256",
          "name": "donorId",
          "type": "uint256"
        }
      ],
      "name": "getDonorAddress",
      "outputs": [
        {
          "internalType": "address",
          "name": "",
          "type": "address"
        }
      ],
      "stateMutability": "view",
      "type": "function"
    },
    {
      "inputs": [
        {
          "internalType": "uint256",
          "name": "donorId",
          "type": "uint256"
        }
      ],
      "name": "getActiveTokens",
      "outputs": [
        {
          "internalType": "uint256[]",
          "name": "",
          "type": "uint256[]"
        }
      ],
      "stateMutability": "view",
      "type": "function"
    }
  ],
  "bytecode": "0x6080604052600060025534801561001557600080fd5b506040516113bd3803806113bd8339818101604052604081101561003857600080fd5b810190808051906020019092919080519060200190929190505050816000806101000a81548173ffffffffffffffffffffffffffffffffffffffff021916908373ffffffffffffffffffffffffffffffffffffffff16021790555080600160006101000a81548173ffffffffffffffffffffffffffffffffffffffff021916908373ffffffffffffffffffffffffffffffffffffffff16021790555050506112d8806100e56000396000f3fe6080604052600436106100915760003560e01c806365caf8081161005957806365caf808146103aa5780638d42fcc0146103f95780639034b42714610489578063ba872e62146104b4578063d38b1da71461052f57610091565b806345aa6e9814610096578063495edb2c146100ef5780634abfa1631461011d5780635470b13b1461028c5780635f78f436146102db575b600080fd5b3480156100a257600080fd5b506100d9600480360360408110156100b957600080fd5b8101908080359060200190929190803590602001909291905050506106a2565b6040518082815260200191505060405180910390f35b61011b6004803603602081101561010557600080fd5b81019080803590602001909291905050506106d0565b005b34801561012957600080fd5b506101566004803603602081101561014057600080fd5b8101908080359060200190929190505050610777565b6040518086600181111561016657fe5b60ff1681526020018573ffffffffffffffffffffffffffffffffffffffff1673ffffffffffffffffffffffffffffffffffffffff1681526020018060200180602001848152602001838103835286818151815260200191508051906020019080838360005b838110156101e65780820151818401526020810190506101cb565b50505050905090810190601f1680156102135780820380516001836020036101000a031916815260200191505b50838103825285818151815260200191508051906020019080838360005b8381101561024c578082015181840152602081019050610231565b50505050905090810190601f1680156102795780820380516001836020036101000a031916815260200191505b5097505050505050505060405180910390f35b34801561029857600080fd5b506102c5600480360360208110156102af57600080fd5b810190808035906020019092919050505061090a565b6040518082815260200191505060405180910390f35b6103a8600480360360608110156102f157600080fd5b8101908080359060200190929190803590602001909291908035906020019064010000000081111561032257600080fd5b82018360208201111561033457600080fd5b8035906020019184600183028401116401000000008311171561035657600080fd5b91908080601f016020809104026020016040519081016040528093929190818152602001838380828437600081840152601f19601f8201169050808301925050505050505091929192905050506109aa565b005b3480156103b657600080fd5b506103f7600480360360608110156103cd57600080fd5b81019080803590602001909291908035906020019092919080359060200190929190505050610d13565b005b34801561040557600080fd5b506104326004803603602081101561041c57600080fd5b8101908080359060200190929190505050610f8a565b6040518080602001828103825283818151815260200191508051906020019060200280838360005b8381101561047557808201518184015260208101905061045a565b505050509050019250505060405180910390f35b34801561049557600080fd5b5061049e610ff5565b6040518082815260200191505060405180910390f35b3480156104c057600080fd5b506104ed600480360360208110156104d757600080fd5b8101908080359060200190929190505050610ffb565b604051808273ffffffffffffffffffffffffffffffffffffffff1673ffffffffffffffffffffffffffffffffffffffff16815260200191505060405180910390f35b34801561053b57600080fd5b5061068c6004803603604081101561055257600080fd5b810190808035906020019064010000000081111561056f57600080fd5b82018360208201111561058157600080fd5b803590602001918460018302840111640100000000831117156105a357600080fd5b91908080601f016020809104026020016040519081016040528093929190818152602001838380828437600081840152601f19601f8201169050808301925050505050505091929192908035906020019064010000000081111561060657600080fd5b82018360208201111561061857600080fd5b8035906020019184600183028401116401000000008311171561063a57600080fd5b91908080601f016020809104026020016040519081016040528093929190818152602001838380828437600081840152601f19601f82011690508083019250505050505050919291929050505061103b565b6040518082815260200191505060405180910390f35b600460205281600052604060002081815481106106bb57fe5b90600052602060002001600091509150505481565b803373ffffffffffffffffffffffffffffffffffffffff166003600083815260200190815260200160002060000160019054906101000a900473ffffffffffffffffffffffffffffffffffffffff1673ffffffffffffffffffffffffffffffffffffffff161461073f57600080fd5b81600254811061074e57600080fd5b346003600085815260200190815260200160002060030160008282540192505081905550505050565b60036020528060005260406000206000915090508060000160009054906101000a900460ff16908060000160019054906101000a900473ffffffffffffffffffffffffffffffffffffffff1690806001018054600181600116156101000203166002900480601f01602080910402602001604051908101604052809291908181526020018280546001816001161561010002031660029004801561085c5780601f106108315761010080835404028352916020019161085c565b820191906000526020600020905b81548152906001019060200180831161083f57829003601f168201915b505050505090806002018054600181600116156101000203166002900480601f0160208091040260200160405190810160405280929190818152602001828054600181600116156101000203166002900480156108fa5780601f106108cf576101008083540402835291602001916108fa565b820191906000526020600020905b8154815290600101906020018083116108dd57829003601f168201915b5050505050908060030154905085565b6000813373ffffffffffffffffffffffffffffffffffffffff166003600083815260200190815260200160002060000160019054906101000a900473ffffffffffffffffffffffffffffffffffffffff1673ffffffffffffffffffffffffffffffffffffffff161461097b57600080fd5b82600254811061098a57600080fd5b600360008581526020019081526020016000206003015492505050919050565b8260025481106109b957600080fd5b826109c38561090a565b1015610a1a576040517f08c379a00000000000000000000000000000000000000000000000000000000081526004018080602001828103825260318152602001806112726031913960400191505060405180910390fd5b6064610a258561090a565b10610a98576040517f08c379a00000000000000000000000000000000000000000000000000000000081526004018080602001828103825260198152602001807f446f6e6174656420616d6f756e7420686974206c696d6974210000000000000081525060200191505060405180910390fd5b82600360008681526020019081526020016000206003016000828254039250508190555060008060009054906101000a900473ffffffffffffffffffffffffffffffffffffffff1673ffffffffffffffffffffffffffffffffffffffff1663893d20e86040518163ffffffff1660e01b815260040160206040518083038186803b158015610b2557600080fd5b505afa158015610b39573d6000803e3d6000fd5b505050506040513d6020811015610b4f57600080fd5b810190808051906020019092919050505090508073ffffffffffffffffffffffffffffffffffffffff166108fc859081150290604051600060405180830381858888f19350505050158015610ba8573d6000803e3d6000fd5b5060008060009054906101000a900473ffffffffffffffffffffffffffffffffffffffff1673ffffffffffffffffffffffffffffffffffffffff16635f78f4368787876040518463ffffffff1660e01b81526004018084815260200183815260200180602001828103825283818151815260200191508051906020019080838360005b83811015610c46578082015181840152602081019050610c2b565b50505050905090810190601f168015610c735780820380516001836020036101000a031916815260200191505b50945050505050602060405180830381600087803b158015610c9457600080fd5b505af1158015610ca8573d6000803e3d6000fd5b505050506040513d6020811015610cbe57600080fd5b8101908080519060200190929190505050905060046000878152602001908152602001600020819080600181540180825580915050600190039060005260206000200160009091909190915055505050505050565b806002548110610d2257600080fd5b60008060009054906101000a900473ffffffffffffffffffffffffffffffffffffffff1673ffffffffffffffffffffffffffffffffffffffff16635d35a3d985876040518363ffffffff1660e01b81526004018083815260200182815260200192505050602060405180830381600087803b158015610da057600080fd5b505af1158015610db4573d6000803e3d6000fd5b505050506040513d6020811015610dca57600080fd5b81019080805190602001909291905050509050600160009054906101000a900473ffffffffffffffffffffffffffffffffffffffff1673ffffffffffffffffffffffffffffffffffffffff16639c9e38c485876040518363ffffffff1660e01b81526004018083815260200182815260200192505050600060405180830381600087803b158015610e5a57600080fd5b505af1158015610e6e573d6000803e3d6000fd5b505050506002811415610f8357600080905060005b60046000868152602001908152602001600020805490508160ff161015610f4e5786600460008781526020019081526020016000208260ff1681548110610ec657fe5b90600052602060002001541415610edc57600191505b8115610f4157600460008681526020019081526020016000206001820160ff1681548110610f0657fe5b9060005260206000200154600460008781526020019081526020016000208260ff1681548110610f3257fe5b90600052602060002001819055505b8080600101915050610e83565b5060046000858152602001908152602001600020805480610f6b57fe5b60019003818190600052602060002001600090559055505b5050505050565b606060046000838152602001908152602001600020805480602002602001604051908101604052809291908181526020018280548015610fe957602002820191906000526020600020905b815481526020019060010190808311610fd5575b50505050509050919050565b60025481565b60006003600083815260200190815260200160002060000160019054906101000a900473ffffffffffffffffffffffffffffffffffffffff169050919050565b600061104561117c565b6040518060a001604052806000600181111561105d57fe5b81526020013373ffffffffffffffffffffffffffffffffffffffff16815260200185815260200184815260200160008152509050600060026000815480929190600101919050559050816003600083815260200190815260200160002060008201518160000160006101000a81548160ff021916908360018111156110de57fe5b021790555060208201518160000160016101000a81548173ffffffffffffffffffffffffffffffffffffffff021916908373ffffffffffffffffffffffffffffffffffffffff16021790555060408201518160010190805190602001906111469291906111cc565b5060608201518160020190805190602001906111639291906111cc565b5060808201518160030155905050809250505092915050565b6040518060a001604052806000600181111561119457fe5b8152602001600073ffffffffffffffffffffffffffffffffffffffff1681526020016060815260200160608152602001600081525090565b828054600181600116156101000203166002900490600052602060002090601f016020900481019282601f1061120d57805160ff191683800117855561123b565b8280016001018555821561123b579182015b8281111561123a57825182559160200191906001019061121f565b5b509050611248919061124c565b5090565b61126e91905b8082111561126a576000816000905550600101611252565b5090565b9056fe446f6e6f7220646f6573206e6f74206861766520656e6f75676820657468657220746f2063726561746520746f6b656e21a264697066735822122000bcca60edb2da70e0ea0827ecf01c62da5bd0920f3a95979fede97041a84c4d64736f6c63430006010033",
  "source": "// SPDX-License-Identifier: MIT\npragma solidity >=0.6.0;\nimport './Token.sol';\nimport './Recipient.sol';\ncontract Donor {\n\n    enum donorState {created, donated} // what is the purpose?\n\n    struct donor {\n        donorState state;\n        address owner;\n        string username;\n        string pw;\n        uint256 walletValue; // amt of ether in wallet\n    }\n\n\n    Token tokenContract;\n    Recipient recipientContract;\n\n    constructor (Token tokenAddress, Recipient recipientAddress) public {\n        tokenContract = tokenAddress;\n        recipientContract = recipientAddress;\n    }\n    uint256 public numDonors = 0;\n    mapping(uint256 => donor) public donors;\n    mapping(uint256 => uint256[]) public tokensCreated; // donorId => list of tokenID that donor owns\n\n    //function to create a new donor, and add to 'donors' map\n    function createDonor (\n        string memory name,\n        string memory password\n    ) public returns(uint256) {\n        \n        donor memory newDonor = donor(\n            donorState.created,\n            msg.sender, // donor address\n            name,\n            password,\n            0\n        );\n\n\n        \n        uint256 newDonorId = numDonors++;\n        donors[newDonorId] = newDonor; //commit to state variable\n        return newDonorId;  \n    }\n\n    event approved(uint256 tokenID, address recipient);\n\n    //modifier to ensure a function is callable only by its donor  \n    modifier ownerOnly(uint256 donorId) {\n        require(donors[donorId].owner == msg.sender);\n        _;\n    }\n    \n    modifier validDonorId(uint256 donorId) {\n        require(donorId < numDonors);\n        _;\n    }\n\n    function createToken(uint256 donorId, uint256 amt, string memory category) validDonorId(donorId) public payable {\n        require(getWallet(donorId) >= amt, \"Donor does not have enough ether to create token!\");\n        require(getWallet(donorId) < 100, \"Donated amount hit limit!\");\n        donors[donorId].walletValue -= amt; \n\n        address payable token = payable(tokenContract.getOwner());\n        //TODO: add mutex\n        token.transfer(amt); \n\n        uint256 tokenID = tokenContract.createToken(donorId, amt, category);\n        tokensCreated[donorId].push(tokenID);\n    }\n    //ToDO:  emergency stop in approve\n    function approveRecipient(uint256 tokenId, uint256 recipientID, uint256 donorId) validDonorId(donorId) public {\n        uint256 tokenIsUnlisted = tokenContract.approve(recipientID, tokenId);\n        recipientContract.completeToken(recipientID, tokenId);\n        if (tokenIsUnlisted == 2) {   \n            bool isIndex = false;\n            for (uint8 i; i< tokensCreated[donorId].length; i++) {\n                if (tokensCreated[donorId][i] == tokenId) {\n                    isIndex = true;\n                }\n                if (isIndex) {\n                    tokensCreated[donorId][i] = tokensCreated[donorId][i+1];\n                }\n            }\n\n             tokensCreated[donorId].pop();\n        }\n        //TODO: store completed tokens in historical database? do we need to as transaction are all recorded in block?\n    }\n\n\n\n    function topUpWallet(uint256 donorId) ownerOnly(donorId) validDonorId(donorId) public payable {\n        donors[donorId].walletValue += msg.value;\n    }\n\n    function getWallet(uint256 donorId) ownerOnly(donorId) validDonorId(donorId) public view returns(uint256) {\n        return donors[donorId].walletValue;\n    } \n\n    function getDonorAddress(uint256 donorId) public view returns (address) { // ownerOnly?\n        return donors[donorId].owner;\n    }\n\n    function getActiveTokens(uint256 donorId) public view returns (uint256[] memory) {\n        return tokensCreated[donorId]; // tokens active now, if want see historical tokens --> view in database \n    }\n\n\n     //TODO: add selfdestruct function \n}",
  "sourcePath": "/Users/_mayveeee_/Desktop/IS4302_GRP6/contracts/Donor.sol",
  "compiler": {
    "name": "solc",
    "version": "0.6.1+commit.e6f7d5a4.Emscripten.clang"
  },
  "schemaVersion": "3.4.4",
  "updatedAt": "2022-03-26T07:26:40.416Z",
  "devdoc": {
    "methods": {}
  },
  "userdoc": {
    "methods": {}
  }
}