{
  "contractName": "Donor",
  "abi": [
    {
      "inputs": [
        {
          "internalType": "contract Token",
          "name": "tokenAddress",
          "type": "address"
        },
        {
          "internalType": "contract Recipient",
          "name": "recipientAddress",
          "type": "address"
        }
      ],
      "stateMutability": "nonpayable",
      "type": "constructor"
    },
    {
      "anonymous": false,
      "inputs": [
        {
          "indexed": false,
          "internalType": "uint256",
          "name": "tokenID",
          "type": "uint256"
        },
        {
          "indexed": false,
          "internalType": "address",
          "name": "recipient",
          "type": "address"
        }
      ],
      "name": "approved",
      "type": "event"
    },
    {
      "inputs": [],
      "name": "contractStopped",
      "outputs": [
        {
          "internalType": "bool",
          "name": "",
          "type": "bool"
        }
      ],
      "stateMutability": "view",
      "type": "function"
    },
    {
      "inputs": [
        {
          "internalType": "uint256",
          "name": "",
          "type": "uint256"
        }
      ],
      "name": "donors",
      "outputs": [
        {
          "internalType": "address",
          "name": "owner",
          "type": "address"
        },
        {
          "internalType": "string",
          "name": "username",
          "type": "string"
        },
        {
          "internalType": "string",
          "name": "pw",
          "type": "string"
        },
        {
          "internalType": "uint256",
          "name": "walletValue",
          "type": "uint256"
        }
      ],
      "stateMutability": "view",
      "type": "function"
    },
    {
      "inputs": [],
      "name": "numDonors",
      "outputs": [
        {
          "internalType": "uint256",
          "name": "",
          "type": "uint256"
        }
      ],
      "stateMutability": "view",
      "type": "function"
    },
    {
      "inputs": [
        {
          "internalType": "uint256",
          "name": "",
          "type": "uint256"
        },
        {
          "internalType": "uint256",
          "name": "",
          "type": "uint256"
        }
      ],
      "name": "tokensCreated",
      "outputs": [
        {
          "internalType": "uint256",
          "name": "",
          "type": "uint256"
        }
      ],
      "stateMutability": "view",
      "type": "function"
    },
    {
      "inputs": [
        {
          "internalType": "string",
          "name": "name",
          "type": "string"
        },
        {
          "internalType": "string",
          "name": "password",
          "type": "string"
        }
      ],
      "name": "createDonor",
      "outputs": [
        {
          "internalType": "uint256",
          "name": "",
          "type": "uint256"
        }
      ],
      "stateMutability": "nonpayable",
      "type": "function"
    },
    {
      "inputs": [
        {
          "internalType": "address payable",
          "name": "token",
          "type": "address"
        },
        {
          "internalType": "uint256",
          "name": "amt",
          "type": "uint256"
        }
      ],
      "name": "transferPayment",
      "outputs": [],
      "stateMutability": "payable",
      "type": "function"
    },
    {
      "inputs": [
        {
          "internalType": "uint256",
          "name": "donorId",
          "type": "uint256"
        },
        {
          "internalType": "uint256",
          "name": "amt",
          "type": "uint256"
        },
        {
          "internalType": "string",
          "name": "category",
          "type": "string"
        }
      ],
      "name": "createToken",
      "outputs": [],
      "stateMutability": "payable",
      "type": "function"
    },
    {
      "inputs": [],
      "name": "toggleContactStopped",
      "outputs": [],
      "stateMutability": "nonpayable",
      "type": "function"
    },
    {
      "inputs": [
        {
          "internalType": "uint256",
          "name": "tokenId",
          "type": "uint256"
        },
        {
          "internalType": "uint256",
          "name": "recipientID",
          "type": "uint256"
        },
        {
          "internalType": "uint256",
          "name": "donorId",
          "type": "uint256"
        }
      ],
      "name": "approveRecipient",
      "outputs": [],
      "stateMutability": "payable",
      "type": "function"
    },
    {
      "inputs": [
        {
          "internalType": "uint256",
          "name": "amt",
          "type": "uint256"
        }
      ],
      "name": "transferToContract",
      "outputs": [],
      "stateMutability": "payable",
      "type": "function"
    },
    {
      "inputs": [
        {
          "internalType": "uint256",
          "name": "donorId",
          "type": "uint256"
        }
      ],
      "name": "topUpWallet",
      "outputs": [],
      "stateMutability": "payable",
      "type": "function"
    },
    {
      "inputs": [
        {
          "internalType": "uint256",
          "name": "donorId",
          "type": "uint256"
        }
      ],
      "name": "getWallet",
      "outputs": [
        {
          "internalType": "uint256",
          "name": "",
          "type": "uint256"
        }
      ],
      "stateMutability": "view",
      "type": "function"
    },
    {
      "inputs": [
        {
          "internalType": "uint256",
          "name": "donorId",
          "type": "uint256"
        }
      ],
      "name": "getDonorAddress",
      "outputs": [
        {
          "internalType": "address",
          "name": "",
          "type": "address"
        }
      ],
      "stateMutability": "view",
      "type": "function"
    },
    {
      "inputs": [
        {
          "internalType": "uint256",
          "name": "donorId",
          "type": "uint256"
        }
      ],
      "name": "getActiveTokens",
      "outputs": [
        {
          "internalType": "uint256[]",
          "name": "",
          "type": "uint256[]"
        }
      ],
      "stateMutability": "view",
      "type": "function"
    },
    {
      "inputs": [],
      "name": "destroyContract",
      "outputs": [],
      "stateMutability": "nonpayable",
      "type": "function"
    }
  ],
  "bytecode": "0x608060405260006003556000600660006101000a81548160ff0219169083151502179055506000600660016101000a81548160ff02191690831515021790555034801561004b57600080fd5b50604051611ad8380380611ad88339818101604052604081101561006e57600080fd5b810190808051906020019092919080519060200190929190505050816000806101000a81548173ffffffffffffffffffffffffffffffffffffffff021916908373ffffffffffffffffffffffffffffffffffffffff16021790555080600160006101000a81548173ffffffffffffffffffffffffffffffffffffffff021916908373ffffffffffffffffffffffffffffffffffffffff16021790555033600260006101000a81548173ffffffffffffffffffffffffffffffffffffffff021916908373ffffffffffffffffffffffffffffffffffffffff160217905550505061197c8061015c6000396000f3fe6080604052600436106100e85760003560e01c8063750e6d091161008a578063bca0485911610059578063bca0485914610592578063d38b1da7146105e0578063d555d47314610753578063daea74c514610781576100e8565b8063750e6d09146104455780638d42fcc01461045c5780639034b427146104ec578063ba872e6214610517576100e8565b80634abfa163116100c65780634abfa1631461018b5780635470b13b146102e55780635f78f4361461033457806365caf80814610403576100e8565b8063092a5cce146100ed57806345aa6e9814610104578063495edb2c1461015d575b600080fd5b3480156100f957600080fd5b506101026107b0565b005b34801561011057600080fd5b506101476004803603604081101561012757600080fd5b810190808035906020019092919080359060200190929190505050610896565b6040518082815260200191505060405180910390f35b6101896004803603602081101561017357600080fd5b81019080803590602001909291905050506108c4565b005b34801561019757600080fd5b506101c4600480360360208110156101ae57600080fd5b8101908080359060200190929190505050610a66565b604051808573ffffffffffffffffffffffffffffffffffffffff1673ffffffffffffffffffffffffffffffffffffffff1681526020018060200180602001848152602001838103835286818151815260200191508051906020019080838360005b83811015610240578082015181840152602081019050610225565b50505050905090810190601f16801561026d5780820380516001836020036101000a031916815260200191505b50838103825285818151815260200191508051906020019080838360005b838110156102a657808201518184015260208101905061028b565b50505050905090810190601f1680156102d35780820380516001836020036101000a031916815260200191505b50965050505050505060405180910390f35b3480156102f157600080fd5b5061031e6004803603602081101561030857600080fd5b8101908080359060200190929190505050610be6565b6040518082815260200191505060405180910390f35b6104016004803603606081101561034a57600080fd5b8101908080359060200190929190803590602001909291908035906020019064010000000081111561037b57600080fd5b82018360208201111561038d57600080fd5b803590602001918460018302840111640100000000831117156103af57600080fd5b91908080601f016020809104026020016040519081016040528093929190818152602001838380828437600081840152601f19601f820116905080830192505050505050509192919290505050610c86565b005b6104436004803603606081101561041957600080fd5b81019080803590602001909291908035906020019092919080359060200190929190505050610faf565b005b34801561045157600080fd5b5061045a61123b565b005b34801561046857600080fd5b506104956004803603602081101561047f57600080fd5b810190808035906020019092919050505061130d565b6040518080602001828103825283818151815260200191508051906020019060200280838360005b838110156104d85780820151818401526020810190506104bd565b505050509050019250505060405180910390f35b3480156104f857600080fd5b50610501611378565b6040518082815260200191505060405180910390f35b34801561052357600080fd5b506105506004803603602081101561053a57600080fd5b810190808035906020019092919050505061137e565b604051808273ffffffffffffffffffffffffffffffffffffffff1673ffffffffffffffffffffffffffffffffffffffff16815260200191505060405180910390f35b6105de600480360360408110156105a857600080fd5b81019080803573ffffffffffffffffffffffffffffffffffffffff169060200190929190803590602001909291905050506113be565b005b3480156105ec57600080fd5b5061073d6004803603604081101561060357600080fd5b810190808035906020019064010000000081111561062057600080fd5b82018360208201111561063257600080fd5b8035906020019184600183028401116401000000008311171561065457600080fd5b91908080601f016020809104026020016040519081016040528093929190818152602001838380828437600081840152601f19601f820116905080830192505050505050509192919290803590602001906401000000008111156106b757600080fd5b8201836020820111156106c957600080fd5b803590602001918460018302840111640100000000831117156106eb57600080fd5b91908080601f016020809104026020016040519081016040528093929190818152602001838380828437600081840152601f19601f8201169050808301925050505050505091929192905050506114c2565b6040518082815260200191505060405180910390f35b61077f6004803603602081101561076957600080fd5b81019080803590602001909291905050506115c8565b005b34801561078d57600080fd5b5061079661174c565b604051808215151515815260200191505060405180910390f35b600260009054906101000a900473ffffffffffffffffffffffffffffffffffffffff1673ffffffffffffffffffffffffffffffffffffffff163373ffffffffffffffffffffffffffffffffffffffff1614610856576040517f08c379a00000000000000000000000000000000000000000000000000000000081526004018080602001828103825260348152602001806118b86034913960400191505060405180910390fd5b6000600260009054906101000a900473ffffffffffffffffffffffffffffffffffffffff1690508073ffffffffffffffffffffffffffffffffffffffff16ff5b600560205281600052604060002081815481106108af57fe5b90600052602060002001600091509150505481565b803373ffffffffffffffffffffffffffffffffffffffff166004600083815260200190815260200160002060000160009054906101000a900473ffffffffffffffffffffffffffffffffffffffff1673ffffffffffffffffffffffffffffffffffffffff161461093357600080fd5b81600354811061094257600080fd5b678ac7230489e800003411156109a3576040517f08c379a000000000000000000000000000000000000000000000000000000000815260040180806020018281038252602f815260200180611889602f913960400191505060405180910390fd5b60003411610a19576040517f08c379a000000000000000000000000000000000000000000000000000000000815260040180806020018281038252601d8152602001807f54686520746f702d75702076616c75652063616e6e6f7420626520302100000081525060200191505060405180910390fd5b346004600085815260200190815260200160002060030160008282540192505081905550610a46346115c8565b6000600660006101000a81548160ff021916908315150217905550505050565b60046020528060005260406000206000915090508060000160009054906101000a900473ffffffffffffffffffffffffffffffffffffffff1690806001018054600181600116156101000203166002900480601f016020809104026020016040519081016040528092919081815260200182805460018160011615610100020316600290048015610b385780601f10610b0d57610100808354040283529160200191610b38565b820191906000526020600020905b815481529060010190602001808311610b1b57829003601f168201915b505050505090806002018054600181600116156101000203166002900480601f016020809104026020016040519081016040528092919081815260200182805460018160011615610100020316600290048015610bd65780601f10610bab57610100808354040283529160200191610bd6565b820191906000526020600020905b815481529060010190602001808311610bb957829003601f168201915b5050505050908060030154905084565b6000813373ffffffffffffffffffffffffffffffffffffffff166004600083815260200190815260200160002060000160009054906101000a900473ffffffffffffffffffffffffffffffffffffffff1673ffffffffffffffffffffffffffffffffffffffff1614610c5757600080fd5b826003548110610c6657600080fd5b600460008581526020019081526020016000206003015492505050919050565b826003548110610c9557600080fd5b82610c9f85610be6565b1015610cf6576040517f08c379a00000000000000000000000000000000000000000000000000000000081526004018080602001828103825260318152602001806118ec6031913960400191505060405180910390fd5b678ac7230489e800008310610d56576040517f08c379a00000000000000000000000000000000000000000000000000000000081526004018080602001828103825260468152602001806118436046913960600191505060405180910390fd5b82600460008681526020019081526020016000206003016000828254039250508190555060008060009054906101000a900473ffffffffffffffffffffffffffffffffffffffff1673ffffffffffffffffffffffffffffffffffffffff1663893d20e86040518163ffffffff1660e01b815260040160206040518083038186803b158015610de357600080fd5b505afa158015610df7573d6000803e3d6000fd5b505050506040513d6020811015610e0d57600080fd5b81019080805190602001909291905050509050610e2a81856113be565b60008060009054906101000a900473ffffffffffffffffffffffffffffffffffffffff1673ffffffffffffffffffffffffffffffffffffffff16635f78f4368787876040518463ffffffff1660e01b81526004018084815260200183815260200180602001828103825283818151815260200191508051906020019080838360005b83811015610ec7578082015181840152602081019050610eac565b50505050905090810190601f168015610ef45780820380516001836020036101000a031916815260200191505b50945050505050602060405180830381600087803b158015610f1557600080fd5b505af1158015610f29573d6000803e3d6000fd5b505050506040513d6020811015610f3f57600080fd5b81019080805190602001909291905050509050600560008781526020019081526020016000208190806001815401808255809150506001900390600052602060002001600090919091909150556000600660006101000a81548160ff021916908315150217905550505050505050565b806003548110610fbe57600080fd5b600660019054906101000a900460ff166112355760008060009054906101000a900473ffffffffffffffffffffffffffffffffffffffff1673ffffffffffffffffffffffffffffffffffffffff16635d35a3d985876040518363ffffffff1660e01b81526004018083815260200182815260200192505050602060405180830381600087803b15801561105057600080fd5b505af1158015611064573d6000803e3d6000fd5b505050506040513d602081101561107a57600080fd5b81019080805190602001909291905050509050600160009054906101000a900473ffffffffffffffffffffffffffffffffffffffff1673ffffffffffffffffffffffffffffffffffffffff16639c9e38c485876040518363ffffffff1660e01b81526004018083815260200182815260200192505050600060405180830381600087803b15801561110a57600080fd5b505af115801561111e573d6000803e3d6000fd5b50505050600281141561123357600080905060005b60056000868152602001908152602001600020805490508160ff1610156111fe5786600560008781526020019081526020016000208260ff168154811061117657fe5b9060005260206000200154141561118c57600191505b81156111f157600560008681526020019081526020016000206001820160ff16815481106111b657fe5b9060005260206000200154600560008781526020019081526020016000208260ff16815481106111e257fe5b90600052602060002001819055505b8080600101915050611133565b506005600085815260200190815260200160002080548061121b57fe5b60019003818190600052602060002001600090559055505b505b50505050565b600260009054906101000a900473ffffffffffffffffffffffffffffffffffffffff1673ffffffffffffffffffffffffffffffffffffffff163373ffffffffffffffffffffffffffffffffffffffff16146112e1576040517f08c379a00000000000000000000000000000000000000000000000000000000081526004018080602001828103825260348152602001806118b86034913960400191505060405180910390fd5b600660019054906101000a900460ff1615600660016101000a81548160ff021916908315150217905550565b60606005600083815260200190815260200160002080548060200260200160405190810160405280929190818152602001828054801561136c57602002820191906000526020600020905b815481526020019060010190808311611358575b50505050509050919050565b60035481565b60006004600083815260200190815260200160002060000160009054906101000a900473ffffffffffffffffffffffffffffffffffffffff169050919050565b600660009054906101000a900460ff1615611441576040517f08c379a000000000000000000000000000000000000000000000000000000000815260040180806020018281038252600e8152602001807f4e6f2072652d656e7472616e637900000000000000000000000000000000000081525060200191505060405180910390fd5b6001600660006101000a81548160ff0219169083151502179055508173ffffffffffffffffffffffffffffffffffffffff166108fc829081150290604051600060405180830381858888f193505050501580156114a2573d6000803e3d6000fd5b506000600660006101000a81548160ff0219169083151502179055505050565b60006114cc61175f565b60405180608001604052803373ffffffffffffffffffffffffffffffffffffffff16815260200185815260200184815260200160008152509050600060036000815480929190600101919050559050816004600083815260200190815260200160002060008201518160000160006101000a81548173ffffffffffffffffffffffffffffffffffffffff021916908373ffffffffffffffffffffffffffffffffffffffff160217905550602082015181600101908051906020019061159292919061179d565b5060408201518160020190805190602001906115af92919061179d565b5060608201518160030155905050809250505092915050565b600660009054906101000a900460ff161561164b576040517f08c379a000000000000000000000000000000000000000000000000000000000815260040180806020018281038252600e8152602001807f4e6f2072652d656e7472616e637900000000000000000000000000000000000081525060200191505060405180910390fd5b6001600660006101000a81548160ff021916908315150217905550600081116116bf576040517f08c379a000000000000000000000000000000000000000000000000000000000815260040180806020018281038252602a81526020018061191d602a913960400191505060405180910390fd5b6000600260009054906101000a900473ffffffffffffffffffffffffffffffffffffffff1690508073ffffffffffffffffffffffffffffffffffffffff166108fc839081150290604051600060405180830381858888f1935050505015801561172c573d6000803e3d6000fd5b50506000600660006101000a81548160ff02191690831515021790555050565b600660019054906101000a900460ff1681565b6040518060800160405280600073ffffffffffffffffffffffffffffffffffffffff1681526020016060815260200160608152602001600081525090565b828054600181600116156101000203166002900490600052602060002090601f016020900481019282601f106117de57805160ff191683800117855561180c565b8280016001018555821561180c579182015b8281111561180b5782518255916020019190600101906117f0565b5b509050611819919061181d565b5090565b61183f91905b8082111561183b576000816000905550600101611823565b5090565b9056fe446f6e6174656420616d6f756e7420686974206c696d69742120446f6e6174656420616d6f756e742063616e6e6f74206265206d6f7265207468616e2031302065746865722154686520746f702d75702076616c7565206973206d6f7265207468616e207468652077616c6c6574206c696d6974216f6e6c7920746865206f776e6572206f662074686520636f6e74726163742063616e2063616c6c2074686973206d6574686f6421446f6e6f7220646f6573206e6f74206861766520656e6f75676820657468657220746f2063726561746520746f6b656e2163616e6e6f74207472616e73666572203020657468657220746f20636f6e7472616374206f776e657221a2646970667358221220e0514ddd5f0b56b1c02f072150dc3286ed7c37cc3c23c394ca42083160b0fc6d64736f6c63430006010033",
  "source": "// SPDX-License-Identifier: MIT\npragma solidity >=0.6.0;\nimport \"./Token.sol\";\nimport \"./Recipient.sol\";\n\ncontract Donor {\n\n    struct donor {\n        address owner;\n        string username;\n        string pw;\n        uint256 walletValue; // amt of ether in wallet\n    }\n\n    Token tokenContract;\n    Recipient recipientContract;\n    address contractOwner;\n\n    uint256 public numDonors = 0;\n    mapping(uint256 => donor) public donors;\n    mapping(uint256 => uint256[]) public tokensCreated; // donorId => list of tokenID that donor owns\n\n    bool internal locked = false;\n    bool public contractStopped = false;\n\n    constructor (Token tokenAddress, Recipient recipientAddress) public {\n        tokenContract = tokenAddress;\n        recipientContract = recipientAddress;\n        contractOwner = msg.sender;\n    }\n\n    //function to create a new donor, and add to 'donors' map\n    function createDonor (\n        string memory name,\n        string memory password\n    ) public returns(uint256) {\n        \n        donor memory newDonor = donor(\n            msg.sender, // donor address\n            name,\n            password,\n            0\n        );\n\n        uint256 newDonorId = numDonors++;\n        donors[newDonorId] = newDonor; //commit to state variable\n        return newDonorId;  \n    }\n\n    event approved(uint256 tokenID, address recipient);\n\n    //modifier to ensure a function is callable only by its donor  \n    modifier ownerOnly(uint256 donorId) {\n        require(donors[donorId].owner == msg.sender);\n        _;\n    }\n    \n    //modifier to ensure that the donor is valid\n    modifier validDonorId(uint256 donorId) {\n        require(donorId < numDonors);\n        _;\n    }\n\n    // mutex: prevent re-entrant\n    modifier noReEntrant {\n        require(!locked, \"No re-entrancy\");\n        locked = true;\n        _;\n        locked = false;\n    }\n\n    // separate the payment to check for re-entrant\n    function transferPayment(address payable token, uint256 amt) noReEntrant public payable {\n        token.transfer(amt);\n    }\n\n    function createToken(uint256 donorId, uint256 amt, string memory category) validDonorId(donorId) public payable{\n        require(getWallet(donorId) >= amt, \"Donor does not have enough ether to create token!\");\n        require(amt < 10 ether, \"Donated amount hit limit! Donated amount cannot be more than 10 ether!\");\n        donors[donorId].walletValue -= amt; \n\n        address payable token = payable(tokenContract.getOwner());\n\n         // add mutex\n        transferPayment(token, amt);\n\n        uint256 tokenID = tokenContract.createToken(donorId, amt, category);\n        tokensCreated[donorId].push(tokenID);\n\n        //reset locked to allow for payment for new token creation\n        locked = false;\n    }\n\n    modifier stoppedInEmergency {\n        if (!contractStopped) _;\n    }\n\n    modifier enableInEmergency {\n        if (contractStopped) _;\n    }\n\n    modifier contractOwnerOnly {\n        require(msg.sender == contractOwner, \"only the owner of the contract can call this method!\");\n        _;\n    }\n\n    function toggleContactStopped() public contractOwnerOnly {\n        contractStopped = !contractStopped;\n    }\n\n    //Emergency Stop enabled in approve \n    function approveRecipient(uint256 tokenId, uint256 recipientID, uint256 donorId) validDonorId(donorId) stoppedInEmergency public payable {\n        uint256 tokenIsUnlisted = tokenContract.approve(recipientID, tokenId);\n        recipientContract.completeToken(recipientID, tokenId);\n        if (tokenIsUnlisted == 2) {   \n            bool isIndex = false;\n            for (uint8 i; i< tokensCreated[donorId].length; i++) {\n                if (tokensCreated[donorId][i] == tokenId) {\n                    isIndex = true;\n                }\n                if (isIndex) {\n                    tokensCreated[donorId][i] = tokensCreated[donorId][i+1];\n                }\n            }\n\n             tokensCreated[donorId].pop();\n        }\n        //TODO: store completed tokens in historical database? do we need to as transaction are all recorded in block?\n    }\n\n    function transferToContract(uint256 amt) public payable noReEntrant {\n        require(amt > 0, \"cannot transfer 0 ether to contract owner!\");\n        address payable addr = payable(contractOwner);\n        \n        addr.transfer(amt); \n    }\n\n    function topUpWallet(uint256 donorId) ownerOnly(donorId) validDonorId(donorId) public payable {\n        require(msg.value <= 10 ether, \"The top-up value is more than the wallet limit!\"); // limit the amount of ether stored in the wallet\n        require(msg.value > 0, \"The top-up value cannot be 0!\");\n        donors[donorId].walletValue += msg.value;\n\n        transferToContract(msg.value);  // transfer the ether to the contractOwner\n        locked = false;\n    }\n\n    function getWallet(uint256 donorId) ownerOnly(donorId) validDonorId(donorId) public view returns(uint256) {\n        return donors[donorId].walletValue;\n    } \n\n    function getDonorAddress(uint256 donorId) public view returns (address) { // ownerOnly?\n        return donors[donorId].owner;\n    }\n\n    function getActiveTokens(uint256 donorId) public view returns (uint256[] memory) {\n        return tokensCreated[donorId]; // tokens active now, if want see historical tokens --> view in database \n    }\n\n\n     // self-destruct function \n     function destroyContract() public contractOwnerOnly {\n        address payable receiver = payable(contractOwner);\n         selfdestruct(receiver);\n     }\n\n    \n\n}",
  "sourcePath": "/Users/oliviama/AY21:22 sem 2/IS4302/project/contracts/Donor.sol",
  "compiler": {
    "name": "solc",
    "version": "0.6.1+commit.e6f7d5a4.Emscripten.clang"
  },
  "schemaVersion": "3.4.4",
  "updatedAt": "2022-03-26T18:03:15.149Z",
  "devdoc": {
    "methods": {}
  },
  "userdoc": {
    "methods": {}
  }
}