{
  "contractName": "DonorStorage",
  "abi": [
    {
      "inputs": [],
      "name": "locked",
      "outputs": [
        {
          "internalType": "bool",
          "name": "",
          "type": "bool"
        }
      ],
      "stateMutability": "view",
      "type": "function",
      "constant": true
    },
    {
      "inputs": [],
      "name": "destroyContract",
      "outputs": [],
      "stateMutability": "nonpayable",
      "type": "function"
    },
    {
      "inputs": [
        {
          "internalType": "string",
          "name": "name",
          "type": "string"
        }
      ],
      "name": "createDonor",
      "outputs": [
        {
          "internalType": "uint256",
          "name": "",
          "type": "uint256"
        }
      ],
      "stateMutability": "nonpayable",
      "type": "function"
    },
    {
      "inputs": [
        {
          "internalType": "uint256",
          "name": "donorId",
          "type": "uint256"
        }
      ],
      "name": "getOwner",
      "outputs": [
        {
          "internalType": "address",
          "name": "",
          "type": "address"
        }
      ],
      "stateMutability": "view",
      "type": "function",
      "constant": true
    },
    {
      "inputs": [],
      "name": "getTotalOwners",
      "outputs": [
        {
          "internalType": "uint256",
          "name": "",
          "type": "uint256"
        }
      ],
      "stateMutability": "view",
      "type": "function",
      "constant": true
    },
    {
      "inputs": [
        {
          "internalType": "uint256",
          "name": "donorId",
          "type": "uint256"
        },
        {
          "internalType": "uint256",
          "name": "listingId",
          "type": "uint256"
        }
      ],
      "name": "addListingToDonor",
      "outputs": [],
      "stateMutability": "nonpayable",
      "type": "function"
    },
    {
      "inputs": [
        {
          "internalType": "uint256",
          "name": "donorId",
          "type": "uint256"
        }
      ],
      "name": "removeListing",
      "outputs": [],
      "stateMutability": "nonpayable",
      "type": "function"
    },
    {
      "inputs": [
        {
          "internalType": "uint256",
          "name": "donorId",
          "type": "uint256"
        }
      ],
      "name": "getNumActiveListing",
      "outputs": [
        {
          "internalType": "uint256",
          "name": "",
          "type": "uint256"
        }
      ],
      "stateMutability": "view",
      "type": "function",
      "constant": true
    },
    {
      "inputs": [
        {
          "internalType": "uint256",
          "name": "donorId",
          "type": "uint256"
        }
      ],
      "name": "getListings",
      "outputs": [
        {
          "internalType": "uint256[]",
          "name": "",
          "type": "uint256[]"
        }
      ],
      "stateMutability": "view",
      "type": "function",
      "constant": true
    }
  ],
  "bytecode": "0x6080604052336000806101000a81548173ffffffffffffffffffffffffffffffffffffffff021916908373ffffffffffffffffffffffffffffffffffffffff16021790555060006001556000600360006101000a81548160ff02191690831515021790555034801561007057600080fd5b5061083d806100806000396000f3fe608060405234801561001057600080fd5b50600436106100935760003560e01c8063ac775deb11610066578063ac775deb14610222578063c41a360a14610264578063cf309012146102d2578063da97f929146102f4578063db23f9f31461032c57610093565b8063092a5cce146100985780630df11b1c146100a2578063479ad4c314610171578063748581141461019f575b600080fd5b6100a061034a565b005b61015b600480360360208110156100b857600080fd5b81019080803590602001906401000000008111156100d557600080fd5b8201836020820111156100e757600080fd5b8035906020019184600183028401116401000000008311171561010957600080fd5b91908080601f016020809104026020016040519081016040528093929190818152602001838380828437600081840152601f19601f82011690508083019250505050505050919291929050505061042e565b6040518082815260200191505060405180910390f35b61019d6004803603602081101561018757600080fd5b8101908080359060200190929190505050610536565b005b6101cb600480360360208110156101b557600080fd5b810190808035906020019092919050505061055e565b6040518080602001828103825283818151815260200191508051906020019060200280838360005b8381101561020e5780820151818401526020810190506101f3565b505050509050019250505060405180910390f35b61024e6004803603602081101561023857600080fd5b81019080803590602001909291905050506105cc565b6040518082815260200191505060405180910390f35b6102906004803603602081101561027a57600080fd5b81019080803590602001909291905050506105ec565b604051808273ffffffffffffffffffffffffffffffffffffffff1673ffffffffffffffffffffffffffffffffffffffff16815260200191505060405180910390f35b6102da61062c565b604051808215151515815260200191505060405180910390f35b61032a6004803603604081101561030a57600080fd5b81019080803590602001909291908035906020019092919050505061063f565b005b6103346106a5565b6040518082815260200191505060405180910390f35b6000809054906101000a900473ffffffffffffffffffffffffffffffffffffffff1673ffffffffffffffffffffffffffffffffffffffff163373ffffffffffffffffffffffffffffffffffffffff16146103ef576040517f08c379a00000000000000000000000000000000000000000000000000000000081526004018080602001828103825260288152602001806107e06028913960400191505060405180910390fd5b60008060009054906101000a900473ffffffffffffffffffffffffffffffffffffffff1690508073ffffffffffffffffffffffffffffffffffffffff16ff5b6000606061043a6106af565b60405180608001604052803273ffffffffffffffffffffffffffffffffffffffff16815260200185815260200183815260200160008152509050600060016000815480929190600101919050559050816002600083815260200190815260200160002060008201518160000160006101000a81548173ffffffffffffffffffffffffffffffffffffffff021916908373ffffffffffffffffffffffffffffffffffffffff16021790555060208201518160010190805190602001906105009291906106ed565b50604082015181600201908051906020019061051d92919061076d565b5060608201518160030155905050809350505050919050565b6001600260008381526020019081526020016000206003016000828254039250508190555050565b6060600260008381526020019081526020016000206002018054806020026020016040519081016040528092919081815260200182805480156105c057602002820191906000526020600020905b8154815260200190600101908083116105ac575b50505050509050919050565b600060026000838152602001908152602001600020600301549050919050565b60006002600083815260200190815260200160002060000160009054906101000a900473ffffffffffffffffffffffffffffffffffffffff169050919050565b600360009054906101000a900460ff1681565b60026000838152602001908152602001600020600201819080600181540180825580915050600190039060005260206000200160009091909190915055600160026000848152602001908152602001600020600301600082825401925050819055505050565b6000600154905090565b6040518060800160405280600073ffffffffffffffffffffffffffffffffffffffff1681526020016060815260200160608152602001600081525090565b828054600181600116156101000203166002900490600052602060002090601f016020900481019282601f1061072e57805160ff191683800117855561075c565b8280016001018555821561075c579182015b8281111561075b578251825591602001919060010190610740565b5b50905061076991906107ba565b5090565b8280548282559060005260206000209081019282156107a9579160200282015b828111156107a857825182559160200191906001019061078d565b5b5090506107b691906107ba565b5090565b6107dc91905b808211156107d85760008160009055506001016107c0565b5090565b9056fe796f7520617265206e6f7420616c6c6f77656420746f2075736520746869732066756e6374696f6ea264697066735822122038c44012cb9f4144f331540c4d0f2322c1f406cf649435bfcabddb0def0c951464736f6c63430006010033",
  "source": "// SPDX-License-Identifier: MIT\r\npragma solidity >=0.6.1;\r\n\r\ncontract DonorStorage {\r\n\r\n    struct donor {\r\n        address owner;\r\n        string username;\r\n        uint256[] listings;\r\n        uint256 numActiveListing; \r\n    }\r\n\r\n    address owner = msg.sender; // set deployer as owner of storage\r\n    uint256  numDonors = 0; // total number of donors\r\n    mapping(uint256 => donor) donors; // donors\r\n    //Access Restriction \r\n    modifier contractOwnerOnly() {\r\n        require(\r\n            msg.sender == owner,\r\n            \"you are not allowed to use this function\"\r\n        );\r\n        _;\r\n    }\r\n    \r\n    //Security Functions\r\n    \r\n    //Self-destruct function\r\n    bool public locked = false;\r\n    function destroyContract() public contractOwnerOnly {\r\n        address payable receiver = payable(owner);\r\n        selfdestruct(receiver);\r\n    }\r\n    // stores new donor into mapping\r\n    function createDonor (\r\n        string memory name\r\n    ) public returns(uint256) {\r\n        uint256[] memory initListingsArray;\r\n        donor memory newDonor = donor(\r\n                tx.origin, // donor address\r\n                name,\r\n                initListingsArray, 0\r\n            );\r\n            uint256 newDonorId = numDonors++;\r\n            donors[newDonorId] = newDonor; //commit to state variable\r\n        return newDonorId;\r\n    }\r\n\r\n    // returns address/owner of donor \r\n    function getOwner (uint256 donorId) public view returns(address) {\r\n        return donors[donorId].owner;\r\n    }\r\n\r\n    // get total amount of owners\r\n    function getTotalOwners () public view returns(uint256) {\r\n        return numDonors;\r\n    }\r\n\r\n    // add new listingid to corresponding donor\r\n    function addListingToDonor (uint256 donorId, uint256 listingId) public {\r\n        donors[donorId].listings.push(listingId);\r\n        donors[donorId].numActiveListing+=1;\r\n    }\r\n\r\n    //remove number of active listing to corresponding donor\r\n    function removeListing(uint256 donorId) public {\r\n        donors[donorId].numActiveListing -=1;\r\n    }\r\n\r\n    //get number of active listing \r\n    function getNumActiveListing(uint256 donorId) public view returns (uint256) {\r\n        return donors[donorId].numActiveListing;\r\n    }\r\n    // get collection of listings for donor \r\n    function getListings(uint256 donorId) public view returns(uint256[] memory) {\r\n        return donors[donorId].listings;\r\n    }\r\n\r\n}",
  "sourcePath": "C:\\Users\\geral\\Desktop\\NUS\\Y3S2\\IS4302\\Project\\IS4302_GRP6\\contracts\\DonorStorage.sol",
  "compiler": {
    "name": "solc",
    "version": "0.6.1+commit.e6f7d5a4.Emscripten.clang"
  },
  "schemaVersion": "3.4.4",
  "updatedAt": "2022-04-14T06:53:15.119Z",
  "networkType": "ethereum",
  "devdoc": {
    "methods": {}
  },
  "userdoc": {
    "methods": {}
  }
}