{
  "contractName": "Recipient",
  "abi": [
    {
      "inputs": [
        {
          "internalType": "contract Token",
          "name": "tokenAddress",
          "type": "address"
        },
        {
          "internalType": "contract DonationMarket",
          "name": "marketAddress",
          "type": "address"
        }
      ],
      "stateMutability": "nonpayable",
      "type": "constructor"
    },
    {
      "anonymous": false,
      "inputs": [
        {
          "indexed": false,
          "internalType": "uint256",
          "name": "requestId",
          "type": "uint256"
        },
        {
          "indexed": false,
          "internalType": "uint256",
          "name": "listingId",
          "type": "uint256"
        }
      ],
      "name": "completedRequest",
      "type": "event"
    },
    {
      "anonymous": false,
      "inputs": [
        {
          "indexed": false,
          "internalType": "uint256",
          "name": "recipientId",
          "type": "uint256"
        },
        {
          "indexed": false,
          "internalType": "uint256",
          "name": "listingId",
          "type": "uint256"
        },
        {
          "indexed": false,
          "internalType": "uint256",
          "name": "amt",
          "type": "uint256"
        },
        {
          "indexed": false,
          "internalType": "uint256",
          "name": "deadline",
          "type": "uint256"
        },
        {
          "indexed": false,
          "internalType": "uint256",
          "name": "requestId",
          "type": "uint256"
        }
      ],
      "name": "requestedDonation",
      "type": "event"
    },
    {
      "inputs": [],
      "name": "contractStopped",
      "outputs": [
        {
          "internalType": "bool",
          "name": "",
          "type": "bool"
        }
      ],
      "stateMutability": "view",
      "type": "function"
    },
    {
      "inputs": [],
      "name": "numRecipients",
      "outputs": [
        {
          "internalType": "uint256",
          "name": "",
          "type": "uint256"
        }
      ],
      "stateMutability": "view",
      "type": "function"
    },
    {
      "inputs": [],
      "name": "numRequests",
      "outputs": [
        {
          "internalType": "uint256",
          "name": "",
          "type": "uint256"
        }
      ],
      "stateMutability": "view",
      "type": "function"
    },
    {
      "inputs": [
        {
          "internalType": "uint256",
          "name": "",
          "type": "uint256"
        }
      ],
      "name": "recipients",
      "outputs": [
        {
          "internalType": "enum Recipient.recipientState",
          "name": "state",
          "type": "uint8"
        },
        {
          "internalType": "address",
          "name": "owner",
          "type": "address"
        },
        {
          "internalType": "string",
          "name": "username",
          "type": "string"
        },
        {
          "internalType": "string",
          "name": "pw",
          "type": "string"
        },
        {
          "internalType": "uint256",
          "name": "wallet",
          "type": "uint256"
        }
      ],
      "stateMutability": "view",
      "type": "function"
    },
    {
      "inputs": [
        {
          "internalType": "uint256",
          "name": "",
          "type": "uint256"
        }
      ],
      "name": "requests",
      "outputs": [
        {
          "internalType": "uint256",
          "name": "requestID",
          "type": "uint256"
        },
        {
          "internalType": "uint256",
          "name": "recipientId",
          "type": "uint256"
        },
        {
          "internalType": "uint256",
          "name": "amt",
          "type": "uint256"
        },
        {
          "internalType": "uint8",
          "name": "deadline",
          "type": "uint8"
        },
        {
          "internalType": "string",
          "name": "category",
          "type": "string"
        },
        {
          "internalType": "bool",
          "name": "isValue",
          "type": "bool"
        },
        {
          "internalType": "uint256",
          "name": "expireAt",
          "type": "uint256"
        },
        {
          "internalType": "address",
          "name": "donorAddress",
          "type": "address"
        }
      ],
      "stateMutability": "view",
      "type": "function"
    },
    {
      "inputs": [
        {
          "internalType": "uint256",
          "name": "",
          "type": "uint256"
        }
      ],
      "name": "withdrawalRequests",
      "outputs": [
        {
          "internalType": "uint256",
          "name": "requestID",
          "type": "uint256"
        },
        {
          "internalType": "uint256",
          "name": "recipientId",
          "type": "uint256"
        },
        {
          "internalType": "uint256",
          "name": "amt",
          "type": "uint256"
        },
        {
          "internalType": "uint8",
          "name": "deadline",
          "type": "uint8"
        },
        {
          "internalType": "string",
          "name": "category",
          "type": "string"
        },
        {
          "internalType": "bool",
          "name": "isValue",
          "type": "bool"
        },
        {
          "internalType": "uint256",
          "name": "expireAt",
          "type": "uint256"
        },
        {
          "internalType": "address",
          "name": "donorAddress",
          "type": "address"
        }
      ],
      "stateMutability": "view",
      "type": "function"
    },
    {
      "inputs": [
        {
          "internalType": "string",
          "name": "name",
          "type": "string"
        },
        {
          "internalType": "string",
          "name": "password",
          "type": "string"
        }
      ],
      "name": "createRecipient",
      "outputs": [
        {
          "internalType": "uint256",
          "name": "",
          "type": "uint256"
        }
      ],
      "stateMutability": "nonpayable",
      "type": "function"
    },
    {
      "inputs": [],
      "name": "toggleContactStopped",
      "outputs": [],
      "stateMutability": "nonpayable",
      "type": "function"
    },
    {
      "inputs": [],
      "name": "autoDeprecate",
      "outputs": [],
      "stateMutability": "nonpayable",
      "type": "function"
    },
    {
      "inputs": [],
      "name": "hasExpired",
      "outputs": [
        {
          "internalType": "bool",
          "name": "",
          "type": "bool"
        }
      ],
      "stateMutability": "view",
      "type": "function"
    },
    {
      "inputs": [],
      "name": "refundToken",
      "outputs": [],
      "stateMutability": "nonpayable",
      "type": "function"
    },
    {
      "inputs": [
        {
          "internalType": "uint256",
          "name": "recipientId",
          "type": "uint256"
        }
      ],
      "name": "withdrawTokens",
      "outputs": [],
      "stateMutability": "nonpayable",
      "type": "function"
    },
    {
      "inputs": [
        {
          "internalType": "uint256",
          "name": "recipientId",
          "type": "uint256"
        },
        {
          "internalType": "uint256",
          "name": "requestedAmt",
          "type": "uint256"
        },
        {
          "internalType": "uint8",
          "name": "deadline",
          "type": "uint8"
        },
        {
          "internalType": "string",
          "name": "category",
          "type": "string"
        }
      ],
      "name": "createRequest",
      "outputs": [
        {
          "internalType": "uint256",
          "name": "",
          "type": "uint256"
        }
      ],
      "stateMutability": "nonpayable",
      "type": "function"
    },
    {
      "inputs": [
        {
          "internalType": "uint256",
          "name": "recipientId",
          "type": "uint256"
        },
        {
          "internalType": "uint256",
          "name": "listingId",
          "type": "uint256"
        },
        {
          "internalType": "uint256",
          "name": "requestId",
          "type": "uint256"
        }
      ],
      "name": "requestDonation",
      "outputs": [],
      "stateMutability": "nonpayable",
      "type": "function"
    },
    {
      "inputs": [
        {
          "internalType": "uint256",
          "name": "requestId",
          "type": "uint256"
        },
        {
          "internalType": "uint256",
          "name": "listingId",
          "type": "uint256"
        },
        {
          "internalType": "address",
          "name": "donorAddress",
          "type": "address"
        }
      ],
      "name": "completeRequest",
      "outputs": [],
      "stateMutability": "nonpayable",
      "type": "function"
    },
    {
      "inputs": [
        {
          "internalType": "uint256",
          "name": "recipientId",
          "type": "uint256"
        },
        {
          "internalType": "uint256",
          "name": "requestId",
          "type": "uint256"
        },
        {
          "internalType": "uint256",
          "name": "listingId",
          "type": "uint256"
        }
      ],
      "name": "cancelRequest",
      "outputs": [],
      "stateMutability": "nonpayable",
      "type": "function"
    },
    {
      "inputs": [
        {
          "internalType": "uint256",
          "name": "recipientId",
          "type": "uint256"
        }
      ],
      "name": "getWallet",
      "outputs": [
        {
          "internalType": "uint256",
          "name": "",
          "type": "uint256"
        }
      ],
      "stateMutability": "view",
      "type": "function"
    },
    {
      "inputs": [
        {
          "internalType": "uint256",
          "name": "recipientId",
          "type": "uint256"
        }
      ],
      "name": "getRecipientAddress",
      "outputs": [
        {
          "internalType": "address",
          "name": "",
          "type": "address"
        }
      ],
      "stateMutability": "view",
      "type": "function"
    },
    {
      "inputs": [
        {
          "internalType": "uint256",
          "name": "recipientId",
          "type": "uint256"
        }
      ],
      "name": "getRecipeintRequest",
      "outputs": [
        {
          "internalType": "uint256[]",
          "name": "",
          "type": "uint256[]"
        }
      ],
      "stateMutability": "view",
      "type": "function"
    },
    {
      "inputs": [
        {
          "internalType": "uint256",
          "name": "requestId",
          "type": "uint256"
        }
      ],
      "name": "getRequestedListing",
      "outputs": [
        {
          "internalType": "uint256[]",
          "name": "",
          "type": "uint256[]"
        }
      ],
      "stateMutability": "view",
      "type": "function"
    },
    {
      "inputs": [],
      "name": "destroyContract",
      "outputs": [],
      "stateMutability": "nonpayable",
      "type": "function"
    }
  ],
  "bytecode": "0x60806040526000600260146101000a81548160ff0219169083151502179055506000600260156101000a81548160ff021916908315150217905550600060045560006005553480156200005157600080fd5b506040516200309b3803806200309b833981810160405260408110156200007757600080fd5b810190808051906020019092919080519060200190929190505050816000806101000a81548173ffffffffffffffffffffffffffffffffffffffff021916908373ffffffffffffffffffffffffffffffffffffffff16021790555080600160006101000a81548173ffffffffffffffffffffffffffffffffffffffff021916908373ffffffffffffffffffffffffffffffffffffffff16021790555033600260006101000a81548173ffffffffffffffffffffffffffffffffffffffff021916908373ffffffffffffffffffffffffffffffffffffffff160217905550620001646200016c60201b60201c565b50506200017a565b620151804201600381905550565b612f11806200018a6000396000f3fe608060405234801561001057600080fd5b50600436106101375760003560e01c806390e64d13116100b8578063b5d80b371161007c578063b5d80b37146106e3578063c63a2abe14610849578063cfd5197414610853578063d1bc76a114610871578063d1d6c354146109d3578063daea74c514610a5657610137565b806390e64d13146104fb578063937b25811461051d5780639b11ef631461062b5780639fb42b1f14610683578063a2b4d35d146106a157610137565b80635470b13b116100ff5780635470b13b146103555780635cb732be14610397578063750e6d09146103a157806381d12c58146103ab57806381d67874146104b957610137565b8063092a5cce1461013c5780631833701214610146578063315a095d146101b45780633df93440146101e2578063452a543814610265575b600080fd5b610144610a78565b005b6101726004803603602081101561015c57600080fd5b8101908080359060200190929190505050610b5e565b604051808273ffffffffffffffffffffffffffffffffffffffff1673ffffffffffffffffffffffffffffffffffffffff16815260200191505060405180910390f35b6101e0600480360360208110156101ca57600080fd5b8101908080359060200190929190505050610bae565b005b61020e600480360360208110156101f857600080fd5b8101908080359060200190929190505050610db6565b6040518080602001828103825283818151815260200191508051906020019060200280838360005b83811015610251578082015181840152602081019050610236565b505050509050019250505060405180910390f35b61033f6004803603608081101561027b57600080fd5b810190808035906020019092919080359060200190929190803560ff169060200190929190803590602001906401000000008111156102b957600080fd5b8201836020820111156102cb57600080fd5b803590602001918460018302840111640100000000831117156102ed57600080fd5b91908080601f016020809104026020016040519081016040528093929190818152602001838380828437600081840152601f19601f820116905080830192505050505050509192919290505050610e24565b6040518082815260200191505060405180910390f35b6103816004803603602081101561036b57600080fd5b81019080803590602001909291905050506111a6565b6040518082815260200191505060405180910390f35b61039f611246565b005b6103a961146c565b005b6103d7600480360360208110156103c157600080fd5b810190808035906020019092919050505061153e565b604051808981526020018881526020018781526020018660ff1660ff16815260200180602001851515151581526020018481526020018373ffffffffffffffffffffffffffffffffffffffff1673ffffffffffffffffffffffffffffffffffffffff168152602001828103825286818151815260200191508051906020019080838360005b8381101561047757808201518184015260208101905061045c565b50505050905090810190601f1680156104a45780820380516001836020036101000a031916815260200191505b50995050505050505050505060405180910390f35b6104f9600480360360608110156104cf57600080fd5b81019080803590602001909291908035906020019092919080359060200190929190505050611658565b005b6105036117d7565b604051808215151515815260200191505060405180910390f35b6105496004803603602081101561053357600080fd5b81019080803590602001909291905050506117f1565b604051808981526020018881526020018781526020018660ff1660ff16815260200180602001851515151581526020018481526020018373ffffffffffffffffffffffffffffffffffffffff1673ffffffffffffffffffffffffffffffffffffffff168152602001828103825286818151815260200191508051906020019080838360005b838110156105e95780820151818401526020810190506105ce565b50505050905090810190601f1680156106165780820380516001836020036101000a031916815260200191505b50995050505050505050505060405180910390f35b6106816004803603606081101561064157600080fd5b810190808035906020019092919080359060200190929190803573ffffffffffffffffffffffffffffffffffffffff16906020019092919050505061190b565b005b61068b611c0b565b6040518082815260200191505060405180910390f35b6106e1600480360360608110156106b757600080fd5b81019080803590602001909291908035906020019092919080359060200190929190505050611c11565b005b610833600480360360408110156106f957600080fd5b810190808035906020019064010000000081111561071657600080fd5b82018360208201111561072857600080fd5b8035906020019184600183028401116401000000008311171561074a57600080fd5b91908080601f016020809104026020016040519081016040528093929190818152602001838380828437600081840152601f19601f820116905080830192505050505050509192919290803590602001906401000000008111156107ad57600080fd5b8201836020820111156107bf57600080fd5b803590602001918460018302840111640100000000831117156107e157600080fd5b91908080601f016020809104026020016040519081016040528093929190818152602001838380828437600081840152601f19601f82011690508083019250505050505050919291929050505061239d565b6040518082815260200191505060405180910390f35b610851612529565b005b61085b612537565b6040518082815260200191505060405180910390f35b61089d6004803603602081101561088757600080fd5b810190808035906020019092919050505061253d565b604051808660028111156108ad57fe5b60ff1681526020018573ffffffffffffffffffffffffffffffffffffffff1673ffffffffffffffffffffffffffffffffffffffff1681526020018060200180602001848152602001838103835286818151815260200191508051906020019080838360005b8381101561092d578082015181840152602081019050610912565b50505050905090810190601f16801561095a5780820380516001836020036101000a031916815260200191505b50838103825285818151815260200191508051906020019080838360005b83811015610993578082015181840152602081019050610978565b50505050905090810190601f1680156109c05780820380516001836020036101000a031916815260200191505b5097505050505050505060405180910390f35b6109ff600480360360208110156109e957600080fd5b81019080803590602001909291905050506126d0565b6040518080602001828103825283818151815260200191508051906020019060200280838360005b83811015610a42578082015181840152602081019050610a27565b505050509050019250505060405180910390f35b610a5e6127c4565b604051808215151515815260200191505060405180910390f35b600260009054906101000a900473ffffffffffffffffffffffffffffffffffffffff1673ffffffffffffffffffffffffffffffffffffffff163373ffffffffffffffffffffffffffffffffffffffff1614610b1e576040517f08c379a0000000000000000000000000000000000000000000000000000000008152600401808060200182810382526034815260200180612e4e6034913960400191505060405180910390fd5b6000600260009054906101000a900473ffffffffffffffffffffffffffffffffffffffff1690508073ffffffffffffffffffffffffffffffffffffffff16ff5b6000816004548110610b6f57600080fd5b6006600084815260200190815260200160002060000160019054906101000a900473ffffffffffffffffffffffffffffffffffffffff16915050919050565b803373ffffffffffffffffffffffffffffffffffffffff166006600083815260200190815260200160002060000160019054906101000a900473ffffffffffffffffffffffffffffffffffffffff1673ffffffffffffffffffffffffffffffffffffffff1614610c1d57600080fd5b816004548110610c2c57600080fd5b600260159054906101000a900460ff16610db1576000600660008581526020019081526020016000206003015411610caf576040517f08c379a000000000000000000000000000000000000000000000000000000000815260040180806020018281038252602b815260200180612dcb602b913960400191505060405180910390fd5b60006006600085815260200190815260200160002060030154905060006006600086815260200190815260200160002060030181905550600860008581526020019081526020016000206000808201600090556001820160009055600282016000610d1a9190612ad1565b60038201600090556004820160006101000a81549060ff0219169055600582016000610d469190612af2565b6006820160006101000a81549060ff021916905560078201600090556008820160006101000a81549073ffffffffffffffffffffffffffffffffffffffff02191690555050610d94816127d7565b6000600260146101000a81548160ff021916908315150217905550505b505050565b606060076000838152602001908152602001600020600201805480602002602001604051908101604052809291908181526020018280548015610e1857602002820191906000526020600020905b815481526020019060010190808311610e04575b50505050509050919050565b6000600260009054906101000a900473ffffffffffffffffffffffffffffffffffffffff1673ffffffffffffffffffffffffffffffffffffffff163373ffffffffffffffffffffffffffffffffffffffff1614610ecc576040517f08c379a0000000000000000000000000000000000000000000000000000000008152600401808060200182810382526028815260200180612e266028913960400191505060405180910390fd5b60008411610f25576040517f08c379a0000000000000000000000000000000000000000000000000000000008152600401808060200182810382526030815260200180612df66030913960400191505060405180910390fd5b60648410610f9b576040517f08c379a000000000000000000000000000000000000000000000000000000000815260040180806020018281038252601c8152602001807f52657175657374656420416d6f756e74656420686974206c696d69740000000081525060200191505060405180910390fd5b600060055490506001600560008282540192505081905550600660008781526020019081526020016000206004018190806001815401808255809150506001900390600052602060002001600090919091909150556060610ffa612b3a565b6040518061012001604052808481526020018981526020018381526020018881526020018760ff168152602001868152602001600115158152602001428152602001600073ffffffffffffffffffffffffffffffffffffffff16815250905080600760008581526020019081526020016000206000820151816000015560208201518160010155604082015181600201908051906020019061109d929190612ba1565b506060820151816003015560808201518160040160006101000a81548160ff021916908360ff16021790555060a08201518160050190805190602001906110e5929190612bee565b5060c08201518160060160006101000a81548160ff02191690831515021790555060e082015181600701556101008201518160080160006101000a81548173ffffffffffffffffffffffffffffffffffffffff021916908373ffffffffffffffffffffffffffffffffffffffff16021790555090505060066000898152602001908152602001600020600401839080600181540180825580915050600190039060005260206000200160009091909190915055829350505050949350505050565b6000813373ffffffffffffffffffffffffffffffffffffffff166006600083815260200190815260200160002060000160019054906101000a900473ffffffffffffffffffffffffffffffffffffffff1673ffffffffffffffffffffffffffffffffffffffff161461121757600080fd5b82600454811061122657600080fd5b600660008581526020019081526020016000206003015492505050919050565b61124e6117d7565b1561146a5760005b6004548110156114605760005b600660008381526020019081526020016000206005018054905081101561145257600860006006600085815260200190815260200160002060050183815481106112a957fe5b9060005260206000200154815260200190815260200160002060070154421115611445576000600860008381526020019081526020016000206003015490508060066000848152602001908152602001600020600301600082825403925050819055506113836006600085815260200190815260200160002060000160019054906101000a900473ffffffffffffffffffffffffffffffffffffffff166008600085815260200190815260200160002060080160009054906101000a900473ffffffffffffffffffffffffffffffffffffffff168361291f565b6000600260146101000a81548160ff0219169083151502179055506008600083815260200190815260200160002060008082016000905560018201600090556002820160006113d29190612ad1565b60038201600090556004820160006101000a81549060ff02191690556005820160006113fe9190612af2565b6006820160006101000a81549060ff021916905560078201600090556008820160006101000a81549073ffffffffffffffffffffffffffffffffffffffff02191690555050505b8080600101915050611263565b508080600101915050611256565b50611469612529565b5b565b600260009054906101000a900473ffffffffffffffffffffffffffffffffffffffff1673ffffffffffffffffffffffffffffffffffffffff163373ffffffffffffffffffffffffffffffffffffffff1614611512576040517f08c379a0000000000000000000000000000000000000000000000000000000008152600401808060200182810382526034815260200180612e4e6034913960400191505060405180910390fd5b600260159054906101000a900460ff1615600260156101000a81548160ff021916908315150217905550565b60076020528060005260406000206000915090508060000154908060010154908060030154908060040160009054906101000a900460ff1690806005018054600181600116156101000203166002900480601f01602080910402602001604051908101604052809291908181526020018280546001816001161561010002031660029004801561160f5780601f106115e45761010080835404028352916020019161160f565b820191906000526020600020905b8154815290600101906020018083116115f257829003601f168201915b5050505050908060060160009054906101000a900460ff16908060070154908060080160009054906101000a900473ffffffffffffffffffffffffffffffffffffffff16905088565b60076000838152602001908152602001600020600080820160009055600182016000905560028201600061168c9190612ad1565b60038201600090556004820160006101000a81549060ff02191690556005820160006116b89190612af2565b6006820160006101000a81549060ff021916905560078201600090556008820160006101000a81549073ffffffffffffffffffffffffffffffffffffffff0219169055505060066000848152602001908152602001600020600401828154811061171e57fe5b9060005260206000200160009055600160009054906101000a900473ffffffffffffffffffffffffffffffffffffffff1673ffffffffffffffffffffffffffffffffffffffff1663d586d2e483836040518363ffffffff1660e01b81526004018083815260200182815260200192505050600060405180830381600087803b1580156117a957600080fd5b505af11580156117bd573d6000803e3d6000fd5b505050506001600560008282540392505081905550505050565b600060035442116117e95760006117ec565b60015b905090565b60086020528060005260406000206000915090508060000154908060010154908060030154908060040160009054906101000a900460ff1690806005018054600181600116156101000203166002900480601f0160208091040260200160405190810160405280929190818152602001828054600181600116156101000203166002900480156118c25780601f10611897576101008083540402835291602001916118c2565b820191906000526020600020905b8154815290600101906020018083116118a557829003601f168201915b5050505050908060060160009054906101000a900460ff16908060070154908060080160009054906101000a900473ffffffffffffffffffffffffffffffffffffffff16905088565b60076000848152602001908152602001600020600860008581526020019081526020016000206000820154816000015560018201548160010155600282018160020190805461195b929190612c6e565b50600382015481600301556004820160009054906101000a900460ff168160040160006101000a81548160ff021916908360ff160217905550600582018160050190805460018160011615610100020316600290046119bb929190612cc0565b506006820160009054906101000a900460ff168160060160006101000a81548160ff021916908315150217905550600782015481600701556008820160009054906101000a900473ffffffffffffffffffffffffffffffffffffffff168160080160006101000a81548173ffffffffffffffffffffffffffffffffffffffff021916908373ffffffffffffffffffffffffffffffffffffffff16021790555090505062093a80420160086000858152602001908152602001600020600701819055506008600084815260200190815260200160002060030154600660006008600087815260200190815260200160002060010154815260200190815260200160002060030160008282540192505081905550806008600085815260200190815260200160002060080160006101000a81548173ffffffffffffffffffffffffffffffffffffffff021916908373ffffffffffffffffffffffffffffffffffffffff160217905550600760008481526020019081526020016000206000808201600090556001820160009055600282016000611b569190612ad1565b60038201600090556004820160006101000a81549060ff0219169055600582016000611b829190612af2565b6006820160006101000a81549060ff021916905560078201600090556008820160006101000a81549073ffffffffffffffffffffffffffffffffffffffff021916905550507f66ee80a9c7886990b70b5f9850020d35581c5e31eef6a488b084d305770518638383604051808381526020018281526020019250505060405180910390a1505050565b60055481565b823373ffffffffffffffffffffffffffffffffffffffff166006600083815260200190815260200160002060000160019054906101000a900473ffffffffffffffffffffffffffffffffffffffff1673ffffffffffffffffffffffffffffffffffffffff1614611c8057600080fd5b836004548110611c8f57600080fd5b600760008481526020019081526020016000206005016040516020018080602001828103825283818154600181600116156101000203166002900481526020019150805460018160011615610100020316600290048015611d315780601f10611d0657610100808354040283529160200191611d31565b820191906000526020600020905b815481529060010190602001808311611d1457829003601f168201915b50509250505060405160208183030381529060405280519060200120600160009054906101000a900473ffffffffffffffffffffffffffffffffffffffff1673ffffffffffffffffffffffffffffffffffffffff1663f3052d26866040518263ffffffff1660e01b81526004018082815260200191505060006040518083038186803b158015611dc057600080fd5b505afa158015611dd4573d6000803e3d6000fd5b505050506040513d6000823e3d601f19601f820116820180604052506020811015611dfe57600080fd5b8101908080516040519392919084640100000000821115611e1e57600080fd5b83820191506020820185811115611e3457600080fd5b8251866001820283011164010000000082111715611e5157600080fd5b8083526020830192505050908051906020019080838360005b83811015611e85578082015181840152602081019050611e6a565b50505050905090810190601f168015611eb25780820380516001836020036101000a031916815260200191505b506040525050506040516020018080602001828103825283818151815260200191508051906020019080838360005b83811015611efc578082015181840152602081019050611ee1565b50505050905090810190601f168015611f295780820380516001836020036101000a031916815260200191505b50925050506040516020818303038152906040528051906020012014611f9a576040517f08c379a0000000000000000000000000000000000000000000000000000000008152600401808060200182810382526030815260200180612e826030913960400191505060405180910390fd5b611fa2612b3a565b600760008581526020019081526020016000206040518061012001604052908160008201548152602001600182015481526020016002820180548060200260200160405190810160405280929190818152602001828054801561202457602002820191906000526020600020905b815481526020019060010190808311612010575b50505050508152602001600382015481526020016004820160009054906101000a900460ff1660ff1660ff168152602001600582018054600181600116156101000203166002900480601f0160208091040260200160405190810160405280929190818152602001828054600181600116156101000203166002900480156120ed5780601f106120c2576101008083540402835291602001916120ed565b820191906000526020600020905b8154815290600101906020018083116120d057829003601f168201915b505050505081526020016006820160009054906101000a900460ff16151515158152602001600782015481526020016008820160009054906101000a900473ffffffffffffffffffffffffffffffffffffffff1673ffffffffffffffffffffffffffffffffffffffff1673ffffffffffffffffffffffffffffffffffffffff1681525050905060005b8160400151518160ff161015612205578582604001518260ff168151811061219a57fe5b6020026020010151146121f8576040517f08c379a000000000000000000000000000000000000000000000000000000000815260040180806020018281038252602a815260200180612eb2602a913960400191505060405180910390fd5b8080600101915050612176565b50600160009054906101000a900473ffffffffffffffffffffffffffffffffffffffff1673ffffffffffffffffffffffffffffffffffffffff166338442658868884606001518560800151896040518663ffffffff1660e01b8152600401808681526020018581526020018481526020018360ff16815260200182815260200195505050505050600060405180830381600087803b1580156122a657600080fd5b505af11580156122ba573d6000803e3d6000fd5b505050506007600085815260200190815260200160002060020185908060018154018082558091505060019003906000526020600020016000909190919091505560016006600088815260200190815260200160002060000160006101000a81548160ff0219169083600281111561232e57fe5b02179055507fd0b673680a2738b1bfa82403b822c02162e9773454a93ee4452a30582827631286868360600151846080015188604051808681526020018581526020018481526020018360ff1681526020018281526020019550505050505060405180910390a1505050505050565b60006060806123aa612d47565b6040518060e00160405280600060028111156123c257fe5b81526020013373ffffffffffffffffffffffffffffffffffffffff16815260200187815260200186815260200160008152602001848152602001838152509050600060046000815480929190600101919050559050816006600083815260200190815260200160002060008201518160000160006101000a81548160ff0219169083600281111561244f57fe5b021790555060208201518160000160016101000a81548173ffffffffffffffffffffffffffffffffffffffff021916908373ffffffffffffffffffffffffffffffffffffffff16021790555060408201518160010190805190602001906124b7929190612bee565b5060608201518160020190805190602001906124d4929190612bee565b506080820151816003015560a08201518160040190805190602001906124fb929190612ba1565b5060c0820151816005019080519060200190612518929190612ba1565b509050508094505050505092915050565b620151804201600381905550565b60045481565b60066020528060005260406000206000915090508060000160009054906101000a900460ff16908060000160019054906101000a900473ffffffffffffffffffffffffffffffffffffffff1690806001018054600181600116156101000203166002900480601f0160208091040260200160405190810160405280929190818152602001828054600181600116156101000203166002900480156126225780601f106125f757610100808354040283529160200191612622565b820191906000526020600020905b81548152906001019060200180831161260557829003601f168201915b505050505090806002018054600181600116156101000203166002900480601f0160208091040260200160405190810160405280929190818152602001828054600181600116156101000203166002900480156126c05780601f10612695576101008083540402835291602001916126c0565b820191906000526020600020905b8154815290600101906020018083116126a357829003601f168201915b5050505050908060030154905085565b606080600080905060008090505b60066000868152602001908152602001600020600401805490508160ff1610156127b95760076000600660008881526020019081526020016000206004018360ff168154811061272a57fe5b9060005260206000200154815260200190815260200160002060060160009054906101000a900460ff16156127ac57600660008681526020019081526020016000206004018160ff168154811061277d57fe5b9060005260206000200154838360ff168151811061279757fe5b60200260200101818152505081806001019250505b80806001019150506126de565b508192505050919050565b600260159054906101000a900460ff1681565b600260149054906101000a900460ff161561285a576040517f08c379a000000000000000000000000000000000000000000000000000000000815260040180806020018281038252600e8152602001807f4e6f2072652d656e7472616e637900000000000000000000000000000000000081525060200191505060405180910390fd5b6001600260146101000a81548160ff0219169083151502179055506000809054906101000a900473ffffffffffffffffffffffffffffffffffffffff1673ffffffffffffffffffffffffffffffffffffffff16635c7b79f5826040518263ffffffff1660e01b815260040180828152602001915050600060405180830381600087803b1580156128e957600080fd5b505af11580156128fd573d6000803e3d6000fd5b505050506000600260146101000a81548160ff02191690831515021790555050565b600260149054906101000a900460ff16156129a2576040517f08c379a000000000000000000000000000000000000000000000000000000000815260040180806020018281038252600e8152602001807f4e6f2072652d656e7472616e637900000000000000000000000000000000000081525060200191505060405180910390fd5b6001600260146101000a81548160ff0219169083151502179055506000809054906101000a900473ffffffffffffffffffffffffffffffffffffffff1673ffffffffffffffffffffffffffffffffffffffff1663f5537ede8484846040518463ffffffff1660e01b8152600401808473ffffffffffffffffffffffffffffffffffffffff1673ffffffffffffffffffffffffffffffffffffffff1681526020018373ffffffffffffffffffffffffffffffffffffffff1673ffffffffffffffffffffffffffffffffffffffff1681526020018281526020019350505050600060405180830381600087803b158015612a9957600080fd5b505af1158015612aad573d6000803e3d6000fd5b505050506000600260146101000a81548160ff021916908315150217905550505050565b5080546000825590600052602060002090810190612aef9190612da5565b50565b50805460018160011615610100020316600290046000825580601f10612b185750612b37565b601f016020900490600052602060002090810190612b369190612da5565b5b50565b60405180610120016040528060008152602001600081526020016060815260200160008152602001600060ff1681526020016060815260200160001515815260200160008152602001600073ffffffffffffffffffffffffffffffffffffffff1681525090565b828054828255906000526020600020908101928215612bdd579160200282015b82811115612bdc578251825591602001919060010190612bc1565b5b509050612bea9190612da5565b5090565b828054600181600116156101000203166002900490600052602060002090601f016020900481019282601f10612c2f57805160ff1916838001178555612c5d565b82800160010185558215612c5d579182015b82811115612c5c578251825591602001919060010190612c41565b5b509050612c6a9190612da5565b5090565b828054828255906000526020600020908101928215612caf5760005260206000209182015b82811115612cae578254825591600101919060010190612c93565b5b509050612cbc9190612da5565b5090565b828054600181600116156101000203166002900490600052602060002090601f016020900481019282601f10612cf95780548555612d36565b82800160010185558215612d3657600052602060002091601f016020900482015b82811115612d35578254825591600101919060010190612d1a565b5b509050612d439190612da5565b5090565b6040518060e0016040528060006002811115612d5f57fe5b8152602001600073ffffffffffffffffffffffffffffffffffffffff16815260200160608152602001606081526020016000815260200160608152602001606081525090565b612dc791905b80821115612dc3576000816000905550600101612dab565b5090565b9056fe496e76616c696420616d6f756e7420746f2062652077697468647261776e2066726f6d2077616c6c6574216d696e696d756d2072657175657374206e65656420746f20636f6e7461696e206174206c65617374203120546f6b656e796f7520617265206e6f7420616c6c6f77656420746f2075736520746869732066756e6374696f6e6f6e6c7920746865206f776e6572206f662074686520636f6e74726163742063616e2063616c6c2074686973206d6574686f6421796f7520617265206e6f7420656c696769626c6520746f207265717565737420666f722074686973206c697374696e67596f75206861766520616c7265616479207265717565737420666f722074686973206c697374696e6721a2646970667358221220dec585dd523065d2b7f56abb37d27350e17f1d73863c66cf61d085d6e733e82a64736f6c63430006010033",
  "source": "// SPDX-License-Identifier: MIT\npragma solidity >=0.6.1;\nimport \"./DonationMarket.sol\";\nimport \"./Token.sol\";\n\ncontract Recipient {\n\n    enum recipientState {created, requesting, receivedDonation}\n\n    struct recipient {\n        recipientState state;\n        address owner;\n        string username;\n        string pw;\n        uint256 wallet; // amt of ether in wallet\n        uint256[] activeRequests;\n        uint256[] withdrawals;\n        \n    }\n\n    struct request {\n        uint256 requestID;\n        uint256 recipientId;\n        uint256[] listingsId;\n        uint256 amt;\n        uint8 deadline;\n        string category;\n        bool isValue; \n        uint expireAt; // time from approved to expired \n        address donorAddress; // to refund the tokens after the expiration date\n    }\n\n    Token tokenContract;\n    DonationMarket marketContract;\n    address contractOwner;\n\n    bool internal locked = false;\n    bool public contractStopped = false;\n    uint constant wait_period = 7 days;\n    uint contract_maintenance; // time tracker, deprecate the withdrawToken() and check for expiration daily\n\n    uint256 public numRecipients = 0;\n    uint256 public numRequests = 0;\n    mapping(uint256 => recipient) public recipients;\n    mapping(uint256 => request) public requests; // hash(recipientID, username,pw, requestID)\n    mapping(uint256 => request) public withdrawalRequests; // available only for 7 days\n\n    // mapping(uint256 => listingState[]) public listingsApproved;\n    // mapping(uint256 => listingState[]) public listingsNotApproved;\n\n    \n   constructor (Token tokenAddress, DonationMarket marketAddress) public {\n       tokenContract = tokenAddress;\n        marketContract = marketAddress;\n        contractOwner = msg.sender;\n        autoDeprecate(); // set daily contract check\n    }\n\n    //function to create a new recipient, and add to 'recipients' map\n    function createRecipient (\n        string memory name,\n        string memory password\n    ) public returns(uint256) {\n        uint256[] memory setActiveRequest;\n        uint256[] memory setWithDrawal;\n        recipient memory newRecipient = recipient(\n            recipientState.created,\n            msg.sender, // recipient address\n            name,\n            password,\n            0, // wallet\n            setActiveRequest,\n            setWithDrawal\n        );\n        \n        uint256 newRecipientId = numRecipients++;\n        recipients[newRecipientId] = newRecipient; \n        return newRecipientId;   \n    }\n\n    event requestedDonation(uint256 recipientId, uint256 listingId, uint256 amt, uint256 deadline, uint256 requestId);\n    event completedRequest(uint256 requestId, uint256 listingId);\n\n    //modifier to ensure a function is callable only by its owner    \n    modifier ownerOnly(uint256 recipientId) {\n        require(recipients[recipientId].owner == msg.sender);\n        _;\n    }\n\n    modifier stoppedInEmergency {\n        if (!contractStopped) _;\n    }\n\n\n    modifier contractOwnerOnly {\n        require(msg.sender == contractOwner, \"only the owner of the contract can call this method!\");\n        _;\n    }\n\n    function toggleContactStopped() public contractOwnerOnly {\n        contractStopped = !contractStopped;\n    }\n    \n    modifier validRecipientId(uint256 recipientId) {\n        require(recipientId < numRecipients);\n        _;\n    }\n\n    // deprecate daily to check if the token has expired before allowing withdrawal of tokens\n    function autoDeprecate() public {\n        contract_maintenance = block.timestamp + 1 days;\n    }\n\n    function hasExpired() public view returns (bool) {\n        return block.timestamp > contract_maintenance ? true : false;\n    }\n\n    modifier isActive {\n        if (! hasExpired()) _;\n    }\n\n    modifier whenDeprecated {\n        if (hasExpired()) _;\n    }\n\n    // mutex: prevent re-entrant\n    modifier noReEntrant {\n        require(!locked, \"No re-entrancy\");\n        locked = true;\n        _;\n        locked = false;\n    }\n    \n    // separate the payment to check for re-entrant\n    function transferPayment(address sender, address receiver, uint256 token) noReEntrant internal {\n        tokenContract.transferToken(sender, receiver, token);\n    }\n\n    function cashOutTokens(uint256 amt) internal noReEntrant {\n        tokenContract.cashOut(amt);\n    }\n\n    function refundToken() public whenDeprecated {\n\n        for (uint recId; recId < numRecipients; recId++) {\n            for (uint req; req < recipients[recId].withdrawals.length; req++) {\n                if (block.timestamp > withdrawalRequests[recipients[recId].withdrawals[req]].expireAt) {\n                    uint256 amt = withdrawalRequests[req].amt;\n\n                    recipients[req].wallet -= amt; // deduct the expired tokens from the recipient's wallet\n\n                    transferPayment(recipients[recId].owner, withdrawalRequests[req].donorAddress, amt); // return the expired tokens to the donor of the tokens (currently is marketcontract first)\n\n                    locked = false;\n\n                    delete withdrawalRequests[req];\n                }\n            }\n        }\n\n        autoDeprecate(); // reset the daily auto deprecation time\n        \n    }\n\n    //TODO: revisit the logic\n    function withdrawTokens(uint256 recipientId) public ownerOnly(recipientId) validRecipientId(recipientId) stoppedInEmergency {\n        // TODO: implement automatic depreciation of each listing (7days to cash out for reach approval)! \n        require(recipients[recipientId].wallet > 0, \"Invalid amount to be withdrawn from wallet!\");\n        uint256 listingAmt = recipients[recipientId].wallet;\n\n        recipients[recipientId].wallet = 0;\n        delete withdrawalRequests[recipientId]; // all tokens withdrawn\n        cashOutTokens(listingAmt);\n\n        // unlock after the transaction is completed\n        locked = false;\n    }\n\n    //when developer (oracle) approve of the proof of usage, it will be tagged to a request to prevent duplicative usage of proof of usage\n    function createRequest(uint256 recipientId,uint256 requestedAmt, uint8 deadline, string memory category) public returns (uint256) {\n        require(msg.sender == contractOwner, \"you are not allowed to use this function\");\n        require(requestedAmt > 0, \"minimum request need to contain at least 1 Token\");\n        require(requestedAmt < 100, \"Requested Amounted hit limit\");\n        uint256 requestId = numRequests;\n        numRequests +=1;\n        recipients[recipientId].activeRequests.push(requestId);\n        uint256[] memory listings;\n        request memory newRequest = request (requestId, recipientId,listings,requestedAmt, deadline, category, true, block.timestamp, address(0));\n        requests[requestId] = newRequest;\n        recipients[recipientId].activeRequests.push(requestId);\n        return requestId;\n    }\n\n    function requestDonation(uint256 recipientId, uint256 listingId, uint256 requestId) public ownerOnly(recipientId) validRecipientId(recipientId) {\n        //checks\n        require (keccak256(abi.encode(marketContract.getCategory(listingId))) == keccak256(abi.encode(requests[requestId].category)),  \n        \"you are not eligible to request for this listing\");\n        request memory requestInfo = requests[requestId];\n            for (uint8 i; i< requestInfo.listingsId.length; i++) {\n                require(requestInfo.listingsId[i] == listingId, \"You have already request for this listing!\"); \n            }\n        marketContract.addRequest(listingId, recipientId, requestInfo.amt, requestInfo.deadline, requestId);\n        requests[requestId].listingsId.push(listingId);\n\n        recipients[recipientId].state = recipientState.requesting;\n\n        emit requestedDonation(recipientId, listingId, requestInfo.amt, requestInfo.deadline, requestId);\n    }\n\n    function completeRequest(uint256 requestId, uint256 listingId, address donorAddress) public {\n        withdrawalRequests[requestId] = requests[requestId];\n        withdrawalRequests[requestId].expireAt = block.timestamp + wait_period; // withdrawal of tokens allowed for 7 days from time of completion \n\n        recipients[withdrawalRequests[requestId].recipientId].wallet += withdrawalRequests[requestId].amt;\n        withdrawalRequests[requestId].donorAddress = donorAddress;\n\n        delete requests[requestId];\n        emit completedRequest(requestId, listingId);\n    }\n\n    function cancelRequest(uint256 recipientId, uint256 requestId, uint256 listingId) public {\n        delete requests[requestId];\n        delete recipients[recipientId].activeRequests[requestId]; // request no longer active\n        marketContract.cancelRequest(requestId, listingId); // remove request from market listing\n        numRequests -=1;\n    }\n\n    function getWallet(uint256 recipientId) public view ownerOnly(recipientId) validRecipientId(recipientId) returns (uint256) {\n        return recipients[recipientId].wallet;\n    }\n\n    function getRecipientAddress(uint256 recipientId) public view validRecipientId(recipientId) returns (address) {\n        return recipients[recipientId].owner;\n    }\n\n\n    function getRecipeintRequest(uint256 recipientId) public view returns (uint256[] memory) {\n        uint256[] memory activeRequest;\n        uint8 counter = 0;\n        for (uint8 i=0; i < recipients[recipientId].activeRequests.length;  i++) {\n            if (requests[recipients[recipientId].activeRequests[i]].isValue) {\n                activeRequest[counter] =  recipients[recipientId].activeRequests[i];\n                counter ++;\n            }\n        }\n        return activeRequest;\n    }\n\n    function getRequestedListing(uint256 requestId) public view returns (uint256[] memory) {\n        return requests[requestId].listingsId;\n    }\n     // self-destruct function \n     function destroyContract() public contractOwnerOnly {\n        address payable receiver = payable(contractOwner);\n         selfdestruct(receiver);\n     }\n\n     \n\n}",
  "sourcePath": "/Users/oliviama/AY21:22 sem 2/IS4302/project/contracts/Recipient.sol",
  "compiler": {
    "name": "solc",
    "version": "0.6.1+commit.e6f7d5a4.Emscripten.clang"
  },
  "schemaVersion": "3.4.4",
  "updatedAt": "2022-03-29T15:51:56.276Z",
  "devdoc": {
    "methods": {}
  },
  "userdoc": {
    "methods": {}
  }
}