{
  "contractName": "Recipient",
  "abi": [
    {
      "inputs": [
        {
          "internalType": "contract Token",
          "name": "tokenAddress",
          "type": "address"
        }
      ],
      "stateMutability": "nonpayable",
      "type": "constructor"
    },
    {
      "anonymous": false,
      "inputs": [
        {
          "indexed": false,
          "internalType": "uint256",
          "name": "recipientId",
          "type": "uint256"
        },
        {
          "indexed": false,
          "internalType": "uint256",
          "name": "tokenId",
          "type": "uint256"
        }
      ],
      "name": "completedToken",
      "type": "event"
    },
    {
      "anonymous": false,
      "inputs": [
        {
          "indexed": false,
          "internalType": "uint256",
          "name": "recipientId",
          "type": "uint256"
        },
        {
          "indexed": false,
          "internalType": "uint256",
          "name": "tokenId",
          "type": "uint256"
        },
        {
          "indexed": false,
          "internalType": "uint256",
          "name": "amt",
          "type": "uint256"
        },
        {
          "indexed": false,
          "internalType": "uint256",
          "name": "deadline",
          "type": "uint256"
        }
      ],
      "name": "requestedDonation",
      "type": "event"
    },
    {
      "inputs": [],
      "name": "contractStopped",
      "outputs": [
        {
          "internalType": "bool",
          "name": "",
          "type": "bool"
        }
      ],
      "stateMutability": "view",
      "type": "function"
    },
    {
      "inputs": [],
      "name": "numRecipients",
      "outputs": [
        {
          "internalType": "uint256",
          "name": "",
          "type": "uint256"
        }
      ],
      "stateMutability": "view",
      "type": "function"
    },
    {
      "inputs": [
        {
          "internalType": "uint256",
          "name": "",
          "type": "uint256"
        }
      ],
      "name": "recipients",
      "outputs": [
        {
          "internalType": "enum Recipient.recipientState",
          "name": "state",
          "type": "uint8"
        },
        {
          "internalType": "address",
          "name": "owner",
          "type": "address"
        },
        {
          "internalType": "string",
          "name": "username",
          "type": "string"
        },
        {
          "internalType": "string",
          "name": "pw",
          "type": "string"
        },
        {
          "internalType": "uint256",
          "name": "wallet",
          "type": "uint256"
        },
        {
          "internalType": "string",
          "name": "category",
          "type": "string"
        }
      ],
      "stateMutability": "view",
      "type": "function"
    },
    {
      "inputs": [
        {
          "internalType": "uint256",
          "name": "",
          "type": "uint256"
        },
        {
          "internalType": "uint256",
          "name": "",
          "type": "uint256"
        }
      ],
      "name": "tokensRequested",
      "outputs": [
        {
          "internalType": "uint256",
          "name": "tokenId",
          "type": "uint256"
        },
        {
          "internalType": "uint256",
          "name": "amt",
          "type": "uint256"
        }
      ],
      "stateMutability": "view",
      "type": "function"
    },
    {
      "inputs": [
        {
          "internalType": "string",
          "name": "name",
          "type": "string"
        },
        {
          "internalType": "string",
          "name": "password",
          "type": "string"
        },
        {
          "internalType": "string",
          "name": "category",
          "type": "string"
        }
      ],
      "name": "createRecipient",
      "outputs": [
        {
          "internalType": "uint256",
          "name": "",
          "type": "uint256"
        }
      ],
      "stateMutability": "nonpayable",
      "type": "function"
    },
    {
      "inputs": [],
      "name": "toggleContactStopped",
      "outputs": [],
      "stateMutability": "nonpayable",
      "type": "function"
    },
    {
      "inputs": [
        {
          "internalType": "address payable",
          "name": "token",
          "type": "address"
        },
        {
          "internalType": "uint256",
          "name": "amt",
          "type": "uint256"
        }
      ],
      "name": "transferPayment",
      "outputs": [],
      "stateMutability": "payable",
      "type": "function"
    },
    {
      "inputs": [
        {
          "internalType": "uint256",
          "name": "recipientId",
          "type": "uint256"
        }
      ],
      "name": "withdrawTokens",
      "outputs": [],
      "stateMutability": "nonpayable",
      "type": "function"
    },
    {
      "inputs": [
        {
          "internalType": "uint256",
          "name": "recipientId",
          "type": "uint256"
        },
        {
          "internalType": "uint256",
          "name": "tokenId",
          "type": "uint256"
        },
        {
          "internalType": "uint256",
          "name": "requestedAmt",
          "type": "uint256"
        },
        {
          "internalType": "uint256",
          "name": "deadline",
          "type": "uint256"
        }
      ],
      "name": "requestDonation",
      "outputs": [],
      "stateMutability": "nonpayable",
      "type": "function"
    },
    {
      "inputs": [
        {
          "internalType": "uint256",
          "name": "recipientId",
          "type": "uint256"
        },
        {
          "internalType": "uint256",
          "name": "tokenId",
          "type": "uint256"
        }
      ],
      "name": "completeToken",
      "outputs": [],
      "stateMutability": "nonpayable",
      "type": "function"
    },
    {
      "inputs": [
        {
          "internalType": "uint256",
          "name": "recipientId",
          "type": "uint256"
        }
      ],
      "name": "getWallet",
      "outputs": [
        {
          "internalType": "uint256",
          "name": "",
          "type": "uint256"
        }
      ],
      "stateMutability": "view",
      "type": "function"
    },
    {
      "inputs": [
        {
          "internalType": "uint256",
          "name": "recipientId",
          "type": "uint256"
        }
      ],
      "name": "getRecipientAddress",
      "outputs": [
        {
          "internalType": "address",
          "name": "",
          "type": "address"
        }
      ],
      "stateMutability": "view",
      "type": "function"
    },
    {
      "inputs": [],
      "name": "destroyContract",
      "outputs": [],
      "stateMutability": "nonpayable",
      "type": "function"
    }
  ],
  "bytecode": "0x60806040526000600160146101000a81548160ff0219169083151502179055506000600160156101000a81548160ff021916908315150217905550600060025534801561004b57600080fd5b50604051611cc8380380611cc88339818101604052602081101561006e57600080fd5b8101908080519060200190929190505050806000806101000a81548173ffffffffffffffffffffffffffffffffffffffff021916908373ffffffffffffffffffffffffffffffffffffffff16021790555033600160006101000a81548173ffffffffffffffffffffffffffffffffffffffff021916908373ffffffffffffffffffffffffffffffffffffffff16021790555050611bb8806101106000396000f3fe6080604052600436106100c25760003560e01c80639c9e38c41161007f578063cfd5197411610059578063cfd51974146104f7578063d1bc76a114610522578063d831f995146106fd578063daea74c514610756576100c2565b80639c9e38c414610404578063b1940b1014610449578063bca04859146104a9576100c2565b8063092a5cce146100c757806318337012146100de5780632179d39114610159578063315a095d146103635780635470b13b1461039e578063750e6d09146103ed575b600080fd5b3480156100d357600080fd5b506100dc610785565b005b3480156100ea57600080fd5b506101176004803603602081101561010157600080fd5b810190808035906020019092919050505061086b565b604051808273ffffffffffffffffffffffffffffffffffffffff1673ffffffffffffffffffffffffffffffffffffffff16815260200191505060405180910390f35b34801561016557600080fd5b5061034d6004803603606081101561017c57600080fd5b810190808035906020019064010000000081111561019957600080fd5b8201836020820111156101ab57600080fd5b803590602001918460018302840111640100000000831117156101cd57600080fd5b91908080601f016020809104026020016040519081016040528093929190818152602001838380828437600081840152601f19601f8201169050808301925050505050505091929192908035906020019064010000000081111561023057600080fd5b82018360208201111561024257600080fd5b8035906020019184600183028401116401000000008311171561026457600080fd5b91908080601f016020809104026020016040519081016040528093929190818152602001838380828437600081840152601f19601f820116905080830192505050505050509192919290803590602001906401000000008111156102c757600080fd5b8201836020820111156102d957600080fd5b803590602001918460018302840111640100000000831117156102fb57600080fd5b91908080601f016020809104026020016040519081016040528093929190818152602001838380828437600081840152601f19601f8201169050808301925050505050505091929192905050506108bb565b6040518082815260200191505060405180910390f35b34801561036f57600080fd5b5061039c6004803603602081101561038657600080fd5b8101908080359060200190929190505050610a20565b005b3480156103aa57600080fd5b506103d7600480360360208110156103c157600080fd5b8101908080359060200190929190505050610b91565b6040518082815260200191505060405180910390f35b3480156103f957600080fd5b50610402610c31565b005b34801561041057600080fd5b506104476004803603604081101561042757600080fd5b810190808035906020019092919080359060200190929190505050610d03565b005b34801561045557600080fd5b5061048c6004803603604081101561046c57600080fd5b810190808035906020019092919080359060200190929190505050610f0f565b604051808381526020018281526020019250505060405180910390f35b6104f5600480360360408110156104bf57600080fd5b81019080803573ffffffffffffffffffffffffffffffffffffffff16906020019092919080359060200190929190505050610f4d565b005b34801561050357600080fd5b5061050c611050565b6040518082815260200191505060405180910390f35b34801561052e57600080fd5b5061055b6004803603602081101561054557600080fd5b8101908080359060200190929190505050611056565b6040518087600281111561056b57fe5b60ff1681526020018673ffffffffffffffffffffffffffffffffffffffff1673ffffffffffffffffffffffffffffffffffffffff168152602001806020018060200185815260200180602001848103845288818151815260200191508051906020019080838360005b838110156105ef5780820151818401526020810190506105d4565b50505050905090810190601f16801561061c5780820380516001836020036101000a031916815260200191505b50848103835287818151815260200191508051906020019080838360005b8381101561065557808201518184015260208101905061063a565b50505050905090810190601f1680156106825780820380516001836020036101000a031916815260200191505b50848103825285818151815260200191508051906020019080838360005b838110156106bb5780820151818401526020810190506106a0565b50505050905090810190601f1680156106e85780820380516001836020036101000a031916815260200191505b50995050505050505050505060405180910390f35b34801561070957600080fd5b506107546004803603608081101561072057600080fd5b8101908080359060200190929190803590602001909291908035906020019092919080359060200190929190505050611287565b005b34801561076257600080fd5b5061076b611990565b604051808215151515815260200191505060405180910390f35b600160009054906101000a900473ffffffffffffffffffffffffffffffffffffffff1673ffffffffffffffffffffffffffffffffffffffff163373ffffffffffffffffffffffffffffffffffffffff161461082b576040517f08c379a0000000000000000000000000000000000000000000000000000000008152600401808060200182810382526034815260200180611b276034913960400191505060405180910390fd5b6000600160009054906101000a900473ffffffffffffffffffffffffffffffffffffffff1690508073ffffffffffffffffffffffffffffffffffffffff16ff5b600081600254811061087c57600080fd5b6003600084815260200190815260200160002060000160019054906101000a900473ffffffffffffffffffffffffffffffffffffffff16915050919050565b60006108c56119a3565b6040518060c00160405280600060028111156108dd57fe5b81526020013373ffffffffffffffffffffffffffffffffffffffff16815260200186815260200185815260200160008152602001848152509050600060026000815480929190600101919050559050816003600083815260200190815260200160002060008201518160000160006101000a81548160ff0219169083600281111561096457fe5b021790555060208201518160000160016101000a81548173ffffffffffffffffffffffffffffffffffffffff021916908373ffffffffffffffffffffffffffffffffffffffff16021790555060408201518160010190805190602001906109cc9291906119fa565b5060608201518160020190805190602001906109e99291906119fa565b506080820151816003015560a0820151816004019080519060200190610a109291906119fa565b5090505080925050509392505050565b803373ffffffffffffffffffffffffffffffffffffffff166003600083815260200190815260200160002060000160019054906101000a900473ffffffffffffffffffffffffffffffffffffffff1673ffffffffffffffffffffffffffffffffffffffff1614610a8f57600080fd5b816002548110610a9e57600080fd5b600160159054906101000a900460ff16610b8c576000600360008581526020019081526020016000206003015411610b21576040517f08c379a000000000000000000000000000000000000000000000000000000000815260040180806020018281038252602b815260200180611ace602b913960400191505060405180910390fd5b6000600360008581526020019081526020016000206003015490506000610b478561086b565b905060006003600087815260200190815260200160002060030181905550610b6f8183610f4d565b60018060146101000a81548160ff02191690831515021790555050505b505050565b6000813373ffffffffffffffffffffffffffffffffffffffff166003600083815260200190815260200160002060000160019054906101000a900473ffffffffffffffffffffffffffffffffffffffff1673ffffffffffffffffffffffffffffffffffffffff1614610c0257600080fd5b826002548110610c1157600080fd5b600360008581526020019081526020016000206003015492505050919050565b600160009054906101000a900473ffffffffffffffffffffffffffffffffffffffff1673ffffffffffffffffffffffffffffffffffffffff163373ffffffffffffffffffffffffffffffffffffffff1614610cd7576040517f08c379a0000000000000000000000000000000000000000000000000000000008152600401808060200182810382526034815260200180611b276034913960400191505060405180910390fd5b600160159054906101000a900460ff1615600160156101000a81548160ff021916908315150217905550565b600080905060005b60046000858152602001908152602001600020805490508160ff161015610e4d5782600460008681526020019081526020016000208260ff1681548110610d4e57fe5b9060005260206000209060020201600001541415610dc15760019150600460008581526020019081526020016000208160ff1681548110610d8b57fe5b90600052602060002090600202016001015460036000868152602001908152602001600020600301600082825401925050819055505b8115610e4057600460008581526020019081526020016000206001820160ff1681548110610deb57fe5b9060005260206000209060020201600460008681526020019081526020016000208260ff1681548110610e1a57fe5b906000526020600020906002020160008201548160000155600182015481600101559050505b8080600101915050610d0b565b5060046000848152602001908152602001600020805480610e6a57fe5b600190038181906000526020600020906002020160008082016000905560018201600090555050905560026003600085815260200190815260200160002060000160006101000a81548160ff02191690836002811115610ec657fe5b02179055507ffa8fa3847c10c991e52ad2319318e51adc11fcd6ca20159f5f7bcabba90374638383604051808381526020018281526020019250505060405180910390a1505050565b60046020528160005260406000208181548110610f2857fe5b9060005260206000209060020201600091509150508060000154908060010154905082565b600160149054906101000a900460ff1615610fd0576040517f08c379a000000000000000000000000000000000000000000000000000000000815260040180806020018281038252600e8152602001807f4e6f2072652d656e7472616e637900000000000000000000000000000000000081525060200191505060405180910390fd5b60018060146101000a81548160ff0219169083151502179055508173ffffffffffffffffffffffffffffffffffffffff166108fc829081150290604051600060405180830381858888f19350505050158015611030573d6000803e3d6000fd5b506000600160146101000a81548160ff0219169083151502179055505050565b60025481565b60036020528060005260406000206000915090508060000160009054906101000a900460ff16908060000160019054906101000a900473ffffffffffffffffffffffffffffffffffffffff1690806001018054600181600116156101000203166002900480601f01602080910402602001604051908101604052809291908181526020018280546001816001161561010002031660029004801561113b5780601f106111105761010080835404028352916020019161113b565b820191906000526020600020905b81548152906001019060200180831161111e57829003601f168201915b505050505090806002018054600181600116156101000203166002900480601f0160208091040260200160405190810160405280929190818152602001828054600181600116156101000203166002900480156111d95780601f106111ae576101008083540402835291602001916111d9565b820191906000526020600020905b8154815290600101906020018083116111bc57829003601f168201915b505050505090806003015490806004018054600181600116156101000203166002900480601f01602080910402602001604051908101604052809291908181526020018280546001816001161561010002031660029004801561127d5780601f106112525761010080835404028352916020019161127d565b820191906000526020600020905b81548152906001019060200180831161126057829003601f168201915b5050505050905086565b833373ffffffffffffffffffffffffffffffffffffffff166003600083815260200190815260200160002060000160019054906101000a900473ffffffffffffffffffffffffffffffffffffffff1673ffffffffffffffffffffffffffffffffffffffff16146112f657600080fd5b84600254811061130557600080fd5b6000841161135e576040517f08c379a000000000000000000000000000000000000000000000000000000000815260040180806020018281038252602e815260200180611aa0602e913960400191505060405180910390fd5b678ac7230489e8000084106113db576040517f08c379a000000000000000000000000000000000000000000000000000000000815260040180806020018281038252601c8152602001807f52657175657374656420416d6f756e74656420686974206c696d69740000000081525060200191505060405180910390fd5b60036000878152602001908152602001600020600401604051602001808060200182810382528381815460018160011615610100020316600290048152602001915080546001816001161561010002031660029004801561147d5780601f106114525761010080835404028352916020019161147d565b820191906000526020600020905b81548152906001019060200180831161146057829003601f168201915b505092505050604051602081830303815290604052805190602001206000809054906101000a900473ffffffffffffffffffffffffffffffffffffffff1673ffffffffffffffffffffffffffffffffffffffff1663f3052d26876040518263ffffffff1660e01b81526004018082815260200191505060006040518083038186803b15801561150b57600080fd5b505afa15801561151f573d6000803e3d6000fd5b505050506040513d6000823e3d601f19601f82011682018060405250602081101561154957600080fd5b810190808051604051939291908464010000000082111561156957600080fd5b8382019150602082018581111561157f57600080fd5b825186600182028301116401000000008211171561159c57600080fd5b8083526020830192505050908051906020019080838360005b838110156115d05780820151818401526020810190506115b5565b50505050905090810190601f1680156115fd5780820380516001836020036101000a031916815260200191505b506040525050506040516020018080602001828103825283818151815260200191508051906020019080838360005b8381101561164757808201518184015260208101905061162c565b50505050905090810190601f1680156116745780820380516001836020036101000a031916815260200191505b509250505060405160208183030381529060405280519060200120146116e5576040517f08c379a000000000000000000000000000000000000000000000000000000000815260040180806020018281038252602e815260200180611af9602e913960400191505060405180910390fd5b606060046000888152602001908152602001600020805480602002602001604051908101604052809291908181526020016000905b828210156117605783829060005260206000209060020201604051806040016040529081600082015481526020016001820154815250508152602001906001019061171a565b50505050905060005b81518160ff1610156117f45786828260ff168151811061178557fe5b602002602001015160000151146117e7576040517f08c379a0000000000000000000000000000000000000000000000000000000008152600401808060200182810382526028815260200180611b5b6028913960400191505060405180910390fd5b8080600101915050611769565b506000809054906101000a900473ffffffffffffffffffffffffffffffffffffffff1673ffffffffffffffffffffffffffffffffffffffff16630ba12937878988886040518563ffffffff1660e01b815260040180858152602001848152602001838152602001828152602001945050505050600060405180830381600087803b15801561188157600080fd5b505af1158015611895573d6000803e3d6000fd5b505050506004600088815260200190815260200160002060405180604001604052808881526020018781525090806001815401808255809150506001900390600052602060002090600202016000909190919091506000820151816000015560208201518160010155505060016003600089815260200190815260200160002060000160006101000a81548160ff0219169083600281111561193357fe5b02179055507f51fdeb193f4ff7df087123706c5c45b641105103c233f99983e777b748fba4dd878787876040518085815260200184815260200183815260200182815260200194505050505060405180910390a150505050505050565b600160159054906101000a900460ff1681565b6040518060c00160405280600060028111156119bb57fe5b8152602001600073ffffffffffffffffffffffffffffffffffffffff168152602001606081526020016060815260200160008152602001606081525090565b828054600181600116156101000203166002900490600052602060002090601f016020900481019282601f10611a3b57805160ff1916838001178555611a69565b82800160010185558215611a69579182015b82811115611a68578251825591602001919060010190611a4d565b5b509050611a769190611a7a565b5090565b611a9c91905b80821115611a98576000816000905550600101611a80565b5090565b9056fe6d696e696d756d2072657175657374206e65656420746f20636f6e7461696e206174206c65617374203120657468496e76616c696420616d6f756e7420746f2062652077697468647261776e2066726f6d2077616c6c657421796f7520617265206e6f7420656c696769626c6520746f207265717565737420666f72207468697320746f6b656e6f6e6c7920746865206f776e6572206f662074686520636f6e74726163742063616e2063616c6c2074686973206d6574686f6421596f75206861766520616c7265616479207265717565737420666f72207468697320746f6b656e21a26469706673582212209cbdf5c73e784fd393964dfefd5330323495f338bfd3f8d41c3d15563573a4a764736f6c63430006010033",
  "source": "// SPDX-License-Identifier: MIT\npragma solidity >=0.6.1;\nimport \"./Token.sol\";\n\ncontract Recipient {\n\n    enum recipientState {created, requesting, receivedDonation }\n\n    struct recipient {\n        recipientState state;\n        address owner;\n        string username;\n        string pw;\n        uint256 wallet; // amt of ether in wallet\n        string category;\n    }\n\n    struct request {\n        uint256 tokenId;\n        uint256 amt;\n    }\n\n    Token tokenContract;\n    address contractOwner;\n\n    bool internal locked = false;\n    bool public contractStopped = false;\n    uint constant wait_period = 7 days;\n\n    uint256 public numRecipients = 0;\n    mapping(uint256 => recipient) public recipients;\n    mapping(uint256 => request[]) public tokensRequested; // recipientId => tokenState\n    // mapping(uint256 => tokenState[]) public tokensApproved;\n    // mapping(uint256 => tokenState[]) public tokensNotApproved;\n    \n   constructor (Token tokenAddress) public {\n        tokenContract = tokenAddress;\n        contractOwner = msg.sender;\n    }\n\n    //function to create a new recipient, and add to 'recipients' map\n    function createRecipient (\n        string memory name,\n        string memory password,\n        string memory category\n    ) public returns(uint256) {\n        \n        recipient memory newRecipient = recipient(\n            recipientState.created,\n            msg.sender, // recipient address\n            name,\n            password,\n            0, // wallet\n            category\n        );\n        \n        uint256 newRecipientId = numRecipients++;\n        recipients[newRecipientId] = newRecipient; \n        return newRecipientId;   \n    }\n\n    event requestedDonation(uint256 recipientId, uint256 tokenId, uint256 amt, uint256 deadline);\n    event completedToken(uint256 recipientId, uint256 tokenId);\n\n    //modifier to ensure a function is callable only by its owner    \n    modifier ownerOnly(uint256 recipientId) {\n        require(recipients[recipientId].owner == msg.sender);\n        _;\n    }\n\n    modifier stoppedInEmergency {\n        if (!contractStopped) _;\n    }\n\n    modifier enableInEmergency {\n        if (contractStopped) _;\n    }\n\n    modifier contractOwnerOnly {\n        require(msg.sender == contractOwner, \"only the owner of the contract can call this method!\");\n        _;\n    }\n\n    function toggleContactStopped() public contractOwnerOnly {\n        contractStopped = !contractStopped;\n    }\n    \n    modifier validRecipientId(uint256 recipientId) {\n        require(recipientId < numRecipients);\n        _;\n    }\n\n    // mutex: prevent re-entrant\n    modifier noReEntrant {\n        require(!locked, \"No re-entrancy\");\n        locked = true;\n        _;\n        locked = false;\n    }\n    \n    // separate the payment to check for re-entrant\n    function transferPayment(address payable token, uint256 amt) noReEntrant public payable {\n        token.transfer(amt);\n    }\n\n    //TODO: revisit the logic\n    function withdrawTokens(uint256 recipientId) public ownerOnly(recipientId) validRecipientId(recipientId) stoppedInEmergency {\n        // TODO: implement automatic depreciation of each token (7days to cash out for reach approval)! \n        require(recipients[recipientId].wallet > 0, \"Invalid amount to be withdrawn from wallet!\");\n        uint256 tokenAmt = recipients[recipientId].wallet;\n\n        address payable receiving = payable(getRecipientAddress(recipientId));\n        recipients[recipientId].wallet = 0;\n\n        transferPayment(receiving, tokenAmt);\n\n        // unlock after the transaction is completed\n        locked = true;\n    }\n\n    function requestDonation(uint256 recipientId, uint256 tokenId, uint256 requestedAmt, uint256 deadline) public ownerOnly(recipientId) validRecipientId(recipientId) {\n        require(requestedAmt > 0 ether, \"minimum request need to contain at least 1 eth\");\n        require(requestedAmt < 10 ether, \"Requested Amounted hit limit\");\n        require (keccak256(abi.encode(tokenContract.getCategory(tokenId))) == keccak256(abi.encode(recipients[recipientId].category)),  \n        \"you are not eligible to request for this token\");\n            request[] memory reqeusts= tokensRequested[recipientId];\n            for (uint8 i; i< reqeusts.length; i++) {\n                require(reqeusts[i].tokenId == tokenId, \"You have already request for this token!\"); \n            }\n        tokenContract.addRequest(tokenId, recipientId, requestedAmt,deadline);\n        tokensRequested[recipientId].push(request(tokenId,requestedAmt));\n\n        recipients[recipientId].state = recipientState.requesting;\n\n        emit requestedDonation(recipientId, tokenId, requestedAmt, deadline);\n    }\n\n    function completeToken(uint256 recipientId,uint256 tokenId) public {\n        bool isIndex = false;\n    \n        //store the token in database\n        for (uint8 i; i< tokensRequested[recipientId].length; i++) {\n            if (tokensRequested[recipientId][i].tokenId == tokenId) {\n                isIndex = true;\n                recipients[recipientId].wallet += tokensRequested[recipientId][i].amt;\n            }\n            if (isIndex) {\n                tokensRequested[recipientId][i] = tokensRequested[recipientId][i+1];\n            }\n        }\n\n        tokensRequested[recipientId].pop();\n\n        recipients[recipientId].state = recipientState.receivedDonation;\n\n        emit completedToken(recipientId, tokenId);\n    }\n\n    function getWallet(uint256 recipientId) public view ownerOnly(recipientId) validRecipientId(recipientId) returns (uint256) {\n        return recipients[recipientId].wallet;\n    }\n\n    function getRecipientAddress(uint256 recipientId) public view validRecipientId(recipientId) returns (address) {\n        return recipients[recipientId].owner;\n    }\n\n     // self-destruct function \n     function destroyContract() public contractOwnerOnly {\n        address payable receiver = payable(contractOwner);\n         selfdestruct(receiver);\n     }\n\n     \n\n}",
  "sourcePath": "/Users/oliviama/AY21:22 sem 2/IS4302/project/contracts/Recipient.sol",
  "compiler": {
    "name": "solc",
    "version": "0.6.1+commit.e6f7d5a4.Emscripten.clang"
  },
  "schemaVersion": "3.4.4",
  "updatedAt": "2022-03-27T06:08:28.277Z",
  "devdoc": {
    "methods": {}
  },
  "userdoc": {
    "methods": {}
  }
}