{
  "contractName": "RecipientStorage",
  "abi": [
    {
      "anonymous": false,
      "inputs": [
        {
          "indexed": false,
          "internalType": "uint256[]",
          "name": "activeRequests",
          "type": "uint256[]"
        }
      ],
      "name": "pushedToActive",
      "type": "event"
    },
    {
      "inputs": [],
      "name": "locked",
      "outputs": [
        {
          "internalType": "bool",
          "name": "",
          "type": "bool"
        }
      ],
      "stateMutability": "view",
      "type": "function",
      "constant": true
    },
    {
      "inputs": [],
      "name": "destroyContract",
      "outputs": [],
      "stateMutability": "nonpayable",
      "type": "function"
    },
    {
      "inputs": [
        {
          "internalType": "string",
          "name": "name",
          "type": "string"
        }
      ],
      "name": "createRecipient",
      "outputs": [
        {
          "internalType": "uint256",
          "name": "",
          "type": "uint256"
        }
      ],
      "stateMutability": "nonpayable",
      "type": "function"
    },
    {
      "inputs": [
        {
          "internalType": "uint256",
          "name": "recipientId",
          "type": "uint256"
        },
        {
          "internalType": "uint256",
          "name": "requestedAmt",
          "type": "uint256"
        },
        {
          "internalType": "uint256",
          "name": "deadline",
          "type": "uint256"
        },
        {
          "internalType": "string",
          "name": "category",
          "type": "string"
        }
      ],
      "name": "createRequest",
      "outputs": [
        {
          "internalType": "uint256",
          "name": "",
          "type": "uint256"
        }
      ],
      "stateMutability": "nonpayable",
      "type": "function"
    },
    {
      "inputs": [
        {
          "internalType": "uint256",
          "name": "requestId",
          "type": "uint256"
        }
      ],
      "name": "createWithdrawal",
      "outputs": [],
      "stateMutability": "nonpayable",
      "type": "function"
    },
    {
      "inputs": [
        {
          "internalType": "uint256",
          "name": "recipientId",
          "type": "uint256"
        }
      ],
      "name": "getRecipientOwner",
      "outputs": [
        {
          "internalType": "address",
          "name": "",
          "type": "address"
        }
      ],
      "stateMutability": "view",
      "type": "function",
      "constant": true
    },
    {
      "inputs": [
        {
          "internalType": "uint256",
          "name": "recipientId",
          "type": "uint256"
        }
      ],
      "name": "getRecipientWithdrawals",
      "outputs": [
        {
          "internalType": "uint256[]",
          "name": "",
          "type": "uint256[]"
        }
      ],
      "stateMutability": "view",
      "type": "function",
      "constant": true
    },
    {
      "inputs": [],
      "name": "getTotalRecipients",
      "outputs": [
        {
          "internalType": "uint256",
          "name": "",
          "type": "uint256"
        }
      ],
      "stateMutability": "view",
      "type": "function",
      "constant": true
    },
    {
      "inputs": [
        {
          "internalType": "uint256",
          "name": "recipientId",
          "type": "uint256"
        }
      ],
      "name": "getRequests",
      "outputs": [
        {
          "internalType": "uint256[]",
          "name": "",
          "type": "uint256[]"
        }
      ],
      "stateMutability": "view",
      "type": "function",
      "constant": true
    },
    {
      "inputs": [
        {
          "internalType": "uint256",
          "name": "recipientId",
          "type": "uint256"
        }
      ],
      "name": "getNumActiveRequest",
      "outputs": [
        {
          "internalType": "uint256",
          "name": "",
          "type": "uint256"
        }
      ],
      "stateMutability": "view",
      "type": "function",
      "constant": true
    },
    {
      "inputs": [
        {
          "internalType": "uint256",
          "name": "requestId",
          "type": "uint256"
        }
      ],
      "name": "getRequestCategory",
      "outputs": [
        {
          "internalType": "string",
          "name": "",
          "type": "string"
        }
      ],
      "stateMutability": "view",
      "type": "function",
      "constant": true
    },
    {
      "inputs": [
        {
          "internalType": "uint256",
          "name": "requestId",
          "type": "uint256"
        }
      ],
      "name": "getRequestAmount",
      "outputs": [
        {
          "internalType": "uint256",
          "name": "",
          "type": "uint256"
        }
      ],
      "stateMutability": "view",
      "type": "function",
      "constant": true
    },
    {
      "inputs": [
        {
          "internalType": "uint256",
          "name": "requestId",
          "type": "uint256"
        }
      ],
      "name": "getRequestDeadline",
      "outputs": [
        {
          "internalType": "uint256",
          "name": "",
          "type": "uint256"
        }
      ],
      "stateMutability": "view",
      "type": "function",
      "constant": true
    },
    {
      "inputs": [
        {
          "internalType": "uint256",
          "name": "requestId",
          "type": "uint256"
        }
      ],
      "name": "checkRequestValidity",
      "outputs": [
        {
          "internalType": "bool",
          "name": "",
          "type": "bool"
        }
      ],
      "stateMutability": "view",
      "type": "function",
      "constant": true
    },
    {
      "inputs": [
        {
          "internalType": "uint256",
          "name": "requestId",
          "type": "uint256"
        },
        {
          "internalType": "uint256",
          "name": "listingId",
          "type": "uint256"
        }
      ],
      "name": "addListingToRequest",
      "outputs": [],
      "stateMutability": "nonpayable",
      "type": "function"
    },
    {
      "inputs": [
        {
          "internalType": "uint256",
          "name": "requestId",
          "type": "uint256"
        }
      ],
      "name": "getNumListing",
      "outputs": [
        {
          "internalType": "uint256",
          "name": "",
          "type": "uint256"
        }
      ],
      "stateMutability": "view",
      "type": "function",
      "constant": true
    },
    {
      "inputs": [
        {
          "internalType": "uint256",
          "name": "requestId",
          "type": "uint256"
        }
      ],
      "name": "getRequestedListing",
      "outputs": [
        {
          "internalType": "uint256[]",
          "name": "",
          "type": "uint256[]"
        }
      ],
      "stateMutability": "view",
      "type": "function",
      "constant": true
    },
    {
      "inputs": [
        {
          "internalType": "uint256",
          "name": "withdrawalID",
          "type": "uint256"
        }
      ],
      "name": "getWithdrawalRecipient",
      "outputs": [
        {
          "internalType": "uint256",
          "name": "",
          "type": "uint256"
        }
      ],
      "stateMutability": "view",
      "type": "function",
      "constant": true
    },
    {
      "inputs": [
        {
          "internalType": "uint256",
          "name": "withdrawalID",
          "type": "uint256"
        }
      ],
      "name": "getWithdrawalAmount",
      "outputs": [
        {
          "internalType": "uint256",
          "name": "",
          "type": "uint256"
        }
      ],
      "stateMutability": "view",
      "type": "function",
      "constant": true
    },
    {
      "inputs": [
        {
          "internalType": "uint256",
          "name": "withdrawalID",
          "type": "uint256"
        }
      ],
      "name": "getWithdrawalExpiry",
      "outputs": [
        {
          "internalType": "uint256",
          "name": "",
          "type": "uint256"
        }
      ],
      "stateMutability": "view",
      "type": "function",
      "constant": true
    },
    {
      "inputs": [
        {
          "internalType": "uint256",
          "name": "requestId",
          "type": "uint256"
        }
      ],
      "name": "getWithdrawalDonor",
      "outputs": [
        {
          "internalType": "address",
          "name": "",
          "type": "address"
        }
      ],
      "stateMutability": "view",
      "type": "function",
      "constant": true
    },
    {
      "inputs": [
        {
          "internalType": "uint256",
          "name": "withdrawalId",
          "type": "uint256"
        },
        {
          "internalType": "uint256",
          "name": "expiry",
          "type": "uint256"
        }
      ],
      "name": "addWithdrawalExpiry",
      "outputs": [],
      "stateMutability": "nonpayable",
      "type": "function"
    },
    {
      "inputs": [
        {
          "internalType": "uint256",
          "name": "withdrawalId",
          "type": "uint256"
        },
        {
          "internalType": "address",
          "name": "add",
          "type": "address"
        }
      ],
      "name": "addWithdrawalRefundAddress",
      "outputs": [],
      "stateMutability": "nonpayable",
      "type": "function"
    },
    {
      "inputs": [
        {
          "internalType": "uint256",
          "name": "requestId",
          "type": "uint256"
        },
        {
          "internalType": "uint256",
          "name": "recipientId",
          "type": "uint256"
        }
      ],
      "name": "removeRequest",
      "outputs": [],
      "stateMutability": "nonpayable",
      "type": "function"
    },
    {
      "inputs": [
        {
          "internalType": "uint256",
          "name": "withdrawalId",
          "type": "uint256"
        }
      ],
      "name": "removeWithdrawal",
      "outputs": [],
      "stateMutability": "nonpayable",
      "type": "function"
    },
    {
      "inputs": [
        {
          "internalType": "uint256",
          "name": "requestId",
          "type": "uint256"
        },
        {
          "internalType": "uint256",
          "name": "listingId",
          "type": "uint256"
        }
      ],
      "name": "verifyRequestListing",
      "outputs": [
        {
          "internalType": "bool",
          "name": "",
          "type": "bool"
        }
      ],
      "stateMutability": "view",
      "type": "function",
      "constant": true
    }
  ],
  "bytecode": "0x6080604052336000806101000a81548173ffffffffffffffffffffffffffffffffffffffff021916908373ffffffffffffffffffffffffffffffffffffffff160217905550600060015560016002556000600660006101000a81548160ff02191690831515021790555034801561007557600080fd5b50611845806100856000396000f3fe608060405234801561001057600080fd5b506004361061018d5760003560e01c806370dfa336116100de578063cbbc88ff11610097578063e173ed3a11610071578063e173ed3a14610926578063e2918fca14610968578063edf35669146109d6578063f97a769e14610a185761018d565b8063cbbc88ff14610813578063cf30901214610881578063d5e78829146108a35761018d565b806370dfa3361461065457806377a1a1bb146106d757806384f601b5146107055780639284b6c01461074b57806398fd199d14610799578063ab23075a146107d15761018d565b80632d30e6bf1161014b5780633df93440116101255780633df93440146104ba5780634281b46e1461053d57806367574fae1461056b5780636f40d81e146106125761018d565b80632d30e6bf1461038b5780632f0829f7146103a9578063305d22ba146103eb5761018d565b80621aeccc14610192578063092a5cce146101e257806310a964cd146101ec5780631da367121461022457806321206d411461025c5780632444621d1461029e575b600080fd5b6101c8600480360360408110156101a857600080fd5b810190808035906020019092919080359060200190929190505050610a5a565b604051808215151515815260200191505060405180910390f35b6101ea610adf565b005b6102226004803603604081101561020257600080fd5b810190808035906020019092919080359060200190929190505050610bc3565b005b61025a6004803603604081101561023a57600080fd5b810190808035906020019092919080359060200190929190505050610c5e565b005b6102886004803603602081101561027257600080fd5b8101908080359060200190929190505050610c7d565b6040518082815260200191505060405180910390f35b610375600480360360808110156102b457600080fd5b81019080803590602001909291908035906020019092919080359060200190929190803590602001906401000000008111156102ef57600080fd5b82018360208201111561030157600080fd5b8035906020019184600183028401116401000000008311171561032357600080fd5b91908080601f016020809104026020016040519081016040528093929190818152602001838380828437600081840152601f19601f820116905080830192505050505050509192919290505050610c9d565b6040518082815260200191505060405180910390f35b610393610f60565b6040518082815260200191505060405180910390f35b6103d5600480360360208110156103bf57600080fd5b8101908080359060200190929190505050610f6a565b6040518082815260200191505060405180910390f35b6104a46004803603602081101561040157600080fd5b810190808035906020019064010000000081111561041e57600080fd5b82018360208201111561043057600080fd5b8035906020019184600183028401116401000000008311171561045257600080fd5b91908080601f016020809104026020016040519081016040528093929190818152602001838380828437600081840152601f19601f820116905080830192505050505050509192919290505050610f8a565b6040518082815260200191505060405180910390f35b6104e6600480360360208110156104d057600080fd5b81019080803590602001909291905050506110b7565b6040518080602001828103825283818151815260200191508051906020019060200280838360005b8381101561052957808201518184015260208101905061050e565b505050509050019250505060405180910390f35b6105696004803603602081101561055357600080fd5b8101908080359060200190929190505050611125565b005b6105976004803603602081101561058157600080fd5b8101908080359060200190929190505050611229565b6040518080602001828103825283818151815260200191508051906020019080838360005b838110156105d75780820151818401526020810190506105bc565b50505050905090810190601f1680156106045780820380516001836020036101000a031916815260200191505b509250505060405180910390f35b61063e6004803603602081101561062857600080fd5b81019080803590602001909291905050506112e1565b6040518082815260200191505060405180910390f35b6106806004803603602081101561066a57600080fd5b8101908080359060200190929190505050611301565b6040518080602001828103825283818151815260200191508051906020019060200280838360005b838110156106c35780820151818401526020810190506106a8565b505050509050019250505060405180910390f35b610703600480360360208110156106ed57600080fd5b810190808035906020019092919050505061136f565b005b6107316004803603602081101561071b57600080fd5b81019080803590602001909291905050506113cf565b604051808215151515815260200191505060405180910390f35b6107976004803603604081101561076157600080fd5b8101908080359060200190929190803573ffffffffffffffffffffffffffffffffffffffff1690602001909291905050506113fc565b005b6107cf600480360360408110156107af57600080fd5b810190808035906020019092919080359060200190929190505050611455565b005b6107fd600480360360208110156107e757600080fd5b8101908080359060200190929190505050611496565b6040518082815260200191505060405180910390f35b61083f6004803603602081101561082957600080fd5b81019080803590602001909291905050506114b6565b604051808273ffffffffffffffffffffffffffffffffffffffff1673ffffffffffffffffffffffffffffffffffffffff16815260200191505060405180910390f35b6108896114f6565b604051808215151515815260200191505060405180910390f35b6108cf600480360360208110156108b957600080fd5b8101908080359060200190929190505050611509565b6040518080602001828103825283818151815260200191508051906020019060200280838360005b838110156109125780820151818401526020810190506108f7565b505050509050019250505060405180910390f35b6109526004803603602081101561093c57600080fd5b8101908080359060200190929190505050611577565b6040518082815260200191505060405180910390f35b6109946004803603602081101561097e57600080fd5b8101908080359060200190929190505050611597565b604051808273ffffffffffffffffffffffffffffffffffffffff1673ffffffffffffffffffffffffffffffffffffffff16815260200191505060405180910390f35b610a02600480360360208110156109ec57600080fd5b81019080803590602001909291905050506115d7565b6040518082815260200191505060405180910390f35b610a4460048036036020811015610a2e57600080fd5b81019080803590602001909291905050506115f7565b6040518082815260200191505060405180910390f35b6000806000905060005b60046000868152602001908152602001600020600201805490508160ff161015610ad45783600460008781526020019081526020016000206002018260ff1681548110610aad57fe5b90600052602060002001541415610ac75760019150610ad4565b8080600101915050610a64565b508091505092915050565b6000809054906101000a900473ffffffffffffffffffffffffffffffffffffffff1673ffffffffffffffffffffffffffffffffffffffff163373ffffffffffffffffffffffffffffffffffffffff1614610b84576040517f08c379a00000000000000000000000000000000000000000000000000000000081526004018080602001828103825260288152602001806117e86028913960400191505060405180910390fd5b60008060009054906101000a900473ffffffffffffffffffffffffffffffffffffffff1690508073ffffffffffffffffffffffffffffffffffffffff16ff5b60016003600083815260200190815260200160002060040160008282540392505081905550600460008381526020019081526020016000206000808201600090556001820160009055600282016000610c1c9190611617565b60038201600090556004820160009055600582016000610c3c9190611638565b6006820160006101000a81549060ff0219169055600782016000905550505050565b8060056000848152602001908152602001600020600301819055505050565b600060046000838152602001908152602001600020600401549050919050565b6000808411610cf7576040517f08c379a00000000000000000000000000000000000000000000000000000000081526004018080602001828103825260308152602001806117b86030913960400191505060405180910390fd5b60648410610d6d576040517f08c379a000000000000000000000000000000000000000000000000000000000815260040180806020018281038252601c8152602001807f52657175657374656420416d6f756e74656420686974206c696d69740000000081525060200191505060405180910390fd5b60006002549050600160026000828254019250508190555060036000878152602001908152602001600020600201819080600181540180825580915050600190039060005260206000200160009091909190915055600160036000888152602001908152602001600020600401600082825401925050819055507fa3ece8d204a5e4c14b9d3d484c0d6672ecf727fb081fd44af821cf15adc004d86003600088815260200190815260200160002060020160405180806020018281038252838181548152602001915080548015610e6357602002820191906000526020600020905b815481526020019060010190808311610e4f575b50509250505060405180910390a1606060405180610100016040528083815260200188815260200182815260200187815260200186815260200185815260200160011515815260200160008152506004600084815260200190815260200160002060008201518160000155602082015181600101556040820151816002019080519060200190610ef4929190611680565b50606082015181600301556080820151816004015560a0820151816005019080519060200190610f259291906116cd565b5060c08201518160060160006101000a81548160ff02191690831515021790555060e082015181600701559050508192505050949350505050565b6000600154905090565b600060046000838152602001908152602001600020600301549050919050565b6000606080610f9761174d565b6040518060a001604052803273ffffffffffffffffffffffffffffffffffffffff16815260200186815260200184815260200183815260200160008152509050600060016000815480929190600101919050559050816003600083815260200190815260200160002060008201518160000160006101000a81548173ffffffffffffffffffffffffffffffffffffffff021916908373ffffffffffffffffffffffffffffffffffffffff16021790555060208201518160010190805190602001906110639291906116cd565b506040820151816002019080519060200190611080929190611680565b50606082015181600301908051906020019061109d929190611680565b506080820151816004015590505080945050505050919050565b60606004600083815260200190815260200160002060020180548060200260200160405190810160405280929190818152602001828054801561111957602002820191906000526020600020905b815481526020019060010190808311611105575b50505050509050919050565b60008190506000600460008481526020019081526020016000206001015490506000600460008581526020019081526020016000206003015490506040518060a00160405280848152602001838152602001828152602001428152602001600073ffffffffffffffffffffffffffffffffffffffff16815250600560008581526020019081526020016000206000820151816000015560208201518160010155604082015181600201556060820151816003015560808201518160040160006101000a81548173ffffffffffffffffffffffffffffffffffffffff021916908373ffffffffffffffffffffffffffffffffffffffff16021790555090505050505050565b6060600460008381526020019081526020016000206005018054600181600116156101000203166002900480601f0160208091040260200160405190810160405280929190818152602001828054600181600116156101000203166002900480156112d55780601f106112aa576101008083540402835291602001916112d5565b820191906000526020600020905b8154815290600101906020018083116112b857829003601f168201915b50505050509050919050565b600060056000838152602001908152602001600020600301549050919050565b60606003600083815260200190815260200160002060030180548060200260200160405190810160405280929190818152602001828054801561136357602002820191906000526020600020905b81548152602001906001019080831161134f575b50505050509050919050565b600560008281526020019081526020016000206000808201600090556001820160009055600282016000905560038201600090556004820160006101000a81549073ffffffffffffffffffffffffffffffffffffffff0219169055505050565b60006004600083815260200190815260200160002060060160009054906101000a900460ff169050919050565b806005600084815260200190815260200160002060040160006101000a81548173ffffffffffffffffffffffffffffffffffffffff021916908373ffffffffffffffffffffffffffffffffffffffff1602179055505050565b600460008381526020019081526020016000206002018190806001815401808255809150506001900390600052602060002001600090919091909150555050565b600060056000838152602001908152602001600020600201549050919050565b60006005600083815260200190815260200160002060040160009054906101000a900473ffffffffffffffffffffffffffffffffffffffff169050919050565b600660009054906101000a900460ff1681565b60606003600083815260200190815260200160002060020180548060200260200160405190810160405280929190818152602001828054801561156b57602002820191906000526020600020905b815481526020019060010190808311611557575b50505050509050919050565b600060046000838152602001908152602001600020600701549050919050565b60006003600083815260200190815260200160002060000160009054906101000a900473ffffffffffffffffffffffffffffffffffffffff169050919050565b600060036000838152602001908152602001600020600401549050919050565b600060056000838152602001908152602001600020600101549050919050565b50805460008255906000526020600020908101906116359190611792565b50565b50805460018160011615610100020316600290046000825580601f1061165e575061167d565b601f01602090049060005260206000209081019061167c9190611792565b5b50565b8280548282559060005260206000209081019282156116bc579160200282015b828111156116bb5782518255916020019190600101906116a0565b5b5090506116c99190611792565b5090565b828054600181600116156101000203166002900490600052602060002090601f016020900481019282601f1061170e57805160ff191683800117855561173c565b8280016001018555821561173c579182015b8281111561173b578251825591602001919060010190611720565b5b5090506117499190611792565b5090565b6040518060a00160405280600073ffffffffffffffffffffffffffffffffffffffff168152602001606081526020016060815260200160608152602001600081525090565b6117b491905b808211156117b0576000816000905550600101611798565b5090565b9056fe6d696e696d756d2072657175657374206e65656420746f20636f6e7461696e206174206c65617374203120546f6b656e796f7520617265206e6f7420616c6c6f77656420746f2075736520746869732066756e6374696f6ea26469706673582212200e445845e5b8fce6c59f47305233e19ecfbd1f7541cec5e44ffb30be6f4e82f064736f6c63430006010033",
  "source": "// SPDX-License-Identifier: MIT\r\npragma solidity >=0.6.1;\r\n\r\ncontract RecipientStorage {\r\n\r\n    // should we use this state for requests instead? cos since each recipient has multiple \r\n    enum requestState {created, requesting, receivedDonation, expiredRequest}\r\n\r\n    // unique beneficiary\r\n    struct recipient {\r\n        // recipientState state;\r\n        address owner;\r\n        string username;\r\n        uint256[] activeRequests;\r\n        uint256[] withdrawals;\r\n        uint256 numActiveRequest;\r\n    }\r\n\r\n    // unique instance of required donation\r\n    struct request {\r\n        uint256 requestID;\r\n        uint256 recipientId;\r\n        uint256[] listingsId;\r\n        uint256 amt;\r\n        uint256 deadline;\r\n        string category;\r\n        bool isValue; \r\n        uint256 numActiveListing;\r\n  \r\n    }\r\n\r\n    // unique instance of a completed donation converted into a request for withdrawal into funds \r\n    struct withdrawal {\r\n        uint256 withdrawalID;\r\n        uint256 recipientId;\r\n        uint256 amt;\r\n        uint expireAt; // time from approved to expired \r\n        address donorAddress; // to refund the tokens after the expiration date\r\n    }\r\n\r\n    address owner = msg.sender; // set deployer as owner of storage\r\n    uint256 numRecipients = 0;\r\n    uint256 numRequests = 1;\r\n    mapping(uint256 => recipient) recipients;\r\n    mapping(uint256 => request) requests; // requestId -> hash(recipientID, username,pw, requestID)\r\n    mapping(uint256 => withdrawal) withdrawalRequests; // available only for 7 days\r\n\r\n    //Access restriction \r\n    modifier ownerOnly(uint256 recipientId) {\r\n        require(getRecipientOwner(recipientId) == tx.origin);\r\n        _;\r\n    }\r\n\r\n    modifier contractOwnerOnly() {\r\n        require(\r\n            msg.sender == owner,\r\n            \"you are not allowed to use this function\"\r\n        );\r\n        _;\r\n    }\r\n    \r\n    //Security Functions\r\n    \r\n    //Self-destruct function\r\n    bool public locked = false;\r\n    function destroyContract() public contractOwnerOnly {\r\n        address payable receiver = payable(owner);\r\n        selfdestruct(receiver);\r\n    }\r\n\r\n    \r\n    //function to create a new recipient, and add to 'recipients' map\r\n    function createRecipient (\r\n        string memory name\r\n    ) public returns(uint256) {\r\n        uint256[] memory setActiveRequest;\r\n        uint256[] memory setWithDrawal;\r\n        recipient memory newRecipient = recipient(\r\n            // recipientState.created,\r\n            tx.origin, // recipient address\r\n            name,\r\n            setActiveRequest,\r\n            setWithDrawal,0\r\n        );\r\n        uint256 newRecipientId = numRecipients++;\r\n        recipients[newRecipientId] = newRecipient; \r\n        return newRecipientId;   \r\n    }\r\n\r\n    event pushedToActive(uint256[] activeRequests);\r\n    // create a request for a recipient. requestsid will be stored within recipient for access, request itself will be stored in another mapping\r\n    function createRequest(uint256 recipientId,uint256 requestedAmt, uint256 deadline, string memory category) public returns (uint256) {\r\n        require(requestedAmt > 0, \"minimum request need to contain at least 1 Token\");\r\n        require(requestedAmt < 100, \"Requested Amounted hit limit\");\r\n        uint256 requestId = numRequests;\r\n        numRequests +=1;\r\n        recipients[recipientId].activeRequests.push(requestId);\r\n        recipients[recipientId].numActiveRequest +=1;\r\n\r\n        emit pushedToActive(recipients[recipientId].activeRequests);\r\n\r\n        uint256[] memory listings;\r\n        requests[requestId] = request(requestId, recipientId,listings,requestedAmt, deadline, category, true,0);\r\n\r\n        return requestId;\r\n    }\r\n\r\n    // create a withdrawal\r\n    function createWithdrawal (uint256 requestId) public {\r\n        // request ID will be identical to withdrawal ID\r\n        uint256 withdrawalId = requestId;\r\n        uint256 recipientId = requests[requestId].recipientId;\r\n        uint256 amt = requests[requestId].amt;\r\n        withdrawalRequests[withdrawalId] = withdrawal (withdrawalId, recipientId, amt, block.timestamp, address(0));\r\n    }\r\n\r\n    // RECIPIENT LEVEL GETTERS/SETTERS\r\n\r\n    // returns address/owner of recipient \r\n    function getRecipientOwner (uint256 recipientId) public view returns(address) {\r\n        return recipients[recipientId].owner;\r\n    }\r\n\r\n    // return list of withdrawals per recipient\r\n    function getRecipientWithdrawals (uint256 recipientId) public view returns(uint256[] memory) {\r\n        return recipients[recipientId].withdrawals;\r\n    }\r\n\r\n    // return total amount of recipients\r\n    function getTotalRecipients () public view returns(uint256) {\r\n        return numRecipients;\r\n    }\r\n\r\n    // return requestIDs of recipeint\r\n    function getRequests (uint256 recipientId) public view returns (uint256[] memory) {\r\n        return recipients[recipientId].activeRequests;\r\n    }\r\n\r\n     //getter function to get the list of listing the request has request\r\n    function getNumActiveRequest(uint256 recipientId) public view returns (uint256) {\r\n        return  recipients[recipientId].numActiveRequest;\r\n    }\r\n\r\n\r\n    // REQUEST LEVEL GETTERS/SETTERS\r\n\r\n    // return request category\r\n    function getRequestCategory (uint256 requestId) public view returns(string memory) {\r\n        return requests[requestId].category;\r\n    }\r\n\r\n    // return request amount\r\n    function getRequestAmount (uint256 requestId) public view returns(uint256) {\r\n        return requests[requestId].amt;\r\n    }\r\n\r\n    // return request deadline\r\n    function getRequestDeadline (uint256 requestId) public view returns(uint256) {\r\n        return requests[requestId].deadline;\r\n    }\r\n\r\n    // return bool - true if request exist else false\r\n    function checkRequestValidity(uint256 requestId) public view returns (bool) {\r\n        return requests[requestId].isValue;\r\n    }\r\n    // add unique solicitation attempt\r\n    function addListingToRequest (uint256 requestId, uint256 listingId) public {\r\n        requests[requestId].listingsId.push(listingId);\r\n    }\r\n\r\n    //getter function to get the number of activelisting the request has request\r\n    function getNumListing(uint256 requestId) public view returns (uint256) {\r\n        return  requests[requestId].numActiveListing;\r\n    }\r\n\r\n    //getter function to get the list of listing the request has request\r\n    function getRequestedListing(uint256 requestId) public view returns (uint256[] memory) {\r\n        return  requests[requestId].listingsId;\r\n    }\r\n\r\n    \r\n\r\n  \r\n\r\n\r\n    // WITHDRAWAL LEVEL GETTERS/SETTERS\r\n\r\n    // return recipient which will receive money upon withdrawal, i.e beneficiary\r\n    function getWithdrawalRecipient (uint256 withdrawalID) public view returns(uint256) {\r\n        return withdrawalRequests[withdrawalID].recipientId;\r\n    }\r\n\r\n    // return withdrawal amount to be given to beneficiary\r\n    function getWithdrawalAmount (uint256 withdrawalID) public view returns(uint256) {\r\n        return withdrawalRequests[withdrawalID].amt;\r\n    }\r\n\r\n    // return expiry date of withdrawal\r\n    function getWithdrawalExpiry (uint256 withdrawalID) public view returns (uint) {\r\n        return withdrawalRequests[withdrawalID].expireAt;\r\n    }\r\n\r\n    // return original donor, where tokens will be refunded to upon withdrawal expiry\r\n    function getWithdrawalDonor (uint256 requestId) public view returns (address) {\r\n        return withdrawalRequests[requestId].donorAddress;\r\n    }\r\n\r\n    // set expiry date \r\n    function addWithdrawalExpiry (uint256 withdrawalId, uint expiry) public {\r\n        withdrawalRequests[withdrawalId].expireAt = expiry;\r\n    }\r\n\r\n    // set refund address for withdrawal\r\n    function addWithdrawalRefundAddress (uint256 withdrawalId, address add) public {\r\n        withdrawalRequests[withdrawalId].donorAddress = add;\r\n    }\r\n\r\n\r\n    // OTHER HELPER FUNCTIONS\r\n\r\n    // remove request from tracking in mapping\r\n    function removeRequest (uint256 requestId, uint256 recipientId) public {\r\n        recipients[recipientId].numActiveRequest -= 1;\r\n        delete requests[requestId];\r\n    }\r\n\r\n    // remove withdrawal from tracking in mapping\r\n    function removeWithdrawal (uint256 withdrawalId) public {\r\n        delete withdrawalRequests[withdrawalId];\r\n    }\r\n\r\n    // Check if requestid has already exist in the listing to prevent one request id from requesting multiple times in one listing \r\n    function verifyRequestListing (uint256 requestId, uint256 listingId) public view returns(bool) {\r\n        bool verified = false;\r\n        for (uint8 i; i< requests[requestId].listingsId.length; i++) {\r\n            if (requests[requestId].listingsId[i] == listingId) {\r\n                verified = true;\r\n                break;\r\n            } \r\n        }\r\n        return verified;\r\n    }\r\n\r\n\r\n\r\n\r\n}",
  "sourcePath": "C:\\Users\\geral\\Desktop\\NUS\\Y3S2\\IS4302\\Project\\IS4302_GRP6\\contracts\\RecipientStorage.sol",
  "compiler": {
    "name": "solc",
    "version": "0.6.1+commit.e6f7d5a4.Emscripten.clang"
  },
  "schemaVersion": "3.4.4",
  "updatedAt": "2022-04-14T06:53:15.105Z",
  "networkType": "ethereum",
  "devdoc": {
    "methods": {}
  },
  "userdoc": {
    "methods": {}
  }
}