{
  "contractName": "Recipient",
  "abi": [
    {
      "inputs": [
        {
          "internalType": "contract Token",
          "name": "tokenAddress",
          "type": "address"
        }
      ],
      "stateMutability": "nonpayable",
      "type": "constructor"
    },
    {
      "inputs": [],
      "name": "numRecipients",
      "outputs": [
        {
          "internalType": "uint256",
          "name": "",
          "type": "uint256"
        }
      ],
      "stateMutability": "view",
      "type": "function"
    },
    {
      "inputs": [
        {
          "internalType": "uint256",
          "name": "",
          "type": "uint256"
        }
      ],
      "name": "recipients",
      "outputs": [
        {
          "internalType": "enum Recipient.recipientState",
          "name": "state",
          "type": "uint8"
        },
        {
          "internalType": "address",
          "name": "owner",
          "type": "address"
        },
        {
          "internalType": "string",
          "name": "username",
          "type": "string"
        },
        {
          "internalType": "string",
          "name": "pw",
          "type": "string"
        },
        {
          "internalType": "uint256",
          "name": "etherWallet",
          "type": "uint256"
        },
        {
          "internalType": "uint256",
          "name": "tokenWallet",
          "type": "uint256"
        },
        {
          "internalType": "string",
          "name": "category",
          "type": "string"
        }
      ],
      "stateMutability": "view",
      "type": "function"
    },
    {
      "inputs": [
        {
          "internalType": "uint256",
          "name": "",
          "type": "uint256"
        },
        {
          "internalType": "uint256",
          "name": "",
          "type": "uint256"
        }
      ],
      "name": "tokensRequested",
      "outputs": [
        {
          "internalType": "uint256",
          "name": "tokenId",
          "type": "uint256"
        },
        {
          "internalType": "uint256",
          "name": "amt",
          "type": "uint256"
        }
      ],
      "stateMutability": "view",
      "type": "function"
    },
    {
      "inputs": [
        {
          "internalType": "string",
          "name": "name",
          "type": "string"
        },
        {
          "internalType": "string",
          "name": "password",
          "type": "string"
        },
        {
          "internalType": "string",
          "name": "category",
          "type": "string"
        }
      ],
      "name": "createRecipient",
      "outputs": [
        {
          "internalType": "uint256",
          "name": "",
          "type": "uint256"
        }
      ],
      "stateMutability": "nonpayable",
      "type": "function"
    },
    {
      "inputs": [
        {
          "internalType": "uint256",
          "name": "recipientId",
          "type": "uint256"
        }
      ],
      "name": "convertTokens",
      "outputs": [],
      "stateMutability": "nonpayable",
      "type": "function"
    },
    {
      "inputs": [
        {
          "internalType": "uint256",
          "name": "recipientId",
          "type": "uint256"
        },
        {
          "internalType": "uint256",
          "name": "tokenId",
          "type": "uint256"
        },
        {
          "internalType": "uint256",
          "name": "requestedAmt",
          "type": "uint256"
        },
        {
          "internalType": "uint256",
          "name": "deadline",
          "type": "uint256"
        }
      ],
      "name": "requestDonation",
      "outputs": [],
      "stateMutability": "nonpayable",
      "type": "function"
    },
    {
      "inputs": [
        {
          "internalType": "uint256",
          "name": "recipientID",
          "type": "uint256"
        },
        {
          "internalType": "uint256",
          "name": "tokenId",
          "type": "uint256"
        }
      ],
      "name": "completeToken",
      "outputs": [],
      "stateMutability": "nonpayable",
      "type": "function"
    },
    {
      "inputs": [
        {
          "internalType": "uint256",
          "name": "recipientId",
          "type": "uint256"
        }
      ],
      "name": "getWallet",
      "outputs": [
        {
          "internalType": "uint256",
          "name": "",
          "type": "uint256"
        }
      ],
      "stateMutability": "view",
      "type": "function"
    },
    {
      "inputs": [
        {
          "internalType": "uint256",
          "name": "recipientId",
          "type": "uint256"
        }
      ],
      "name": "getRecipientAddress",
      "outputs": [
        {
          "internalType": "address",
          "name": "",
          "type": "address"
        }
      ],
      "stateMutability": "view",
      "type": "function"
    }
  ],
  "bytecode": "0x6080604052600060015534801561001557600080fd5b5060405161170e38038061170e8339818101604052602081101561003857600080fd5b8101908080519060200190929190505050806000806101000a81548173ffffffffffffffffffffffffffffffffffffffff021916908373ffffffffffffffffffffffffffffffffffffffff16021790555050611675806100996000396000f3fe608060405234801561001057600080fd5b50600436106100935760003560e01c8063a623152411610066578063a62315241461037d578063b1940b10146103ab578063cfd51974146103fe578063d1bc76a11461041c578063d831f995146105f157610093565b806318337012146100985780632179d391146101065780635470b13b146103035780639c9e38c414610345575b600080fd5b6100c4600480360360208110156100ae57600080fd5b810190808035906020019092919050505061063d565b604051808273ffffffffffffffffffffffffffffffffffffffff1673ffffffffffffffffffffffffffffffffffffffff16815260200191505060405180910390f35b6102ed6004803603606081101561011c57600080fd5b810190808035906020019064010000000081111561013957600080fd5b82018360208201111561014b57600080fd5b8035906020019184600183028401116401000000008311171561016d57600080fd5b91908080601f016020809104026020016040519081016040528093929190818152602001838380828437600081840152601f19601f820116905080830192505050505050509192919290803590602001906401000000008111156101d057600080fd5b8201836020820111156101e257600080fd5b8035906020019184600183028401116401000000008311171561020457600080fd5b91908080601f016020809104026020016040519081016040528093929190818152602001838380828437600081840152601f19601f8201169050808301925050505050505091929192908035906020019064010000000081111561026757600080fd5b82018360208201111561027957600080fd5b8035906020019184600183028401116401000000008311171561029b57600080fd5b91908080601f016020809104026020016040519081016040528093929190818152602001838380828437600081840152601f19601f82011690508083019250505050505050919291929050505061068d565b6040518082815260200191505060405180910390f35b61032f6004803603602081101561031957600080fd5b8101908080359060200190929190505050610803565b6040518082815260200191505060405180910390f35b61037b6004803603604081101561035b57600080fd5b8101908080359060200190929190803590602001909291905050506108a3565b005b6103a96004803603602081101561039357600080fd5b8101908080359060200190929190505050610a38565b005b6103e1600480360360408110156103c157600080fd5b810190808035906020019092919080359060200190929190505050610b86565b604051808381526020018281526020019250505060405180910390f35b610406610bc4565b6040518082815260200191505060405180910390f35b6104486004803603602081101561043257600080fd5b8101908080359060200190929190505050610bca565b6040518088600281111561045857fe5b60ff1681526020018773ffffffffffffffffffffffffffffffffffffffff1673ffffffffffffffffffffffffffffffffffffffff168152602001806020018060200186815260200185815260200180602001848103845289818151815260200191508051906020019080838360005b838110156104e25780820151818401526020810190506104c7565b50505050905090810190601f16801561050f5780820380516001836020036101000a031916815260200191505b50848103835288818151815260200191508051906020019080838360005b8381101561054857808201518184015260208101905061052d565b50505050905090810190601f1680156105755780820380516001836020036101000a031916815260200191505b50848103825285818151815260200191508051906020019080838360005b838110156105ae578082015181840152602081019050610593565b50505050905090810190601f1680156105db5780820380516001836020036101000a031916815260200191505b509a505050505050505050505060405180910390f35b61063b6004803603608081101561060757600080fd5b8101908080359060200190929190803590602001909291908035906020019092919080359060200190929190505050610e01565b005b600081600154811061064e57600080fd5b6002600084815260200190815260200160002060000160019054906101000a900473ffffffffffffffffffffffffffffffffffffffff16915050919050565b600061069761147c565b6040518060e00160405280600060028111156106af57fe5b81526020013373ffffffffffffffffffffffffffffffffffffffff1681526020018681526020018581526020016000815260200160008152602001848152509050600060016000815480929190600101919050559050816002600083815260200190815260200160002060008201518160000160006101000a81548160ff0219169083600281111561073d57fe5b021790555060208201518160000160016101000a81548173ffffffffffffffffffffffffffffffffffffffff021916908373ffffffffffffffffffffffffffffffffffffffff16021790555060408201518160010190805190602001906107a59291906114da565b5060608201518160020190805190602001906107c29291906114da565b506080820151816003015560a0820151816004015560c08201518160050190805190602001906107f39291906114da565b5090505080925050509392505050565b6000813373ffffffffffffffffffffffffffffffffffffffff166002600083815260200190815260200160002060000160019054906101000a900473ffffffffffffffffffffffffffffffffffffffff1673ffffffffffffffffffffffffffffffffffffffff161461087457600080fd5b82600154811061088357600080fd5b600260008581526020019081526020016000206003015492505050919050565b600080905060005b60036000858152602001908152602001600020805490508160ff1610156109ed5782600360008681526020019081526020016000208260ff16815481106108ee57fe5b90600052602060002090600202016000015414156109615760019150600360008581526020019081526020016000208160ff168154811061092b57fe5b90600052602060002090600202016001015460026000868152602001908152602001600020600301600082825401925050819055505b81156109e057600360008581526020019081526020016000206001820160ff168154811061098b57fe5b9060005260206000209060020201600360008681526020019081526020016000208260ff16815481106109ba57fe5b906000526020600020906002020160008201548160000155600182015481600101559050505b80806001019150506108ab565b5060036000848152602001908152602001600020805480610a0a57fe5b6001900381819060005260206000209060020201600080820160009055600182016000905550509055505050565b803373ffffffffffffffffffffffffffffffffffffffff166002600083815260200190815260200160002060000160019054906101000a900473ffffffffffffffffffffffffffffffffffffffff1673ffffffffffffffffffffffffffffffffffffffff1614610aa757600080fd5b816001548110610ab657600080fd5b6000600260008581526020019081526020016000206004015411610b25576040517f08c379a000000000000000000000000000000000000000000000000000000000815260040180806020018281038252603c8152602001806115ae603c913960400191505060405180910390fd5b6000600260008581526020019081526020016000206004015490508060026000868152602001908152602001600020600301600082825401925050819055506000600260008681526020019081526020016000206004018190555050505050565b60036020528160005260406000208181548110610b9f57fe5b9060005260206000209060020201600091509150508060000154908060010154905082565b60015481565b60026020528060005260406000206000915090508060000160009054906101000a900460ff16908060000160019054906101000a900473ffffffffffffffffffffffffffffffffffffffff1690806001018054600181600116156101000203166002900480601f016020809104026020016040519081016040528092919081815260200182805460018160011615610100020316600290048015610caf5780601f10610c8457610100808354040283529160200191610caf565b820191906000526020600020905b815481529060010190602001808311610c9257829003601f168201915b505050505090806002018054600181600116156101000203166002900480601f016020809104026020016040519081016040528092919081815260200182805460018160011615610100020316600290048015610d4d5780601f10610d2257610100808354040283529160200191610d4d565b820191906000526020600020905b815481529060010190602001808311610d3057829003601f168201915b505050505090806003015490806004015490806005018054600181600116156101000203166002900480601f016020809104026020016040519081016040528092919081815260200182805460018160011615610100020316600290048015610df75780601f10610dcc57610100808354040283529160200191610df7565b820191906000526020600020905b815481529060010190602001808311610dda57829003601f168201915b5050505050905087565b833373ffffffffffffffffffffffffffffffffffffffff166002600083815260200190815260200160002060000160019054906101000a900473ffffffffffffffffffffffffffffffffffffffff1673ffffffffffffffffffffffffffffffffffffffff1614610e7057600080fd5b846001548110610e7f57600080fd5b60008411610ed8576040517f08c379a000000000000000000000000000000000000000000000000000000000815260040180806020018281038252602e815260200180611580602e913960400191505060405180910390fd5b60328410610f4e576040517f08c379a000000000000000000000000000000000000000000000000000000000815260040180806020018281038252601c8152602001807f52657175657374656420416d6f756e74656420686974206c696d69740000000081525060200191505060405180910390fd5b600260008781526020019081526020016000206005016040516020018080602001828103825283818154600181600116156101000203166002900481526020019150805460018160011615610100020316600290048015610ff05780601f10610fc557610100808354040283529160200191610ff0565b820191906000526020600020905b815481529060010190602001808311610fd357829003601f168201915b505092505050604051602081830303815290604052805190602001206000809054906101000a900473ffffffffffffffffffffffffffffffffffffffff1673ffffffffffffffffffffffffffffffffffffffff1663f3052d26876040518263ffffffff1660e01b81526004018082815260200191505060006040518083038186803b15801561107e57600080fd5b505afa158015611092573d6000803e3d6000fd5b505050506040513d6000823e3d601f19601f8201168201806040525060208110156110bc57600080fd5b81019080805160405193929190846401000000008211156110dc57600080fd5b838201915060208201858111156110f257600080fd5b825186600182028301116401000000008211171561110f57600080fd5b8083526020830192505050908051906020019080838360005b83811015611143578082015181840152602081019050611128565b50505050905090810190601f1680156111705780820380516001836020036101000a031916815260200191505b506040525050506040516020018080602001828103825283818151815260200191508051906020019080838360005b838110156111ba57808201518184015260208101905061119f565b50505050905090810190601f1680156111e75780820380516001836020036101000a031916815260200191505b50925050506040516020818303038152906040528051906020012014611258576040517f08c379a000000000000000000000000000000000000000000000000000000000815260040180806020018281038252602e8152602001806115ea602e913960400191505060405180910390fd5b606060036000888152602001908152602001600020805480602002602001604051908101604052809291908181526020016000905b828210156112d35783829060005260206000209060020201604051806040016040529081600082015481526020016001820154815250508152602001906001019061128d565b50505050905060005b81518160ff1610156113675786828260ff16815181106112f857fe5b6020026020010151600001511461135a576040517f08c379a00000000000000000000000000000000000000000000000000000000081526004018080602001828103825260288152602001806116186028913960400191505060405180910390fd5b80806001019150506112dc565b506000809054906101000a900473ffffffffffffffffffffffffffffffffffffffff1673ffffffffffffffffffffffffffffffffffffffff16630ba12937878988886040518563ffffffff1660e01b815260040180858152602001848152602001838152602001828152602001945050505050600060405180830381600087803b1580156113f457600080fd5b505af1158015611408573d6000803e3d6000fd5b505050506003600088815260200190815260200160002060405180604001604052808881526020018781525090806001815401808255809150506001900390600052602060002090600202016000909190919091506000820151816000015560208201518160010155505050505050505050565b6040518060e001604052806000600281111561149457fe5b8152602001600073ffffffffffffffffffffffffffffffffffffffff16815260200160608152602001606081526020016000815260200160008152602001606081525090565b828054600181600116156101000203166002900490600052602060002090601f016020900481019282601f1061151b57805160ff1916838001178555611549565b82800160010185558215611549579182015b8281111561154857825182559160200191906001019061152d565b5b509050611556919061155a565b5090565b61157c91905b80821115611578576000816000905550600101611560565b5090565b9056fe6d696e696d756d2072657175657374206e65656420746f20636f6e7461696e206174206c65617374203120657468496e76616c696420746f6b656e7320696e70757420746f20626520636f6e76657274656420746f20657468657220696e207468652077616c6c657421796f7520617265206e6f7420656c696769626c6520746f207265717565737420666f72207468697320746f6b656e596f75206861766520616c7265616479207265717565737420666f72207468697320746f6b656e21a2646970667358221220913e79d35679c6575f8c428c42250008647db82fa846a90c0ccb412a9bcd323b64736f6c63430006010033",
  "source": "// SPDX-License-Identifier: MIT\npragma solidity >=0.6.0;\nimport './Token.sol';\n\ncontract Recipient {\n\n    enum recipientState {created, requesting, receivedDonation }\n\n    struct recipient {\n        recipientState state;\n        address owner;\n        string username;\n        string pw;\n        uint256 etherWallet; // amt of ether in wallet\n        uint256 tokenWallet;\n        string category;\n    }\n    struct request {\n        uint256 tokenId;\n        uint256 amt;\n    }\n    Token tokenContract;\n\n\n    uint256 public numRecipients = 0;\n    mapping(uint256 => recipient) public recipients;\n    mapping(uint256 => request[]) public tokensRequested; // recipientId => tokenState\n    // mapping(uint256 => tokenState[]) public tokensApproved;\n    // mapping(uint256 => tokenState[]) public tokensNotApproved;\n    \n   constructor (Token tokenAddress) public {\n        tokenContract = tokenAddress;\n    }\n\n    //function to create a new recipient, and add to 'recipients' map\n    function createRecipient (\n        string memory name,\n        string memory password,\n        string memory category\n    ) public returns(uint256) {\n        \n        recipient memory newRecipient = recipient(\n            recipientState.created,\n            msg.sender, // recipient address\n            name,\n            password,\n            0, // ether wallet\n            0, // token wallet\n            category\n        );\n        \n        uint256 newRecipientId = numRecipients++;\n        recipients[newRecipientId] = newRecipient; \n        return newRecipientId;   \n    }\n\n    //modifier to ensure a function is callable only by its owner    \n    modifier ownerOnly(uint256 recipientId) {\n        require(recipients[recipientId].owner == msg.sender);\n        _;\n    }\n    \n    modifier validRecipientId(uint256 recipientId) {\n        require(recipientId < numRecipients);\n        _;\n    }\n    //TODO: revisit the logic\n    //TODO: add mutex\n    //ToDO:  emergency stop in approve\n    function convertTokens(uint256 recipientId) public ownerOnly(recipientId) validRecipientId(recipientId) {\n        // TODO: implement automatic depreciation of each token (7days to cash out for reach approval)! \n        require(recipients[recipientId].tokenWallet > 0, \"Invalid tokens input to be converted to ether in the wallet!\");\n        uint256 tokenAmt = recipients[recipientId].tokenWallet;\n\n        recipients[recipientId].etherWallet += tokenAmt;\n        recipients[recipientId].tokenWallet = 0;\n\n    }\n\n    function requestDonation(uint256 recipientId, uint256 tokenId, uint256 requestedAmt, uint256 deadline) public ownerOnly(recipientId) validRecipientId(recipientId) {\n        require(requestedAmt > 0 , \"minimum request need to contain at least 1 eth\");\n        require(requestedAmt <50 , \"Requested Amounted hit limit\");\n        require (keccak256(abi.encode(tokenContract.getCategory(tokenId))) == keccak256(abi.encode(recipients[recipientId].category)),  \n        \"you are not eligible to request for this token\");\n            request[] memory reqeusts= tokensRequested[recipientId];\n            for (uint8 i; i< reqeusts.length; i++) {\n                require(reqeusts[i].tokenId == tokenId, \"You have already request for this token!\"); \n            }\n        tokenContract.addRequest(tokenId, recipientId, requestedAmt,deadline);\n        tokensRequested[recipientId].push(request(tokenId,requestedAmt));\n\n    }\n\n    function completeToken(uint256 recipientID,uint256 tokenId) public {\n            bool isIndex = false;\n        \n            //store the token in database\n            for (uint8 i; i< tokensRequested[recipientID].length; i++) {\n                if (tokensRequested[recipientID][i].tokenId == tokenId) {\n                    isIndex = true;\n                    recipients[recipientID].etherWallet += tokensRequested[recipientID][i].amt;\n                }\n                if (isIndex) {\n                    tokensRequested[recipientID][i] = tokensRequested[recipientID][i+1];\n                }\n            }\n\n            tokensRequested[recipientID].pop();\n    \n        \n    }\n    function getWallet(uint256 recipientId) public view ownerOnly(recipientId) validRecipientId(recipientId) returns (uint256) {\n        return recipients[recipientId].etherWallet;\n    }\n\n    function getRecipientAddress(uint256 recipientId) public view validRecipientId(recipientId) returns (address) {\n        return recipients[recipientId].owner;\n    }\n     //TODO: add selfdestruct function \n\n\n\n    \n\n\n}",
  "sourcePath": "/Users/_mayveeee_/Desktop/IS4302_GRP6/contracts/Recipient.sol",
  "compiler": {
    "name": "solc",
    "version": "0.6.1+commit.e6f7d5a4.Emscripten.clang"
  },
  "schemaVersion": "3.4.4",
  "updatedAt": "2022-03-26T07:26:40.422Z",
  "devdoc": {
    "methods": {}
  },
  "userdoc": {
    "methods": {}
  }
}