{
  "contractName": "Recipient",
  "abi": [
    {
      "inputs": [
        {
          "internalType": "contract Token",
          "name": "tokenAddress",
          "type": "address"
        },
        {
          "internalType": "contract DonationMarket",
          "name": "marketAddress",
          "type": "address"
        },
        {
          "internalType": "contract RecipientStorage",
          "name": "storageAddress",
          "type": "address"
        }
      ],
      "stateMutability": "nonpayable",
      "type": "constructor"
    },
    {
      "anonymous": false,
      "inputs": [
        {
          "indexed": false,
          "internalType": "uint8",
          "name": "deadline",
          "type": "uint8"
        },
        {
          "indexed": false,
          "internalType": "uint256",
          "name": "amount",
          "type": "uint256"
        }
      ],
      "name": "addingToMarket",
      "type": "event"
    },
    {
      "anonymous": false,
      "inputs": [
        {
          "indexed": false,
          "internalType": "uint256",
          "name": "requestId",
          "type": "uint256"
        },
        {
          "indexed": false,
          "internalType": "uint256",
          "name": "listingId",
          "type": "uint256"
        }
      ],
      "name": "completedRequest",
      "type": "event"
    },
    {
      "anonymous": false,
      "inputs": [
        {
          "indexed": false,
          "internalType": "bool",
          "name": "entered",
          "type": "bool"
        }
      ],
      "name": "enteredRequest",
      "type": "event"
    },
    {
      "anonymous": false,
      "inputs": [
        {
          "indexed": false,
          "internalType": "uint256",
          "name": "requestId",
          "type": "uint256"
        }
      ],
      "name": "requestCreated",
      "type": "event"
    },
    {
      "anonymous": false,
      "inputs": [
        {
          "indexed": false,
          "internalType": "uint256",
          "name": "recipientId",
          "type": "uint256"
        },
        {
          "indexed": false,
          "internalType": "uint256",
          "name": "listingId",
          "type": "uint256"
        },
        {
          "indexed": false,
          "internalType": "uint256",
          "name": "amt",
          "type": "uint256"
        },
        {
          "indexed": false,
          "internalType": "uint256",
          "name": "deadline",
          "type": "uint256"
        },
        {
          "indexed": false,
          "internalType": "uint256",
          "name": "requestId",
          "type": "uint256"
        }
      ],
      "name": "requestedDonation",
      "type": "event"
    },
    {
      "inputs": [],
      "name": "contractStopped",
      "outputs": [
        {
          "internalType": "bool",
          "name": "",
          "type": "bool"
        }
      ],
      "stateMutability": "view",
      "type": "function",
      "constant": true
    },
    {
      "inputs": [
        {
          "internalType": "string",
          "name": "name",
          "type": "string"
        },
        {
          "internalType": "string",
          "name": "password",
          "type": "string"
        }
      ],
      "name": "createRecipient",
      "outputs": [
        {
          "internalType": "uint256",
          "name": "",
          "type": "uint256"
        }
      ],
      "stateMutability": "nonpayable",
      "type": "function"
    },
    {
      "inputs": [],
      "name": "toggleContactStopped",
      "outputs": [],
      "stateMutability": "nonpayable",
      "type": "function"
    },
    {
      "inputs": [],
      "name": "autoDeprecate",
      "outputs": [],
      "stateMutability": "nonpayable",
      "type": "function"
    },
    {
      "inputs": [],
      "name": "hasExpired",
      "outputs": [
        {
          "internalType": "bool",
          "name": "",
          "type": "bool"
        }
      ],
      "stateMutability": "view",
      "type": "function",
      "constant": true
    },
    {
      "inputs": [],
      "name": "refundToken",
      "outputs": [],
      "stateMutability": "nonpayable",
      "type": "function"
    },
    {
      "inputs": [
        {
          "internalType": "uint256",
          "name": "recipientId",
          "type": "uint256"
        }
      ],
      "name": "withdrawTokens",
      "outputs": [],
      "stateMutability": "nonpayable",
      "type": "function"
    },
    {
      "inputs": [
        {
          "internalType": "uint256",
          "name": "recipientId",
          "type": "uint256"
        },
        {
          "internalType": "uint256",
          "name": "requestedAmt",
          "type": "uint256"
        },
        {
          "internalType": "uint8",
          "name": "deadline",
          "type": "uint8"
        },
        {
          "internalType": "string",
          "name": "category",
          "type": "string"
        }
      ],
      "name": "createRequest",
      "outputs": [
        {
          "internalType": "uint256",
          "name": "",
          "type": "uint256"
        }
      ],
      "stateMutability": "nonpayable",
      "type": "function"
    },
    {
      "inputs": [
        {
          "internalType": "uint256",
          "name": "recipientId",
          "type": "uint256"
        },
        {
          "internalType": "uint256",
          "name": "listingId",
          "type": "uint256"
        },
        {
          "internalType": "uint256",
          "name": "requestId",
          "type": "uint256"
        }
      ],
      "name": "requestDonation",
      "outputs": [],
      "stateMutability": "nonpayable",
      "type": "function"
    },
    {
      "inputs": [
        {
          "internalType": "uint256",
          "name": "requestId",
          "type": "uint256"
        },
        {
          "internalType": "uint256",
          "name": "listingId",
          "type": "uint256"
        },
        {
          "internalType": "address",
          "name": "donorAddress",
          "type": "address"
        }
      ],
      "name": "completeRequest",
      "outputs": [],
      "stateMutability": "nonpayable",
      "type": "function"
    },
    {
      "inputs": [
        {
          "internalType": "uint256",
          "name": "recipientId",
          "type": "uint256"
        }
      ],
      "name": "getRecipeintRequest",
      "outputs": [
        {
          "internalType": "uint256[]",
          "name": "",
          "type": "uint256[]"
        }
      ],
      "stateMutability": "view",
      "type": "function",
      "constant": true
    },
    {
      "inputs": [],
      "name": "destroyContract",
      "outputs": [],
      "stateMutability": "nonpayable",
      "type": "function"
    }
  ],
  "bytecode": "0x60806040526000600360146101000a81548160ff0219169083151502179055506000600360156101000a81548160ff0219169083151502179055503480156200004757600080fd5b50604051620032db380380620032db833981810160405260608110156200006d57600080fd5b81019080805190602001909291908051906020019092919080519060200190929190505050826000806101000a81548173ffffffffffffffffffffffffffffffffffffffff021916908373ffffffffffffffffffffffffffffffffffffffff16021790555081600160006101000a81548173ffffffffffffffffffffffffffffffffffffffff021916908373ffffffffffffffffffffffffffffffffffffffff16021790555080600260006101000a81548173ffffffffffffffffffffffffffffffffffffffff021916908373ffffffffffffffffffffffffffffffffffffffff16021790555033600360006101000a81548173ffffffffffffffffffffffffffffffffffffffff021916908373ffffffffffffffffffffffffffffffffffffffff160217905550620001a5620001ae60201b60201c565b505050620001bc565b620151804201600481905550565b61310f80620001cc6000396000f3fe608060405234801561001057600080fd5b50600436106100b45760003560e01c80639b11ef63116100715780639b11ef6314610217578063a2b4d35d1461026f578063b5d80b37146102b1578063c63a2abe14610417578063d1d6c35414610421578063daea74c5146104a4576100b4565b8063092a5cce146100b9578063315a095d146100c3578063452a5438146100f15780635cb732be146101e1578063750e6d09146101eb57806390e64d13146101f5575b600080fd5b6100c16104c6565b005b6100ef600480360360208110156100d957600080fd5b81019080803590602001909291905050506105ac565b005b6101cb6004803603608081101561010757600080fd5b810190808035906020019092919080359060200190929190803560ff1690602001909291908035906020019064010000000081111561014557600080fd5b82018360208201111561015757600080fd5b8035906020019184600183028401116401000000008311171561017957600080fd5b91908080601f016020809104026020016040519081016040528093929190818152602001838380828437600081840152601f19601f8201169050808301925050505050505091929192905050506109fc565b6040518082815260200191505060405180910390f35b6101e9610c1e565b005b6101f36113ce565b005b6101fd6114a0565b604051808215151515815260200191505060405180910390f35b61026d6004803603606081101561022d57600080fd5b810190808035906020019092919080359060200190929190803573ffffffffffffffffffffffffffffffffffffffff1690602001909291905050506114ba565b005b6102af6004803603606081101561028557600080fd5b810190808035906020019092919080359060200190929190803590602001909291905050506119ad565b005b610401600480360360408110156102c757600080fd5b81019080803590602001906401000000008111156102e457600080fd5b8201836020820111156102f657600080fd5b8035906020019184600183028401116401000000008311171561031857600080fd5b91908080601f016020809104026020016040519081016040528093929190818152602001838380828437600081840152601f19601f8201169050808301925050505050505091929192908035906020019064010000000081111561037b57600080fd5b82018360208201111561038d57600080fd5b803590602001918460018302840111640100000000831117156103af57600080fd5b91908080601f016020809104026020016040519081016040528093929190818152602001838380828437600081840152601f19601f8201169050808301925050505050505091929192905050506124f1565b6040518082815260200191505060405180910390f35b61041f612682565b005b61044d6004803603602081101561043757600080fd5b8101908080359060200190929190505050612690565b6040518080602001828103825283818151815260200191508051906020019060200280838360005b83811015610490578082015181840152602081019050610475565b505050509050019250505060405180910390f35b6104ac612d15565b604051808215151515815260200191505060405180910390f35b600360009054906101000a900473ffffffffffffffffffffffffffffffffffffffff1673ffffffffffffffffffffffffffffffffffffffff163373ffffffffffffffffffffffffffffffffffffffff161461056c576040517f08c379a000000000000000000000000000000000000000000000000000000000815260040180806020018281038252603481526020018061304b6034913960400191505060405180910390fd5b6000600360009054906101000a900473ffffffffffffffffffffffffffffffffffffffff1690508073ffffffffffffffffffffffffffffffffffffffff16ff5b803373ffffffffffffffffffffffffffffffffffffffff16600260009054906101000a900473ffffffffffffffffffffffffffffffffffffffff1673ffffffffffffffffffffffffffffffffffffffff1663e2918fca836040518263ffffffff1660e01b81526004018082815260200191505060206040518083038186803b15801561063757600080fd5b505afa15801561064b573d6000803e3d6000fd5b505050506040513d602081101561066157600080fd5b810190808051906020019092919050505073ffffffffffffffffffffffffffffffffffffffff16146106fb576040517f08c379a000000000000000000000000000000000000000000000000000000000815260040180806020018281038252601a8152602001807f796f7520617265206e6f742074686520726563697069656e742100000000000081525060200191505060405180910390fd5b81600260009054906101000a900473ffffffffffffffffffffffffffffffffffffffff1673ffffffffffffffffffffffffffffffffffffffff16632d30e6bf6040518163ffffffff1660e01b815260040160206040518083038186803b15801561076457600080fd5b505afa158015610778573d6000803e3d6000fd5b505050506040513d602081101561078e57600080fd5b8101908080519060200190929190505050811115610814576040517f08c379a000000000000000000000000000000000000000000000000000000000815260040180806020018281038252601a8152602001807f726563697069656e74496420646f6573206e6f7420657869737400000000000081525060200191505060405180910390fd5b600360159054906101000a900460ff1615610897576040517f08c379a00000000000000000000000000000000000000000000000000000000081526004018080602001828103825260118152602001807f636f6e74726163742073746f707065642100000000000000000000000000000081525060200191505060405180910390fd5b600260009054906101000a900473ffffffffffffffffffffffffffffffffffffffff1673ffffffffffffffffffffffffffffffffffffffff166377a1a1bb846040518263ffffffff1660e01b815260040180828152602001915050600060405180830381600087803b15801561090c57600080fd5b505af1158015610920573d6000803e3d6000fd5b505050506109dc600260009054906101000a900473ffffffffffffffffffffffffffffffffffffffff1673ffffffffffffffffffffffffffffffffffffffff1663aa65227b856040518263ffffffff1660e01b815260040180828152602001915050602060405180830381600087803b15801561099c57600080fd5b505af11580156109b0573d6000803e3d6000fd5b505050506040513d60208110156109c657600080fd5b8101908080519060200190929190505050612d28565b6000600360146101000a81548160ff021916908315150217905550505050565b6000600360009054906101000a900473ffffffffffffffffffffffffffffffffffffffff1673ffffffffffffffffffffffffffffffffffffffff163373ffffffffffffffffffffffffffffffffffffffff1614610aa4576040517f08c379a00000000000000000000000000000000000000000000000000000000081526004018080602001828103825260288152602001806130236028913960400191505060405180910390fd5b6000600260009054906101000a900473ffffffffffffffffffffffffffffffffffffffff1673ffffffffffffffffffffffffffffffffffffffff1663452a5438878787876040518563ffffffff1660e01b8152600401808581526020018481526020018360ff1660ff16815260200180602001828103825283818151815260200191508051906020019080838360005b83811015610b4f578082015181840152602081019050610b34565b50505050905090810190601f168015610b7c5780820380516001836020036101000a031916815260200191505b5095505050505050602060405180830381600087803b158015610b9e57600080fd5b505af1158015610bb2573d6000803e3d6000fd5b505050506040513d6020811015610bc857600080fd5b810190808051906020019092919050505090507f699dfd68494cc1c8abe0e85d6558cac953158004b04955c390b59990b1d7163e816040518082815260200191505060405180910390a180915050949350505050565b610c266114a0565b610c98576040517f08c379a00000000000000000000000000000000000000000000000000000000081526004018080602001828103825260108152602001807f686173206e6f742065787069726564210000000000000000000000000000000081525060200191505060405180910390fd5b60005b600260009054906101000a900473ffffffffffffffffffffffffffffffffffffffff1673ffffffffffffffffffffffffffffffffffffffff16632d30e6bf6040518163ffffffff1660e01b815260040160206040518083038186803b158015610d0357600080fd5b505afa158015610d17573d6000803e3d6000fd5b505050506040513d6020811015610d2d57600080fd5b81019080805190602001909291905050508110156113c3576060600260009054906101000a900473ffffffffffffffffffffffffffffffffffffffff1673ffffffffffffffffffffffffffffffffffffffff166370dfa336836040518263ffffffff1660e01b81526004018082815260200191505060006040518083038186803b158015610dba57600080fd5b505afa158015610dce573d6000803e3d6000fd5b505050506040513d6000823e3d601f19601f820116820180604052506020811015610df857600080fd5b8101908080516040519392919084640100000000821115610e1857600080fd5b83820191506020820185811115610e2e57600080fd5b8251866020820283011164010000000082111715610e4b57600080fd5b8083526020830192505050908051906020019060200280838360005b83811015610e82578082015181840152602081019050610e67565b50505050905001604052505050905060005b81518110156113b4576000828281518110610eab57fe5b60200260200101519050600260009054906101000a900473ffffffffffffffffffffffffffffffffffffffff1673ffffffffffffffffffffffffffffffffffffffff1663f97a769e826040518263ffffffff1660e01b81526004018082815260200191505060206040518083038186803b158015610f2857600080fd5b505afa158015610f3c573d6000803e3d6000fd5b505050506040513d6020811015610f5257600080fd5b81019080805190602001909291905050504211156113a6576000600260009054906101000a900473ffffffffffffffffffffffffffffffffffffffff1673ffffffffffffffffffffffffffffffffffffffff1663ab23075a836040518263ffffffff1660e01b81526004018082815260200191505060206040518083038186803b158015610fdf57600080fd5b505afa158015610ff3573d6000803e3d6000fd5b505050506040513d602081101561100957600080fd5b81019080805190602001909291905050509050600260009054906101000a900473ffffffffffffffffffffffffffffffffffffffff1673ffffffffffffffffffffffffffffffffffffffff16635ca63eb9600260009054906101000a900473ffffffffffffffffffffffffffffffffffffffff1673ffffffffffffffffffffffffffffffffffffffff1663f97a769e856040518263ffffffff1660e01b81526004018082815260200191505060206040518083038186803b1580156110cd57600080fd5b505afa1580156110e1573d6000803e3d6000fd5b505050506040513d60208110156110f757600080fd5b8101908080519060200190929190505050836040518363ffffffff1660e01b81526004018083815260200182815260200180602001828103825260018152602001807f2d000000000000000000000000000000000000000000000000000000000000008152506020019350505050600060405180830381600087803b15801561117f57600080fd5b505af1158015611193573d6000803e3d6000fd5b505050506112fc600260009054906101000a900473ffffffffffffffffffffffffffffffffffffffff1673ffffffffffffffffffffffffffffffffffffffff1663e2918fca876040518263ffffffff1660e01b81526004018082815260200191505060206040518083038186803b15801561120d57600080fd5b505afa158015611221573d6000803e3d6000fd5b505050506040513d602081101561123757600080fd5b8101908080519060200190929190505050600260009054906101000a900473ffffffffffffffffffffffffffffffffffffffff1673ffffffffffffffffffffffffffffffffffffffff1663cbbc88ff856040518263ffffffff1660e01b81526004018082815260200191505060206040518083038186803b1580156112bb57600080fd5b505afa1580156112cf573d6000803e3d6000fd5b505050506040513d60208110156112e557600080fd5b810190808051906020019092919050505083612e70565b6000600360146101000a81548160ff021916908315150217905550600260009054906101000a900473ffffffffffffffffffffffffffffffffffffffff1673ffffffffffffffffffffffffffffffffffffffff166377a1a1bb836040518263ffffffff1660e01b815260040180828152602001915050600060405180830381600087803b15801561138c57600080fd5b505af11580156113a0573d6000803e3d6000fd5b50505050505b508080600101915050610e94565b50508080600101915050610c9b565b506113cc612682565b565b600360009054906101000a900473ffffffffffffffffffffffffffffffffffffffff1673ffffffffffffffffffffffffffffffffffffffff163373ffffffffffffffffffffffffffffffffffffffff1614611474576040517f08c379a000000000000000000000000000000000000000000000000000000000815260040180806020018281038252603481526020018061304b6034913960400191505060405180910390fd5b600360159054906101000a900460ff1615600360156101000a81548160ff021916908315150217905550565b600060045442116114b25760006114b5565b60015b905090565b600260009054906101000a900473ffffffffffffffffffffffffffffffffffffffff1673ffffffffffffffffffffffffffffffffffffffff16634281b46e846040518263ffffffff1660e01b815260040180828152602001915050600060405180830381600087803b15801561152f57600080fd5b505af1158015611543573d6000803e3d6000fd5b505050506000839050600260009054906101000a900473ffffffffffffffffffffffffffffffffffffffff1673ffffffffffffffffffffffffffffffffffffffff16631da367128262093a8042016040518363ffffffff1660e01b81526004018083815260200182815260200192505050600060405180830381600087803b1580156115ce57600080fd5b505af11580156115e2573d6000803e3d6000fd5b505050506000600260009054906101000a900473ffffffffffffffffffffffffffffffffffffffff1673ffffffffffffffffffffffffffffffffffffffff1663f97a769e836040518263ffffffff1660e01b81526004018082815260200191505060206040518083038186803b15801561165b57600080fd5b505afa15801561166f573d6000803e3d6000fd5b505050506040513d602081101561168557600080fd5b810190808051906020019092919050505090506000600260009054906101000a900473ffffffffffffffffffffffffffffffffffffffff1673ffffffffffffffffffffffffffffffffffffffff1663ab23075a846040518263ffffffff1660e01b81526004018082815260200191505060206040518083038186803b15801561170d57600080fd5b505afa158015611721573d6000803e3d6000fd5b505050506040513d602081101561173757600080fd5b81019080805190602001909291905050509050600260009054906101000a900473ffffffffffffffffffffffffffffffffffffffff1673ffffffffffffffffffffffffffffffffffffffff16635ca63eb983836040518363ffffffff1660e01b81526004018083815260200182815260200180602001828103825260018152602001807f2b000000000000000000000000000000000000000000000000000000000000008152506020019350505050600060405180830381600087803b15801561180057600080fd5b505af1158015611814573d6000803e3d6000fd5b50505050600260009054906101000a900473ffffffffffffffffffffffffffffffffffffffff1673ffffffffffffffffffffffffffffffffffffffff16639284b6c084866040518363ffffffff1660e01b8152600401808381526020018273ffffffffffffffffffffffffffffffffffffffff1673ffffffffffffffffffffffffffffffffffffffff16815260200192505050600060405180830381600087803b1580156118c157600080fd5b505af11580156118d5573d6000803e3d6000fd5b50505050600260009054906101000a900473ffffffffffffffffffffffffffffffffffffffff1673ffffffffffffffffffffffffffffffffffffffff166344786fc3876040518263ffffffff1660e01b815260040180828152602001915050600060405180830381600087803b15801561194e57600080fd5b505af1158015611962573d6000803e3d6000fd5b505050507f66ee80a9c7886990b70b5f9850020d35581c5e31eef6a488b084d305770518638686604051808381526020018281526020019250505060405180910390a1505050505050565b823373ffffffffffffffffffffffffffffffffffffffff16600260009054906101000a900473ffffffffffffffffffffffffffffffffffffffff1673ffffffffffffffffffffffffffffffffffffffff1663e2918fca836040518263ffffffff1660e01b81526004018082815260200191505060206040518083038186803b158015611a3857600080fd5b505afa158015611a4c573d6000803e3d6000fd5b505050506040513d6020811015611a6257600080fd5b810190808051906020019092919050505073ffffffffffffffffffffffffffffffffffffffff1614611afc576040517f08c379a000000000000000000000000000000000000000000000000000000000815260040180806020018281038252601a8152602001807f796f7520617265206e6f742074686520726563697069656e742100000000000081525060200191505060405180910390fd5b83600260009054906101000a900473ffffffffffffffffffffffffffffffffffffffff1673ffffffffffffffffffffffffffffffffffffffff16632d30e6bf6040518163ffffffff1660e01b815260040160206040518083038186803b158015611b6557600080fd5b505afa158015611b79573d6000803e3d6000fd5b505050506040513d6020811015611b8f57600080fd5b8101908080519060200190929190505050811115611c15576040517f08c379a000000000000000000000000000000000000000000000000000000000815260040180806020018281038252601a8152602001807f726563697069656e74496420646f6573206e6f7420657869737400000000000081525060200191505060405180910390fd5b600260009054906101000a900473ffffffffffffffffffffffffffffffffffffffff1673ffffffffffffffffffffffffffffffffffffffff166367574fae846040518263ffffffff1660e01b81526004018082815260200191505060006040518083038186803b158015611c8857600080fd5b505afa158015611c9c573d6000803e3d6000fd5b505050506040513d6000823e3d601f19601f820116820180604052506020811015611cc657600080fd5b8101908080516040519392919084640100000000821115611ce657600080fd5b83820191506020820185811115611cfc57600080fd5b8251866001820283011164010000000082111715611d1957600080fd5b8083526020830192505050908051906020019080838360005b83811015611d4d578082015181840152602081019050611d32565b50505050905090810190601f168015611d7a5780820380516001836020036101000a031916815260200191505b506040525050506040516020018080602001828103825283818151815260200191508051906020019080838360005b83811015611dc4578082015181840152602081019050611da9565b50505050905090810190601f168015611df15780820380516001836020036101000a031916815260200191505b509250505060405160208183030381529060405280519060200120600160009054906101000a900473ffffffffffffffffffffffffffffffffffffffff1673ffffffffffffffffffffffffffffffffffffffff1663f3052d26866040518263ffffffff1660e01b81526004018082815260200191505060006040518083038186803b158015611e7f57600080fd5b505afa158015611e93573d6000803e3d6000fd5b505050506040513d6000823e3d601f19601f820116820180604052506020811015611ebd57600080fd5b8101908080516040519392919084640100000000821115611edd57600080fd5b83820191506020820185811115611ef357600080fd5b8251866001820283011164010000000082111715611f1057600080fd5b8083526020830192505050908051906020019080838360005b83811015611f44578082015181840152602081019050611f29565b50505050905090810190601f168015611f715780820380516001836020036101000a031916815260200191505b506040525050506040516020018080602001828103825283818151815260200191508051906020019080838360005b83811015611fbb578082015181840152602081019050611fa0565b50505050905090810190601f168015611fe85780820380516001836020036101000a031916815260200191505b50925050506040516020818303038152906040528051906020012014612059576040517f08c379a000000000000000000000000000000000000000000000000000000000815260040180806020018281038252603081526020018061307f6030913960400191505060405180910390fd5b600260009054906101000a900473ffffffffffffffffffffffffffffffffffffffff1673ffffffffffffffffffffffffffffffffffffffff16621aeccc84866040518363ffffffff1660e01b8152600401808381526020018281526020019250505060206040518083038186803b1580156120d357600080fd5b505afa1580156120e7573d6000803e3d6000fd5b505050506040513d60208110156120fd57600080fd5b810190808051906020019092919050505015612164576040517f08c379a000000000000000000000000000000000000000000000000000000000815260040180806020018281038252602b8152602001806130af602b913960400191505060405180910390fd5b7fc99c4b11bab5cde0049c9b956725e9147bff43b1c4cb1e4bddd9be0e8a8d4f2e6001604051808215151515815260200191505060405180910390a16000600260009054906101000a900473ffffffffffffffffffffffffffffffffffffffff1673ffffffffffffffffffffffffffffffffffffffff166321206d41856040518263ffffffff1660e01b81526004018082815260200191505060206040518083038186803b15801561221557600080fd5b505afa158015612229573d6000803e3d6000fd5b505050506040513d602081101561223f57600080fd5b810190808051906020019092919050505090506000600260009054906101000a900473ffffffffffffffffffffffffffffffffffffffff1673ffffffffffffffffffffffffffffffffffffffff16632f0829f7866040518263ffffffff1660e01b81526004018082815260200191505060206040518083038186803b1580156122c757600080fd5b505afa1580156122db573d6000803e3d6000fd5b505050506040513d60208110156122f157600080fd5b810190808051906020019092919050505090507faa7e19b12a7222f80a096fdef1c597f8aa2b1673247a5379013d2264f939e70d8282604051808360ff1660ff1681526020018281526020019250505060405180910390a1600160009054906101000a900473ffffffffffffffffffffffffffffffffffffffff1673ffffffffffffffffffffffffffffffffffffffff166338442658878984868a6040518663ffffffff1660e01b8152600401808681526020018581526020018481526020018360ff16815260200182815260200195505050505050600060405180830381600087803b1580156123e157600080fd5b505af11580156123f5573d6000803e3d6000fd5b50505050600260009054906101000a900473ffffffffffffffffffffffffffffffffffffffff1673ffffffffffffffffffffffffffffffffffffffff166398fd199d86886040518363ffffffff1660e01b81526004018083815260200182815260200192505050600060405180830381600087803b15801561247657600080fd5b505af115801561248a573d6000803e3d6000fd5b505050507fd0b673680a2738b1bfa82403b822c02162e9773454a93ee4452a3058282763128787838589604051808681526020018581526020018481526020018360ff1681526020018281526020019550505050505060405180910390a150505050505050565b600080600260009054906101000a900473ffffffffffffffffffffffffffffffffffffffff1673ffffffffffffffffffffffffffffffffffffffff1663b5d80b3785856040518363ffffffff1660e01b8152600401808060200180602001838103835285818151815260200191508051906020019080838360005b8381101561258757808201518184015260208101905061256c565b50505050905090810190601f1680156125b45780820380516001836020036101000a031916815260200191505b50838103825284818151815260200191508051906020019080838360005b838110156125ed5780820151818401526020810190506125d2565b50505050905090810190601f16801561261a5780820380516001836020036101000a031916815260200191505b50945050505050602060405180830381600087803b15801561263b57600080fd5b505af115801561264f573d6000803e3d6000fd5b505050506040513d602081101561266557600080fd5b810190808051906020019092919050505090508091505092915050565b620151804201600481905550565b606080600260009054906101000a900473ffffffffffffffffffffffffffffffffffffffff1673ffffffffffffffffffffffffffffffffffffffff1663d5e78829846040518263ffffffff1660e01b81526004018082815260200191505060006040518083038186803b15801561270657600080fd5b505afa15801561271a573d6000803e3d6000fd5b505050506040513d6000823e3d601f19601f82011682018060405250602081101561274457600080fd5b810190808051604051939291908464010000000082111561276457600080fd5b8382019150602082018581111561277a57600080fd5b825186602082028301116401000000008211171561279757600080fd5b8083526020830192505050908051906020019060200280838360005b838110156127ce5780820151818401526020810190506127b3565b505050509050016040525050505160405190808252806020026020018201604052801561280a5781602001602082028038833980820191505090505b509050600080905060008090505b600260009054906101000a900473ffffffffffffffffffffffffffffffffffffffff1673ffffffffffffffffffffffffffffffffffffffff1663d5e78829866040518263ffffffff1660e01b81526004018082815260200191505060006040518083038186803b15801561288b57600080fd5b505afa15801561289f573d6000803e3d6000fd5b505050506040513d6000823e3d601f19601f8201168201806040525060208110156128c957600080fd5b81019080805160405193929190846401000000008211156128e957600080fd5b838201915060208201858111156128ff57600080fd5b825186602082028301116401000000008211171561291c57600080fd5b8083526020830192505050908051906020019060200280838360005b83811015612953578082015181840152602081019050612938565b50505050905001604052505050518160ff161015612d0a57600260009054906101000a900473ffffffffffffffffffffffffffffffffffffffff1673ffffffffffffffffffffffffffffffffffffffff166384f601b5600260009054906101000a900473ffffffffffffffffffffffffffffffffffffffff1673ffffffffffffffffffffffffffffffffffffffff1663d5e78829886040518263ffffffff1660e01b81526004018082815260200191505060006040518083038186803b158015612a1c57600080fd5b505afa158015612a30573d6000803e3d6000fd5b505050506040513d6000823e3d601f19601f820116820180604052506020811015612a5a57600080fd5b8101908080516040519392919084640100000000821115612a7a57600080fd5b83820191506020820185811115612a9057600080fd5b8251866020820283011164010000000082111715612aad57600080fd5b8083526020830192505050908051906020019060200280838360005b83811015612ae4578082015181840152602081019050612ac9565b505050509050016040525050508360ff1681518110612aff57fe5b60200260200101516040518263ffffffff1660e01b81526004018082815260200191505060206040518083038186803b158015612b3b57600080fd5b505afa158015612b4f573d6000803e3d6000fd5b505050506040513d6020811015612b6557600080fd5b810190808051906020019092919050505015612cfd57600260009054906101000a900473ffffffffffffffffffffffffffffffffffffffff1673ffffffffffffffffffffffffffffffffffffffff1663d5e78829866040518263ffffffff1660e01b81526004018082815260200191505060006040518083038186803b158015612bee57600080fd5b505afa158015612c02573d6000803e3d6000fd5b505050506040513d6000823e3d601f19601f820116820180604052506020811015612c2c57600080fd5b8101908080516040519392919084640100000000821115612c4c57600080fd5b83820191506020820185811115612c6257600080fd5b8251866020820283011164010000000082111715612c7f57600080fd5b8083526020830192505050908051906020019060200280838360005b83811015612cb6578082015181840152602081019050612c9b565b505050509050016040525050508160ff1681518110612cd157fe5b6020026020010151838360ff1681518110612ce857fe5b60200260200101818152505081806001019250505b8080600101915050612818565b508192505050919050565b600360159054906101000a900460ff1681565b600360149054906101000a900460ff1615612dab576040517f08c379a000000000000000000000000000000000000000000000000000000000815260040180806020018281038252600e8152602001807f4e6f2072652d656e7472616e637900000000000000000000000000000000000081525060200191505060405180910390fd5b6001600360146101000a81548160ff0219169083151502179055506000809054906101000a900473ffffffffffffffffffffffffffffffffffffffff1673ffffffffffffffffffffffffffffffffffffffff16635c7b79f5826040518263ffffffff1660e01b815260040180828152602001915050600060405180830381600087803b158015612e3a57600080fd5b505af1158015612e4e573d6000803e3d6000fd5b505050506000600360146101000a81548160ff02191690831515021790555050565b600360149054906101000a900460ff1615612ef3576040517f08c379a000000000000000000000000000000000000000000000000000000000815260040180806020018281038252600e8152602001807f4e6f2072652d656e7472616e637900000000000000000000000000000000000081525060200191505060405180910390fd5b6001600360146101000a81548160ff0219169083151502179055506000809054906101000a900473ffffffffffffffffffffffffffffffffffffffff1673ffffffffffffffffffffffffffffffffffffffff1663f5537ede8484846040518463ffffffff1660e01b8152600401808473ffffffffffffffffffffffffffffffffffffffff1673ffffffffffffffffffffffffffffffffffffffff1681526020018373ffffffffffffffffffffffffffffffffffffffff1673ffffffffffffffffffffffffffffffffffffffff1681526020018281526020019350505050600060405180830381600087803b158015612fea57600080fd5b505af1158015612ffe573d6000803e3d6000fd5b505050506000600360146101000a81548160ff02191690831515021790555050505056fe796f7520617265206e6f7420616c6c6f77656420746f2075736520746869732066756e6374696f6e6f6e6c7920746865206f776e6572206f662074686520636f6e74726163742063616e2063616c6c2074686973206d6574686f6421796f7520617265206e6f7420656c696769626c6520746f207265717565737420666f722074686973206c697374696e67596f75206861766520616c72656164792072657175657374656420666f722074686973206c697374696e67a2646970667358221220ee806039085d9de12f5e5ecf326cd50f1a641a843947cf4378740ca1aa68b26f64736f6c63430006010033",
  "source": "// SPDX-License-Identifier: MIT\npragma solidity >=0.6.1;\nimport \"./DonationMarket.sol\";\nimport \"./Token.sol\";\nimport \"./RecipientStorage.sol\";\n\ncontract Recipient {\n\n    Token tokenContract;\n    DonationMarket marketContract;\n    RecipientStorage recipientStorage;\n    address contractOwner;\n\n    bool internal locked = false;\n    bool public contractStopped = false;\n    uint constant wait_period = 7 days;\n    uint contract_maintenance; // time tracker, deprecate the withdrawToken() and check for expiration daily\n\n    \n   constructor (Token tokenAddress, DonationMarket marketAddress, RecipientStorage storageAddress) public {\n        tokenContract = tokenAddress;\n        marketContract = marketAddress;\n        recipientStorage = storageAddress;\n        contractOwner = msg.sender;\n        autoDeprecate(); // set daily contract check\n    }\n\n    //function to create a new recipient, and add to 'recipients' map\n    function createRecipient (\n        string memory name,\n        string memory password\n    ) public returns(uint256) {\n        uint256 newRecipientId = recipientStorage.createRecipient(name, password); \n        return newRecipientId;   \n    }\n\n    event requestedDonation(uint256 recipientId, uint256 listingId, uint256 amt, uint256 deadline, uint256 requestId);\n    event completedRequest(uint256 requestId, uint256 listingId);\n\n    //modifier to ensure a function is callable only by its owner    \n    modifier ownerOnly(uint256 recipientId) {\n        require(recipientStorage.getRecipientOwner(recipientId) == msg.sender, \"you are not the recipient!\");\n        _;\n    }\n\n    modifier stoppedInEmergency {\n        require(!contractStopped, \"contract stopped!\");\n         _;\n    }\n\n\n    modifier contractOwnerOnly {\n        require(msg.sender == contractOwner, \"only the owner of the contract can call this method!\");\n        _;\n    }\n\n    function toggleContactStopped() public contractOwnerOnly {\n        contractStopped = !contractStopped;\n    }\n    \n    modifier validRecipientId(uint256 recipientId) {\n        require(recipientId <= recipientStorage.getTotalRecipients(), \"recipientId does not exist\");\n        _;\n    }\n\n    // deprecate daily to check if the token has expired before allowing withdrawal of tokens\n    function autoDeprecate() public {\n        contract_maintenance = block.timestamp + 1 days;\n    }\n\n    function hasExpired() public view returns (bool) {\n        return block.timestamp > contract_maintenance ? true : false;\n    }\n\n    modifier isActive {\n        require(! hasExpired(), \"Not active!\");\n        _;\n    }\n\n    modifier whenDeprecated {\n        require(hasExpired(), \"has not expired!\");\n        _;\n    }\n\n    // mutex: prevent re-entrant\n    modifier noReEntrant {\n        require(!locked, \"No re-entrancy\");\n        locked = true;\n        _;\n        locked = false;\n    }\n    \n    // separate the payment to check for re-entrant\n    function transferPayment(address sender, address receiver, uint256 token) noReEntrant internal {\n        tokenContract.transferToken(sender, receiver, token);\n    }\n\n    function cashOutTokens(uint256 amt) internal noReEntrant {\n        tokenContract.cashOut(amt);\n    }\n\n    function refundToken() public whenDeprecated {\n        for (uint recId; recId < recipientStorage.getTotalRecipients(); recId++) {\n            uint256[] memory withdrawals = recipientStorage.getRecipientWithdrawals(recId);\n            for (uint req; req < withdrawals.length; req++) {\n                uint256 withdrawalId = withdrawals[req];\n                if (block.timestamp > recipientStorage.getWithdrawalRecipient(withdrawalId)) {\n                    uint256 amt = recipientStorage.getWithdrawalAmount(withdrawalId);\n                    recipientStorage.modifyRecipientWallet(recipientStorage.getWithdrawalRecipient(withdrawalId), amt, \"-\"); // deduct the expired tokens from the recipient's wallet\n                    transferPayment(recipientStorage.getRecipientOwner(recId), recipientStorage.getWithdrawalDonor(withdrawalId), amt); // return the expired tokens to the donor of the tokens (currently is marketcontract first)\n\n                    locked = false;\n\n                    recipientStorage.removeWithdrawal(withdrawalId);\n                }\n            }\n        }\n\n        autoDeprecate(); // reset the daily auto deprecation time\n        \n    }\n    function withdrawTokens(uint256 recipientId) public ownerOnly(recipientId) validRecipientId(recipientId) stoppedInEmergency {\n        recipientStorage.removeWithdrawal(recipientId);\n        cashOutTokens(recipientStorage.emptyRecipientWallet(recipientId));\n        // unlock after the transaction is completed\n        locked = false;\n    }\n\n    event requestCreated(uint256 requestId);\n\n    //when developer (oracle) approve of the proof of usage, it will be tagged to a request to prevent duplicative usage of proof of usage\n    function createRequest(uint256 recipientId,uint256 requestedAmt, uint8 deadline, string memory category) public returns (uint256) {\n        require(msg.sender == contractOwner, \"you are not allowed to use this function\");\n        uint256 requestId = recipientStorage.createRequest(recipientId, requestedAmt, deadline, category);\n        emit requestCreated(requestId);\n        return requestId;\n    }\n\n    event enteredRequest(bool entered);\n    event addingToMarket(uint8 deadline, uint256 amount);\n\n    function requestDonation(uint256 recipientId, uint256 listingId, uint256 requestId) public ownerOnly(recipientId) validRecipientId(recipientId) {\n        //checks\n        require (keccak256(abi.encode(marketContract.getCategory(listingId))) == keccak256(abi.encode(recipientStorage.getRequestCategory(requestId))),  \n        \"you are not eligible to request for this listing\");\n        require(!recipientStorage.verifyRequestListing(requestId, listingId), \"You have already requested for this listing\");\n        emit enteredRequest(true);\n\n        uint8 deadline = recipientStorage.getRequestDeadline(requestId);\n        uint256 amount = recipientStorage.getRequestAmount(requestId);\n\n        emit addingToMarket(deadline, amount);\n\n        marketContract.addRequest(listingId, recipientId, amount, deadline, requestId);\n        recipientStorage.addListingToRequest(requestId, listingId);\n        // recipients[recipientId].state = recipientState.requesting;\n        emit requestedDonation(recipientId, listingId, amount, deadline, requestId);\n    }\n\n    function completeRequest(uint256 requestId, uint256 listingId, address donorAddress) public {\n        recipientStorage.createWithdrawal(requestId); // add withdrawal\n        uint256 withdrawalId = requestId;\n        recipientStorage.addWithdrawalExpiry(withdrawalId, block.timestamp + wait_period); // withdrawal of tokens allowed for 7 days from time of completion \n        \n        // get recipient of withdrawal\n        uint256 recipientId = recipientStorage.getWithdrawalRecipient(withdrawalId);\n        // facilitate withdrawal\n        uint256 amount = recipientStorage.getWithdrawalAmount(withdrawalId);\n        recipientStorage.modifyRecipientWallet(recipientId, amount, \"+\");\n        recipientStorage.addWithdrawalRefundAddress(withdrawalId, donorAddress);\n        // remove request\n        recipientStorage.removeRequest(requestId);\n\n        emit completedRequest(requestId, listingId);\n    }\n\n    //getter functions to help recipeints keep track of their active request in FE\n    function getRecipeintRequest(uint256 recipientId) public view returns (uint256[] memory) {\n        uint256[] memory activeRequest = new uint256[](recipientStorage.getRequests(recipientId).length);\n        uint8 counter = 0;\n        for (uint8 i=0; i < recipientStorage.getRequests(recipientId).length;  i++) {\n            if (recipientStorage.checkRequestValidity(recipientStorage.getRequests(recipientId)[i])) {\n                activeRequest[counter] =  recipientStorage.getRequests(recipientId)[i];\n                counter ++;\n            }\n        }\n        return activeRequest;\n    }\n  \n\n     // self-destruct function \n     function destroyContract() public contractOwnerOnly {\n        address payable receiver = payable(contractOwner);\n         selfdestruct(receiver);\n     }\n\n     \n\n}",
  "sourcePath": "/Users/_mayveeee_/Desktop/IS4302_GRP6/contracts/Recipient.sol",
  "compiler": {
    "name": "solc",
    "version": "0.6.1+commit.e6f7d5a4.Emscripten.clang"
  },
  "schemaVersion": "3.4.4",
  "updatedAt": "2022-04-03T11:09:14.664Z",
  "networkType": "ethereum",
  "devdoc": {
    "methods": {}
  },
  "userdoc": {
    "methods": {}
  }
}