{
  "contractName": "Recipient",
  "abi": [
    {
      "inputs": [
        {
          "internalType": "contract Token",
          "name": "tokenAddress",
          "type": "address"
        },
        {
          "internalType": "contract DonationMarket",
          "name": "marketAddress",
          "type": "address"
        },
        {
          "internalType": "contract RecipientStorage",
          "name": "storageAddress",
          "type": "address"
        }
      ],
      "stateMutability": "nonpayable",
      "type": "constructor"
    },
    {
      "anonymous": false,
      "inputs": [
        {
          "indexed": false,
          "internalType": "uint256",
          "name": "deadline",
          "type": "uint256"
        },
        {
          "indexed": false,
          "internalType": "uint256",
          "name": "amount",
          "type": "uint256"
        }
      ],
      "name": "addingToMarket",
      "type": "event"
    },
    {
      "anonymous": false,
      "inputs": [
        {
          "indexed": false,
          "internalType": "uint256",
          "name": "requestId",
          "type": "uint256"
        },
        {
          "indexed": false,
          "internalType": "uint256",
          "name": "listingId",
          "type": "uint256"
        }
      ],
      "name": "completedRequest",
      "type": "event"
    },
    {
      "anonymous": false,
      "inputs": [
        {
          "indexed": false,
          "internalType": "bool",
          "name": "entered",
          "type": "bool"
        }
      ],
      "name": "enteredRequest",
      "type": "event"
    },
    {
      "anonymous": false,
      "inputs": [
        {
          "indexed": false,
          "internalType": "uint256",
          "name": "recipientId",
          "type": "uint256"
        },
        {
          "indexed": false,
          "internalType": "uint256",
          "name": "requestId",
          "type": "uint256"
        },
        {
          "indexed": false,
          "internalType": "uint256",
          "name": "listingId",
          "type": "uint256"
        }
      ],
      "name": "requestCancelled",
      "type": "event"
    },
    {
      "anonymous": false,
      "inputs": [
        {
          "indexed": false,
          "internalType": "uint256",
          "name": "requestId",
          "type": "uint256"
        }
      ],
      "name": "requestCreated",
      "type": "event"
    },
    {
      "anonymous": false,
      "inputs": [
        {
          "indexed": false,
          "internalType": "uint256",
          "name": "recipientId",
          "type": "uint256"
        },
        {
          "indexed": false,
          "internalType": "uint256",
          "name": "listingId",
          "type": "uint256"
        },
        {
          "indexed": false,
          "internalType": "uint256",
          "name": "amt",
          "type": "uint256"
        },
        {
          "indexed": false,
          "internalType": "uint256",
          "name": "deadline",
          "type": "uint256"
        },
        {
          "indexed": false,
          "internalType": "uint256",
          "name": "requestId",
          "type": "uint256"
        }
      ],
      "name": "requestedDonation",
      "type": "event"
    },
    {
      "inputs": [],
      "name": "contractStopped",
      "outputs": [
        {
          "internalType": "bool",
          "name": "",
          "type": "bool"
        }
      ],
      "stateMutability": "view",
      "type": "function",
      "constant": true
    },
    {
      "inputs": [],
      "name": "toggleContactStopped",
      "outputs": [],
      "stateMutability": "nonpayable",
      "type": "function"
    },
    {
      "inputs": [],
      "name": "autoDeprecate",
      "outputs": [],
      "stateMutability": "nonpayable",
      "type": "function"
    },
    {
      "inputs": [],
      "name": "hasExpired",
      "outputs": [
        {
          "internalType": "bool",
          "name": "",
          "type": "bool"
        }
      ],
      "stateMutability": "view",
      "type": "function",
      "constant": true
    },
    {
      "inputs": [],
      "name": "destroyContract",
      "outputs": [],
      "stateMutability": "nonpayable",
      "type": "function"
    },
    {
      "inputs": [],
      "name": "refundToken",
      "outputs": [],
      "stateMutability": "nonpayable",
      "type": "function"
    },
    {
      "inputs": [
        {
          "internalType": "uint256",
          "name": "recipientId",
          "type": "uint256"
        }
      ],
      "name": "withdrawTokens",
      "outputs": [],
      "stateMutability": "nonpayable",
      "type": "function"
    },
    {
      "inputs": [
        {
          "internalType": "uint256",
          "name": "recipientId",
          "type": "uint256"
        },
        {
          "internalType": "uint256",
          "name": "requestedAmt",
          "type": "uint256"
        },
        {
          "internalType": "uint256",
          "name": "deadline",
          "type": "uint256"
        },
        {
          "internalType": "string",
          "name": "category",
          "type": "string"
        }
      ],
      "name": "createRequest",
      "outputs": [
        {
          "internalType": "uint256",
          "name": "",
          "type": "uint256"
        }
      ],
      "stateMutability": "nonpayable",
      "type": "function"
    },
    {
      "inputs": [
        {
          "internalType": "string",
          "name": "name",
          "type": "string"
        }
      ],
      "name": "createRecipient",
      "outputs": [
        {
          "internalType": "uint256",
          "name": "",
          "type": "uint256"
        }
      ],
      "stateMutability": "nonpayable",
      "type": "function"
    },
    {
      "inputs": [
        {
          "internalType": "uint256",
          "name": "recipientId",
          "type": "uint256"
        },
        {
          "internalType": "uint256",
          "name": "listingId",
          "type": "uint256"
        },
        {
          "internalType": "uint256",
          "name": "requestId",
          "type": "uint256"
        }
      ],
      "name": "requestDonation",
      "outputs": [],
      "stateMutability": "nonpayable",
      "type": "function"
    },
    {
      "inputs": [
        {
          "internalType": "uint256",
          "name": "requestId",
          "type": "uint256"
        },
        {
          "internalType": "uint256",
          "name": "listingId",
          "type": "uint256"
        },
        {
          "internalType": "address",
          "name": "donorAddress",
          "type": "address"
        }
      ],
      "name": "completeRequest",
      "outputs": [],
      "stateMutability": "nonpayable",
      "type": "function"
    },
    {
      "inputs": [
        {
          "internalType": "uint256",
          "name": "recipientId",
          "type": "uint256"
        },
        {
          "internalType": "uint256",
          "name": "requestId",
          "type": "uint256"
        },
        {
          "internalType": "uint256",
          "name": "listingId",
          "type": "uint256"
        }
      ],
      "name": "cancelRequest",
      "outputs": [],
      "stateMutability": "nonpayable",
      "type": "function"
    },
    {
      "inputs": [
        {
          "internalType": "uint256",
          "name": "getterId",
          "type": "uint256"
        },
        {
          "internalType": "bool",
          "name": "getRequest",
          "type": "bool"
        }
      ],
      "name": "getRecipientRequest",
      "outputs": [
        {
          "internalType": "uint256[]",
          "name": "",
          "type": "uint256[]"
        }
      ],
      "stateMutability": "view",
      "type": "function",
      "constant": true
    }
  ],
  "bytecode": "0x60806040526000600360146101000a81548160ff0219169083151502179055506000600360156101000a81548160ff0219169083151502179055503480156200004757600080fd5b50604051620033fe380380620033fe833981810160405260608110156200006d57600080fd5b81019080805190602001909291908051906020019092919080519060200190929190505050826000806101000a81548173ffffffffffffffffffffffffffffffffffffffff021916908373ffffffffffffffffffffffffffffffffffffffff16021790555081600160006101000a81548173ffffffffffffffffffffffffffffffffffffffff021916908373ffffffffffffffffffffffffffffffffffffffff16021790555080600260006101000a81548173ffffffffffffffffffffffffffffffffffffffff021916908373ffffffffffffffffffffffffffffffffffffffff16021790555033600360006101000a81548173ffffffffffffffffffffffffffffffffffffffff021916908373ffffffffffffffffffffffffffffffffffffffff160217905550620001a5620001ae60201b60201c565b505050620001bc565b620151804201600481905550565b61323280620001cc6000396000f3fe608060405234801561001057600080fd5b50600436106100cf5760003560e01c8063750e6d091161008c5780639b11ef63116100665780639b11ef63146103cf578063a2b4d35d14610427578063c63a2abe14610469578063daea74c514610473576100cf565b8063750e6d091461036157806381d678741461036b57806390e64d13146103ad576100cf565b8063092a5cce146100d45780632444621d146100de578063305d22ba146101cb578063315a095d1461029a5780635cb732be146102c85780636cd9a5c3146102d2575b600080fd5b6100dc610495565b005b6101b5600480360360808110156100f457600080fd5b810190808035906020019092919080359060200190929190803590602001909291908035906020019064010000000081111561012f57600080fd5b82018360208201111561014157600080fd5b8035906020019184600183028401116401000000008311171561016357600080fd5b91908080601f016020809104026020016040519081016040528093929190818152602001838380828437600081840152601f19601f82011690508083019250505050505050919291929050505061057b565b6040518082815260200191505060405180910390f35b610284600480360360208110156101e157600080fd5b81019080803590602001906401000000008111156101fe57600080fd5b82018360208201111561021057600080fd5b8035906020019184600183028401116401000000008311171561023257600080fd5b91908080601f016020809104026020016040519081016040528093929190818152602001838380828437600081840152601f19601f820116905080830192505050505050509192919290505050610797565b6040518082815260200191505060405180910390f35b6102c6600480360360208110156102b057600080fd5b81019080803590602001909291905050506108ba565b005b6102d0610d9a565b005b61030a600480360360408110156102e857600080fd5b81019080803590602001909291908035151590602001909291905050506113d2565b6040518080602001828103825283818151815260200191508051906020019060200280838360005b8381101561034d578082015181840152602081019050610332565b505050509050019250505060405180910390f35b610369611a59565b005b6103ab6004803603606081101561038157600080fd5b81019080803590602001909291908035906020019092919080359060200190929190505050611b2b565b005b6103b5611f86565b604051808215151515815260200191505060405180910390f35b610425600480360360608110156103e557600080fd5b810190808035906020019092919080359060200190929190803573ffffffffffffffffffffffffffffffffffffffff169060200190929190505050611fa0565b005b6104676004803603606081101561043d57600080fd5b8101908080359060200190929190803590602001909291908035906020019092919050505061231a565b005b610471612f72565b005b61047b612f80565b604051808215151515815260200191505060405180910390f35b600360009054906101000a900473ffffffffffffffffffffffffffffffffffffffff1673ffffffffffffffffffffffffffffffffffffffff163373ffffffffffffffffffffffffffffffffffffffff161461053b576040517f08c379a000000000000000000000000000000000000000000000000000000000815260040180806020018281038252603481526020018061316e6034913960400191505060405180910390fd5b6000600360009054906101000a900473ffffffffffffffffffffffffffffffffffffffff1690508073ffffffffffffffffffffffffffffffffffffffff16ff5b6000600360009054906101000a900473ffffffffffffffffffffffffffffffffffffffff1673ffffffffffffffffffffffffffffffffffffffff163373ffffffffffffffffffffffffffffffffffffffff1614610623576040517f08c379a00000000000000000000000000000000000000000000000000000000081526004018080602001828103825260288152602001806131466028913960400191505060405180910390fd5b6000600260009054906101000a900473ffffffffffffffffffffffffffffffffffffffff1673ffffffffffffffffffffffffffffffffffffffff16632444621d878787876040518563ffffffff1660e01b81526004018085815260200184815260200183815260200180602001828103825283818151815260200191508051906020019080838360005b838110156106c85780820151818401526020810190506106ad565b50505050905090810190601f1680156106f55780820380516001836020036101000a031916815260200191505b5095505050505050602060405180830381600087803b15801561071757600080fd5b505af115801561072b573d6000803e3d6000fd5b505050506040513d602081101561074157600080fd5b810190808051906020019092919050505090507f699dfd68494cc1c8abe0e85d6558cac953158004b04955c390b59990b1d7163e816040518082815260200191505060405180910390a180915050949350505050565b600080600260009054906101000a900473ffffffffffffffffffffffffffffffffffffffff1673ffffffffffffffffffffffffffffffffffffffff1663305d22ba846040518263ffffffff1660e01b81526004018080602001828103825283818151815260200191508051906020019080838360005b8381101561082857808201518184015260208101905061080d565b50505050905090810190601f1680156108555780820380516001836020036101000a031916815260200191505b5092505050602060405180830381600087803b15801561087457600080fd5b505af1158015610888573d6000803e3d6000fd5b505050506040513d602081101561089e57600080fd5b8101908080519060200190929190505050905080915050919050565b803373ffffffffffffffffffffffffffffffffffffffff16600260009054906101000a900473ffffffffffffffffffffffffffffffffffffffff1673ffffffffffffffffffffffffffffffffffffffff1663e2918fca836040518263ffffffff1660e01b81526004018082815260200191505060206040518083038186803b15801561094557600080fd5b505afa158015610959573d6000803e3d6000fd5b505050506040513d602081101561096f57600080fd5b810190808051906020019092919050505073ffffffffffffffffffffffffffffffffffffffff1614610a09576040517f08c379a000000000000000000000000000000000000000000000000000000000815260040180806020018281038252601a8152602001807f796f7520617265206e6f742074686520726563697069656e742100000000000081525060200191505060405180910390fd5b81600260009054906101000a900473ffffffffffffffffffffffffffffffffffffffff1673ffffffffffffffffffffffffffffffffffffffff16632d30e6bf6040518163ffffffff1660e01b815260040160206040518083038186803b158015610a7257600080fd5b505afa158015610a86573d6000803e3d6000fd5b505050506040513d6020811015610a9c57600080fd5b8101908080519060200190929190505050811115610b22576040517f08c379a000000000000000000000000000000000000000000000000000000000815260040180806020018281038252601a8152602001807f726563697069656e74496420646f6573206e6f7420657869737400000000000081525060200191505060405180910390fd5b600360159054906101000a900460ff1615610ba5576040517f08c379a00000000000000000000000000000000000000000000000000000000081526004018080602001828103825260118152602001807f636f6e74726163742073746f707065642100000000000000000000000000000081525060200191505060405180910390fd5b600260009054906101000a900473ffffffffffffffffffffffffffffffffffffffff1673ffffffffffffffffffffffffffffffffffffffff166377a1a1bb846040518263ffffffff1660e01b815260040180828152602001915050600060405180830381600087803b158015610c1a57600080fd5b505af1158015610c2e573d6000803e3d6000fd5b505050506001600360146101000a81548160ff0219169083151502179055506000809054906101000a900473ffffffffffffffffffffffffffffffffffffffff1673ffffffffffffffffffffffffffffffffffffffff16635c7b79f56000809054906101000a900473ffffffffffffffffffffffffffffffffffffffff1673ffffffffffffffffffffffffffffffffffffffff16636cba62906040518163ffffffff1660e01b815260040160206040518083038186803b158015610cf157600080fd5b505afa158015610d05573d6000803e3d6000fd5b505050506040513d6020811015610d1b57600080fd5b81019080805190602001909291905050506040518263ffffffff1660e01b815260040180828152602001915050600060405180830381600087803b158015610d6257600080fd5b505af1158015610d76573d6000803e3d6000fd5b505050506000600360146101000a81548160ff021916908315150217905550505050565b610da2611f86565b610e14576040517f08c379a00000000000000000000000000000000000000000000000000000000081526004018080602001828103825260108152602001807f686173206e6f742065787069726564210000000000000000000000000000000081525060200191505060405180910390fd5b60008090505b600260009054906101000a900473ffffffffffffffffffffffffffffffffffffffff1673ffffffffffffffffffffffffffffffffffffffff16632d30e6bf6040518163ffffffff1660e01b815260040160206040518083038186803b158015610e8257600080fd5b505afa158015610e96573d6000803e3d6000fd5b505050506040513d6020811015610eac57600080fd5b81019080805190602001909291905050508110156113c7576060600260009054906101000a900473ffffffffffffffffffffffffffffffffffffffff1673ffffffffffffffffffffffffffffffffffffffff166370dfa336836040518263ffffffff1660e01b81526004018082815260200191505060006040518083038186803b158015610f3957600080fd5b505afa158015610f4d573d6000803e3d6000fd5b505050506040513d6000823e3d601f19601f820116820180604052506020811015610f7757600080fd5b8101908080516040519392919084640100000000821115610f9757600080fd5b83820191506020820185811115610fad57600080fd5b8251866020820283011164010000000082111715610fca57600080fd5b8083526020830192505050908051906020019060200280838360005b83811015611001578082015181840152602081019050610fe6565b50505050905001604052505050905060005b81518110156113b857600082828151811061102a57fe5b60200260200101519050600260009054906101000a900473ffffffffffffffffffffffffffffffffffffffff1673ffffffffffffffffffffffffffffffffffffffff1663f97a769e826040518263ffffffff1660e01b81526004018082815260200191505060206040518083038186803b1580156110a757600080fd5b505afa1580156110bb573d6000803e3d6000fd5b505050506040513d60208110156110d157600080fd5b81019080805190602001909291905050504211156113aa576000600260009054906101000a900473ffffffffffffffffffffffffffffffffffffffff1673ffffffffffffffffffffffffffffffffffffffff1663ab23075a836040518263ffffffff1660e01b81526004018082815260200191505060206040518083038186803b15801561115e57600080fd5b505afa158015611172573d6000803e3d6000fd5b505050506040513d602081101561118857600080fd5b81019080805190602001909291905050509050611300600260009054906101000a900473ffffffffffffffffffffffffffffffffffffffff1673ffffffffffffffffffffffffffffffffffffffff1663e2918fca876040518263ffffffff1660e01b81526004018082815260200191505060206040518083038186803b15801561121157600080fd5b505afa158015611225573d6000803e3d6000fd5b505050506040513d602081101561123b57600080fd5b8101908080519060200190929190505050600260009054906101000a900473ffffffffffffffffffffffffffffffffffffffff1673ffffffffffffffffffffffffffffffffffffffff1663cbbc88ff856040518263ffffffff1660e01b81526004018082815260200191505060206040518083038186803b1580156112bf57600080fd5b505afa1580156112d3573d6000803e3d6000fd5b505050506040513d60208110156112e957600080fd5b810190808051906020019092919050505083612f93565b6000600360146101000a81548160ff021916908315150217905550600260009054906101000a900473ffffffffffffffffffffffffffffffffffffffff1673ffffffffffffffffffffffffffffffffffffffff166377a1a1bb836040518263ffffffff1660e01b815260040180828152602001915050600060405180830381600087803b15801561139057600080fd5b505af11580156113a4573d6000803e3d6000fd5b50505050505b508080600101915050611013565b50508080600101915050610e1a565b506113d0612f72565b565b60606000600260009054906101000a900473ffffffffffffffffffffffffffffffffffffffff1673ffffffffffffffffffffffffffffffffffffffff1663edf35669856040518263ffffffff1660e01b81526004018082815260200191505060206040518083038186803b15801561144957600080fd5b505afa15801561145d573d6000803e3d6000fd5b505050506040513d602081101561147357600080fd5b810190808051906020019092919050505090508261153c57600260009054906101000a900473ffffffffffffffffffffffffffffffffffffffff1673ffffffffffffffffffffffffffffffffffffffff1663e173ed3a856040518263ffffffff1660e01b81526004018082815260200191505060206040518083038186803b1580156114fe57600080fd5b505afa158015611512573d6000803e3d6000fd5b505050506040513d602081101561152857600080fd5b810190808051906020019092919050505090505b6060600260009054906101000a900473ffffffffffffffffffffffffffffffffffffffff1673ffffffffffffffffffffffffffffffffffffffff1663d5e78829866040518263ffffffff1660e01b81526004018082815260200191505060006040518083038186803b1580156115b157600080fd5b505afa1580156115c5573d6000803e3d6000fd5b505050506040513d6000823e3d601f19601f8201168201806040525060208110156115ef57600080fd5b810190808051604051939291908464010000000082111561160f57600080fd5b8382019150602082018581111561162557600080fd5b825186602082028301116401000000008211171561164257600080fd5b8083526020830192505050908051906020019060200280838360005b8381101561167957808201518184015260208101905061165e565b505050509050016040525050509050836117d857600260009054906101000a900473ffffffffffffffffffffffffffffffffffffffff1673ffffffffffffffffffffffffffffffffffffffff16633df93440866040518263ffffffff1660e01b81526004018082815260200191505060006040518083038186803b15801561170057600080fd5b505afa158015611714573d6000803e3d6000fd5b505050506040513d6000823e3d601f19601f82011682018060405250602081101561173e57600080fd5b810190808051604051939291908464010000000082111561175e57600080fd5b8382019150602082018581111561177457600080fd5b825186602082028301116401000000008211171561179157600080fd5b8083526020830192505050908051906020019060200280838360005b838110156117c85780820151818401526020810190506117ad565b5050505090500160405250505090505b6060826040519080825280602002602001820160405280156118095781602001602082028038833980820191505090505b509050600080905060008090505b83518160ff161015611a4b578680156118f05750600260009054906101000a900473ffffffffffffffffffffffffffffffffffffffff1673ffffffffffffffffffffffffffffffffffffffff166384f601b5858360ff168151811061187857fe5b60200260200101516040518263ffffffff1660e01b81526004018082815260200191505060206040518083038186803b1580156118b457600080fd5b505afa1580156118c8573d6000803e3d6000fd5b505050506040513d60208110156118de57600080fd5b81019080805190602001909291905050505b1561193057838160ff168151811061190457fe5b6020026020010151838360ff168151811061191b57fe5b60200260200101818152505081806001019250505b861580156119fe5750600160009054906101000a900473ffffffffffffffffffffffffffffffffffffffff1673ffffffffffffffffffffffffffffffffffffffff16635443b28a858360ff168151811061198657fe5b60200260200101516040518263ffffffff1660e01b81526004018082815260200191505060206040518083038186803b1580156119c257600080fd5b505afa1580156119d6573d6000803e3d6000fd5b505050506040513d60208110156119ec57600080fd5b81019080805190602001909291905050505b15611a3e57838160ff1681518110611a1257fe5b6020026020010151838360ff1681518110611a2957fe5b60200260200101818152505081806001019250505b8080600101915050611817565b508194505050505092915050565b600360009054906101000a900473ffffffffffffffffffffffffffffffffffffffff1673ffffffffffffffffffffffffffffffffffffffff163373ffffffffffffffffffffffffffffffffffffffff1614611aff576040517f08c379a000000000000000000000000000000000000000000000000000000000815260040180806020018281038252603481526020018061316e6034913960400191505060405180910390fd5b600360159054906101000a900460ff1615600360156101000a81548160ff021916908315150217905550565b823373ffffffffffffffffffffffffffffffffffffffff16600260009054906101000a900473ffffffffffffffffffffffffffffffffffffffff1673ffffffffffffffffffffffffffffffffffffffff1663e2918fca836040518263ffffffff1660e01b81526004018082815260200191505060206040518083038186803b158015611bb657600080fd5b505afa158015611bca573d6000803e3d6000fd5b505050506040513d6020811015611be057600080fd5b810190808051906020019092919050505073ffffffffffffffffffffffffffffffffffffffff1614611c7a576040517f08c379a000000000000000000000000000000000000000000000000000000000815260040180806020018281038252601a8152602001807f796f7520617265206e6f742074686520726563697069656e742100000000000081525060200191505060405180910390fd5b83600260009054906101000a900473ffffffffffffffffffffffffffffffffffffffff1673ffffffffffffffffffffffffffffffffffffffff16632d30e6bf6040518163ffffffff1660e01b815260040160206040518083038186803b158015611ce357600080fd5b505afa158015611cf7573d6000803e3d6000fd5b505050506040513d6020811015611d0d57600080fd5b8101908080519060200190929190505050811115611d93576040517f08c379a000000000000000000000000000000000000000000000000000000000815260040180806020018281038252601a8152602001807f726563697069656e74496420646f6573206e6f7420657869737400000000000081525060200191505060405180910390fd5b611d9b611f86565b15611e0e576040517f08c379a000000000000000000000000000000000000000000000000000000000815260040180806020018281038252600b8152602001807f4e6f74206163746976652100000000000000000000000000000000000000000081525060200191505060405180910390fd5b600260009054906101000a900473ffffffffffffffffffffffffffffffffffffffff1673ffffffffffffffffffffffffffffffffffffffff166310a964cd85876040518363ffffffff1660e01b81526004018083815260200182815260200192505050600060405180830381600087803b158015611e8b57600080fd5b505af1158015611e9f573d6000803e3d6000fd5b50505050600160009054906101000a900473ffffffffffffffffffffffffffffffffffffffff1673ffffffffffffffffffffffffffffffffffffffff1663d586d2e485856040518363ffffffff1660e01b81526004018083815260200182815260200192505050600060405180830381600087803b158015611f2057600080fd5b505af1158015611f34573d6000803e3d6000fd5b505050507f95caf20d8475b875f07004c7dd4d0e9512024b7e9adb46efb855696ba84dc1e085858560405180848152602001838152602001828152602001935050505060405180910390a15050505050565b60006004544211611f98576000611f9b565b60015b905090565b600260009054906101000a900473ffffffffffffffffffffffffffffffffffffffff1673ffffffffffffffffffffffffffffffffffffffff16634281b46e846040518263ffffffff1660e01b815260040180828152602001915050600060405180830381600087803b15801561201557600080fd5b505af1158015612029573d6000803e3d6000fd5b505050506000839050600260009054906101000a900473ffffffffffffffffffffffffffffffffffffffff1673ffffffffffffffffffffffffffffffffffffffff16631da367128262093a8042016040518363ffffffff1660e01b81526004018083815260200182815260200192505050600060405180830381600087803b1580156120b457600080fd5b505af11580156120c8573d6000803e3d6000fd5b505050506000600260009054906101000a900473ffffffffffffffffffffffffffffffffffffffff1673ffffffffffffffffffffffffffffffffffffffff1663f97a769e836040518263ffffffff1660e01b81526004018082815260200191505060206040518083038186803b15801561214157600080fd5b505afa158015612155573d6000803e3d6000fd5b505050506040513d602081101561216b57600080fd5b81019080805190602001909291905050509050600260009054906101000a900473ffffffffffffffffffffffffffffffffffffffff1673ffffffffffffffffffffffffffffffffffffffff16639284b6c083856040518363ffffffff1660e01b8152600401808381526020018273ffffffffffffffffffffffffffffffffffffffff1673ffffffffffffffffffffffffffffffffffffffff16815260200192505050600060405180830381600087803b15801561222757600080fd5b505af115801561223b573d6000803e3d6000fd5b50505050600260009054906101000a900473ffffffffffffffffffffffffffffffffffffffff1673ffffffffffffffffffffffffffffffffffffffff166310a964cd86836040518363ffffffff1660e01b81526004018083815260200182815260200192505050600060405180830381600087803b1580156122bc57600080fd5b505af11580156122d0573d6000803e3d6000fd5b505050507f66ee80a9c7886990b70b5f9850020d35581c5e31eef6a488b084d305770518638585604051808381526020018281526020019250505060405180910390a15050505050565b823373ffffffffffffffffffffffffffffffffffffffff16600260009054906101000a900473ffffffffffffffffffffffffffffffffffffffff1673ffffffffffffffffffffffffffffffffffffffff1663e2918fca836040518263ffffffff1660e01b81526004018082815260200191505060206040518083038186803b1580156123a557600080fd5b505afa1580156123b9573d6000803e3d6000fd5b505050506040513d60208110156123cf57600080fd5b810190808051906020019092919050505073ffffffffffffffffffffffffffffffffffffffff1614612469576040517f08c379a000000000000000000000000000000000000000000000000000000000815260040180806020018281038252601a8152602001807f796f7520617265206e6f742074686520726563697069656e742100000000000081525060200191505060405180910390fd5b83600260009054906101000a900473ffffffffffffffffffffffffffffffffffffffff1673ffffffffffffffffffffffffffffffffffffffff16632d30e6bf6040518163ffffffff1660e01b815260040160206040518083038186803b1580156124d257600080fd5b505afa1580156124e6573d6000803e3d6000fd5b505050506040513d60208110156124fc57600080fd5b8101908080519060200190929190505050811115612582576040517f08c379a000000000000000000000000000000000000000000000000000000000815260040180806020018281038252601a8152602001807f726563697069656e74496420646f6573206e6f7420657869737400000000000081525060200191505060405180910390fd5b600260009054906101000a900473ffffffffffffffffffffffffffffffffffffffff1673ffffffffffffffffffffffffffffffffffffffff166384f601b5846040518263ffffffff1660e01b81526004018082815260200191505060206040518083038186803b1580156125f557600080fd5b505afa158015612609573d6000803e3d6000fd5b505050506040513d602081101561261f57600080fd5b81019080805190602001909291905050506126a2576040517f08c379a00000000000000000000000000000000000000000000000000000000081526004018080602001828103825260128152602001807f496e76616c69642052657175657374204944000000000000000000000000000081525060200191505060405180910390fd5b600260009054906101000a900473ffffffffffffffffffffffffffffffffffffffff1673ffffffffffffffffffffffffffffffffffffffff166367574fae846040518263ffffffff1660e01b81526004018082815260200191505060006040518083038186803b15801561271557600080fd5b505afa158015612729573d6000803e3d6000fd5b505050506040513d6000823e3d601f19601f82011682018060405250602081101561275357600080fd5b810190808051604051939291908464010000000082111561277357600080fd5b8382019150602082018581111561278957600080fd5b82518660018202830111640100000000821117156127a657600080fd5b8083526020830192505050908051906020019080838360005b838110156127da5780820151818401526020810190506127bf565b50505050905090810190601f1680156128075780820380516001836020036101000a031916815260200191505b506040525050506040516020018080602001828103825283818151815260200191508051906020019080838360005b83811015612851578082015181840152602081019050612836565b50505050905090810190601f16801561287e5780820380516001836020036101000a031916815260200191505b509250505060405160208183030381529060405280519060200120600160009054906101000a900473ffffffffffffffffffffffffffffffffffffffff1673ffffffffffffffffffffffffffffffffffffffff1663f3052d26866040518263ffffffff1660e01b81526004018082815260200191505060006040518083038186803b15801561290c57600080fd5b505afa158015612920573d6000803e3d6000fd5b505050506040513d6000823e3d601f19601f82011682018060405250602081101561294a57600080fd5b810190808051604051939291908464010000000082111561296a57600080fd5b8382019150602082018581111561298057600080fd5b825186600182028301116401000000008211171561299d57600080fd5b8083526020830192505050908051906020019080838360005b838110156129d15780820151818401526020810190506129b6565b50505050905090810190601f1680156129fe5780820380516001836020036101000a031916815260200191505b506040525050506040516020018080602001828103825283818151815260200191508051906020019080838360005b83811015612a48578082015181840152602081019050612a2d565b50505050905090810190601f168015612a755780820380516001836020036101000a031916815260200191505b50925050506040516020818303038152906040528051906020012014612ae6576040517f08c379a00000000000000000000000000000000000000000000000000000000081526004018080602001828103825260308152602001806131a26030913960400191505060405180910390fd5b600260009054906101000a900473ffffffffffffffffffffffffffffffffffffffff1673ffffffffffffffffffffffffffffffffffffffff16621aeccc84866040518363ffffffff1660e01b8152600401808381526020018281526020019250505060206040518083038186803b158015612b6057600080fd5b505afa158015612b74573d6000803e3d6000fd5b505050506040513d6020811015612b8a57600080fd5b810190808051906020019092919050505015612bf1576040517f08c379a000000000000000000000000000000000000000000000000000000000815260040180806020018281038252602b8152602001806131d2602b913960400191505060405180910390fd5b7fc99c4b11bab5cde0049c9b956725e9147bff43b1c4cb1e4bddd9be0e8a8d4f2e6001604051808215151515815260200191505060405180910390a16000600260009054906101000a900473ffffffffffffffffffffffffffffffffffffffff1673ffffffffffffffffffffffffffffffffffffffff166321206d41856040518263ffffffff1660e01b81526004018082815260200191505060206040518083038186803b158015612ca257600080fd5b505afa158015612cb6573d6000803e3d6000fd5b505050506040513d6020811015612ccc57600080fd5b810190808051906020019092919050505090506000600260009054906101000a900473ffffffffffffffffffffffffffffffffffffffff1673ffffffffffffffffffffffffffffffffffffffff16632f0829f7866040518263ffffffff1660e01b81526004018082815260200191505060206040518083038186803b158015612d5457600080fd5b505afa158015612d68573d6000803e3d6000fd5b505050506040513d6020811015612d7e57600080fd5b810190808051906020019092919050505090507f04516fbd732b0c5345eff6023477e30fcb40a512c2c6160a8d87c12dcbf589a58282604051808381526020018281526020019250505060405180910390a1600160009054906101000a900473ffffffffffffffffffffffffffffffffffffffff1673ffffffffffffffffffffffffffffffffffffffff166338442658878984868a6040518663ffffffff1660e01b81526004018086815260200185815260200184815260200183815260200182815260200195505050505050600060405180830381600087803b158015612e6557600080fd5b505af1158015612e79573d6000803e3d6000fd5b50505050600260009054906101000a900473ffffffffffffffffffffffffffffffffffffffff1673ffffffffffffffffffffffffffffffffffffffff166398fd199d86886040518363ffffffff1660e01b81526004018083815260200182815260200192505050600060405180830381600087803b158015612efa57600080fd5b505af1158015612f0e573d6000803e3d6000fd5b505050507fd0b673680a2738b1bfa82403b822c02162e9773454a93ee4452a3058282763128787838589604051808681526020018581526020018481526020018381526020018281526020019550505050505060405180910390a150505050505050565b620151804201600481905550565b600360159054906101000a900460ff1681565b600360149054906101000a900460ff1615613016576040517f08c379a000000000000000000000000000000000000000000000000000000000815260040180806020018281038252600e8152602001807f4e6f2072652d656e7472616e637900000000000000000000000000000000000081525060200191505060405180910390fd5b6001600360146101000a81548160ff0219169083151502179055506000809054906101000a900473ffffffffffffffffffffffffffffffffffffffff1673ffffffffffffffffffffffffffffffffffffffff1663f5537ede8484846040518463ffffffff1660e01b8152600401808473ffffffffffffffffffffffffffffffffffffffff1673ffffffffffffffffffffffffffffffffffffffff1681526020018373ffffffffffffffffffffffffffffffffffffffff1673ffffffffffffffffffffffffffffffffffffffff1681526020018281526020019350505050600060405180830381600087803b15801561310d57600080fd5b505af1158015613121573d6000803e3d6000fd5b505050506000600360146101000a81548160ff02191690831515021790555050505056fe796f7520617265206e6f7420616c6c6f77656420746f2075736520746869732066756e6374696f6e6f6e6c7920746865206f776e6572206f662074686520636f6e74726163742063616e2063616c6c2074686973206d6574686f6421796f7520617265206e6f7420656c696769626c6520746f207265717565737420666f722074686973206c697374696e67596f75206861766520616c72656164792072657175657374656420666f722074686973206c697374696e67a2646970667358221220cd60901a3745b177c3d3356c07219cbac20a981aa024436f9a1b4b90f8703b1564736f6c63430006010033",
  "source": "// SPDX-License-Identifier: MIT\r\npragma solidity >=0.6.1;\r\nimport \"./DonationMarket.sol\";\r\nimport \"./Token.sol\";\r\nimport \"./RecipientStorage.sol\";\r\n\r\ncontract Recipient {\r\n    Token tokenContract;\r\n    DonationMarket marketContract;\r\n    RecipientStorage recipientStorage;\r\n    address contractOwner;\r\n\r\n    bool internal locked = false;\r\n    bool public contractStopped = false;\r\n    uint256 constant wait_period = 7 days;\r\n    uint256 contract_maintenance; // time tracker, deprecate the withdrawToken() and check for expiration daily\r\n\r\n    constructor(\r\n        Token tokenAddress,\r\n        DonationMarket marketAddress,\r\n        RecipientStorage storageAddress\r\n    ) public {\r\n        tokenContract = tokenAddress;\r\n        marketContract = marketAddress;\r\n        recipientStorage = storageAddress;\r\n        contractOwner = msg.sender;\r\n        autoDeprecate(); // set daily contract check\r\n    }\r\n\r\n    //Access Restriction\r\n    //modifier to ensure a function is callable only by its owner\r\n    modifier ownerOnly(uint256 recipientId) {\r\n        require(\r\n            recipientStorage.getRecipientOwner(recipientId) == msg.sender,\r\n            \"you are not the recipient!\"\r\n        );\r\n        _;\r\n    }\r\n\r\n    modifier stoppedInEmergency() {\r\n        require(!contractStopped, \"contract stopped!\");\r\n        _;\r\n    }\r\n\r\n    modifier contractOwnerOnly() {\r\n        require(\r\n            msg.sender == contractOwner,\r\n            \"only the owner of the contract can call this method!\"\r\n        );\r\n        _;\r\n    }\r\n\r\n    modifier validRecipientId(uint256 recipientId) {\r\n        require(\r\n            recipientId <= recipientStorage.getTotalRecipients(),\r\n            \"recipientId does not exist\"\r\n        );\r\n        _;\r\n    }\r\n\r\n    modifier isActive() {\r\n        require(!hasExpired(), \"Not active!\");\r\n        _;\r\n    }\r\n\r\n    modifier whenDeprecated() {\r\n        require(hasExpired(), \"has not expired!\");\r\n        _;\r\n    }\r\n\r\n    // mutex: prevent re-entrant\r\n    modifier noReEntrant() {\r\n        require(!locked, \"No re-entrancy\");\r\n        locked = true;\r\n        _;\r\n        locked = false;\r\n    }\r\n    //Events\r\n    event requestedDonation(\r\n        uint256 recipientId,\r\n        uint256 listingId,\r\n        uint256 amt,\r\n        uint256 deadline,\r\n        uint256 requestId\r\n    );\r\n    event completedRequest(uint256 requestId, uint256 listingId);\r\n    event requestCreated(uint256 requestId);\r\n    event enteredRequest(bool entered);\r\n    event addingToMarket(uint256 deadline, uint256 amount);\r\n    event requestCancelled(\r\n        uint256 recipientId,\r\n        uint256 requestId,\r\n        uint256 listingId\r\n    );\r\n\r\n    //Security Functions\r\n\r\n    function toggleContactStopped() public contractOwnerOnly {\r\n        contractStopped = !contractStopped;\r\n    }\r\n\r\n    // deprecate daily to check if the token has expired before allowing withdrawal of tokens\r\n    function autoDeprecate() public {\r\n        contract_maintenance = block.timestamp + 1 days;\r\n    }\r\n\r\n    function hasExpired() public view returns (bool) {\r\n        return block.timestamp > contract_maintenance ? true : false;\r\n    }\r\n\r\n    // self-destruct function\r\n    function destroyContract() public contractOwnerOnly {\r\n        address payable receiver = payable(contractOwner);\r\n        selfdestruct(receiver);\r\n    }\r\n\r\n    //Core Functions\r\n    //function to create a new recipient, and add to 'recipients' map\r\n\r\n    // separate the payment to check for re-entrant\r\n    //Functions are private so that it can only be used internally and not even by derived contracts\r\n    function transferPayment(\r\n        address sender,\r\n        address receiver,\r\n        uint256 token\r\n    ) private noReEntrant {\r\n        tokenContract.transferToken(sender, receiver, token);\r\n    }\r\n\r\n    //Functions that will refund tokens if the approved request expired\r\n    //Expired meaning donor approve request, requested tokens are transfered to recipient but recipient did not cash out within 7 days)\r\n    function refundToken() public whenDeprecated {\r\n        for (\r\n            uint256 recId = 0;\r\n            recId < recipientStorage.getTotalRecipients();\r\n            recId++\r\n        ) {\r\n            //since recipeint start from id 0\r\n            uint256[] memory withdrawals = recipientStorage\r\n                .getRecipientWithdrawals(recId);\r\n            for (uint256 req; req < withdrawals.length; req++) {\r\n                uint256 withdrawalId = withdrawals[req];\r\n                if (\r\n                    block.timestamp >\r\n                    recipientStorage.getWithdrawalRecipient(withdrawalId)\r\n                ) {\r\n                    // passed the 7 days idle treshold\r\n                    uint256 amt = recipientStorage.getWithdrawalAmount(\r\n                        withdrawalId\r\n                    );\r\n                    transferPayment(\r\n                        recipientStorage.getRecipientOwner(recId),\r\n                        recipientStorage.getWithdrawalDonor(withdrawalId),\r\n                        amt\r\n                    ); // return the expired tokens to the donor of the tokens (currently is marketcontract first)\r\n\r\n                    locked = false;\r\n\r\n                    recipientStorage.removeWithdrawal(withdrawalId);\r\n                }\r\n            }\r\n        }\r\n\r\n        autoDeprecate(); // reset the daily auto deprecation time\r\n    }\r\n\r\n    // allow recipient to withdraw tokens\r\n    function withdrawTokens(uint256 recipientId)\r\n        public\r\n        ownerOnly(recipientId)\r\n        validRecipientId(recipientId)\r\n        stoppedInEmergency\r\n    {\r\n        recipientStorage.removeWithdrawal(recipientId);\r\n        locked = true;\r\n        tokenContract.cashOut(tokenContract.checkCredit());\r\n        // unlock after the transaction is completed\r\n        locked = false;\r\n    }\r\n\r\n    //when developer (oracle) approve of the proof of usage, it will be tagged to a request to prevent duplicative usage of proof of usage\r\n    function createRequest(\r\n        uint256 recipientId,\r\n        uint256 requestedAmt,\r\n        uint256 deadline,\r\n        string memory category\r\n    ) public returns (uint256) {\r\n        require(\r\n            msg.sender == contractOwner,\r\n            \"you are not allowed to use this function\"\r\n        );\r\n        uint256 requestId = recipientStorage.createRequest(\r\n            recipientId,\r\n            requestedAmt,\r\n            deadline,\r\n            category\r\n        );\r\n        emit requestCreated(requestId);\r\n        return requestId;\r\n    }\r\n\r\n    //functions to create recipient\r\n    function createRecipient(string memory name) public returns (uint256) {\r\n        uint256 newRecipientId = recipientStorage.createRecipient(name);\r\n        return newRecipientId;\r\n    }\r\n\r\n    // allow recipeint to use their approved requestID to request for listing in donationMarket\r\n    function requestDonation(\r\n        uint256 recipientId,\r\n        uint256 listingId,\r\n        uint256 requestId\r\n    ) public ownerOnly(recipientId) validRecipientId(recipientId) {\r\n        //checks\r\n        require(\r\n            recipientStorage.checkRequestValidity(requestId),\r\n            \"Invalid Request ID\"\r\n        );\r\n        require(\r\n            keccak256(abi.encode(marketContract.getCategory(listingId))) ==\r\n                keccak256(\r\n                    abi.encode(recipientStorage.getRequestCategory(requestId))\r\n                ),\r\n            \"you are not eligible to request for this listing\"\r\n        );\r\n        require(\r\n            !recipientStorage.verifyRequestListing(requestId, listingId),\r\n            \"You have already requested for this listing\"\r\n        );\r\n        emit enteredRequest(true);\r\n\r\n        uint256 deadline = recipientStorage.getRequestDeadline(requestId);\r\n        uint256 amount = recipientStorage.getRequestAmount(requestId);\r\n\r\n        emit addingToMarket(deadline, amount);\r\n\r\n        marketContract.addRequest(\r\n            listingId,\r\n            recipientId,\r\n            amount,\r\n            deadline,\r\n            requestId\r\n        );\r\n        recipientStorage.addListingToRequest(requestId, listingId);\r\n        // recipients[recipientId].state = recipientState.requesting;\r\n        emit requestedDonation(\r\n            recipientId,\r\n            listingId,\r\n            amount,\r\n            deadline,\r\n            requestId\r\n        );\r\n    }\r\n\r\n    // Request is completed meaning donor approved request and transfer requested tokens to recipient\r\n    function completeRequest(\r\n        uint256 requestId,\r\n        uint256 listingId,\r\n        address donorAddress\r\n    ) public {\r\n        recipientStorage.createWithdrawal(requestId); // add withdrawal\r\n        uint256 withdrawalId = requestId;\r\n        recipientStorage.addWithdrawalExpiry(\r\n            withdrawalId,\r\n            block.timestamp + wait_period\r\n        ); // withdrawal of tokens allowed for 7 days from time of completion\r\n\r\n        // get recipient of withdrawal\r\n        uint256 recipientId = recipientStorage.getWithdrawalRecipient(\r\n            withdrawalId\r\n        );\r\n\r\n        // facilitate withdrawal\r\n        recipientStorage.addWithdrawalRefundAddress(withdrawalId, donorAddress);\r\n        // remove request\r\n        recipientStorage.removeRequest(requestId, recipientId);\r\n\r\n        emit completedRequest(requestId, listingId);\r\n    }\r\n\r\n    function cancelRequest(\r\n        uint256 recipientId,\r\n        uint256 requestId,\r\n        uint256 listingId\r\n    ) public ownerOnly(recipientId) validRecipientId(recipientId) isActive {\r\n        recipientStorage.removeRequest(requestId, recipientId);\r\n        marketContract.cancelRequest(requestId, listingId);\r\n        emit requestCancelled(recipientId, requestId, listingId);\r\n    }\r\n\r\n    //GETTER FUNCTIONS\r\n    //If True: getter functions to help recipients keep track of their active requests  in Frontend\r\n    // else : getter function to help recipeints keep track of the active listing each requestID has requested in Frontend\r\n    function getRecipientRequest(uint256 getterId, bool getRequest)\r\n        public\r\n        view\r\n        returns (uint256[] memory)\r\n    {\r\n        uint256 resultLength = recipientStorage.getNumActiveRequest(getterId);\r\n        if (!getRequest) {\r\n            resultLength = recipientStorage.getNumListing(getterId);\r\n        }\r\n        uint256[] memory allIds = recipientStorage.getRequests(getterId);\r\n        if (!getRequest) {\r\n            allIds = recipientStorage.getRequestedListing(getterId);\r\n        }\r\n        uint256[] memory active = new uint256[](resultLength);\r\n        uint8 counter = 0;\r\n\r\n        for (uint8 i = 0; i < allIds.length; i++) {\r\n            if (\r\n                getRequest && recipientStorage.checkRequestValidity(allIds[i])\r\n            ) {\r\n                active[counter] = allIds[i];\r\n                counter++;\r\n            }\r\n            if (!getRequest && marketContract.checkListing(allIds[i])) {\r\n                active[counter] = allIds[i];\r\n                counter++;\r\n            }\r\n        }\r\n        return active;\r\n    }\r\n}\r\n",
  "sourcePath": "C:\\Users\\geral\\Desktop\\NUS\\Y3S2\\IS4302\\Project\\IS4302_GRP6\\contracts\\Recipient.sol",
  "compiler": {
    "name": "solc",
    "version": "0.6.1+commit.e6f7d5a4.Emscripten.clang"
  },
  "schemaVersion": "3.4.4",
  "updatedAt": "2022-04-14T09:40:36.075Z",
  "networkType": "ethereum",
  "devdoc": {
    "methods": {}
  },
  "userdoc": {
    "methods": {}
  }
}