{
  "contractName": "RecipientStorage",
  "abi": [
    {
      "anonymous": false,
      "inputs": [
        {
          "indexed": false,
          "internalType": "uint256[]",
          "name": "activeRequests",
          "type": "uint256[]"
        }
      ],
      "name": "pushedToActive",
      "type": "event"
    },
    {
      "inputs": [
        {
          "internalType": "string",
          "name": "name",
          "type": "string"
        },
        {
          "internalType": "string",
          "name": "password",
          "type": "string"
        }
      ],
      "name": "createRecipient",
      "outputs": [
        {
          "internalType": "uint256",
          "name": "",
          "type": "uint256"
        }
      ],
      "stateMutability": "nonpayable",
      "type": "function"
    },
    {
      "inputs": [
        {
          "internalType": "uint256",
          "name": "recipientId",
          "type": "uint256"
        },
        {
          "internalType": "uint256",
          "name": "requestedAmt",
          "type": "uint256"
        },
        {
          "internalType": "uint8",
          "name": "deadline",
          "type": "uint8"
        },
        {
          "internalType": "string",
          "name": "category",
          "type": "string"
        }
      ],
      "name": "createRequest",
      "outputs": [
        {
          "internalType": "uint256",
          "name": "",
          "type": "uint256"
        }
      ],
      "stateMutability": "nonpayable",
      "type": "function"
    },
    {
      "inputs": [
        {
          "internalType": "uint256",
          "name": "requestId",
          "type": "uint256"
        }
      ],
      "name": "createWithdrawal",
      "outputs": [],
      "stateMutability": "nonpayable",
      "type": "function"
    },
    {
      "inputs": [
        {
          "internalType": "uint256",
          "name": "recipientId",
          "type": "uint256"
        }
      ],
      "name": "getRecipientOwner",
      "outputs": [
        {
          "internalType": "address",
          "name": "",
          "type": "address"
        }
      ],
      "stateMutability": "view",
      "type": "function",
      "constant": true
    },
    {
      "inputs": [
        {
          "internalType": "uint256",
          "name": "recipientId",
          "type": "uint256"
        }
      ],
      "name": "getRecipientWallet",
      "outputs": [
        {
          "internalType": "uint256",
          "name": "",
          "type": "uint256"
        }
      ],
      "stateMutability": "view",
      "type": "function",
      "constant": true
    },
    {
      "inputs": [
        {
          "internalType": "uint256",
          "name": "recipientId",
          "type": "uint256"
        }
      ],
      "name": "getRecipientWithdrawals",
      "outputs": [
        {
          "internalType": "uint256[]",
          "name": "",
          "type": "uint256[]"
        }
      ],
      "stateMutability": "view",
      "type": "function",
      "constant": true
    },
    {
      "inputs": [],
      "name": "getTotalRecipients",
      "outputs": [
        {
          "internalType": "uint256",
          "name": "",
          "type": "uint256"
        }
      ],
      "stateMutability": "view",
      "type": "function",
      "constant": true
    },
    {
      "inputs": [
        {
          "internalType": "uint256",
          "name": "recipientId",
          "type": "uint256"
        }
      ],
      "name": "getRequests",
      "outputs": [
        {
          "internalType": "uint256[]",
          "name": "",
          "type": "uint256[]"
        }
      ],
      "stateMutability": "view",
      "type": "function",
      "constant": true
    },
    {
      "inputs": [
        {
          "internalType": "uint256",
          "name": "recipientId",
          "type": "uint256"
        },
        {
          "internalType": "uint256",
          "name": "amount",
          "type": "uint256"
        },
        {
          "internalType": "string",
          "name": "operation",
          "type": "string"
        }
      ],
      "name": "modifyRecipientWallet",
      "outputs": [],
      "stateMutability": "nonpayable",
      "type": "function"
    },
    {
      "inputs": [
        {
          "internalType": "uint256",
          "name": "recipientId",
          "type": "uint256"
        }
      ],
      "name": "emptyRecipientWallet",
      "outputs": [
        {
          "internalType": "uint256",
          "name": "",
          "type": "uint256"
        }
      ],
      "stateMutability": "nonpayable",
      "type": "function"
    },
    {
      "inputs": [
        {
          "internalType": "uint256",
          "name": "requestId",
          "type": "uint256"
        }
      ],
      "name": "getRequestCategory",
      "outputs": [
        {
          "internalType": "string",
          "name": "",
          "type": "string"
        }
      ],
      "stateMutability": "view",
      "type": "function",
      "constant": true
    },
    {
      "inputs": [
        {
          "internalType": "uint256",
          "name": "requestId",
          "type": "uint256"
        }
      ],
      "name": "getRequestAmount",
      "outputs": [
        {
          "internalType": "uint256",
          "name": "",
          "type": "uint256"
        }
      ],
      "stateMutability": "view",
      "type": "function",
      "constant": true
    },
    {
      "inputs": [
        {
          "internalType": "uint256",
          "name": "requestId",
          "type": "uint256"
        }
      ],
      "name": "getRequestDeadline",
      "outputs": [
        {
          "internalType": "uint8",
          "name": "",
          "type": "uint8"
        }
      ],
      "stateMutability": "view",
      "type": "function",
      "constant": true
    },
    {
      "inputs": [
        {
          "internalType": "uint256",
          "name": "requestId",
          "type": "uint256"
        }
      ],
      "name": "checkRequestValidity",
      "outputs": [
        {
          "internalType": "bool",
          "name": "",
          "type": "bool"
        }
      ],
      "stateMutability": "view",
      "type": "function",
      "constant": true
    },
    {
      "inputs": [
        {
          "internalType": "uint256",
          "name": "requestId",
          "type": "uint256"
        },
        {
          "internalType": "uint256",
          "name": "listingId",
          "type": "uint256"
        }
      ],
      "name": "addListingToRequest",
      "outputs": [],
      "stateMutability": "nonpayable",
      "type": "function"
    },
    {
      "inputs": [
        {
          "internalType": "uint256",
          "name": "withdrawalID",
          "type": "uint256"
        }
      ],
      "name": "getWithdrawalRecipient",
      "outputs": [
        {
          "internalType": "uint256",
          "name": "",
          "type": "uint256"
        }
      ],
      "stateMutability": "view",
      "type": "function",
      "constant": true
    },
    {
      "inputs": [
        {
          "internalType": "uint256",
          "name": "withdrawalID",
          "type": "uint256"
        }
      ],
      "name": "getWithdrawalAmount",
      "outputs": [
        {
          "internalType": "uint256",
          "name": "",
          "type": "uint256"
        }
      ],
      "stateMutability": "view",
      "type": "function",
      "constant": true
    },
    {
      "inputs": [
        {
          "internalType": "uint256",
          "name": "withdrawalID",
          "type": "uint256"
        }
      ],
      "name": "getWithdrawalExpiry",
      "outputs": [
        {
          "internalType": "uint256",
          "name": "",
          "type": "uint256"
        }
      ],
      "stateMutability": "view",
      "type": "function",
      "constant": true
    },
    {
      "inputs": [
        {
          "internalType": "uint256",
          "name": "requestId",
          "type": "uint256"
        }
      ],
      "name": "getWithdrawalDonor",
      "outputs": [
        {
          "internalType": "address",
          "name": "",
          "type": "address"
        }
      ],
      "stateMutability": "view",
      "type": "function",
      "constant": true
    },
    {
      "inputs": [
        {
          "internalType": "uint256",
          "name": "withdrawalId",
          "type": "uint256"
        },
        {
          "internalType": "uint256",
          "name": "expiry",
          "type": "uint256"
        }
      ],
      "name": "addWithdrawalExpiry",
      "outputs": [],
      "stateMutability": "nonpayable",
      "type": "function"
    },
    {
      "inputs": [
        {
          "internalType": "uint256",
          "name": "withdrawalId",
          "type": "uint256"
        },
        {
          "internalType": "address",
          "name": "add",
          "type": "address"
        }
      ],
      "name": "addWithdrawalRefundAddress",
      "outputs": [],
      "stateMutability": "nonpayable",
      "type": "function"
    },
    {
      "inputs": [
        {
          "internalType": "uint256",
          "name": "requestId",
          "type": "uint256"
        }
      ],
      "name": "removeRequest",
      "outputs": [],
      "stateMutability": "nonpayable",
      "type": "function"
    },
    {
      "inputs": [
        {
          "internalType": "uint256",
          "name": "withdrawalId",
          "type": "uint256"
        }
      ],
      "name": "removeWithdrawal",
      "outputs": [],
      "stateMutability": "nonpayable",
      "type": "function"
    },
    {
      "inputs": [
        {
          "internalType": "uint256",
          "name": "requestId",
          "type": "uint256"
        },
        {
          "internalType": "uint256",
          "name": "listingId",
          "type": "uint256"
        }
      ],
      "name": "verifyRequestListing",
      "outputs": [
        {
          "internalType": "bool",
          "name": "",
          "type": "bool"
        }
      ],
      "stateMutability": "view",
      "type": "function",
      "constant": true
    }
  ],
  "bytecode": "0x6080604052336000806101000a81548173ffffffffffffffffffffffffffffffffffffffff021916908373ffffffffffffffffffffffffffffffffffffffff1602179055506000600155600060025534801561005a57600080fd5b506118a78061006a6000396000f3fe608060405234801561001057600080fd5b50600436106101575760003560e01c806377a1a1bb116100c3578063ab23075a1161007c578063ab23075a14610791578063b5d80b37146107d3578063cbbc88ff14610939578063d5e78829146109a7578063e2918fca14610a2a578063f97a769e14610a9857610157565b806377a1a1bb1461061357806384f601b5146106415780639284b6c01461068757806398fd199d146106d55780639ccbba741461070d578063aa65227b1461074f57610157565b806344786fc31161011557806344786fc3146102ba578063452a5438146102e85780635ca63eb9146103d857806367574fae146104a75780636f40d81e1461054e57806370dfa3361461059057610157565b80621aeccc1461015c5780631da36712146101ac57806321206d41146101e45780632d30e6bf1461022c5780632f0829f71461024a5780634281b46e1461028c575b600080fd5b6101926004803603604081101561017257600080fd5b810190808035906020019092919080359060200190929190505050610ada565b604051808215151515815260200191505060405180910390f35b6101e2600480360360408110156101c257600080fd5b810190808035906020019092919080359060200190929190505050610b5f565b005b610210600480360360208110156101fa57600080fd5b8101908080359060200190929190505050610b7e565b604051808260ff1660ff16815260200191505060405180910390f35b610234610bab565b6040518082815260200191505060405180910390f35b6102766004803603602081101561026057600080fd5b8101908080359060200190929190505050610bb5565b6040518082815260200191505060405180910390f35b6102b8600480360360208110156102a257600080fd5b8101908080359060200190929190505050610bd5565b005b6102e6600480360360208110156102d057600080fd5b8101908080359060200190929190505050610cd9565b005b6103c2600480360360808110156102fe57600080fd5b810190808035906020019092919080359060200190929190803560ff1690602001909291908035906020019064010000000081111561033c57600080fd5b82018360208201111561034e57600080fd5b8035906020019184600183028401116401000000008311171561037057600080fd5b91908080601f016020809104026020016040519081016040528093929190818152602001838380828437600081840152601f19601f820116905080830192505050505050509192919290505050610d52565b6040518082815260200191505060405180910390f35b6104a5600480360360608110156103ee57600080fd5b8101908080359060200190929190803590602001909291908035906020019064010000000081111561041f57600080fd5b82018360208201111561043157600080fd5b8035906020019184600183028401116401000000008311171561045357600080fd5b91908080601f016020809104026020016040519081016040528093929190818152602001838380828437600081840152601f19601f820116905080830192505050505050509192919290505050610ff8565b005b6104d3600480360360208110156104bd57600080fd5b810190808035906020019092919050505061110a565b6040518080602001828103825283818151815260200191508051906020019080838360005b838110156105135780820151818401526020810190506104f8565b50505050905090810190601f1680156105405780820380516001836020036101000a031916815260200191505b509250505060405180910390f35b61057a6004803603602081101561056457600080fd5b81019080803590602001909291905050506111c2565b6040518082815260200191505060405180910390f35b6105bc600480360360208110156105a657600080fd5b81019080803590602001909291905050506111e2565b6040518080602001828103825283818151815260200191508051906020019060200280838360005b838110156105ff5780820151818401526020810190506105e4565b505050509050019250505060405180910390f35b61063f6004803603602081101561062957600080fd5b8101908080359060200190929190505050611250565b005b61066d6004803603602081101561065757600080fd5b81019080803590602001909291905050506112b0565b604051808215151515815260200191505060405180910390f35b6106d36004803603604081101561069d57600080fd5b8101908080359060200190929190803573ffffffffffffffffffffffffffffffffffffffff1690602001909291905050506112dd565b005b61070b600480360360408110156106eb57600080fd5b810190808035906020019092919080359060200190929190505050611336565b005b6107396004803603602081101561072357600080fd5b8101908080359060200190929190505050611377565b6040518082815260200191505060405180910390f35b61077b6004803603602081101561076557600080fd5b8101908080359060200190929190505050611397565b6040518082815260200191505060405180910390f35b6107bd600480360360208110156107a757600080fd5b810190808035906020019092919050505061141b565b6040518082815260200191505060405180910390f35b610923600480360360408110156107e957600080fd5b810190808035906020019064010000000081111561080657600080fd5b82018360208201111561081857600080fd5b8035906020019184600183028401116401000000008311171561083a57600080fd5b91908080601f016020809104026020016040519081016040528093929190818152602001838380828437600081840152601f19601f8201169050808301925050505050505091929192908035906020019064010000000081111561089d57600080fd5b8201836020820111156108af57600080fd5b803590602001918460018302840111640100000000831117156108d157600080fd5b91908080601f016020809104026020016040519081016040528093929190818152602001838380828437600081840152601f19601f82011690508083019250505050505050919291929050505061143b565b6040518082815260200191505060405180910390f35b6109656004803603602081101561094f57600080fd5b810190808035906020019092919050505061158c565b604051808273ffffffffffffffffffffffffffffffffffffffff1673ffffffffffffffffffffffffffffffffffffffff16815260200191505060405180910390f35b6109d3600480360360208110156109bd57600080fd5b81019080803590602001909291905050506115cc565b6040518080602001828103825283818151815260200191508051906020019060200280838360005b83811015610a165780820151818401526020810190506109fb565b505050509050019250505060405180910390f35b610a5660048036036020811015610a4057600080fd5b810190808035906020019092919050505061163a565b604051808273ffffffffffffffffffffffffffffffffffffffff1673ffffffffffffffffffffffffffffffffffffffff16815260200191505060405180910390f35b610ac460048036036020811015610aae57600080fd5b810190808035906020019092919050505061167a565b6040518082815260200191505060405180910390f35b6000806000905060005b60046000868152602001908152602001600020600201805490508160ff161015610b545783600460008781526020019081526020016000206002018260ff1681548110610b2d57fe5b90600052602060002001541415610b475760019150610b54565b8080600101915050610ae4565b508091505092915050565b8060056000848152602001908152602001600020600301819055505050565b60006004600083815260200190815260200160002060040160009054906101000a900460ff169050919050565b6000600154905090565b600060046000838152602001908152602001600020600301549050919050565b60008190506000600460008481526020019081526020016000206001015490506000600460008581526020019081526020016000206003015490506040518060a00160405280848152602001838152602001828152602001428152602001600073ffffffffffffffffffffffffffffffffffffffff16815250600560008581526020019081526020016000206000820151816000015560208201518160010155604082015181600201556060820151816003015560808201518160040160006101000a81548173ffffffffffffffffffffffffffffffffffffffff021916908373ffffffffffffffffffffffffffffffffffffffff16021790555090505050505050565b600460008281526020019081526020016000206000808201600090556001820160009055600282016000610d0d919061169a565b60038201600090556004820160006101000a81549060ff0219169055600582016000610d3991906116bb565b6006820160006101000a81549060ff0219169055505050565b6000808411610dac576040517f08c379a00000000000000000000000000000000000000000000000000000000081526004018080602001828103825260308152602001806118426030913960400191505060405180910390fd5b60648410610e22576040517f08c379a000000000000000000000000000000000000000000000000000000000815260040180806020018281038252601c8152602001807f52657175657374656420416d6f756e74656420686974206c696d69740000000081525060200191505060405180910390fd5b600060025490506001600260008282540192505081905550600360008781526020019081526020016000206004018190806001815401808255809150506001900390600052602060002001600090919091909150557fa3ece8d204a5e4c14b9d3d484c0d6672ecf727fb081fd44af821cf15adc004d86003600088815260200190815260200160002060040160405180806020018281038252838181548152602001915080548015610ef357602002820191906000526020600020905b815481526020019060010190808311610edf575b50509250505060405180910390a160606040518060e001604052808381526020018881526020018281526020018781526020018660ff168152602001858152602001600115158152506004600084815260200190815260200160002060008201518160000155602082015181600101556040820151816002019080519060200190610f7f929190611703565b506060820151816003015560808201518160040160006101000a81548160ff021916908360ff16021790555060a0820151816005019080519060200190610fc7929190611750565b5060c08201518160060160006101000a81548160ff0219169083151502179055509050508192505050949350505050565b60405160200180807f2b00000000000000000000000000000000000000000000000000000000000000815250600101905060405160208183030381529060405280519060200120816040516020018082805190602001908083835b602083106110765780518252602082019150602081019050602083039250611053565b6001836020036101000a0380198251168184511680821785525050505050509050019150506040516020818303038152906040528051906020012014156110e057816003600085815260200190815260200160002060030160008282540192505081905550611105565b8160036000858152602001908152602001600020600301600082825403925050819055505b505050565b6060600460008381526020019081526020016000206005018054600181600116156101000203166002900480601f0160208091040260200160405190810160405280929190818152602001828054600181600116156101000203166002900480156111b65780601f1061118b576101008083540402835291602001916111b6565b820191906000526020600020905b81548152906001019060200180831161119957829003601f168201915b50505050509050919050565b600060056000838152602001908152602001600020600301549050919050565b60606003600083815260200190815260200160002060050180548060200260200160405190810160405280929190818152602001828054801561124457602002820191906000526020600020905b815481526020019060010190808311611230575b50505050509050919050565b600560008281526020019081526020016000206000808201600090556001820160009055600282016000905560038201600090556004820160006101000a81549073ffffffffffffffffffffffffffffffffffffffff0219169055505050565b60006004600083815260200190815260200160002060060160009054906101000a900460ff169050919050565b806005600084815260200190815260200160002060040160006101000a81548173ffffffffffffffffffffffffffffffffffffffff021916908373ffffffffffffffffffffffffffffffffffffffff1602179055505050565b600460008381526020019081526020016000206002018190806001815401808255809150506001900390600052602060002001600090919091909150555050565b600060036000838152602001908152602001600020600301549050919050565b6000813273ffffffffffffffffffffffffffffffffffffffff166113ba8261163a565b73ffffffffffffffffffffffffffffffffffffffff16146113da57600080fd5b600060036000858152602001908152602001600020600301549050600060036000868152602001908152602001600020600301819055508092505050919050565b600060056000838152602001908152602001600020600201549050919050565b60006060806114486117d0565b6040518060c001604052803273ffffffffffffffffffffffffffffffffffffffff16815260200187815260200186815260200160008152602001848152602001838152509050600060016000815480929190600101919050559050816003600083815260200190815260200160002060008201518160000160006101000a81548173ffffffffffffffffffffffffffffffffffffffff021916908373ffffffffffffffffffffffffffffffffffffffff160217905550602082015181600101908051906020019061151a929190611750565b506040820151816002019080519060200190611537929190611750565b5060608201518160030155608082015181600401908051906020019061155e929190611703565b5060a082015181600501908051906020019061157b929190611703565b509050508094505050505092915050565b60006005600083815260200190815260200160002060040160009054906101000a900473ffffffffffffffffffffffffffffffffffffffff169050919050565b60606003600083815260200190815260200160002060040180548060200260200160405190810160405280929190818152602001828054801561162e57602002820191906000526020600020905b81548152602001906001019080831161161a575b50505050509050919050565b60006003600083815260200190815260200160002060000160009054906101000a900473ffffffffffffffffffffffffffffffffffffffff169050919050565b600060056000838152602001908152602001600020600101549050919050565b50805460008255906000526020600020908101906116b8919061181c565b50565b50805460018160011615610100020316600290046000825580601f106116e15750611700565b601f0160209004906000526020600020908101906116ff919061181c565b5b50565b82805482825590600052602060002090810192821561173f579160200282015b8281111561173e578251825591602001919060010190611723565b5b50905061174c919061181c565b5090565b828054600181600116156101000203166002900490600052602060002090601f016020900481019282601f1061179157805160ff19168380011785556117bf565b828001600101855582156117bf579182015b828111156117be5782518255916020019190600101906117a3565b5b5090506117cc919061181c565b5090565b6040518060c00160405280600073ffffffffffffffffffffffffffffffffffffffff16815260200160608152602001606081526020016000815260200160608152602001606081525090565b61183e91905b8082111561183a576000816000905550600101611822565b5090565b9056fe6d696e696d756d2072657175657374206e65656420746f20636f6e7461696e206174206c65617374203120546f6b656ea2646970667358221220816c87c3c7cc69118736f458ff83b4ec6cb70dbc597e5f140dae3d744b573bad64736f6c63430006010033",
  "source": "// SPDX-License-Identifier: MIT\r\npragma solidity >=0.6.1;\r\n\r\ncontract RecipientStorage {\r\n\r\n    // should we use this state for requests instead? cos since each recipient has multiple \r\n    enum requestState {created, requesting, receivedDonation, expiredRequest}\r\n\r\n    // unique beneficiary\r\n    struct recipient {\r\n        // recipientState state;\r\n        address owner;\r\n        string username;\r\n        string pw;\r\n        uint256 wallet; // amt of ether in wallet\r\n        uint256[] activeRequests;\r\n        uint256[] withdrawals;\r\n    }\r\n\r\n    // unique instance of required donation\r\n    struct request {\r\n        uint256 requestID;\r\n        uint256 recipientId;\r\n        uint256[] listingsId;\r\n        uint256 amt;\r\n        uint8 deadline;\r\n        string category;\r\n        bool isValue; \r\n    }\r\n\r\n    // unique instance of a completed donation converted into a request for withdrawal into funds \r\n    struct withdrawal {\r\n        uint256 withdrawalID;\r\n        uint256 recipientId;\r\n        uint256 amt;\r\n        uint expireAt; // time from approved to expired \r\n        address donorAddress; // to refund the tokens after the expiration date\r\n    }\r\n\r\n    address owner = msg.sender; // set deployer as owner of storage\r\n    uint256 numRecipients = 0;\r\n    uint256 numRequests = 0;\r\n    mapping(uint256 => recipient) recipients;\r\n    mapping(uint256 => request) requests; // requestId -> hash(recipientID, username,pw, requestID)\r\n    mapping(uint256 => withdrawal) withdrawalRequests; // available only for 7 days\r\n\r\n    modifier ownerOnly(uint256 recipientId) {\r\n        require(getRecipientOwner(recipientId) == tx.origin);\r\n        _;\r\n    }\r\n\r\n    //function to create a new recipient, and add to 'recipients' map\r\n    function createRecipient (\r\n        string memory name,\r\n        string memory password\r\n    ) public returns(uint256) {\r\n        uint256[] memory setActiveRequest;\r\n        uint256[] memory setWithDrawal;\r\n        recipient memory newRecipient = recipient(\r\n            // recipientState.created,\r\n            tx.origin, // recipient address\r\n            name,\r\n            password,\r\n            0, // wallet\r\n            setActiveRequest,\r\n            setWithDrawal\r\n        );\r\n        uint256 newRecipientId = numRecipients++;\r\n        recipients[newRecipientId] = newRecipient; \r\n        return newRecipientId;   \r\n    }\r\n\r\n    event pushedToActive(uint256[] activeRequests);\r\n    // create a request for a recipient. requestsid will be stored within recipient for access, request itself will be stored in another mapping\r\n    function createRequest(uint256 recipientId,uint256 requestedAmt, uint8 deadline, string memory category) public returns (uint256) {\r\n        require(requestedAmt > 0, \"minimum request need to contain at least 1 Token\");\r\n        require(requestedAmt < 100, \"Requested Amounted hit limit\");\r\n        uint256 requestId = numRequests;\r\n        numRequests +=1;\r\n        recipients[recipientId].activeRequests.push(requestId);\r\n\r\n        emit pushedToActive(recipients[recipientId].activeRequests);\r\n\r\n        uint256[] memory listings;\r\n        requests[requestId] = request(requestId, recipientId,listings,requestedAmt, deadline, category, true);\r\n\r\n        return requestId;\r\n    }\r\n\r\n    // create a withdrawal\r\n    function createWithdrawal (uint256 requestId) public {\r\n        // request ID will be identical to withdrawal ID\r\n        uint256 withdrawalId = requestId;\r\n        uint256 recipientId = requests[requestId].recipientId;\r\n        uint256 amt = requests[requestId].amt;\r\n        withdrawalRequests[withdrawalId] = withdrawal (withdrawalId, recipientId, amt, block.timestamp, address(0));\r\n    }\r\n\r\n    // RECIPIENT LEVEL GETTERS/SETTERS\r\n\r\n    // returns address/owner of recipient \r\n    function getRecipientOwner (uint256 recipientId) public view returns(address) {\r\n        return recipients[recipientId].owner;\r\n    }\r\n\r\n    // return wallet amount\r\n    function getRecipientWallet (uint256 recipientId) public view returns(uint256) {\r\n        return recipients[recipientId].wallet;\r\n    }\r\n\r\n    // return list of withdrawals per recipient\r\n    function getRecipientWithdrawals (uint256 recipientId) public view returns(uint256[] memory) {\r\n        return recipients[recipientId].withdrawals;\r\n    }\r\n\r\n    // return total amount of recipients\r\n    function getTotalRecipients () public view returns(uint256) {\r\n        return numRecipients;\r\n    }\r\n\r\n    // return requestIDs of recipeint\r\n    function getRequests (uint256 recipientId) public view returns (uint256[] memory) {\r\n        return recipients[recipientId].activeRequests;\r\n    }\r\n\r\n    // modify wallet amount for recipient, operation = \"+\" for credit, operation = \"-\" for debit\r\n    function modifyRecipientWallet (uint256 recipientId, uint256 amount, string memory operation) public {\r\n        if (keccak256(abi.encodePacked(operation)) == keccak256(abi.encodePacked(\"+\"))) {\r\n            recipients[recipientId].wallet += amount;\r\n        } else {\r\n            recipients[recipientId].wallet -= amount;\r\n        }\r\n    }\r\n\r\n    // empty recipient wallet\r\n    function emptyRecipientWallet (uint256 recipientId) ownerOnly(recipientId) public returns (uint256){\r\n        uint256 walletAmt = recipients[recipientId].wallet;\r\n        recipients[recipientId].wallet = 0;\r\n        return walletAmt;\r\n    }\r\n\r\n    // REQUEST LEVEL GETTERS/SETTERS\r\n\r\n    // return request category\r\n    function getRequestCategory (uint256 requestId) public view returns(string memory) {\r\n        return requests[requestId].category;\r\n    }\r\n\r\n    // return request amount\r\n    function getRequestAmount (uint256 requestId) public view returns(uint256) {\r\n        return requests[requestId].amt;\r\n    }\r\n\r\n    // return request deadline\r\n    function getRequestDeadline (uint256 requestId) public view returns(uint8) {\r\n        return requests[requestId].deadline;\r\n    }\r\n\r\n    // return bool - true if request exist else false\r\n    function checkRequestValidity(uint256 requestId) public view returns (bool) {\r\n        return requests[requestId].isValue;\r\n    }\r\n    // add unique solicitation attempt\r\n    function addListingToRequest (uint256 requestId, uint256 listingId) public {\r\n        requests[requestId].listingsId.push(listingId);\r\n    }\r\n\r\n    \r\n\r\n  \r\n\r\n\r\n    // WITHDRAWAL LEVEL GETTERS/SETTERS\r\n\r\n    // return recipient which will receive money upon withdrawal, i.e beneficiary\r\n    function getWithdrawalRecipient (uint256 withdrawalID) public view returns(uint256) {\r\n        return withdrawalRequests[withdrawalID].recipientId;\r\n    }\r\n\r\n    // return withdrawal amount to be given to beneficiary\r\n    function getWithdrawalAmount (uint256 withdrawalID) public view returns(uint256) {\r\n        return withdrawalRequests[withdrawalID].amt;\r\n    }\r\n\r\n    // return expiry date of withdrawal\r\n    function getWithdrawalExpiry (uint256 withdrawalID) public view returns (uint) {\r\n        return withdrawalRequests[withdrawalID].expireAt;\r\n    }\r\n\r\n    // return original donor, where tokens will be refunded to upon withdrawal expiry\r\n    function getWithdrawalDonor (uint256 requestId) public view returns (address) {\r\n        return withdrawalRequests[requestId].donorAddress;\r\n    }\r\n\r\n    // set expiry date \r\n    function addWithdrawalExpiry (uint256 withdrawalId, uint expiry) public {\r\n        withdrawalRequests[withdrawalId].expireAt = expiry;\r\n    }\r\n\r\n    // set refund address for withdrawal\r\n    function addWithdrawalRefundAddress (uint256 withdrawalId, address add) public {\r\n        withdrawalRequests[withdrawalId].donorAddress = add;\r\n    }\r\n\r\n\r\n    // OTHER HELPER FUNCTIONS\r\n\r\n    // remove request from tracking in mapping\r\n    function removeRequest (uint256 requestId) public {\r\n        delete requests[requestId];\r\n    }\r\n\r\n    // remove withdrawal from tracking in mapping\r\n    function removeWithdrawal (uint256 withdrawalId) public {\r\n        delete withdrawalRequests[withdrawalId];\r\n    }\r\n\r\n    // Check if requestid has already exist in the listing to prevent one request id from requesting multiple times in one listing \r\n    function verifyRequestListing (uint256 requestId, uint256 listingId) public view returns(bool) {\r\n        bool verified = false;\r\n        for (uint8 i; i< requests[requestId].listingsId.length; i++) {\r\n            if (requests[requestId].listingsId[i] == listingId) {\r\n                verified = true;\r\n                break;\r\n            } \r\n        }\r\n        return verified;\r\n    }\r\n\r\n\r\n\r\n\r\n}",
  "sourcePath": "C:\\Users\\geral\\Desktop\\NUS\\Y3S2\\IS4302\\Project\\IS4302_GRP6\\contracts\\RecipientStorage.sol",
  "compiler": {
    "name": "solc",
    "version": "0.6.1+commit.e6f7d5a4.Emscripten.clang"
  },
  "schemaVersion": "3.4.4",
  "updatedAt": "2022-04-06T13:05:51.037Z",
  "networkType": "ethereum",
  "devdoc": {
    "methods": {}
  },
  "userdoc": {
    "methods": {}
  }
}