{
  "contractName": "Recipient",
  "abi": [
    {
      "inputs": [
        {
          "internalType": "contract Token",
          "name": "tokenAddress",
          "type": "address"
        },
        {
          "internalType": "contract DonationMarket",
          "name": "marketAddress",
          "type": "address"
        }
      ],
      "stateMutability": "nonpayable",
      "type": "constructor"
    },
    {
      "anonymous": false,
      "inputs": [
        {
          "indexed": false,
          "internalType": "uint256",
          "name": "requestId",
          "type": "uint256"
        },
        {
          "indexed": false,
          "internalType": "uint256",
          "name": "listingId",
          "type": "uint256"
        }
      ],
      "name": "completedRequest",
      "type": "event"
    },
    {
      "anonymous": false,
      "inputs": [
        {
          "indexed": false,
          "internalType": "uint256",
          "name": "recipientId",
          "type": "uint256"
        },
        {
          "indexed": false,
          "internalType": "uint256",
          "name": "listingId",
          "type": "uint256"
        },
        {
          "indexed": false,
          "internalType": "uint256",
          "name": "amt",
          "type": "uint256"
        },
        {
          "indexed": false,
          "internalType": "uint256",
          "name": "deadline",
          "type": "uint256"
        },
        {
          "indexed": false,
          "internalType": "uint256",
          "name": "requestId",
          "type": "uint256"
        }
      ],
      "name": "requestedDonation",
      "type": "event"
    },
    {
      "inputs": [],
      "name": "contractStopped",
      "outputs": [
        {
          "internalType": "bool",
          "name": "",
          "type": "bool"
        }
      ],
      "stateMutability": "view",
      "type": "function"
    },
    {
      "inputs": [],
      "name": "numRecipients",
      "outputs": [
        {
          "internalType": "uint256",
          "name": "",
          "type": "uint256"
        }
      ],
      "stateMutability": "view",
      "type": "function"
    },
    {
      "inputs": [],
      "name": "numRequests",
      "outputs": [
        {
          "internalType": "uint256",
          "name": "",
          "type": "uint256"
        }
      ],
      "stateMutability": "view",
      "type": "function"
    },
    {
      "inputs": [
        {
          "internalType": "uint256",
          "name": "",
          "type": "uint256"
        }
      ],
      "name": "recipients",
      "outputs": [
        {
          "internalType": "enum Recipient.recipientState",
          "name": "state",
          "type": "uint8"
        },
        {
          "internalType": "address",
          "name": "owner",
          "type": "address"
        },
        {
          "internalType": "string",
          "name": "username",
          "type": "string"
        },
        {
          "internalType": "string",
          "name": "pw",
          "type": "string"
        },
        {
          "internalType": "uint256",
          "name": "wallet",
          "type": "uint256"
        }
      ],
      "stateMutability": "view",
      "type": "function"
    },
    {
      "inputs": [
        {
          "internalType": "uint256",
          "name": "",
          "type": "uint256"
        }
      ],
      "name": "requests",
      "outputs": [
        {
          "internalType": "uint256",
          "name": "requestID",
          "type": "uint256"
        },
        {
          "internalType": "uint256",
          "name": "recipientId",
          "type": "uint256"
        },
        {
          "internalType": "uint256",
          "name": "amt",
          "type": "uint256"
        },
        {
          "internalType": "uint256",
          "name": "partialAmt",
          "type": "uint256"
        },
        {
          "internalType": "uint8",
          "name": "deadline",
          "type": "uint8"
        },
        {
          "internalType": "string",
          "name": "category",
          "type": "string"
        },
        {
          "internalType": "bool",
          "name": "isValue",
          "type": "bool"
        },
        {
          "internalType": "uint256",
          "name": "expireAt",
          "type": "uint256"
        }
      ],
      "stateMutability": "view",
      "type": "function"
    },
    {
      "inputs": [
        {
          "internalType": "uint256",
          "name": "",
          "type": "uint256"
        }
      ],
      "name": "withdrawalRequests",
      "outputs": [
        {
          "internalType": "uint256",
          "name": "requestID",
          "type": "uint256"
        },
        {
          "internalType": "uint256",
          "name": "recipientId",
          "type": "uint256"
        },
        {
          "internalType": "uint256",
          "name": "amt",
          "type": "uint256"
        },
        {
          "internalType": "uint256",
          "name": "partialAmt",
          "type": "uint256"
        },
        {
          "internalType": "uint8",
          "name": "deadline",
          "type": "uint8"
        },
        {
          "internalType": "string",
          "name": "category",
          "type": "string"
        },
        {
          "internalType": "bool",
          "name": "isValue",
          "type": "bool"
        },
        {
          "internalType": "uint256",
          "name": "expireAt",
          "type": "uint256"
        }
      ],
      "stateMutability": "view",
      "type": "function"
    },
    {
      "inputs": [
        {
          "internalType": "string",
          "name": "name",
          "type": "string"
        },
        {
          "internalType": "string",
          "name": "password",
          "type": "string"
        }
      ],
      "name": "createRecipient",
      "outputs": [
        {
          "internalType": "uint256",
          "name": "",
          "type": "uint256"
        }
      ],
      "stateMutability": "nonpayable",
      "type": "function"
    },
    {
      "inputs": [],
      "name": "toggleContactStopped",
      "outputs": [],
      "stateMutability": "nonpayable",
      "type": "function"
    },
    {
      "inputs": [],
      "name": "autoDeprecate",
      "outputs": [],
      "stateMutability": "nonpayable",
      "type": "function"
    },
    {
      "inputs": [],
      "name": "hasExpired",
      "outputs": [
        {
          "internalType": "bool",
          "name": "",
          "type": "bool"
        }
      ],
      "stateMutability": "view",
      "type": "function"
    },
    {
      "inputs": [],
      "name": "refundToken",
      "outputs": [],
      "stateMutability": "nonpayable",
      "type": "function"
    },
    {
      "inputs": [
        {
          "internalType": "uint256",
          "name": "recipientId",
          "type": "uint256"
        }
      ],
      "name": "withdrawTokens",
      "outputs": [],
      "stateMutability": "nonpayable",
      "type": "function"
    },
    {
      "inputs": [
        {
          "internalType": "uint256",
          "name": "recipientId",
          "type": "uint256"
        },
        {
          "internalType": "uint256",
          "name": "requestedAmt",
          "type": "uint256"
        },
        {
          "internalType": "uint8",
          "name": "deadline",
          "type": "uint8"
        },
        {
          "internalType": "string",
          "name": "category",
          "type": "string"
        }
      ],
      "name": "createRequest",
      "outputs": [
        {
          "internalType": "uint256",
          "name": "",
          "type": "uint256"
        }
      ],
      "stateMutability": "nonpayable",
      "type": "function"
    },
    {
      "inputs": [
        {
          "internalType": "uint256",
          "name": "recipientId",
          "type": "uint256"
        },
        {
          "internalType": "uint256",
          "name": "listingId",
          "type": "uint256"
        },
        {
          "internalType": "uint256",
          "name": "requestId",
          "type": "uint256"
        }
      ],
      "name": "requestDonation",
      "outputs": [],
      "stateMutability": "nonpayable",
      "type": "function"
    },
    {
      "inputs": [
        {
          "internalType": "uint256",
          "name": "requestId",
          "type": "uint256"
        },
        {
          "internalType": "uint256",
          "name": "listingId",
          "type": "uint256"
        }
      ],
      "name": "completeRequest",
      "outputs": [],
      "stateMutability": "nonpayable",
      "type": "function"
    },
    {
      "inputs": [
        {
          "internalType": "uint256",
          "name": "requestId",
          "type": "uint256"
        },
        {
          "internalType": "uint256",
          "name": "leftoverAmt",
          "type": "uint256"
        }
      ],
      "name": "partialCompleteRequest",
      "outputs": [],
      "stateMutability": "nonpayable",
      "type": "function"
    },
    {
      "inputs": [
        {
          "internalType": "uint256",
          "name": "recipientId",
          "type": "uint256"
        }
      ],
      "name": "getWallet",
      "outputs": [
        {
          "internalType": "uint256",
          "name": "",
          "type": "uint256"
        }
      ],
      "stateMutability": "view",
      "type": "function"
    },
    {
      "inputs": [
        {
          "internalType": "uint256",
          "name": "recipientId",
          "type": "uint256"
        }
      ],
      "name": "getRecipientAddress",
      "outputs": [
        {
          "internalType": "address",
          "name": "",
          "type": "address"
        }
      ],
      "stateMutability": "view",
      "type": "function"
    },
    {
      "inputs": [
        {
          "internalType": "uint256",
          "name": "recipientId",
          "type": "uint256"
        }
      ],
      "name": "getRecipeintRequest",
      "outputs": [
        {
          "internalType": "uint256[]",
          "name": "",
          "type": "uint256[]"
        }
      ],
      "stateMutability": "view",
      "type": "function"
    },
    {
      "inputs": [
        {
          "internalType": "uint256",
          "name": "requestId",
          "type": "uint256"
        }
      ],
      "name": "getRequestedListing",
      "outputs": [
        {
          "internalType": "uint256[]",
          "name": "",
          "type": "uint256[]"
        }
      ],
      "stateMutability": "view",
      "type": "function"
    },
    {
      "inputs": [],
      "name": "destroyContract",
      "outputs": [],
      "stateMutability": "nonpayable",
      "type": "function"
    }
  ],
  "bytecode": "0x60806040526000600260146101000a81548160ff0219169083151502179055506000600260156101000a81548160ff021916908315150217905550600060045560006005553480156200005157600080fd5b5060405162002d8d38038062002d8d833981810160405260408110156200007757600080fd5b810190808051906020019092919080519060200190929190505050816000806101000a81548173ffffffffffffffffffffffffffffffffffffffff021916908373ffffffffffffffffffffffffffffffffffffffff16021790555080600160006101000a81548173ffffffffffffffffffffffffffffffffffffffff021916908373ffffffffffffffffffffffffffffffffffffffff16021790555033600260006101000a81548173ffffffffffffffffffffffffffffffffffffffff021916908373ffffffffffffffffffffffffffffffffffffffff160217905550620001646200016c60201b60201c565b50506200017a565b620151804201600381905550565b612c03806200018a6000396000f3fe608060405234801561001057600080fd5b50600436106101375760003560e01c806390e64d13116100b8578063c63a2abe1161007c578063c63a2abe1461078f578063cfd5197414610799578063d1bc76a1146107b7578063d1d6c35414610919578063daea74c51461099c578063fa48f38e146109be57610137565b806390e64d13146104c5578063937b2581146104e75780639fb42b1f146105c9578063a2b4d35d146105e7578063b5d80b371461062957610137565b80635470b13b116100ff5780635470b13b1461035557806359ce3252146103975780635cb732be146103cf578063750e6d09146103d957806381d12c58146103e357610137565b8063092a5cce1461013c5780631833701214610146578063315a095d146101b45780633df93440146101e2578063452a543814610265575b600080fd5b6101446109f6565b005b6101726004803603602081101561015c57600080fd5b8101908080359060200190929190505050610adc565b604051808273ffffffffffffffffffffffffffffffffffffffff1673ffffffffffffffffffffffffffffffffffffffff16815260200191505060405180910390f35b6101e0600480360360208110156101ca57600080fd5b8101908080359060200190929190505050610b2c565b005b61020e600480360360208110156101f857600080fd5b8101908080359060200190929190505050610d15565b6040518080602001828103825283818151815260200191508051906020019060200280838360005b83811015610251578082015181840152602081019050610236565b505050509050019250505060405180910390f35b61033f6004803603608081101561027b57600080fd5b810190808035906020019092919080359060200190929190803560ff169060200190929190803590602001906401000000008111156102b957600080fd5b8201836020820111156102cb57600080fd5b803590602001918460018302840111640100000000831117156102ed57600080fd5b91908080601f016020809104026020016040519081016040528093929190818152602001838380828437600081840152601f19601f820116905080830192505050505050509192919290505050610d83565b6040518082815260200191505060405180910390f35b6103816004803603602081101561036b57600080fd5b81019080803590602001909291905050506110b2565b6040518082815260200191505060405180910390f35b6103cd600480360360408110156103ad57600080fd5b810190808035906020019092919080359060200190929190505050611152565b005b6103d76111a4565b005b6103e1611417565b005b61040f600480360360208110156103f957600080fd5b81019080803590602001909291905050506114e9565b604051808981526020018881526020018781526020018681526020018560ff1660ff1681526020018060200184151515158152602001838152602001828103825285818151815260200191508051906020019080838360005b83811015610483578082015181840152602081019050610468565b50505050905090810190601f1680156104b05780820380516001836020036101000a031916815260200191505b50995050505050505050505060405180910390f35b6104cd6115e3565b604051808215151515815260200191505060405180910390f35b610513600480360360208110156104fd57600080fd5b81019080803590602001909291905050506115fd565b604051808981526020018881526020018781526020018681526020018560ff1660ff1681526020018060200184151515158152602001838152602001828103825285818151815260200191508051906020019080838360005b8381101561058757808201518184015260208101905061056c565b50505050905090810190601f1680156105b45780820380516001836020036101000a031916815260200191505b50995050505050505050505060405180910390f35b6105d16116f7565b6040518082815260200191505060405180910390f35b610627600480360360608110156105fd57600080fd5b810190808035906020019092919080359060200190929190803590602001909291905050506116fd565b005b6107796004803603604081101561063f57600080fd5b810190808035906020019064010000000081111561065c57600080fd5b82018360208201111561066e57600080fd5b8035906020019184600183028401116401000000008311171561069057600080fd5b91908080601f016020809104026020016040519081016040528093929190818152602001838380828437600081840152601f19601f820116905080830192505050505050509192919290803590602001906401000000008111156106f357600080fd5b82018360208201111561070557600080fd5b8035906020019184600183028401116401000000008311171561072757600080fd5b91908080601f016020809104026020016040519081016040528093929190818152602001838380828437600081840152601f19601f820116905080830192505050505050509192919290505050611e3d565b6040518082815260200191505060405180910390f35b610797611fc9565b005b6107a1611fd7565b6040518082815260200191505060405180910390f35b6107e3600480360360208110156107cd57600080fd5b8101908080359060200190929190505050611fdd565b604051808660028111156107f357fe5b60ff1681526020018573ffffffffffffffffffffffffffffffffffffffff1673ffffffffffffffffffffffffffffffffffffffff1681526020018060200180602001848152602001838103835286818151815260200191508051906020019080838360005b83811015610873578082015181840152602081019050610858565b50505050905090810190601f1680156108a05780820380516001836020036101000a031916815260200191505b50838103825285818151815260200191508051906020019080838360005b838110156108d95780820151818401526020810190506108be565b50505050905090810190601f1680156109065780820380516001836020036101000a031916815260200191505b5097505050505050505060405180910390f35b6109456004803603602081101561092f57600080fd5b8101908080359060200190929190505050612170565b6040518080602001828103825283818151815260200191508051906020019060200280838360005b8381101561098857808201518184015260208101905061096d565b505050509050019250505060405180910390f35b6109a4612264565b604051808215151515815260200191505060405180910390f35b6109f4600480360360408110156109d457600080fd5b810190808035906020019092919080359060200190929190505050612277565b005b600260009054906101000a900473ffffffffffffffffffffffffffffffffffffffff1673ffffffffffffffffffffffffffffffffffffffff163373ffffffffffffffffffffffffffffffffffffffff1614610a9c576040517f08c379a0000000000000000000000000000000000000000000000000000000008152600401808060200182810382526034815260200180612b406034913960400191505060405180910390fd5b6000600260009054906101000a900473ffffffffffffffffffffffffffffffffffffffff1690508073ffffffffffffffffffffffffffffffffffffffff16ff5b6000816004548110610aed57600080fd5b6006600084815260200190815260200160002060000160019054906101000a900473ffffffffffffffffffffffffffffffffffffffff16915050919050565b803373ffffffffffffffffffffffffffffffffffffffff166006600083815260200190815260200160002060000160019054906101000a900473ffffffffffffffffffffffffffffffffffffffff1673ffffffffffffffffffffffffffffffffffffffff1614610b9b57600080fd5b816004548110610baa57600080fd5b600260159054906101000a900460ff16610d10576000600660008581526020019081526020016000206003015411610c2d576040517f08c379a000000000000000000000000000000000000000000000000000000000815260040180806020018281038252602b815260200180612abd602b913960400191505060405180910390fd5b60006006600085815260200190815260200160002060030154905060006006600086815260200190815260200160002060030181905550600860008581526020019081526020016000206000808201600090556001820160009055600282016000610c9891906127d9565b600382016000905560048201600090556005820160006101000a81549060ff0219169055600682016000610ccc91906127fa565b6007820160006101000a81549060ff021916905560088201600090555050610cf3816124df565b6000600260146101000a81548160ff021916908315150217905550505b505050565b606060076000838152602001908152602001600020600201805480602002602001604051908101604052809291908181526020018280548015610d7757602002820191906000526020600020905b815481526020019060010190808311610d63575b50505050509050919050565b6000600260009054906101000a900473ffffffffffffffffffffffffffffffffffffffff1673ffffffffffffffffffffffffffffffffffffffff163373ffffffffffffffffffffffffffffffffffffffff1614610e2b576040517f08c379a0000000000000000000000000000000000000000000000000000000008152600401808060200182810382526028815260200180612b186028913960400191505060405180910390fd5b60008411610e84576040517f08c379a0000000000000000000000000000000000000000000000000000000008152600401808060200182810382526030815260200180612ae86030913960400191505060405180910390fd5b60648410610efa576040517f08c379a000000000000000000000000000000000000000000000000000000000815260040180806020018281038252601c8152602001807f52657175657374656420416d6f756e74656420686974206c696d69740000000081525060200191505060405180910390fd5b600060055490506001600560008282540192505081905550600660008781526020019081526020016000206004018190806001815401808255809150506001900390600052602060002001600090919091909150556060610f59612842565b604051806101200160405280848152602001898152602001838152602001888152602001600081526020018760ff168152602001868152602001600115158152602001428152509050806007600085815260200190815260200160002060008201518160000155602082015181600101556040820151816002019080519060200190610fe6929190612893565b50606082015181600301556080820151816004015560a08201518160050160006101000a81548160ff021916908360ff16021790555060c08201518160060190805190602001906110389291906128e0565b5060e08201518160070160006101000a81548160ff021916908315150217905550610100820151816008015590505060066000898152602001908152602001600020600401839080600181540180825580915050600190039060005260206000200160009091909190915055829350505050949350505050565b6000813373ffffffffffffffffffffffffffffffffffffffff166006600083815260200190815260200160002060000160019054906101000a900473ffffffffffffffffffffffffffffffffffffffff1673ffffffffffffffffffffffffffffffffffffffff161461112357600080fd5b82600454811061113257600080fd5b600660008581526020019081526020016000206003015492505050919050565b8060076000848152602001908152602001600020600301540360076000848152602001908152602001600020600401819055508060076000848152602001908152602001600020600301819055505050565b6111ac6115e3565b156114155760005b60045481101561140b5760005b60066000838152602001908152602001600020600501805490508110156113fd576008600060066000858152602001908152602001600020600501838154811061120757fe5b90600052602060002001548152602001908152602001600020600801544211156113f05760006008600083815260200190815260200160002060030154905080600660008481526020019081526020016000206003016000828254039250508190555061134d6006600085815260200190815260200160002060000160019054906101000a900473ffffffffffffffffffffffffffffffffffffffff16600160009054906101000a900473ffffffffffffffffffffffffffffffffffffffff1673ffffffffffffffffffffffffffffffffffffffff1663893d20e86040518163ffffffff1660e01b815260040160206040518083038186803b15801561130c57600080fd5b505afa158015611320573d6000803e3d6000fd5b505050506040513d602081101561133657600080fd5b810190808051906020019092919050505083612627565b6000600260146101000a81548160ff02191690831515021790555060086000838152602001908152602001600020600080820160009055600182016000905560028201600061139c91906127d9565b600382016000905560048201600090556005820160006101000a81549060ff02191690556006820160006113d091906127fa565b6007820160006101000a81549060ff021916905560088201600090555050505b80806001019150506111c1565b5080806001019150506111b4565b50611414611fc9565b5b565b600260009054906101000a900473ffffffffffffffffffffffffffffffffffffffff1673ffffffffffffffffffffffffffffffffffffffff163373ffffffffffffffffffffffffffffffffffffffff16146114bd576040517f08c379a0000000000000000000000000000000000000000000000000000000008152600401808060200182810382526034815260200180612b406034913960400191505060405180910390fd5b600260159054906101000a900460ff1615600260156101000a81548160ff021916908315150217905550565b60076020528060005260406000206000915090508060000154908060010154908060030154908060040154908060050160009054906101000a900460ff1690806006018054600181600116156101000203166002900480601f0160208091040260200160405190810160405280929190818152602001828054600181600116156101000203166002900480156115c05780601f10611595576101008083540402835291602001916115c0565b820191906000526020600020905b8154815290600101906020018083116115a357829003601f168201915b5050505050908060070160009054906101000a900460ff16908060080154905088565b600060035442116115f55760006115f8565b60015b905090565b60086020528060005260406000206000915090508060000154908060010154908060030154908060040154908060050160009054906101000a900460ff1690806006018054600181600116156101000203166002900480601f0160208091040260200160405190810160405280929190818152602001828054600181600116156101000203166002900480156116d45780601f106116a9576101008083540402835291602001916116d4565b820191906000526020600020905b8154815290600101906020018083116116b757829003601f168201915b5050505050908060070160009054906101000a900460ff16908060080154905088565b60055481565b823373ffffffffffffffffffffffffffffffffffffffff166006600083815260200190815260200160002060000160019054906101000a900473ffffffffffffffffffffffffffffffffffffffff1673ffffffffffffffffffffffffffffffffffffffff161461176c57600080fd5b83600454811061177b57600080fd5b60076000848152602001908152602001600020600601604051602001808060200182810382528381815460018160011615610100020316600290048152602001915080546001816001161561010002031660029004801561181d5780601f106117f25761010080835404028352916020019161181d565b820191906000526020600020905b81548152906001019060200180831161180057829003601f168201915b50509250505060405160208183030381529060405280519060200120600160009054906101000a900473ffffffffffffffffffffffffffffffffffffffff1673ffffffffffffffffffffffffffffffffffffffff1663f3052d26866040518263ffffffff1660e01b81526004018082815260200191505060006040518083038186803b1580156118ac57600080fd5b505afa1580156118c0573d6000803e3d6000fd5b505050506040513d6000823e3d601f19601f8201168201806040525060208110156118ea57600080fd5b810190808051604051939291908464010000000082111561190a57600080fd5b8382019150602082018581111561192057600080fd5b825186600182028301116401000000008211171561193d57600080fd5b8083526020830192505050908051906020019080838360005b83811015611971578082015181840152602081019050611956565b50505050905090810190601f16801561199e5780820380516001836020036101000a031916815260200191505b506040525050506040516020018080602001828103825283818151815260200191508051906020019080838360005b838110156119e85780820151818401526020810190506119cd565b50505050905090810190601f168015611a155780820380516001836020036101000a031916815260200191505b50925050506040516020818303038152906040528051906020012014611a86576040517f08c379a0000000000000000000000000000000000000000000000000000000008152600401808060200182810382526030815260200180612b746030913960400191505060405180910390fd5b611a8e612842565b6007600085815260200190815260200160002060405180610120016040529081600082015481526020016001820154815260200160028201805480602002602001604051908101604052809291908181526020018280548015611b1057602002820191906000526020600020905b815481526020019060010190808311611afc575b5050505050815260200160038201548152602001600482015481526020016005820160009054906101000a900460ff1660ff1660ff168152602001600682018054600181600116156101000203166002900480601f016020809104026020016040519081016040528092919081815260200182805460018160011615610100020316600290048015611be35780601f10611bb857610100808354040283529160200191611be3565b820191906000526020600020905b815481529060010190602001808311611bc657829003601f168201915b505050505081526020016007820160009054906101000a900460ff16151515158152602001600882015481525050905060005b8160400151518160ff161015611ca5578582604001518260ff1681518110611c3a57fe5b602002602001015114611c98576040517f08c379a000000000000000000000000000000000000000000000000000000000815260040180806020018281038252602a815260200180612ba4602a913960400191505060405180910390fd5b8080600101915050611c16565b50600160009054906101000a900473ffffffffffffffffffffffffffffffffffffffff1673ffffffffffffffffffffffffffffffffffffffff166338442658868884606001518560a00151896040518663ffffffff1660e01b8152600401808681526020018581526020018481526020018360ff16815260200182815260200195505050505050600060405180830381600087803b158015611d4657600080fd5b505af1158015611d5a573d6000803e3d6000fd5b505050506007600085815260200190815260200160002060020185908060018154018082558091505060019003906000526020600020016000909190919091505560016006600088815260200190815260200160002060000160006101000a81548160ff02191690836002811115611dce57fe5b02179055507fd0b673680a2738b1bfa82403b822c02162e9773454a93ee4452a305828276312868683606001518460a0015188604051808681526020018581526020018481526020018360ff1681526020018281526020019550505050505060405180910390a1505050505050565b6000606080611e4a612960565b6040518060e0016040528060006002811115611e6257fe5b81526020013373ffffffffffffffffffffffffffffffffffffffff16815260200187815260200186815260200160008152602001848152602001838152509050600060046000815480929190600101919050559050816006600083815260200190815260200160002060008201518160000160006101000a81548160ff02191690836002811115611eef57fe5b021790555060208201518160000160016101000a81548173ffffffffffffffffffffffffffffffffffffffff021916908373ffffffffffffffffffffffffffffffffffffffff1602179055506040820151816001019080519060200190611f579291906128e0565b506060820151816002019080519060200190611f749291906128e0565b506080820151816003015560a0820151816004019080519060200190611f9b929190612893565b5060c0820151816005019080519060200190611fb8929190612893565b509050508094505050505092915050565b620151804201600381905550565b60045481565b60066020528060005260406000206000915090508060000160009054906101000a900460ff16908060000160019054906101000a900473ffffffffffffffffffffffffffffffffffffffff1690806001018054600181600116156101000203166002900480601f0160208091040260200160405190810160405280929190818152602001828054600181600116156101000203166002900480156120c25780601f10612097576101008083540402835291602001916120c2565b820191906000526020600020905b8154815290600101906020018083116120a557829003601f168201915b505050505090806002018054600181600116156101000203166002900480601f0160208091040260200160405190810160405280929190818152602001828054600181600116156101000203166002900480156121605780601f1061213557610100808354040283529160200191612160565b820191906000526020600020905b81548152906001019060200180831161214357829003601f168201915b5050505050908060030154905085565b606080600080905060008090505b60066000868152602001908152602001600020600401805490508160ff1610156122595760076000600660008881526020019081526020016000206004018360ff16815481106121ca57fe5b9060005260206000200154815260200190815260200160002060070160009054906101000a900460ff161561224c57600660008681526020019081526020016000206004018160ff168154811061221d57fe5b9060005260206000200154838360ff168151811061223757fe5b60200260200101818152505081806001019250505b808060010191505061217e565b508192505050919050565b600260159054906101000a900460ff1681565b6007600083815260200190815260200160002060086000848152602001908152602001600020600082015481600001556001820154816001015560028201816002019080546122c79291906129be565b5060038201548160030155600482015481600401556005820160009054906101000a900460ff168160050160006101000a81548160ff021916908360ff16021790555060068201816006019080546001816001161561010002031660029004612331929190612a10565b506007820160009054906101000a900460ff168160070160006101000a81548160ff0219169083151502179055506008820154816008015590505062093a804201600860008481526020019081526020016000206008018190555060086000838152602001908152602001600020600401546008600084815260200190815260200160002060030160008282540192505081905550600860008381526020019081526020016000206003015460066000600860008681526020019081526020016000206001015481526020019081526020016000206003016000828254019250508190555060076000838152602001908152602001600020600080820160009055600182016000905560028201600061244a91906127d9565b600382016000905560048201600090556005820160006101000a81549060ff021916905560068201600061247e91906127fa565b6007820160006101000a81549060ff0219169055600882016000905550507f66ee80a9c7886990b70b5f9850020d35581c5e31eef6a488b084d305770518638282604051808381526020018281526020019250505060405180910390a15050565b600260149054906101000a900460ff1615612562576040517f08c379a000000000000000000000000000000000000000000000000000000000815260040180806020018281038252600e8152602001807f4e6f2072652d656e7472616e637900000000000000000000000000000000000081525060200191505060405180910390fd5b6001600260146101000a81548160ff0219169083151502179055506000809054906101000a900473ffffffffffffffffffffffffffffffffffffffff1673ffffffffffffffffffffffffffffffffffffffff16635c7b79f5826040518263ffffffff1660e01b815260040180828152602001915050600060405180830381600087803b1580156125f157600080fd5b505af1158015612605573d6000803e3d6000fd5b505050506000600260146101000a81548160ff02191690831515021790555050565b600260149054906101000a900460ff16156126aa576040517f08c379a000000000000000000000000000000000000000000000000000000000815260040180806020018281038252600e8152602001807f4e6f2072652d656e7472616e637900000000000000000000000000000000000081525060200191505060405180910390fd5b6001600260146101000a81548160ff0219169083151502179055506000809054906101000a900473ffffffffffffffffffffffffffffffffffffffff1673ffffffffffffffffffffffffffffffffffffffff1663beabacc88484846040518463ffffffff1660e01b8152600401808473ffffffffffffffffffffffffffffffffffffffff1673ffffffffffffffffffffffffffffffffffffffff1681526020018373ffffffffffffffffffffffffffffffffffffffff1673ffffffffffffffffffffffffffffffffffffffff1681526020018281526020019350505050600060405180830381600087803b1580156127a157600080fd5b505af11580156127b5573d6000803e3d6000fd5b505050506000600260146101000a81548160ff021916908315150217905550505050565b50805460008255906000526020600020908101906127f79190612a97565b50565b50805460018160011615610100020316600290046000825580601f10612820575061283f565b601f01602090049060005260206000209081019061283e9190612a97565b5b50565b6040518061012001604052806000815260200160008152602001606081526020016000815260200160008152602001600060ff16815260200160608152602001600015158152602001600081525090565b8280548282559060005260206000209081019282156128cf579160200282015b828111156128ce5782518255916020019190600101906128b3565b5b5090506128dc9190612a97565b5090565b828054600181600116156101000203166002900490600052602060002090601f016020900481019282601f1061292157805160ff191683800117855561294f565b8280016001018555821561294f579182015b8281111561294e578251825591602001919060010190612933565b5b50905061295c9190612a97565b5090565b6040518060e001604052806000600281111561297857fe5b8152602001600073ffffffffffffffffffffffffffffffffffffffff16815260200160608152602001606081526020016000815260200160608152602001606081525090565b8280548282559060005260206000209081019282156129ff5760005260206000209182015b828111156129fe5782548255916001019190600101906129e3565b5b509050612a0c9190612a97565b5090565b828054600181600116156101000203166002900490600052602060002090601f016020900481019282601f10612a495780548555612a86565b82800160010185558215612a8657600052602060002091601f016020900482015b82811115612a85578254825591600101919060010190612a6a565b5b509050612a939190612a97565b5090565b612ab991905b80821115612ab5576000816000905550600101612a9d565b5090565b9056fe496e76616c696420616d6f756e7420746f2062652077697468647261776e2066726f6d2077616c6c6574216d696e696d756d2072657175657374206e65656420746f20636f6e7461696e206174206c65617374203120546f6b656e796f7520617265206e6f7420616c6c6f77656420746f2075736520746869732066756e6374696f6e6f6e6c7920746865206f776e6572206f662074686520636f6e74726163742063616e2063616c6c2074686973206d6574686f6421796f7520617265206e6f7420656c696769626c6520746f207265717565737420666f722074686973206c697374696e67596f75206861766520616c7265616479207265717565737420666f722074686973206c697374696e6721a26469706673582212209f10e356ae6a410366208adf926fb4e5b63eb4739100ad57b0c436b9087cd6ca64736f6c63430006010033",
  "source": "// SPDX-License-Identifier: MIT\npragma solidity >=0.6.1;\nimport \"./DonationMarket.sol\";\nimport \"./Token.sol\";\n\ncontract Recipient {\n\n    enum recipientState {created, requesting, receivedDonation}\n\n    struct recipient {\n        recipientState state;\n        address owner;\n        string username;\n        string pw;\n        uint256 wallet; // amt of ether in wallet\n        uint256[] activeRequests;\n        uint256[] withdrawals;\n        \n    }\n\n    struct request {\n        uint256 requestID;\n        uint256 recipientId;\n        uint256[] listingsId;\n        uint256 amt;\n        uint256 partialAmt; // amt that has been completed with partial payment\n        uint8 deadline;\n        string category;\n        bool isValue; \n        uint expireAt; // time from approved to expired \n    }\n\n    Token tokenContract;\n    DonationMarket marketContract;\n    address contractOwner;\n\n    bool internal locked = false;\n    bool public contractStopped = false;\n    uint constant wait_period = 7 days;\n    uint contract_maintenance; // time tracker, deprecate the withdrawToken() and check for expiration daily\n\n    uint256 public numRecipients = 0;\n    uint256 public numRequests = 0;\n    mapping(uint256 => recipient) public recipients;\n    mapping(uint256 => request) public requests; // hash(recipientID, username,pw, requestID)\n    mapping(uint256 => request) public withdrawalRequests; // available only for 7 days\n\n    // mapping(uint256 => listingState[]) public listingsApproved;\n    // mapping(uint256 => listingState[]) public listingsNotApproved;\n\n    \n   constructor (Token tokenAddress, DonationMarket marketAddress) public {\n       tokenContract = tokenAddress;\n        marketContract = marketAddress;\n        contractOwner = msg.sender;\n        autoDeprecate(); // set daily contract check\n    }\n\n    //function to create a new recipient, and add to 'recipients' map\n    function createRecipient (\n        string memory name,\n        string memory password\n    ) public returns(uint256) {\n        uint256[] memory setActiveRequest;\n        uint256[] memory setWithDrawal;\n        recipient memory newRecipient = recipient(\n            recipientState.created,\n            msg.sender, // recipient address\n            name,\n            password,\n            0, // wallet\n            setActiveRequest,\n            setWithDrawal\n        );\n        \n        uint256 newRecipientId = numRecipients++;\n        recipients[newRecipientId] = newRecipient; \n        return newRecipientId;   \n    }\n\n    event requestedDonation(uint256 recipientId, uint256 listingId, uint256 amt, uint256 deadline, uint256 requestId);\n    event completedRequest(uint256 requestId, uint256 listingId);\n\n    //modifier to ensure a function is callable only by its owner    \n    modifier ownerOnly(uint256 recipientId) {\n        require(recipients[recipientId].owner == msg.sender);\n        _;\n    }\n\n    modifier stoppedInEmergency {\n        if (!contractStopped) _;\n    }\n\n\n    modifier contractOwnerOnly {\n        require(msg.sender == contractOwner, \"only the owner of the contract can call this method!\");\n        _;\n    }\n\n    function toggleContactStopped() public contractOwnerOnly {\n        contractStopped = !contractStopped;\n    }\n    \n    modifier validRecipientId(uint256 recipientId) {\n        require(recipientId < numRecipients);\n        _;\n    }\n\n    // deprecate daily to check if the token has expired before allowing withdrawal of tokens\n    function autoDeprecate() public {\n        contract_maintenance = block.timestamp + 1 days;\n    }\n\n    function hasExpired() public view returns (bool) {\n        return block.timestamp > contract_maintenance ? true : false;\n    }\n\n    modifier isActive {\n        if (! hasExpired()) _;\n    }\n\n    modifier whenDeprecated {\n        if (hasExpired()) _;\n    }\n\n    // mutex: prevent re-entrant\n    modifier noReEntrant {\n        require(!locked, \"No re-entrancy\");\n        locked = true;\n        _;\n        locked = false;\n    }\n    \n    // separate the payment to check for re-entrant\n    function transferPayment(address receiver, address donor, uint256 token) noReEntrant internal {\n        tokenContract.transfer(receiver, donor, token);\n    }\n\n    function cashOutTokens(uint256 amt) internal noReEntrant {\n        tokenContract.cashOut(amt);\n    }\n\n    function refundToken() public whenDeprecated {\n\n        for (uint recId; recId < numRecipients; recId++) {\n            for (uint req; req < recipients[recId].withdrawals.length; req++) {\n                if (block.timestamp > withdrawalRequests[recipients[recId].withdrawals[req]].expireAt) {\n                    uint256 amt = withdrawalRequests[req].amt;\n\n                    recipients[req].wallet -= amt; // deduct the expired tokens from the recipient's wallet\n\n                    transferPayment(recipients[recId].owner, marketContract.getOwner(), amt); // return the expired tokens to the donor of the tokens (currently is marketcontract first)\n\n                    locked = false;\n\n                    delete withdrawalRequests[req];\n                }\n            }\n        }\n\n        autoDeprecate(); // reset the daily auto deprecation time\n        \n    }\n\n    //TODO: revisit the logic\n    function withdrawTokens(uint256 recipientId) public ownerOnly(recipientId) validRecipientId(recipientId) stoppedInEmergency {\n        // TODO: implement automatic depreciation of each listing (7days to cash out for reach approval)! \n        require(recipients[recipientId].wallet > 0, \"Invalid amount to be withdrawn from wallet!\");\n        uint256 listingAmt = recipients[recipientId].wallet;\n\n        recipients[recipientId].wallet = 0;\n        delete withdrawalRequests[recipientId]; // all tokens withdrawn\n        cashOutTokens(listingAmt);\n\n        // unlock after the transaction is completed\n        locked = false;\n    }\n\n    //when developer (oracle) approve of the proof of usage, it will be tagged to a request to prevent duplicative usage of proof of usage\n    function createRequest(uint256 recipientId,uint256 requestedAmt, uint8 deadline, string memory category) public returns (uint256) {\n        require(msg.sender == contractOwner, \"you are not allowed to use this function\");\n        require(requestedAmt > 0, \"minimum request need to contain at least 1 Token\");\n        require(requestedAmt < 100, \"Requested Amounted hit limit\");\n        uint256 requestId = numRequests;\n        numRequests +=1;\n        recipients[recipientId].activeRequests.push(requestId);\n        uint256[] memory listings;\n        request memory newRequest = request (requestId, recipientId,listings,requestedAmt, 0, deadline, category, true, block.timestamp);\n        requests[requestId] = newRequest;\n        recipients[recipientId].activeRequests.push(requestId);\n        return requestId;\n    }\n\n    function requestDonation(uint256 recipientId, uint256 listingId, uint256 requestId) public ownerOnly(recipientId) validRecipientId(recipientId) {\n        //checks\n        require (keccak256(abi.encode(marketContract.getCategory(listingId))) == keccak256(abi.encode(requests[requestId].category)),  \n        \"you are not eligible to request for this listing\");\n        request memory requestInfo = requests[requestId];\n            for (uint8 i; i< requestInfo.listingsId.length; i++) {\n                require(requestInfo.listingsId[i] == listingId, \"You have already request for this listing!\"); \n            }\n        marketContract.addRequest(listingId, recipientId, requestInfo.amt, requestInfo.deadline, requestId);\n        requests[requestId].listingsId.push(listingId);\n\n        recipients[recipientId].state = recipientState.requesting;\n\n        emit requestedDonation(recipientId, listingId, requestInfo.amt, requestInfo.deadline, requestId);\n    }\n\n    function completeRequest(uint256 requestId, uint256 listingId) public {\n        withdrawalRequests[requestId] = requests[requestId];\n        withdrawalRequests[requestId].expireAt = block.timestamp + wait_period; // withdrawal of tokens allowed for 7 days from time of completion \n        withdrawalRequests[requestId].amt += withdrawalRequests[requestId].partialAmt; // final amount to be added into the wallet\n\n        recipients[withdrawalRequests[requestId].recipientId].wallet += withdrawalRequests[requestId].amt;\n\n        delete requests[requestId];\n        emit completedRequest(requestId, listingId);\n    }\n\n    function partialCompleteRequest(uint256 requestId, uint256 leftoverAmt) public {\n        requests[requestId].partialAmt = requests[requestId].amt - leftoverAmt; // to be added to the final amount that can be withdrawn in the wallet\n        requests[requestId].amt = leftoverAmt;\n    }\n    function getWallet(uint256 recipientId) public view ownerOnly(recipientId) validRecipientId(recipientId) returns (uint256) {\n        return recipients[recipientId].wallet;\n    }\n\n    function getRecipientAddress(uint256 recipientId) public view validRecipientId(recipientId) returns (address) {\n        return recipients[recipientId].owner;\n    }\n\n\n    function getRecipeintRequest(uint256 recipientId) public view returns (uint256[] memory) {\n        uint256[] memory activeRequest;\n        uint8 counter = 0;\n        for (uint8 i=0; i < recipients[recipientId].activeRequests.length;  i++) {\n            if (requests[recipients[recipientId].activeRequests[i]].isValue) {\n                activeRequest[counter] =  recipients[recipientId].activeRequests[i];\n                counter ++;\n            }\n        }\n        return activeRequest;\n    }\n\n    function getRequestedListing(uint256 requestId) public view returns (uint256[] memory) {\n        return requests[requestId].listingsId;\n    }\n     // self-destruct function \n     function destroyContract() public contractOwnerOnly {\n        address payable receiver = payable(contractOwner);\n         selfdestruct(receiver);\n     }\n\n     \n\n}",
  "sourcePath": "/Users/oliviama/AY21:22 sem 2/IS4302/project/contracts/Recipient.sol",
  "compiler": {
    "name": "solc",
    "version": "0.6.1+commit.e6f7d5a4.Emscripten.clang"
  },
  "schemaVersion": "3.4.4",
  "updatedAt": "2022-03-28T17:50:17.039Z",
  "devdoc": {
    "methods": {}
  },
  "userdoc": {
    "methods": {}
  }
}