{
  "contractName": "Token",
  "abi": [
    {
      "inputs": [],
      "stateMutability": "nonpayable",
      "type": "constructor"
    },
    {
      "anonymous": false,
      "inputs": [
        {
          "indexed": false,
          "internalType": "uint256",
          "name": "tokenID",
          "type": "uint256"
        },
        {
          "indexed": false,
          "internalType": "address",
          "name": "recipient",
          "type": "address"
        }
      ],
      "name": "requestAdded",
      "type": "event"
    },
    {
      "anonymous": false,
      "inputs": [
        {
          "indexed": false,
          "internalType": "uint256",
          "name": "tokenID",
          "type": "uint256"
        }
      ],
      "name": "tokenCreated",
      "type": "event"
    },
    {
      "anonymous": false,
      "inputs": [
        {
          "indexed": false,
          "internalType": "uint256",
          "name": "tokenID",
          "type": "uint256"
        }
      ],
      "name": "tokenUnlisted",
      "type": "event"
    },
    {
      "anonymous": false,
      "inputs": [
        {
          "indexed": false,
          "internalType": "uint256",
          "name": "tokenID",
          "type": "uint256"
        }
      ],
      "name": "tokenUnlisting",
      "type": "event"
    },
    {
      "anonymous": false,
      "inputs": [
        {
          "indexed": false,
          "internalType": "uint256",
          "name": "tokenID",
          "type": "uint256"
        },
        {
          "indexed": false,
          "internalType": "address",
          "name": "recipient",
          "type": "address"
        }
      ],
      "name": "transferred",
      "type": "event"
    },
    {
      "inputs": [],
      "name": "stopContract",
      "outputs": [],
      "stateMutability": "nonpayable",
      "type": "function"
    },
    {
      "inputs": [],
      "name": "resumeContract",
      "outputs": [],
      "stateMutability": "nonpayable",
      "type": "function"
    },
    {
      "inputs": [
        {
          "internalType": "uint256",
          "name": "newLimit",
          "type": "uint256"
        }
      ],
      "name": "setBalanceLimit",
      "outputs": [],
      "stateMutability": "nonpayable",
      "type": "function"
    },
    {
      "inputs": [],
      "name": "selfDestruct",
      "outputs": [],
      "stateMutability": "nonpayable",
      "type": "function"
    },
    {
      "inputs": [
        {
          "internalType": "uint256",
          "name": "tokenID",
          "type": "uint256"
        }
      ],
      "name": "unlist",
      "outputs": [],
      "stateMutability": "nonpayable",
      "type": "function"
    },
    {
      "inputs": [
        {
          "internalType": "uint256",
          "name": "recipientID",
          "type": "uint256"
        },
        {
          "internalType": "uint256",
          "name": "tokenID",
          "type": "uint256"
        }
      ],
      "name": "approve",
      "outputs": [
        {
          "internalType": "uint256",
          "name": "",
          "type": "uint256"
        }
      ],
      "stateMutability": "nonpayable",
      "type": "function"
    },
    {
      "inputs": [
        {
          "internalType": "uint256",
          "name": "tokenID",
          "type": "uint256"
        },
        {
          "internalType": "uint256",
          "name": "recipientID",
          "type": "uint256"
        },
        {
          "internalType": "uint256",
          "name": "amt",
          "type": "uint256"
        },
        {
          "internalType": "uint256",
          "name": "deadline",
          "type": "uint256"
        }
      ],
      "name": "addRequest",
      "outputs": [],
      "stateMutability": "nonpayable",
      "type": "function"
    },
    {
      "inputs": [
        {
          "internalType": "uint256",
          "name": "donorID",
          "type": "uint256"
        },
        {
          "internalType": "uint256",
          "name": "amt",
          "type": "uint256"
        },
        {
          "internalType": "string",
          "name": "category",
          "type": "string"
        }
      ],
      "name": "createToken",
      "outputs": [
        {
          "internalType": "uint256",
          "name": "",
          "type": "uint256"
        }
      ],
      "stateMutability": "payable",
      "type": "function",
      "payable": true
    },
    {
      "inputs": [
        {
          "internalType": "uint256",
          "name": "tokenID",
          "type": "uint256"
        }
      ],
      "name": "getTokenAmt",
      "outputs": [
        {
          "internalType": "uint256",
          "name": "",
          "type": "uint256"
        }
      ],
      "stateMutability": "view",
      "type": "function",
      "constant": true
    },
    {
      "inputs": [
        {
          "internalType": "uint256",
          "name": "tokenID",
          "type": "uint256"
        }
      ],
      "name": "getRequestRecipient",
      "outputs": [
        {
          "internalType": "uint256[]",
          "name": "",
          "type": "uint256[]"
        }
      ],
      "stateMutability": "view",
      "type": "function",
      "constant": true
    },
    {
      "inputs": [
        {
          "internalType": "uint256",
          "name": "tokenID",
          "type": "uint256"
        },
        {
          "internalType": "uint256",
          "name": "recipientID",
          "type": "uint256"
        }
      ],
      "name": "getStatus",
      "outputs": [
        {
          "internalType": "bool",
          "name": "",
          "type": "bool"
        }
      ],
      "stateMutability": "view",
      "type": "function",
      "constant": true
    },
    {
      "inputs": [
        {
          "internalType": "uint256",
          "name": "tokenID",
          "type": "uint256"
        },
        {
          "internalType": "uint256",
          "name": "recipientID",
          "type": "uint256"
        }
      ],
      "name": "getDeadline",
      "outputs": [
        {
          "internalType": "uint256",
          "name": "",
          "type": "uint256"
        }
      ],
      "stateMutability": "view",
      "type": "function",
      "constant": true
    },
    {
      "inputs": [
        {
          "internalType": "uint256",
          "name": "tokenID",
          "type": "uint256"
        },
        {
          "internalType": "uint256",
          "name": "recipientID",
          "type": "uint256"
        }
      ],
      "name": "getRequestAmt",
      "outputs": [
        {
          "internalType": "uint256",
          "name": "",
          "type": "uint256"
        }
      ],
      "stateMutability": "view",
      "type": "function",
      "constant": true
    },
    {
      "inputs": [
        {
          "internalType": "uint256",
          "name": "tokenID",
          "type": "uint256"
        },
        {
          "internalType": "uint256",
          "name": "recipientID",
          "type": "uint256"
        }
      ],
      "name": "getAddress",
      "outputs": [
        {
          "internalType": "address",
          "name": "",
          "type": "address"
        }
      ],
      "stateMutability": "view",
      "type": "function",
      "constant": true
    },
    {
      "inputs": [
        {
          "internalType": "uint256",
          "name": "tokenID",
          "type": "uint256"
        }
      ],
      "name": "getCategory",
      "outputs": [
        {
          "internalType": "string",
          "name": "",
          "type": "string"
        }
      ],
      "stateMutability": "view",
      "type": "function",
      "constant": true
    },
    {
      "inputs": [],
      "name": "getOwner",
      "outputs": [
        {
          "internalType": "address",
          "name": "",
          "type": "address"
        }
      ],
      "stateMutability": "view",
      "type": "function",
      "constant": true
    }
  ],
  "bytecode": "0x60806040526000600860016101000a81548160ff02191690831515021790555034801561002b57600080fd5b5033600360006101000a81548173ffffffffffffffffffffffffffffffffffffffff021916908373ffffffffffffffffffffffffffffffffffffffff1602179055506103e860008190555061271060058190555061274e8061008e6000396000f3fe6080604052600436106100f35760003560e01c8063893d20e81161008a578063bdbbd32b11610059578063bdbbd32b14610567578063bf5a4dd3146105c0578063c4bc5da5146105fb578063f3052d2614610612576100f3565b8063893d20e8146104175780639262d7591461046e5780639cb8a26a146104f3578063a745da651461050a576100f3565b80635b8575a9116100c65780635b8575a9146101f25780635d35a3d9146102825780635f78f436146102db57806376d9e791146103be576100f3565b80630ba12937146100f857806312253a6c146101515780632ce0a6ee146101685780633240d76c146101a3575b600080fd5b34801561010457600080fd5b5061014f6004803603608081101561011b57600080fd5b81019080803590602001909291908035906020019092919080359060200190929190803590602001909291905050506106c6565b005b34801561015d57600080fd5b50610166610a8f565b005b34801561017457600080fd5b506101a16004803603602081101561018b57600080fd5b8101908080359060200190929190505050610b52565b005b3480156101af57600080fd5b506101dc600480360360208110156101c657600080fd5b8101908080359060200190929190505050610c02565b6040518082815260200191505060405180910390f35b3480156101fe57600080fd5b5061022b6004803603602081101561021557600080fd5b8101908080359060200190929190505050610c9c565b6040518080602001828103825283818151815260200191508051906020019060200280838360005b8381101561026e578082015181840152602081019050610253565b505050509050019250505060405180910390f35b34801561028e57600080fd5b506102c5600480360360408110156102a557600080fd5b810190808035906020019092919080359060200190929190505050610e40565b6040518082815260200191505060405180910390f35b6103a8600480360360608110156102f157600080fd5b8101908080359060200190929190803590602001909291908035906020019064010000000081111561032257600080fd5b82018360208201111561033457600080fd5b8035906020019184600183028401116401000000008311171561035657600080fd5b91908080601f016020809104026020016040519081016040528093929190818152602001838380828437600081840152601f19601f8201169050808301925050505050505091929192905050506113f6565b6040518082815260200191505060405180910390f35b3480156103ca57600080fd5b50610401600480360360408110156103e157600080fd5b810190808035906020019092919080359060200190929190505050611615565b6040518082815260200191505060405180910390f35b34801561042357600080fd5b5061042c6117bf565b604051808273ffffffffffffffffffffffffffffffffffffffff1673ffffffffffffffffffffffffffffffffffffffff16815260200191505060405180910390f35b34801561047a57600080fd5b506104b16004803603604081101561049157600080fd5b8101908080359060200190929190803590602001909291905050506117e9565b604051808273ffffffffffffffffffffffffffffffffffffffff1673ffffffffffffffffffffffffffffffffffffffff16815260200191505060405180910390f35b3480156104ff57600080fd5b506105086119b3565b005b34801561051657600080fd5b5061054d6004803603604081101561052d57600080fd5b810190808035906020019092919080359060200190929190505050611a99565b604051808215151515815260200191505060405180910390f35b34801561057357600080fd5b506105aa6004803603604081101561058a57600080fd5b810190808035906020019092919080359060200190929190505050611c50565b6040518082815260200191505060405180910390f35b3480156105cc57600080fd5b506105f9600480360360208110156105e357600080fd5b8101908080359060200190929190505050611dfa565b005b34801561060757600080fd5b50610610612232565b005b34801561061e57600080fd5b5061064b6004803603602081101561063557600080fd5b81019080803590602001909291905050506122f5565b6040518080602001828103825283818151815260200191508051906020019080838360005b8381101561068b578082015181840152602081019050610670565b50505050905090810190601f1680156106b85780820380516001836020036101000a031916815260200191505b509250505060405180910390f35b8360015481111561073f576040517f08c379a000000000000000000000000000000000000000000000000000000000815260040180806020018281038252600e8152602001807f496e76616c696420546f6b656e2100000000000000000000000000000000000081525060200191505060405180910390fd5b6006600086815260200190815260200160002060010160009054906101000a900473ffffffffffffffffffffffffffffffffffffffff1673ffffffffffffffffffffffffffffffffffffffff163273ffffffffffffffffffffffffffffffffffffffff1614156107fa576040517f08c379a000000000000000000000000000000000000000000000000000000000815260040180806020018281038252603d81526020018061269f603d913960400191505060405180910390fd5b610802612427565b60405180608001604052808581526020016000151581526020018481526020013273ffffffffffffffffffffffffffffffffffffffff16815250905060008587600660008a815260200190815260200160002060030154600660008b8152602001908152602001600020600201600660008c815260200190815260200160002060000154604051602001808681526020018581526020018481526020018060200183815260200182810382528481815460018160011615610100020316600290048152602001915080546001816001161561010002031660029004801561092a5780601f106108ff5761010080835404028352916020019161092a565b820191906000526020600020905b81548152906001019060200180831161090d57829003601f168201915b5050965050505050505060405160208183030381529060405280519060200120905081600760008381526020019081526020016000206000820151816000015560208201518160010160006101000a81548160ff0219169083151502179055506040820151816002015560608201518160030160006101000a81548173ffffffffffffffffffffffffffffffffffffffff021916908373ffffffffffffffffffffffffffffffffffffffff160217905550905050600660008881526020019081526020016000206004018690806001815401808255809150506001900390600052602060002001600090919091909150557fae87143534853650913e94365ef83f0a5bfdbba4fa7c989071b2421053a5679c8732604051808381526020018273ffffffffffffffffffffffffffffffffffffffff1673ffffffffffffffffffffffffffffffffffffffff1681526020019250505060405180910390a150505050505050565b600360009054906101000a900473ffffffffffffffffffffffffffffffffffffffff1673ffffffffffffffffffffffffffffffffffffffff163373ffffffffffffffffffffffffffffffffffffffff1614610b35576040517f08c379a000000000000000000000000000000000000000000000000000000000815260040180806020018281038252602981526020018061262c6029913960400191505060405180910390fd5b6001600860016101000a81548160ff021916908315150217905550565b600360009054906101000a900473ffffffffffffffffffffffffffffffffffffffff1673ffffffffffffffffffffffffffffffffffffffff163373ffffffffffffffffffffffffffffffffffffffff1614610bf8576040517f08c379a000000000000000000000000000000000000000000000000000000000815260040180806020018281038252602981526020018061262c6029913960400191505060405180910390fd5b8060058190555050565b600081600154811115610c7d576040517f08c379a000000000000000000000000000000000000000000000000000000000815260040180806020018281038252600e8152602001807f496e76616c696420546f6b656e2100000000000000000000000000000000000081525060200191505060405180910390fd5b6006600084815260200190815260200160002060030154915050919050565b6060816006600082815260200190815260200160002060010160009054906101000a900473ffffffffffffffffffffffffffffffffffffffff1673ffffffffffffffffffffffffffffffffffffffff163273ffffffffffffffffffffffffffffffffffffffff1614610d59576040517f08c379a00000000000000000000000000000000000000000000000000000000081526004018080602001828103825260248152602001806126086024913960400191505060405180910390fd5b82600154811115610dd2576040517f08c379a000000000000000000000000000000000000000000000000000000000815260040180806020018281038252600e8152602001807f496e76616c696420546f6b656e2100000000000000000000000000000000000081525060200191505060405180910390fd5b60066000858152602001908152602001600020600401805480602002602001604051908101604052809291908181526020018280548015610e3257602002820191906000526020600020905b815481526020019060010190808311610e1e575b505050505092505050919050565b6000600860009054906101000a900460ff1615610ec5576040517f08c379a000000000000000000000000000000000000000000000000000000000815260040180806020018281038252600e8152602001807f4e6f2072652d656e7472616e637900000000000000000000000000000000000081525060200191505060405180910390fd5b81600154811115610f3e576040517f08c379a000000000000000000000000000000000000000000000000000000000815260040180806020018281038252600e8152602001807f496e76616c696420546f6b656e2100000000000000000000000000000000000081525060200191505060405180910390fd5b826006600082815260200190815260200160002060010160009054906101000a900473ffffffffffffffffffffffffffffffffffffffff1673ffffffffffffffffffffffffffffffffffffffff163273ffffffffffffffffffffffffffffffffffffffff1614610ff9576040517f08c379a00000000000000000000000000000000000000000000000000000000081526004018080602001828103825260248152602001806126086024913960400191505060405180910390fd5b600860019054906101000a900460ff161561101357600080fd5b600860009054906101000a900460ff1615611096576040517f08c379a000000000000000000000000000000000000000000000000000000000815260040180806020018281038252600e8152602001807f4e6f2072652d656e7472616e637900000000000000000000000000000000000081525060200191505060405180910390fd5b60008585600660008881526020019081526020016000206003015460066000898152602001908152602001600020600201600660008a81526020019081526020016000206000015460405160200180868152602001858152602001848152602001806020018381526020018281038252848181546001816001161561010002031660029004815260200191508054600181600116156101000203166002900480156111825780601f1061115757610100808354040283529160200191611182565b820191906000526020600020905b81548152906001019060200180831161116557829003601f168201915b5050965050505050505060405160208183030381529060405280519060200120905060016007600083815260200190815260200160002060010160006101000a81548160ff02191690831515021790555060006111df86886117e9565b90506001600860006101000a81548160ff02191690831515021790555060006112088789611c50565b9050806004541015611265576040517f08c379a00000000000000000000000000000000000000000000000000000000081526004018080602001828103825260268152602001806126556026913960400191505060405180910390fd5b8173ffffffffffffffffffffffffffffffffffffffff166108fc829081150290604051600060405180830381858888f193505050501580156112ab573d6000803e3d6000fd5b50806004600082825403925050819055506000600860006101000a81548160ff0219169083151502179055507f56c2e7e77828864604b77615a940a062264e79b54565402c5ac37aececb826058783604051808381526020018273ffffffffffffffffffffffffffffffffffffffff1673ffffffffffffffffffffffffffffffffffffffff1681526020019250505060405180910390a18060066000898152602001908152602001600020600301600082825403925050819055506001600660008981526020019081526020016000206003015410156113e6577f518caf9299542d4f85a53e80e73085ad6b4795a354ee002c15312c2b4bcfa616876040518082815260200191505060405180910390a16113c587611dfa565b600660008881526020019081526020016000206003015495505050506113ee565b600295505050505b505092915050565b60008054600254600154031115611458576040517f08c379a000000000000000000000000000000000000000000000000000000000815260040180806020018281038252602481526020018061267b6024913960400191505060405180910390fd5b60055460045411156114b5576040517f08c379a000000000000000000000000000000000000000000000000000000000815260040180806020018281038252603d8152602001806126dc603d913960400191505060405180910390fd5b82600460008282540192505081905550606060018060008282540192505081905550600060015490506114e6612467565b6040518060a001604052808881526020013273ffffffffffffffffffffffffffffffffffffffff16815260200186815260200187815260200184815250905080600660008481526020019081526020016000206000820151816000015560208201518160010160006101000a81548173ffffffffffffffffffffffffffffffffffffffff021916908373ffffffffffffffffffffffffffffffffffffffff16021790555060408201518160020190805190602001906115a69291906124ac565b506060820151816003015560808201518160040190805190602001906115cd92919061252c565b509050507f0a6b2a25f2764bb23ba81dc1f3c7e5885291c116a26ba73b46c15ed494831741826040518082815260200191505060405180910390a18193505050509392505050565b600082600154811115611690576040517f08c379a000000000000000000000000000000000000000000000000000000000815260040180806020018281038252600e8152602001807f496e76616c696420546f6b656e2100000000000000000000000000000000000081525060200191505060405180910390fd5b60008385600660008881526020019081526020016000206003015460066000898152602001908152602001600020600201600660008a815260200190815260200160002060000154604051602001808681526020018581526020018481526020018060200183815260200182810382528481815460018160011615610100020316600290048152602001915080546001816001161561010002031660029004801561177c5780601f106117515761010080835404028352916020019161177c565b820191906000526020600020905b81548152906001019060200180831161175f57829003601f168201915b5050965050505050505060405160208183030381529060405280519060200120905060076000828152602001908152602001600020600201549250505092915050565b6000600360009054906101000a900473ffffffffffffffffffffffffffffffffffffffff16905090565b600082600154811115611864576040517f08c379a000000000000000000000000000000000000000000000000000000000815260040180806020018281038252600e8152602001807f496e76616c696420546f6b656e2100000000000000000000000000000000000081525060200191505060405180910390fd5b60008385600660008881526020019081526020016000206003015460066000898152602001908152602001600020600201600660008a81526020019081526020016000206000015460405160200180868152602001858152602001848152602001806020018381526020018281038252848181546001816001161561010002031660029004815260200191508054600181600116156101000203166002900480156119505780601f1061192557610100808354040283529160200191611950565b820191906000526020600020905b81548152906001019060200180831161193357829003601f168201915b505096505050505050506040516020818303038152906040528051906020012090506007600082815260200190815260200160002060030160009054906101000a900473ffffffffffffffffffffffffffffffffffffffff169250505092915050565b600360009054906101000a900473ffffffffffffffffffffffffffffffffffffffff1673ffffffffffffffffffffffffffffffffffffffff163373ffffffffffffffffffffffffffffffffffffffff1614611a59576040517f08c379a000000000000000000000000000000000000000000000000000000000815260040180806020018281038252602981526020018061262c6029913960400191505060405180910390fd5b6000600360009054906101000a900473ffffffffffffffffffffffffffffffffffffffff1690508073ffffffffffffffffffffffffffffffffffffffff16ff5b600082600154811115611b14576040517f08c379a000000000000000000000000000000000000000000000000000000000815260040180806020018281038252600e8152602001807f496e76616c696420546f6b656e2100000000000000000000000000000000000081525060200191505060405180910390fd5b60008385600660008881526020019081526020016000206003015460066000898152602001908152602001600020600201600660008a8152602001908152602001600020600001546040516020018086815260200185815260200184815260200180602001838152602001828103825284818154600181600116156101000203166002900481526020019150805460018160011615610100020316600290048015611c005780601f10611bd557610100808354040283529160200191611c00565b820191906000526020600020905b815481529060010190602001808311611be357829003601f168201915b505096505050505050506040516020818303038152906040528051906020012090506007600082815260200190815260200160002060010160009054906101000a900460ff169250505092915050565b600082600154811115611ccb576040517f08c379a000000000000000000000000000000000000000000000000000000000815260040180806020018281038252600e8152602001807f496e76616c696420546f6b656e2100000000000000000000000000000000000081525060200191505060405180910390fd5b60008385600660008881526020019081526020016000206003015460066000898152602001908152602001600020600201600660008a8152602001908152602001600020600001546040516020018086815260200185815260200184815260200180602001838152602001828103825284818154600181600116156101000203166002900481526020019150805460018160011615610100020316600290048015611db75780601f10611d8c57610100808354040283529160200191611db7565b820191906000526020600020905b815481529060010190602001808311611d9a57829003601f168201915b5050965050505050505060405160208183030381529060405280519060200120905060076000828152602001908152602001600020600001549250505092915050565b600860009054906101000a900460ff1615611e7d576040517f08c379a000000000000000000000000000000000000000000000000000000000815260040180806020018281038252600e8152602001807f4e6f2072652d656e7472616e637900000000000000000000000000000000000081525060200191505060405180910390fd5b80600154811115611ef6576040517f08c379a000000000000000000000000000000000000000000000000000000000815260040180806020018281038252600e8152602001807f496e76616c696420546f6b656e2100000000000000000000000000000000000081525060200191505060405180910390fd5b816006600082815260200190815260200160002060010160009054906101000a900473ffffffffffffffffffffffffffffffffffffffff1673ffffffffffffffffffffffffffffffffffffffff163273ffffffffffffffffffffffffffffffffffffffff1614611fb1576040517f08c379a00000000000000000000000000000000000000000000000000000000081526004018080602001828103825260248152602001806126086024913960400191505060405180910390fd5b600860019054906101000a900460ff1615611fcb57600080fd5b600860009054906101000a900460ff161561204e576040517f08c379a000000000000000000000000000000000000000000000000000000000815260040180806020018281038252600e8152602001807f4e6f2072652d656e7472616e637900000000000000000000000000000000000081525060200191505060405180910390fd5b6001600260008282540192505081905550600660008481526020019081526020016000206000808201600090556001820160006101000a81549073ffffffffffffffffffffffffffffffffffffffff02191690556002820160006120b29190612579565b60038201600090556004820160006120ca91906125c1565b50506001600860006101000a81548160ff02191690831515021790555060066000848152602001908152602001600020600301546004541015612158576040517f08c379a00000000000000000000000000000000000000000000000000000000081526004018080602001828103825260268152602001806126556026913960400191505060405180910390fd5b3273ffffffffffffffffffffffffffffffffffffffff166108fc60066000868152602001908152602001600020600301549081150290604051600060405180830381858888f193505050501580156121b4573d6000803e3d6000fd5b5060066000848152602001908152602001600020600301546004600082825403925050819055506000600860006101000a81548160ff0219169083151502179055507f759c7f73934e3d1cb6f132398fccd39cdc1d53fd9b96a0bece8be3740d60f8ab836040518082815260200191505060405180910390a1505050565b600360009054906101000a900473ffffffffffffffffffffffffffffffffffffffff1673ffffffffffffffffffffffffffffffffffffffff163373ffffffffffffffffffffffffffffffffffffffff16146122d8576040517f08c379a000000000000000000000000000000000000000000000000000000000815260040180806020018281038252602981526020018061262c6029913960400191505060405180910390fd5b6000600860016101000a81548160ff021916908315150217905550565b606081600154811115612370576040517f08c379a000000000000000000000000000000000000000000000000000000000815260040180806020018281038252600e8152602001807f496e76616c696420546f6b656e2100000000000000000000000000000000000081525060200191505060405180910390fd5b600660008481526020019081526020016000206002018054600181600116156101000203166002900480601f01602080910402602001604051908101604052809291908181526020018280546001816001161561010002031660029004801561241a5780601f106123ef5761010080835404028352916020019161241a565b820191906000526020600020905b8154815290600101906020018083116123fd57829003601f168201915b5050505050915050919050565b60405180608001604052806000815260200160001515815260200160008152602001600073ffffffffffffffffffffffffffffffffffffffff1681525090565b6040518060a0016040528060008152602001600073ffffffffffffffffffffffffffffffffffffffff1681526020016060815260200160008152602001606081525090565b828054600181600116156101000203166002900490600052602060002090601f016020900481019282601f106124ed57805160ff191683800117855561251b565b8280016001018555821561251b579182015b8281111561251a5782518255916020019190600101906124ff565b5b50905061252891906125e2565b5090565b828054828255906000526020600020908101928215612568579160200282015b8281111561256757825182559160200191906001019061254c565b5b50905061257591906125e2565b5090565b50805460018160011615610100020316600290046000825580601f1061259f57506125be565b601f0160209004906000526020600020908101906125bd91906125e2565b5b50565b50805460008255906000526020600020908101906125df91906125e2565b50565b61260491905b808211156126005760008160009055506001016125e8565b5090565b9056fe596f7520617265206e6f742074686520646f6e6f72206f66207468697320746f6b656e21596f7520617265206e6f7420616c6c6f77656420746f2075736520746869732066756e6374696f6e21496e73756666696369656e742062616c616e636520696e20636f6e747261637420706f6f6c21446f6e6174696f6e204d61726b6574204361706163697479206973207265616368656421596f752063616e6e6f74207265717565737420666f7220796f7572206f776e20746f6b656e2c2074727920756e6c697374696e6720696e737465616421546865206c696d6974656420616d6f756e74206f66204554482073746f72656420696e207468697320636f6e7472616374206973207265616368656421a2646970667358221220730e5d59e58f28f777c99127fd7d563deb509718db2d9c69b5c18098be9e418264736f6c63430006010033",
  "source": "// SPDX-License-Identifier: MIT\npragma solidity >=0.6.0;\n\ncontract Token {\n    uint256 supplyLimit; \n    uint256 createdCount;\n    uint256 returnedCount;\n    address owner;\n    uint256 contractEthBalance;\n    uint256 balanceLimit;\n    mapping(uint256 => token) Tokens;\n    mapping (bytes32 => state) Tokenrequests; // hash(recipientid and tokenid) map state of request, asumming that recipient can only request for 1 token at a time \n   \n    struct token {\n        uint256 donorID;\n        address donorAddress;\n        string category;\n        uint256 amt;\n        uint256[] recipientIdList;\n\n    }\n\n    struct state {\n        uint256 requestAmt;\n        bool isCompleted;\n        uint256 deadline;\n        address recipientAddress;\n    }\n\n    constructor() public {\n        owner = msg.sender;\n        supplyLimit= 1000;\n        balanceLimit = 10000;\n        //add recipient and donor contract ?\n    }\n\n\n    //Access Restrictions\n    modifier tokenDonorOnly(uint256 tokenID) {\n        require(tx.origin == Tokens[tokenID].donorAddress, \"You are not the donor of this token!\");\n        _;\n    }\n\n\n    modifier validTokenOnly(uint256 tokenID) {\n        require(tokenID <= createdCount, \"Invalid Token!\");\n         _;\n    }\n\n    modifier ownerOnly() {\n        require(msg.sender == owner, \"You are not allowed to use this function!\");\n         _;\n    }\n\n    //Security Functions \n\n    bool internal locked;\n    bool isStopped = false;\n\n    modifier noReentrancy() {\n        require(!locked, \"No re-entrancy\");\n        _;\n    }\n\n\n    modifier stoppedInEmergency {\n        require(!isStopped);\n        _;\n    }\n\n    //Emergency Stop\n    function stopContract() public ownerOnly() {\n        isStopped = true;\n    }\n\n    function resumeContract() public  ownerOnly()  {\n        isStopped = false;\n    }\n\n    //setter function for contract balance limit\n    function setBalanceLimit(uint256 newLimit) public  ownerOnly() {\n        balanceLimit = newLimit;\n        \n    }\n    \n    function selfDestruct() public ownerOnly() {\n        address payable addr = payable(owner);\n        selfdestruct(addr); \n    }\n\n    //Events\n    event transferred(uint256 tokenID, address recipient);\n    event tokenUnlisting(uint256 tokenID);\n    event requestAdded(uint256 tokenID, address recipient);\n    event tokenCreated(uint256 tokenID);\n    event tokenUnlisted(uint256 tokenID); \n\n\n\n\n    //Core Functions\n    function unlist(uint256 tokenID) public  noReentrancy() validTokenOnly(tokenID) tokenDonorOnly(tokenID) stoppedInEmergency {\n        require(!locked, \"No re-entrancy\");\n        returnedCount += 1;\n        //TODO: unlist from Donation Market\n        //TODO: store the token in database as historical - is this needed ?\n        delete Tokens[tokenID];\n        locked = true;\n        require(contractEthBalance >= Tokens[tokenID].amt, \"Insufficient balance in contract pool!\");\n        payable(tx.origin).transfer(Tokens[tokenID].amt);\n        contractEthBalance -= Tokens[tokenID].amt;\n        locked = false;\n        emit tokenUnlisted(tokenID);\n      \n        \n    }\n    \n\n    //approve function - send eth to recipients, minus amt from token \n    function approve(uint256 recipientID, uint256 tokenID) public  noReentrancy() validTokenOnly(tokenID) tokenDonorOnly(tokenID) stoppedInEmergency returns (uint256){\n        require(!locked, \"No re-entrancy\");\n        bytes32 hashing = keccak256(abi.encode(recipientID, tokenID,  Tokens[tokenID].amt, Tokens[tokenID].category, Tokens[tokenID].donorID));\n        Tokenrequests[hashing].isCompleted = true;\n        address payable recipientTransferTo = payable( getAddress(tokenID, recipientID));\n        locked = true;\n        uint256 amount = getRequestAmt(tokenID, recipientID);\n        require(contractEthBalance >=   amount, \"Insufficient balance in contract pool!\");\n        recipientTransferTo.transfer( amount);\n        contractEthBalance -= amount;\n        locked = false;\n        emit transferred(tokenID, recipientTransferTo);\n        \n        Tokens[tokenID].amt -= amount;\n        if (Tokens[tokenID].amt  < 1) { //TODO: decide the number again\n            emit tokenUnlisting(tokenID);\n            unlist(tokenID);\n            return Tokens[tokenID].amt;\n          \n        }\n        return 2; //since we only unlist if less than 1 eth left\n\n\n    }\n    \n    //add request to token  \n    function addRequest(uint256 tokenID, uint256 recipientID, uint256 amt , uint256 deadline) public  validTokenOnly(tokenID){\n        require(tx.origin != Tokens[tokenID].donorAddress, \"You cannot request for your own token, try unlisting instead!\");\n        state memory newState = state( amt, false, deadline, tx.origin);\n        bytes32 hashing = keccak256(abi.encode(recipientID, tokenID, Tokens[tokenID].amt, Tokens[tokenID].category, Tokens[tokenID].donorID));\n        Tokenrequests[hashing] = newState;\n        Tokens[tokenID].recipientIdList.push(recipientID);\n        emit requestAdded(tokenID, tx.origin);\n    }\n\n    // create token + list token on Donation market\n    function createToken(uint256 donorID, uint256 amt, string memory category) public payable returns (uint256) {\n        require(createdCount - returnedCount <= supplyLimit, \"Donation Market Capacity is reached!\");\n        require(contractEthBalance <= balanceLimit, \"The limited amount of ETH stored in this contract is reached!\");\n        contractEthBalance += amt;\n        uint256[] memory recipientList;\n        createdCount+=1;\n        uint256 tokenID = createdCount;\n        token memory newToken = token(donorID,tx.origin, category, amt,recipientList);\n        Tokens[tokenID]= newToken;\n        emit tokenCreated(tokenID);\n\n        //TODO:listing of token on donation market \n\n        return tokenID;\n\n    }\n\n\n\n    //Getter Functions\n    //getter function for the amt of each token\n     function getTokenAmt(uint256 tokenID) public view  validTokenOnly(tokenID) returns (uint256) {\n        return Tokens[tokenID].amt;\n    }\n\n    //getter function for list of request each token \n    function getRequestRecipient(uint256 tokenID) public view tokenDonorOnly(tokenID) validTokenOnly(tokenID) returns (uint256[] memory) {\n        return Tokens[tokenID].recipientIdList;\n    }\n\n    //getter function of status for the each request of each token\n    function  getStatus(uint256 tokenID, uint256 recipientID) public view  validTokenOnly(tokenID)returns (bool) {\n        bytes32 hashing = keccak256(abi.encode(recipientID, tokenID,  Tokens[tokenID].amt, Tokens[tokenID].category, Tokens[tokenID].donorID));\n        return  Tokenrequests[hashing].isCompleted;\n    }\n\n    //getter function of deadline for the each request of each token\n    function  getDeadline(uint256 tokenID, uint256 recipientID) public view  validTokenOnly(tokenID)returns (uint256) {\n        bytes32 hashing = keccak256(abi.encode(recipientID, tokenID,  Tokens[tokenID].amt, Tokens[tokenID].category, Tokens[tokenID].donorID));\n        return  Tokenrequests[hashing].deadline;\n    }\n\n        //getter function of request for the each request of each token\n    function  getRequestAmt(uint256 tokenID, uint256 recipientID) public view  validTokenOnly(tokenID)returns (uint256) {\n        bytes32 hashing = keccak256(abi.encode(recipientID, tokenID,  Tokens[tokenID].amt, Tokens[tokenID].category, Tokens[tokenID].donorID));\n        return  Tokenrequests[hashing].requestAmt;\n    }\n    \n          //getter function of address for the each request of each token\n    function  getAddress(uint256 tokenID, uint256 recipientID) public view  validTokenOnly(tokenID)returns (address) {\n        bytes32 hashing = keccak256(abi.encode(recipientID, tokenID,  Tokens[tokenID].amt, Tokens[tokenID].category, Tokens[tokenID].donorID));\n        return  Tokenrequests[hashing].recipientAddress;\n    }\n    \n\n\n    //getter function for token category for matching algorithm \n    function getCategory(uint256 tokenID) public view validTokenOnly(tokenID) returns (string memory) {\n        return Tokens[tokenID].category;\n    }\n\n    //getter function for owner\n    function getOwner() public view returns(address) {\n        return owner;\n    }\n    \n\n}",
  "sourcePath": "/Users/_mayveeee_/Desktop/IS4302_GRP6/contracts/Token.sol",
  "compiler": {
    "name": "solc",
    "version": "0.6.1+commit.e6f7d5a4.Emscripten.clang"
  },
  "schemaVersion": "3.4.4",
  "updatedAt": "2022-03-26T07:27:44.205Z",
  "networkType": "ethereum",
  "devdoc": {
    "methods": {}
  },
  "userdoc": {
    "methods": {}
  }
}