{
  "contractName": "Token",
  "abi": [
    {
      "inputs": [],
      "stateMutability": "nonpayable",
      "type": "constructor"
    },
    {
      "anonymous": false,
      "inputs": [
        {
          "indexed": false,
          "internalType": "uint256",
          "name": "tokenID",
          "type": "uint256"
        },
        {
          "indexed": false,
          "internalType": "address",
          "name": "recipient",
          "type": "address"
        }
      ],
      "name": "requestAdded",
      "type": "event"
    },
    {
      "anonymous": false,
      "inputs": [
        {
          "indexed": false,
          "internalType": "uint256",
          "name": "tokenID",
          "type": "uint256"
        }
      ],
      "name": "tokenCreated",
      "type": "event"
    },
    {
      "anonymous": false,
      "inputs": [
        {
          "indexed": false,
          "internalType": "uint256",
          "name": "tokenID",
          "type": "uint256"
        }
      ],
      "name": "tokenUnlisted",
      "type": "event"
    },
    {
      "anonymous": false,
      "inputs": [
        {
          "indexed": false,
          "internalType": "uint256",
          "name": "tokenID",
          "type": "uint256"
        }
      ],
      "name": "tokenUnlisting",
      "type": "event"
    },
    {
      "anonymous": false,
      "inputs": [
        {
          "indexed": false,
          "internalType": "uint256",
          "name": "tokenID",
          "type": "uint256"
        },
        {
          "indexed": false,
          "internalType": "address",
          "name": "recipient",
          "type": "address"
        }
      ],
      "name": "transferred",
      "type": "event"
    },
    {
      "inputs": [],
      "name": "stopContract",
      "outputs": [],
      "stateMutability": "nonpayable",
      "type": "function"
    },
    {
      "inputs": [],
      "name": "resumeContract",
      "outputs": [],
      "stateMutability": "nonpayable",
      "type": "function"
    },
    {
      "inputs": [
        {
          "internalType": "uint256",
          "name": "newLimit",
          "type": "uint256"
        }
      ],
      "name": "setBalanceLimit",
      "outputs": [],
      "stateMutability": "nonpayable",
      "type": "function"
    },
    {
      "inputs": [],
      "name": "selfDestruct",
      "outputs": [],
      "stateMutability": "nonpayable",
      "type": "function"
    },
    {
      "inputs": [
        {
          "internalType": "uint256",
          "name": "tokenID",
          "type": "uint256"
        }
      ],
      "name": "unlist",
      "outputs": [],
      "stateMutability": "nonpayable",
      "type": "function"
    },
    {
      "inputs": [
        {
          "internalType": "uint256",
          "name": "recipientID",
          "type": "uint256"
        },
        {
          "internalType": "uint256",
          "name": "tokenID",
          "type": "uint256"
        }
      ],
      "name": "approve",
      "outputs": [
        {
          "internalType": "uint256",
          "name": "",
          "type": "uint256"
        }
      ],
      "stateMutability": "payable",
      "type": "function"
    },
    {
      "inputs": [
        {
          "internalType": "uint256",
          "name": "tokenID",
          "type": "uint256"
        },
        {
          "internalType": "uint256",
          "name": "recipientID",
          "type": "uint256"
        },
        {
          "internalType": "uint256",
          "name": "amt",
          "type": "uint256"
        },
        {
          "internalType": "uint256",
          "name": "deadline",
          "type": "uint256"
        }
      ],
      "name": "addRequest",
      "outputs": [],
      "stateMutability": "nonpayable",
      "type": "function"
    },
    {
      "inputs": [
        {
          "internalType": "uint256",
          "name": "donorID",
          "type": "uint256"
        },
        {
          "internalType": "uint256",
          "name": "amt",
          "type": "uint256"
        },
        {
          "internalType": "string",
          "name": "category",
          "type": "string"
        }
      ],
      "name": "createToken",
      "outputs": [
        {
          "internalType": "uint256",
          "name": "",
          "type": "uint256"
        }
      ],
      "stateMutability": "payable",
      "type": "function"
    },
    {
      "inputs": [
        {
          "internalType": "uint256",
          "name": "tokenID",
          "type": "uint256"
        }
      ],
      "name": "getTokenAmt",
      "outputs": [
        {
          "internalType": "uint256",
          "name": "",
          "type": "uint256"
        }
      ],
      "stateMutability": "view",
      "type": "function"
    },
    {
      "inputs": [
        {
          "internalType": "uint256",
          "name": "tokenID",
          "type": "uint256"
        }
      ],
      "name": "getRequestRecipient",
      "outputs": [
        {
          "internalType": "uint256[]",
          "name": "",
          "type": "uint256[]"
        }
      ],
      "stateMutability": "view",
      "type": "function"
    },
    {
      "inputs": [
        {
          "internalType": "uint256",
          "name": "tokenID",
          "type": "uint256"
        },
        {
          "internalType": "uint256",
          "name": "recipientID",
          "type": "uint256"
        }
      ],
      "name": "getStatus",
      "outputs": [
        {
          "internalType": "bool",
          "name": "",
          "type": "bool"
        }
      ],
      "stateMutability": "view",
      "type": "function"
    },
    {
      "inputs": [
        {
          "internalType": "uint256",
          "name": "tokenID",
          "type": "uint256"
        },
        {
          "internalType": "uint256",
          "name": "recipientID",
          "type": "uint256"
        }
      ],
      "name": "getDeadline",
      "outputs": [
        {
          "internalType": "uint256",
          "name": "",
          "type": "uint256"
        }
      ],
      "stateMutability": "view",
      "type": "function"
    },
    {
      "inputs": [
        {
          "internalType": "uint256",
          "name": "tokenID",
          "type": "uint256"
        },
        {
          "internalType": "uint256",
          "name": "recipientID",
          "type": "uint256"
        }
      ],
      "name": "getRequestAmt",
      "outputs": [
        {
          "internalType": "uint256",
          "name": "",
          "type": "uint256"
        }
      ],
      "stateMutability": "view",
      "type": "function"
    },
    {
      "inputs": [
        {
          "internalType": "uint256",
          "name": "tokenID",
          "type": "uint256"
        },
        {
          "internalType": "uint256",
          "name": "recipientID",
          "type": "uint256"
        }
      ],
      "name": "getAddress",
      "outputs": [
        {
          "internalType": "address",
          "name": "",
          "type": "address"
        }
      ],
      "stateMutability": "view",
      "type": "function"
    },
    {
      "inputs": [
        {
          "internalType": "uint256",
          "name": "tokenID",
          "type": "uint256"
        }
      ],
      "name": "getCategory",
      "outputs": [
        {
          "internalType": "string",
          "name": "",
          "type": "string"
        }
      ],
      "stateMutability": "view",
      "type": "function"
    },
    {
      "inputs": [],
      "name": "getOwner",
      "outputs": [
        {
          "internalType": "address",
          "name": "",
          "type": "address"
        }
      ],
      "stateMutability": "view",
      "type": "function"
    },
    {
      "inputs": [],
      "name": "getBalance",
      "outputs": [
        {
          "internalType": "uint256",
          "name": "",
          "type": "uint256"
        }
      ],
      "stateMutability": "view",
      "type": "function"
    }
  ],
  "bytecode": "0x60806040526000600860016101000a81548160ff02191690831515021790555034801561002b57600080fd5b5033600360006101000a81548173ffffffffffffffffffffffffffffffffffffffff021916908373ffffffffffffffffffffffffffffffffffffffff1602179055506103e86000819055506127106005819055506127f88061008e6000396000f3fe6080604052600436106100fe5760003560e01c806376d9e79111610095578063a745da6511610064578063a745da6514610533578063bdbbd32b14610590578063bf5a4dd3146105e9578063c4bc5da514610624578063f3052d261461063b576100fe565b806376d9e791146103e7578063893d20e8146104405780639262d759146104975780639cb8a26a1461051c576100fe565b80633240d76c116100d15780633240d76c146101d95780635b8575a9146102285780635d35a3d9146102b85780635f78f43614610304576100fe565b80630ba129371461010357806312065fe01461015c57806312253a6c146101875780632ce0a6ee1461019e575b600080fd5b34801561010f57600080fd5b5061015a6004803603608081101561012657600080fd5b81019080803590602001909291908035906020019092919080359060200190929190803590602001909291905050506106ef565b005b34801561016857600080fd5b50610171610ab8565b6040518082815260200191505060405180910390f35b34801561019357600080fd5b5061019c610ac2565b005b3480156101aa57600080fd5b506101d7600480360360208110156101c157600080fd5b8101908080359060200190929190505050610b85565b005b3480156101e557600080fd5b50610212600480360360208110156101fc57600080fd5b8101908080359060200190929190505050610cac565b6040518082815260200191505060405180910390f35b34801561023457600080fd5b506102616004803603602081101561024b57600080fd5b8101908080359060200190929190505050610d46565b6040518080602001828103825283818151815260200191508051906020019060200280838360005b838110156102a4578082015181840152602081019050610289565b505050509050019250505060405180910390f35b6102ee600480360360408110156102ce57600080fd5b810190808035906020019092919080359060200190929190505050610eea565b6040518082815260200191505060405180910390f35b6103d16004803603606081101561031a57600080fd5b8101908080359060200190929190803590602001909291908035906020019064010000000081111561034b57600080fd5b82018360208201111561035d57600080fd5b8035906020019184600183028401116401000000008311171561037f57600080fd5b91908080601f016020809104026020016040519081016040528093929190818152602001838380828437600081840152601f19601f8201169050808301925050505050505091929192905050506114a0565b6040518082815260200191505060405180910390f35b3480156103f357600080fd5b5061042a6004803603604081101561040a57600080fd5b8101908080359060200190929190803590602001909291905050506116bf565b6040518082815260200191505060405180910390f35b34801561044c57600080fd5b50610455611869565b604051808273ffffffffffffffffffffffffffffffffffffffff1673ffffffffffffffffffffffffffffffffffffffff16815260200191505060405180910390f35b3480156104a357600080fd5b506104da600480360360408110156104ba57600080fd5b810190808035906020019092919080359060200190929190505050611893565b604051808273ffffffffffffffffffffffffffffffffffffffff1673ffffffffffffffffffffffffffffffffffffffff16815260200191505060405180910390f35b34801561052857600080fd5b50610531611a5d565b005b34801561053f57600080fd5b506105766004803603604081101561055657600080fd5b810190808035906020019092919080359060200190929190505050611b43565b604051808215151515815260200191505060405180910390f35b34801561059c57600080fd5b506105d3600480360360408110156105b357600080fd5b810190808035906020019092919080359060200190929190505050611cfa565b6040518082815260200191505060405180910390f35b3480156105f557600080fd5b506106226004803603602081101561060c57600080fd5b8101908080359060200190929190505050611ea4565b005b34801561063057600080fd5b506106396122dc565b005b34801561064757600080fd5b506106746004803603602081101561065e57600080fd5b810190808035906020019092919050505061239f565b6040518080602001828103825283818151815260200191508051906020019080838360005b838110156106b4578082015181840152602081019050610699565b50505050905090810190601f1680156106e15780820380516001836020036101000a031916815260200191505b509250505060405180910390f35b83600154811115610768576040517f08c379a000000000000000000000000000000000000000000000000000000000815260040180806020018281038252600e8152602001807f496e76616c696420546f6b656e2100000000000000000000000000000000000081525060200191505060405180910390fd5b6006600086815260200190815260200160002060010160009054906101000a900473ffffffffffffffffffffffffffffffffffffffff1673ffffffffffffffffffffffffffffffffffffffff163273ffffffffffffffffffffffffffffffffffffffff161415610823576040517f08c379a000000000000000000000000000000000000000000000000000000000815260040180806020018281038252603d815260200180612749603d913960400191505060405180910390fd5b61082b6124d1565b60405180608001604052808581526020016000151581526020018481526020013273ffffffffffffffffffffffffffffffffffffffff16815250905060008587600660008a815260200190815260200160002060030154600660008b8152602001908152602001600020600201600660008c81526020019081526020016000206000015460405160200180868152602001858152602001848152602001806020018381526020018281038252848181546001816001161561010002031660029004815260200191508054600181600116156101000203166002900480156109535780601f1061092857610100808354040283529160200191610953565b820191906000526020600020905b81548152906001019060200180831161093657829003601f168201915b5050965050505050505060405160208183030381529060405280519060200120905081600760008381526020019081526020016000206000820151816000015560208201518160010160006101000a81548160ff0219169083151502179055506040820151816002015560608201518160030160006101000a81548173ffffffffffffffffffffffffffffffffffffffff021916908373ffffffffffffffffffffffffffffffffffffffff160217905550905050600660008881526020019081526020016000206004018690806001815401808255809150506001900390600052602060002001600090919091909150557fae87143534853650913e94365ef83f0a5bfdbba4fa7c989071b2421053a5679c8732604051808381526020018273ffffffffffffffffffffffffffffffffffffffff1673ffffffffffffffffffffffffffffffffffffffff1681526020019250505060405180910390a150505050505050565b6000600454905090565b600360009054906101000a900473ffffffffffffffffffffffffffffffffffffffff1673ffffffffffffffffffffffffffffffffffffffff163373ffffffffffffffffffffffffffffffffffffffff1614610b68576040517f08c379a00000000000000000000000000000000000000000000000000000000081526004018080602001828103825260298152602001806126d66029913960400191505060405180910390fd5b6001600860016101000a81548160ff021916908315150217905550565b600360009054906101000a900473ffffffffffffffffffffffffffffffffffffffff1673ffffffffffffffffffffffffffffffffffffffff163373ffffffffffffffffffffffffffffffffffffffff1614610c2b576040517f08c379a00000000000000000000000000000000000000000000000000000000081526004018080602001828103825260298152602001806126d66029913960400191505060405180910390fd5b6101f48111610ca2576040517f08c379a00000000000000000000000000000000000000000000000000000000081526004018080602001828103825260138152602001807f546f6f206c6f77206f662061206c696d6974210000000000000000000000000081525060200191505060405180910390fd5b8060058190555050565b600081600154811115610d27576040517f08c379a000000000000000000000000000000000000000000000000000000000815260040180806020018281038252600e8152602001807f496e76616c696420546f6b656e2100000000000000000000000000000000000081525060200191505060405180910390fd5b6006600084815260200190815260200160002060030154915050919050565b6060816006600082815260200190815260200160002060010160009054906101000a900473ffffffffffffffffffffffffffffffffffffffff1673ffffffffffffffffffffffffffffffffffffffff163273ffffffffffffffffffffffffffffffffffffffff1614610e03576040517f08c379a00000000000000000000000000000000000000000000000000000000081526004018080602001828103825260248152602001806126b26024913960400191505060405180910390fd5b82600154811115610e7c576040517f08c379a000000000000000000000000000000000000000000000000000000000815260040180806020018281038252600e8152602001807f496e76616c696420546f6b656e2100000000000000000000000000000000000081525060200191505060405180910390fd5b60066000858152602001908152602001600020600401805480602002602001604051908101604052809291908181526020018280548015610edc57602002820191906000526020600020905b815481526020019060010190808311610ec8575b505050505092505050919050565b6000600860009054906101000a900460ff1615610f6f576040517f08c379a000000000000000000000000000000000000000000000000000000000815260040180806020018281038252600e8152602001807f4e6f2072652d656e7472616e637900000000000000000000000000000000000081525060200191505060405180910390fd5b81600154811115610fe8576040517f08c379a000000000000000000000000000000000000000000000000000000000815260040180806020018281038252600e8152602001807f496e76616c696420546f6b656e2100000000000000000000000000000000000081525060200191505060405180910390fd5b826006600082815260200190815260200160002060010160009054906101000a900473ffffffffffffffffffffffffffffffffffffffff1673ffffffffffffffffffffffffffffffffffffffff163273ffffffffffffffffffffffffffffffffffffffff16146110a3576040517f08c379a00000000000000000000000000000000000000000000000000000000081526004018080602001828103825260248152602001806126b26024913960400191505060405180910390fd5b600860019054906101000a900460ff16156110bd57600080fd5b600860009054906101000a900460ff1615611140576040517f08c379a000000000000000000000000000000000000000000000000000000000815260040180806020018281038252600e8152602001807f4e6f2072652d656e7472616e637900000000000000000000000000000000000081525060200191505060405180910390fd5b60008585600660008881526020019081526020016000206003015460066000898152602001908152602001600020600201600660008a815260200190815260200160002060000154604051602001808681526020018581526020018481526020018060200183815260200182810382528481815460018160011615610100020316600290048152602001915080546001816001161561010002031660029004801561122c5780601f106112015761010080835404028352916020019161122c565b820191906000526020600020905b81548152906001019060200180831161120f57829003601f168201915b5050965050505050505060405160208183030381529060405280519060200120905060016007600083815260200190815260200160002060010160006101000a81548160ff02191690831515021790555060006112898688611893565b90506001600860006101000a81548160ff02191690831515021790555060006112b28789611cfa565b905080600454101561130f576040517f08c379a00000000000000000000000000000000000000000000000000000000081526004018080602001828103825260268152602001806126ff6026913960400191505060405180910390fd5b8173ffffffffffffffffffffffffffffffffffffffff166108fc829081150290604051600060405180830381858888f19350505050158015611355573d6000803e3d6000fd5b50806004600082825403925050819055506000600860006101000a81548160ff0219169083151502179055507f56c2e7e77828864604b77615a940a062264e79b54565402c5ac37aececb826058783604051808381526020018273ffffffffffffffffffffffffffffffffffffffff1673ffffffffffffffffffffffffffffffffffffffff1681526020019250505060405180910390a1806006600089815260200190815260200160002060030160008282540392505081905550600160066000898152602001908152602001600020600301541015611490577f518caf9299542d4f85a53e80e73085ad6b4795a354ee002c15312c2b4bcfa616876040518082815260200191505060405180910390a161146f87611ea4565b60066000888152602001908152602001600020600301549550505050611498565b600295505050505b505092915050565b60008054600254600154031115611502576040517f08c379a00000000000000000000000000000000000000000000000000000000081526004018080602001828103825260248152602001806127256024913960400191505060405180910390fd5b600554600454111561155f576040517f08c379a000000000000000000000000000000000000000000000000000000000815260040180806020018281038252603d815260200180612786603d913960400191505060405180910390fd5b8260046000828254019250508190555060606001806000828254019250508190555060006001549050611590612511565b6040518060a001604052808881526020013273ffffffffffffffffffffffffffffffffffffffff16815260200186815260200187815260200184815250905080600660008481526020019081526020016000206000820151816000015560208201518160010160006101000a81548173ffffffffffffffffffffffffffffffffffffffff021916908373ffffffffffffffffffffffffffffffffffffffff1602179055506040820151816002019080519060200190611650929190612556565b506060820151816003015560808201518160040190805190602001906116779291906125d6565b509050507f0a6b2a25f2764bb23ba81dc1f3c7e5885291c116a26ba73b46c15ed494831741826040518082815260200191505060405180910390a18193505050509392505050565b60008260015481111561173a576040517f08c379a000000000000000000000000000000000000000000000000000000000815260040180806020018281038252600e8152602001807f496e76616c696420546f6b656e2100000000000000000000000000000000000081525060200191505060405180910390fd5b60008385600660008881526020019081526020016000206003015460066000898152602001908152602001600020600201600660008a81526020019081526020016000206000015460405160200180868152602001858152602001848152602001806020018381526020018281038252848181546001816001161561010002031660029004815260200191508054600181600116156101000203166002900480156118265780601f106117fb57610100808354040283529160200191611826565b820191906000526020600020905b81548152906001019060200180831161180957829003601f168201915b5050965050505050505060405160208183030381529060405280519060200120905060076000828152602001908152602001600020600201549250505092915050565b6000600360009054906101000a900473ffffffffffffffffffffffffffffffffffffffff16905090565b60008260015481111561190e576040517f08c379a000000000000000000000000000000000000000000000000000000000815260040180806020018281038252600e8152602001807f496e76616c696420546f6b656e2100000000000000000000000000000000000081525060200191505060405180910390fd5b60008385600660008881526020019081526020016000206003015460066000898152602001908152602001600020600201600660008a81526020019081526020016000206000015460405160200180868152602001858152602001848152602001806020018381526020018281038252848181546001816001161561010002031660029004815260200191508054600181600116156101000203166002900480156119fa5780601f106119cf576101008083540402835291602001916119fa565b820191906000526020600020905b8154815290600101906020018083116119dd57829003601f168201915b505096505050505050506040516020818303038152906040528051906020012090506007600082815260200190815260200160002060030160009054906101000a900473ffffffffffffffffffffffffffffffffffffffff169250505092915050565b600360009054906101000a900473ffffffffffffffffffffffffffffffffffffffff1673ffffffffffffffffffffffffffffffffffffffff163373ffffffffffffffffffffffffffffffffffffffff1614611b03576040517f08c379a00000000000000000000000000000000000000000000000000000000081526004018080602001828103825260298152602001806126d66029913960400191505060405180910390fd5b6000600360009054906101000a900473ffffffffffffffffffffffffffffffffffffffff1690508073ffffffffffffffffffffffffffffffffffffffff16ff5b600082600154811115611bbe576040517f08c379a000000000000000000000000000000000000000000000000000000000815260040180806020018281038252600e8152602001807f496e76616c696420546f6b656e2100000000000000000000000000000000000081525060200191505060405180910390fd5b60008385600660008881526020019081526020016000206003015460066000898152602001908152602001600020600201600660008a8152602001908152602001600020600001546040516020018086815260200185815260200184815260200180602001838152602001828103825284818154600181600116156101000203166002900481526020019150805460018160011615610100020316600290048015611caa5780601f10611c7f57610100808354040283529160200191611caa565b820191906000526020600020905b815481529060010190602001808311611c8d57829003601f168201915b505096505050505050506040516020818303038152906040528051906020012090506007600082815260200190815260200160002060010160009054906101000a900460ff169250505092915050565b600082600154811115611d75576040517f08c379a000000000000000000000000000000000000000000000000000000000815260040180806020018281038252600e8152602001807f496e76616c696420546f6b656e2100000000000000000000000000000000000081525060200191505060405180910390fd5b60008385600660008881526020019081526020016000206003015460066000898152602001908152602001600020600201600660008a8152602001908152602001600020600001546040516020018086815260200185815260200184815260200180602001838152602001828103825284818154600181600116156101000203166002900481526020019150805460018160011615610100020316600290048015611e615780601f10611e3657610100808354040283529160200191611e61565b820191906000526020600020905b815481529060010190602001808311611e4457829003601f168201915b5050965050505050505060405160208183030381529060405280519060200120905060076000828152602001908152602001600020600001549250505092915050565b600860009054906101000a900460ff1615611f27576040517f08c379a000000000000000000000000000000000000000000000000000000000815260040180806020018281038252600e8152602001807f4e6f2072652d656e7472616e637900000000000000000000000000000000000081525060200191505060405180910390fd5b80600154811115611fa0576040517f08c379a000000000000000000000000000000000000000000000000000000000815260040180806020018281038252600e8152602001807f496e76616c696420546f6b656e2100000000000000000000000000000000000081525060200191505060405180910390fd5b816006600082815260200190815260200160002060010160009054906101000a900473ffffffffffffffffffffffffffffffffffffffff1673ffffffffffffffffffffffffffffffffffffffff163273ffffffffffffffffffffffffffffffffffffffff161461205b576040517f08c379a00000000000000000000000000000000000000000000000000000000081526004018080602001828103825260248152602001806126b26024913960400191505060405180910390fd5b600860019054906101000a900460ff161561207557600080fd5b600860009054906101000a900460ff16156120f8576040517f08c379a000000000000000000000000000000000000000000000000000000000815260040180806020018281038252600e8152602001807f4e6f2072652d656e7472616e637900000000000000000000000000000000000081525060200191505060405180910390fd5b6001600260008282540192505081905550600660008481526020019081526020016000206000808201600090556001820160006101000a81549073ffffffffffffffffffffffffffffffffffffffff021916905560028201600061215c9190612623565b6003820160009055600482016000612174919061266b565b50506001600860006101000a81548160ff02191690831515021790555060066000848152602001908152602001600020600301546004541015612202576040517f08c379a00000000000000000000000000000000000000000000000000000000081526004018080602001828103825260268152602001806126ff6026913960400191505060405180910390fd5b3273ffffffffffffffffffffffffffffffffffffffff166108fc60066000868152602001908152602001600020600301549081150290604051600060405180830381858888f1935050505015801561225e573d6000803e3d6000fd5b5060066000848152602001908152602001600020600301546004600082825403925050819055506000600860006101000a81548160ff0219169083151502179055507f759c7f73934e3d1cb6f132398fccd39cdc1d53fd9b96a0bece8be3740d60f8ab836040518082815260200191505060405180910390a1505050565b600360009054906101000a900473ffffffffffffffffffffffffffffffffffffffff1673ffffffffffffffffffffffffffffffffffffffff163373ffffffffffffffffffffffffffffffffffffffff1614612382576040517f08c379a00000000000000000000000000000000000000000000000000000000081526004018080602001828103825260298152602001806126d66029913960400191505060405180910390fd5b6000600860016101000a81548160ff021916908315150217905550565b60608160015481111561241a576040517f08c379a000000000000000000000000000000000000000000000000000000000815260040180806020018281038252600e8152602001807f496e76616c696420546f6b656e2100000000000000000000000000000000000081525060200191505060405180910390fd5b600660008481526020019081526020016000206002018054600181600116156101000203166002900480601f0160208091040260200160405190810160405280929190818152602001828054600181600116156101000203166002900480156124c45780601f10612499576101008083540402835291602001916124c4565b820191906000526020600020905b8154815290600101906020018083116124a757829003601f168201915b5050505050915050919050565b60405180608001604052806000815260200160001515815260200160008152602001600073ffffffffffffffffffffffffffffffffffffffff1681525090565b6040518060a0016040528060008152602001600073ffffffffffffffffffffffffffffffffffffffff1681526020016060815260200160008152602001606081525090565b828054600181600116156101000203166002900490600052602060002090601f016020900481019282601f1061259757805160ff19168380011785556125c5565b828001600101855582156125c5579182015b828111156125c45782518255916020019190600101906125a9565b5b5090506125d2919061268c565b5090565b828054828255906000526020600020908101928215612612579160200282015b828111156126115782518255916020019190600101906125f6565b5b50905061261f919061268c565b5090565b50805460018160011615610100020316600290046000825580601f106126495750612668565b601f016020900490600052602060002090810190612667919061268c565b5b50565b5080546000825590600052602060002090810190612689919061268c565b50565b6126ae91905b808211156126aa576000816000905550600101612692565b5090565b9056fe596f7520617265206e6f742074686520646f6e6f72206f66207468697320746f6b656e21596f7520617265206e6f7420616c6c6f77656420746f2075736520746869732066756e6374696f6e21496e73756666696369656e742062616c616e636520696e20636f6e747261637420706f6f6c21446f6e6174696f6e204d61726b6574204361706163697479206973207265616368656421596f752063616e6e6f74207265717565737420666f7220796f7572206f776e20746f6b656e2c2074727920756e6c697374696e6720696e737465616421546865206c696d6974656420616d6f756e74206f66204554482073746f72656420696e207468697320636f6e7472616374206973207265616368656421a264697066735822122073118da09526eb5c87e34debacf0e0e387015749b09c4764ebc3a2a0c16e819264736f6c63430006010033",
  "source": "// SPDX-License-Identifier: MIT\npragma solidity >=0.6.0;\n\ncontract Token {\n    uint256 supplyLimit; \n    uint256 createdCount;\n    uint256 returnedCount;\n    address owner;\n    uint256 contractEthBalance;\n    uint256 balanceLimit;\n    mapping(uint256 => token) Tokens;\n    mapping (bytes32 => state) Tokenrequests; // hash(recipientid and tokenid) map state of request, asumming that recipient can only request for 1 token at a time \n   \n    struct token {\n        uint256 donorID;\n        address donorAddress;\n        string category;\n        uint256 amt;\n        uint256[] recipientIdList;\n\n    }\n\n    struct state {\n        uint256 requestAmt;\n        bool isCompleted;\n        uint256 deadline;\n        address recipientAddress;\n    }\n\n    constructor() public {\n        owner = msg.sender;\n        supplyLimit= 1000;\n        balanceLimit = 10000;\n        //add recipient and donor contract ?\n    }\n\n\n    //Access Restrictions\n    modifier tokenDonorOnly(uint256 tokenID) {\n        require(tx.origin == Tokens[tokenID].donorAddress, \"You are not the donor of this token!\");\n        _;\n    }\n\n\n    modifier validTokenOnly(uint256 tokenID) {\n        require(tokenID <= createdCount, \"Invalid Token!\");\n         _;\n    }\n\n    modifier ownerOnly() {\n        require(msg.sender == owner, \"You are not allowed to use this function!\");\n         _;\n    }\n\n    //Security Functions \n\n    bool internal locked;\n    bool isStopped = false;\n\n    modifier noReentrancy() {\n        require(!locked, \"No re-entrancy\");\n        _;\n    }\n\n\n    modifier stoppedInEmergency {\n        require(!isStopped);\n        _;\n    }\n\n    //Emergency Stop\n    function stopContract() public ownerOnly() {\n        isStopped = true;\n    }\n\n    function resumeContract() public  ownerOnly()  {\n        isStopped = false;\n    }\n\n    //setter function for contract balance limit\n    function setBalanceLimit(uint256 newLimit) public  ownerOnly() {\n        require(newLimit >500 ,\"Too low of a limit!\");\n        balanceLimit = newLimit;\n        \n    }\n    \n    function selfDestruct() public ownerOnly() {\n        address payable addr = payable(owner);\n        selfdestruct(addr); \n    }\n\n    //Events\n    event transferred(uint256 tokenID, address recipient);\n    event tokenUnlisting(uint256 tokenID);\n    event requestAdded(uint256 tokenID, address recipient);\n    event tokenCreated(uint256 tokenID);\n    event tokenUnlisted(uint256 tokenID); \n\n\n\n\n    //Core Functions\n    function unlist(uint256 tokenID) public  noReentrancy() validTokenOnly(tokenID) tokenDonorOnly(tokenID) stoppedInEmergency {\n        require(!locked, \"No re-entrancy\");\n        returnedCount += 1;\n        //TODO: unlist from Donation Market\n        //TODO: store the token in database as historical - is this needed ?\n        delete Tokens[tokenID];\n        locked = true;\n        require(contractEthBalance >= Tokens[tokenID].amt, \"Insufficient balance in contract pool!\");\n        payable(tx.origin).transfer(Tokens[tokenID].amt);\n        contractEthBalance -= Tokens[tokenID].amt;\n        locked = false;\n        emit tokenUnlisted(tokenID);\n      \n        \n    }\n    \n\n    //approve function - send eth to recipients, minus amt from token \n    function approve(uint256 recipientID, uint256 tokenID) public payable noReentrancy() validTokenOnly(tokenID) tokenDonorOnly(tokenID) stoppedInEmergency returns (uint256){\n        require(!locked, \"No re-entrancy\");\n        bytes32 hashing = keccak256(abi.encode(recipientID, tokenID,  Tokens[tokenID].amt, Tokens[tokenID].category, Tokens[tokenID].donorID));\n        Tokenrequests[hashing].isCompleted = true;\n        address payable recipientTransferTo = payable( getAddress(tokenID, recipientID));\n        locked = true;\n        uint256 amount = getRequestAmt(tokenID, recipientID);\n        require(contractEthBalance >=  amount, \"Insufficient balance in contract pool!\");\n        recipientTransferTo.transfer( amount);\n        contractEthBalance -= amount;\n        locked = false;\n        emit transferred(tokenID, recipientTransferTo);\n        \n        Tokens[tokenID].amt -= amount;\n        if (Tokens[tokenID].amt  < 1) { //TODO: decide the number again\n            emit tokenUnlisting(tokenID);\n            unlist(tokenID);\n            return Tokens[tokenID].amt;\n          \n        }\n        return 2; //since we only unlist if less than 1 eth left\n\n\n    }\n    \n    //add request to token  \n    function addRequest(uint256 tokenID, uint256 recipientID, uint256 amt , uint256 deadline) public  validTokenOnly(tokenID){\n        require(tx.origin != Tokens[tokenID].donorAddress, \"You cannot request for your own token, try unlisting instead!\");\n        state memory newState = state( amt, false, deadline, tx.origin);\n        bytes32 hashing = keccak256(abi.encode(recipientID, tokenID, Tokens[tokenID].amt, Tokens[tokenID].category, Tokens[tokenID].donorID));\n        Tokenrequests[hashing] = newState;\n        Tokens[tokenID].recipientIdList.push(recipientID);\n        emit requestAdded(tokenID, tx.origin);\n    }\n\n    // create token + list token on Donation market\n    function createToken(uint256 donorID, uint256 amt, string memory category) public payable returns (uint256) {\n        require(createdCount - returnedCount <= supplyLimit, \"Donation Market Capacity is reached!\");\n        require(contractEthBalance <= balanceLimit, \"The limited amount of ETH stored in this contract is reached!\");\n        contractEthBalance += amt;\n        uint256[] memory recipientList;\n        createdCount+=1;\n        uint256 tokenID = createdCount;\n        token memory newToken = token(donorID,tx.origin, category, amt,recipientList);\n        Tokens[tokenID]= newToken;\n        emit tokenCreated(tokenID);\n\n        //TODO:listing of token on donation market \n\n        return tokenID;\n\n    }\n\n\n\n    //Getter Functions\n    //getter function for the amt of each token\n     function getTokenAmt(uint256 tokenID) public view  validTokenOnly(tokenID) returns (uint256) {\n        return Tokens[tokenID].amt;\n    }\n\n    //getter function for list of request each token \n    function getRequestRecipient(uint256 tokenID) public view tokenDonorOnly(tokenID) validTokenOnly(tokenID) returns (uint256[] memory) {\n        return Tokens[tokenID].recipientIdList;\n    }\n\n    //getter function of status for the each request of each token\n    function  getStatus(uint256 tokenID, uint256 recipientID) public view  validTokenOnly(tokenID)returns (bool) {\n        bytes32 hashing = keccak256(abi.encode(recipientID, tokenID,  Tokens[tokenID].amt, Tokens[tokenID].category, Tokens[tokenID].donorID));\n        return  Tokenrequests[hashing].isCompleted;\n    }\n\n    //getter function of deadline for the each request of each token\n    function  getDeadline(uint256 tokenID, uint256 recipientID) public view  validTokenOnly(tokenID)returns (uint256) {\n        bytes32 hashing = keccak256(abi.encode(recipientID, tokenID,  Tokens[tokenID].amt, Tokens[tokenID].category, Tokens[tokenID].donorID));\n        return  Tokenrequests[hashing].deadline;\n    }\n\n        //getter function of request for the each request of each token\n    function  getRequestAmt(uint256 tokenID, uint256 recipientID) public view  validTokenOnly(tokenID)returns (uint256) {\n        bytes32 hashing = keccak256(abi.encode(recipientID, tokenID,  Tokens[tokenID].amt, Tokens[tokenID].category, Tokens[tokenID].donorID));\n        return  Tokenrequests[hashing].requestAmt;\n    }\n    \n          //getter function of address for the each request of each token\n    function  getAddress(uint256 tokenID, uint256 recipientID) public view  validTokenOnly(tokenID)returns (address) {\n        bytes32 hashing = keccak256(abi.encode(recipientID, tokenID,  Tokens[tokenID].amt, Tokens[tokenID].category, Tokens[tokenID].donorID));\n        return  Tokenrequests[hashing].recipientAddress;\n    }\n    \n\n\n    //getter function for token category for matching algorithm \n    function getCategory(uint256 tokenID) public view validTokenOnly(tokenID) returns (string memory) {\n        return Tokens[tokenID].category;\n    }\n\n    //getter function for owner\n    function getOwner() public view returns(address) {\n        return owner;\n    }\n\n    //getter function for contract ether balance (to be deleted)\n    function getBalance() public view returns (uint256) {\n        return contractEthBalance;\n    }\n    \n\n}",
  "sourcePath": "/Users/oliviama/AY21:22 sem 2/IS4302/project/contracts/Token.sol",
  "compiler": {
    "name": "solc",
    "version": "0.6.1+commit.e6f7d5a4.Emscripten.clang"
  },
  "schemaVersion": "3.4.4",
  "updatedAt": "2022-03-26T18:03:15.179Z",
  "devdoc": {
    "methods": {}
  },
  "userdoc": {
    "methods": {}
  }
}