{
  "contractName": "Token",
  "abi": [
    {
      "inputs": [],
      "stateMutability": "nonpayable",
      "type": "constructor"
    },
    {
      "inputs": [],
      "name": "contractStopped",
      "outputs": [
        {
          "internalType": "bool",
          "name": "",
          "type": "bool"
        }
      ],
      "stateMutability": "view",
      "type": "function"
    },
    {
      "inputs": [],
      "name": "getCredit",
      "outputs": [],
      "stateMutability": "payable",
      "type": "function"
    },
    {
      "inputs": [],
      "name": "checkCredit",
      "outputs": [
        {
          "internalType": "uint256",
          "name": "",
          "type": "uint256"
        }
      ],
      "stateMutability": "view",
      "type": "function"
    },
    {
      "inputs": [
        {
          "internalType": "address",
          "name": "sender",
          "type": "address"
        },
        {
          "internalType": "address",
          "name": "recipient",
          "type": "address"
        },
        {
          "internalType": "uint256",
          "name": "tokens",
          "type": "uint256"
        }
      ],
      "name": "transfer",
      "outputs": [],
      "stateMutability": "nonpayable",
      "type": "function"
    },
    {
      "inputs": [],
      "name": "getOwner",
      "outputs": [
        {
          "internalType": "address",
          "name": "",
          "type": "address"
        }
      ],
      "stateMutability": "view",
      "type": "function"
    },
    {
      "inputs": [
        {
          "internalType": "uint256",
          "name": "rate",
          "type": "uint256"
        }
      ],
      "name": "setConversionRate",
      "outputs": [],
      "stateMutability": "nonpayable",
      "type": "function"
    },
    {
      "inputs": [],
      "name": "getConversionRate",
      "outputs": [
        {
          "internalType": "uint256",
          "name": "",
          "type": "uint256"
        }
      ],
      "stateMutability": "view",
      "type": "function"
    },
    {
      "inputs": [],
      "name": "getSupply",
      "outputs": [
        {
          "internalType": "uint256",
          "name": "",
          "type": "uint256"
        }
      ],
      "stateMutability": "view",
      "type": "function"
    },
    {
      "inputs": [
        {
          "internalType": "uint256",
          "name": "amt",
          "type": "uint256"
        }
      ],
      "name": "cashOut",
      "outputs": [],
      "stateMutability": "nonpayable",
      "type": "function"
    },
    {
      "inputs": [],
      "name": "destroyContract",
      "outputs": [],
      "stateMutability": "nonpayable",
      "type": "function"
    },
    {
      "inputs": [],
      "name": "toggleContactStopped",
      "outputs": [],
      "stateMutability": "nonpayable",
      "type": "function"
    }
  ],
  "bytecode": "0x60806040526000600460006101000a81548160ff0219169083151502179055506000600460016101000a81548160ff02191690831515021790555034801561004657600080fd5b5060006040516100559061010c565b604051809103906000f080158015610071573d6000803e3d6000fd5b509050806000806101000a81548173ffffffffffffffffffffffffffffffffffffffff021916908373ffffffffffffffffffffffffffffffffffffffff16021790555033600260006101000a81548173ffffffffffffffffffffffffffffffffffffffff021916908373ffffffffffffffffffffffffffffffffffffffff160217905550612710600181905550606460038190555050610119565b61113380610d4283390190565b610c1a806101286000396000f3fe60806040526004361061009c5760003560e01c8063750e6d0911610064578063750e6d0914610153578063893d20e81461016a578063beabacc8146101c1578063d2e804941461023c578063daea74c514610277578063f36089ec146102a65761009c565b8063092a5cce146100a157806359296e7b146100b85780635c7b79f5146100c25780636c9c2faf146100fd5780636cba629014610128575b600080fd5b3480156100ad57600080fd5b506100b66102d1565b005b6100c06103b7565b005b3480156100ce57600080fd5b506100fb600480360360208110156100e557600080fd5b810190808035906020019092919050505061057a565b005b34801561010957600080fd5b50610112610734565b6040518082815260200191505060405180910390f35b34801561013457600080fd5b5061013d6107e1565b6040518082815260200191505060405180910390f35b34801561015f57600080fd5b506101686108c1565b005b34801561017657600080fd5b5061017f610993565b604051808273ffffffffffffffffffffffffffffffffffffffff1673ffffffffffffffffffffffffffffffffffffffff16815260200191505060405180910390f35b3480156101cd57600080fd5b5061023a600480360360608110156101e457600080fd5b81019080803573ffffffffffffffffffffffffffffffffffffffff169060200190929190803573ffffffffffffffffffffffffffffffffffffffff169060200190929190803590602001909291905050506109bd565b005b34801561024857600080fd5b506102756004803603602081101561025f57600080fd5b8101908080359060200190929190505050610aef565b005b34801561028357600080fd5b5061028c610b9f565b604051808215151515815260200191505060405180910390f35b3480156102b257600080fd5b506102bb610bb2565b6040518082815260200191505060405180910390f35b600260009054906101000a900473ffffffffffffffffffffffffffffffffffffffff1673ffffffffffffffffffffffffffffffffffffffff163373ffffffffffffffffffffffffffffffffffffffff1614610377576040517f08c379a0000000000000000000000000000000000000000000000000000000008152600401808060200182810382526028815260200180610bbd6028913960400191505060405180910390fd5b6000600260009054906101000a900473ffffffffffffffffffffffffffffffffffffffff1690508073ffffffffffffffffffffffffffffffffffffffff16ff5b600460019054906101000a900460ff16610578576000662386f26fc1000034816103dd57fe5b049050600154816000809054906101000a900473ffffffffffffffffffffffffffffffffffffffff1673ffffffffffffffffffffffffffffffffffffffff166318160ddd6040518163ffffffff1660e01b815260040160206040518083038186803b15801561044b57600080fd5b505afa15801561045f573d6000803e3d6000fd5b505050506040513d602081101561047557600080fd5b810190808051906020019092919050505001111561049257600080fd5b6000809054906101000a900473ffffffffffffffffffffffffffffffffffffffff1673ffffffffffffffffffffffffffffffffffffffff166340c10f1933836040518363ffffffff1660e01b8152600401808373ffffffffffffffffffffffffffffffffffffffff1673ffffffffffffffffffffffffffffffffffffffff16815260200182815260200192505050602060405180830381600087803b15801561053a57600080fd5b505af115801561054e573d6000803e3d6000fd5b505050506040513d602081101561056457600080fd5b810190808051906020019092919050505050505b565b600460009054906101000a900460ff16156105fd576040517f08c379a000000000000000000000000000000000000000000000000000000000815260040180806020018281038252600e8152602001807f4e6f2072652d656e7472616e637900000000000000000000000000000000000081525060200191505060405180910390fd5b600460019054906101000a900460ff16610731576000809054906101000a900473ffffffffffffffffffffffffffffffffffffffff1673ffffffffffffffffffffffffffffffffffffffff1663f8c883cc826040518263ffffffff1660e01b815260040180828152602001915050600060405180830381600087803b15801561068557600080fd5b505af1158015610699573d6000803e3d6000fd5b505050506001600460006101000a81548160ff02191690831515021790555060003290508073ffffffffffffffffffffffffffffffffffffffff166108fc662386f26fc1000084816106e757fe5b049081150290604051600060405180830381858888f19350505050158015610713573d6000803e3d6000fd5b506000600460006101000a81548160ff021916908315150217905550505b50565b60008060009054906101000a900473ffffffffffffffffffffffffffffffffffffffff1673ffffffffffffffffffffffffffffffffffffffff166318160ddd6040518163ffffffff1660e01b815260040160206040518083038186803b15801561079d57600080fd5b505afa1580156107b1573d6000803e3d6000fd5b505050506040513d60208110156107c757600080fd5b810190808051906020019092919050505060015403905090565b60008060009054906101000a900473ffffffffffffffffffffffffffffffffffffffff1673ffffffffffffffffffffffffffffffffffffffff166370a08231326040518263ffffffff1660e01b8152600401808273ffffffffffffffffffffffffffffffffffffffff1673ffffffffffffffffffffffffffffffffffffffff16815260200191505060206040518083038186803b15801561088157600080fd5b505afa158015610895573d6000803e3d6000fd5b505050506040513d60208110156108ab57600080fd5b8101908080519060200190929190505050905090565b600260009054906101000a900473ffffffffffffffffffffffffffffffffffffffff1673ffffffffffffffffffffffffffffffffffffffff163373ffffffffffffffffffffffffffffffffffffffff1614610967576040517f08c379a0000000000000000000000000000000000000000000000000000000008152600401808060200182810382526028815260200180610bbd6028913960400191505060405180910390fd5b600460019054906101000a900460ff1615600460016101000a81548160ff021916908315150217905550565b6000600260009054906101000a900473ffffffffffffffffffffffffffffffffffffffff16905090565b600460019054906101000a900460ff16610aea576000809054906101000a900473ffffffffffffffffffffffffffffffffffffffff1673ffffffffffffffffffffffffffffffffffffffff166323b872dd8484846040518463ffffffff1660e01b8152600401808473ffffffffffffffffffffffffffffffffffffffff1673ffffffffffffffffffffffffffffffffffffffff1681526020018373ffffffffffffffffffffffffffffffffffffffff1673ffffffffffffffffffffffffffffffffffffffff1681526020018281526020019350505050602060405180830381600087803b158015610aad57600080fd5b505af1158015610ac1573d6000803e3d6000fd5b505050506040513d6020811015610ad757600080fd5b8101908080519060200190929190505050505b505050565b600260009054906101000a900473ffffffffffffffffffffffffffffffffffffffff1673ffffffffffffffffffffffffffffffffffffffff163373ffffffffffffffffffffffffffffffffffffffff1614610b95576040517f08c379a0000000000000000000000000000000000000000000000000000000008152600401808060200182810382526028815260200180610bbd6028913960400191505060405180910390fd5b8060038190555050565b600460019054906101000a900460ff1681565b600060035490509056fe796f7520617265206e6f7420616c6c6f77656420746f2075736520746869732066756e6374696f6ea2646970667358221220d80070fbccdb7bbcb8597715190fd4f26459b826932a400b3065ef991b97173364736f6c63430006010033608060405260008060006101000a81548160ff02191690831515021790555033600060016101000a81548173ffffffffffffffffffffffffffffffffffffffff021916908373ffffffffffffffffffffffffffffffffffffffff16021790555034801561006b57600080fd5b506110b88061007b6000396000f3fe608060405234801561001057600080fd5b50600436106100f55760003560e01c806370a082311161009757806395d89b411161006657806395d89b4114610441578063a9059cbb146104c4578063dd62ed3e1461052a578063f8c883cc146105a2576100f5565b806370a08231146103335780637d64bcb41461038b578063893d20e8146103ad5780638da5cb5b146103f7576100f5565b806318160ddd116100d357806318160ddd1461020557806323b872dd14610223578063313ce567146102a957806340c10f19146102cd576100f5565b806305d2035b146100fa57806306fdde031461011c578063095ea7b31461019f575b600080fd5b6101026105d0565b604051808215151515815260200191505060405180910390f35b6101246105e2565b6040518080602001828103825283818151815260200191508051906020019080838360005b83811015610164578082015181840152602081019050610149565b50505050905090810190601f1680156101915780820380516001836020036101000a031916815260200191505b509250505060405180910390f35b6101eb600480360360408110156101b557600080fd5b81019080803573ffffffffffffffffffffffffffffffffffffffff1690602001909291908035906020019092919050505061061b565b604051808215151515815260200191505060405180910390f35b61020d61070d565b6040518082815260200191505060405180910390f35b61028f6004803603606081101561023957600080fd5b81019080803573ffffffffffffffffffffffffffffffffffffffff169060200190929190803573ffffffffffffffffffffffffffffffffffffffff16906020019092919080359060200190929190505050610717565b604051808215151515815260200191505060405180910390f35b6102b16109a1565b604051808260ff1660ff16815260200191505060405180910390f35b610319600480360360408110156102e357600080fd5b81019080803573ffffffffffffffffffffffffffffffffffffffff169060200190929190803590602001909291905050506109a6565b604051808215151515815260200191505060405180910390f35b6103756004803603602081101561034957600080fd5b81019080803573ffffffffffffffffffffffffffffffffffffffff169060200190929190505050610b88565b6040518082815260200191505060405180910390f35b610393610bd1565b604051808215151515815260200191505060405180910390f35b6103b5610c92565b604051808273ffffffffffffffffffffffffffffffffffffffff1673ffffffffffffffffffffffffffffffffffffffff16815260200191505060405180910390f35b6103ff610cbb565b604051808273ffffffffffffffffffffffffffffffffffffffff1673ffffffffffffffffffffffffffffffffffffffff16815260200191505060405180910390f35b610449610ce1565b6040518080602001828103825283818151815260200191508051906020019080838360005b8381101561048957808201518184015260208101905061046e565b50505050905090810190601f1680156104b65780820380516001836020036101000a031916815260200191505b509250505060405180910390f35b610510600480360360408110156104da57600080fd5b81019080803573ffffffffffffffffffffffffffffffffffffffff16906020019092919080359060200190929190505050610d1a565b604051808215151515815260200191505060405180910390f35b61058c6004803603604081101561054057600080fd5b81019080803573ffffffffffffffffffffffffffffffffffffffff169060200190929190803573ffffffffffffffffffffffffffffffffffffffff169060200190929190505050610f86565b6040518082815260200191505060405180910390f35b6105ce600480360360208110156105b857600080fd5b810190808035906020019092919050505061100d565b005b6000809054906101000a900460ff1681565b6040518060400160405280600581526020017f546f6b656e00000000000000000000000000000000000000000000000000000081525081565b600081600160003373ffffffffffffffffffffffffffffffffffffffff1673ffffffffffffffffffffffffffffffffffffffff16815260200190815260200160002060008573ffffffffffffffffffffffffffffffffffffffff1673ffffffffffffffffffffffffffffffffffffffff168152602001908152602001600020819055508273ffffffffffffffffffffffffffffffffffffffff163273ffffffffffffffffffffffffffffffffffffffff167f8c5be1e5ebec7d5bd14f71427d1e84f3dd0314c0f7b2291e5b200ac8c7c3b925846040518082815260200191505060405180910390a36001905092915050565b6000600354905090565b60008073ffffffffffffffffffffffffffffffffffffffff168373ffffffffffffffffffffffffffffffffffffffff16141561075257600080fd5b600260008573ffffffffffffffffffffffffffffffffffffffff1673ffffffffffffffffffffffffffffffffffffffff16815260200190815260200160002054821115610807576040517f08c379a00000000000000000000000000000000000000000000000000000000081526004018080602001828103825260208152602001807f46726f6d20646f65736e2774206861766520656e6f7567682062616c616e636581525060200191505060405180910390fd5b61085982600260008773ffffffffffffffffffffffffffffffffffffffff1673ffffffffffffffffffffffffffffffffffffffff1681526020019081526020016000205461102b90919063ffffffff16565b600260008673ffffffffffffffffffffffffffffffffffffffff1673ffffffffffffffffffffffffffffffffffffffff168152602001908152602001600020819055506108ee82600260008673ffffffffffffffffffffffffffffffffffffffff1673ffffffffffffffffffffffffffffffffffffffff1681526020019081526020016000205461104290919063ffffffff16565b600260008573ffffffffffffffffffffffffffffffffffffffff1673ffffffffffffffffffffffffffffffffffffffff168152602001908152602001600020819055508273ffffffffffffffffffffffffffffffffffffffff168473ffffffffffffffffffffffffffffffffffffffff167fddf252ad1be2c89b69c2b068fc378daa952ba7f163c4a11628f55a4df523b3ef846040518082815260200191505060405180910390a3600190509392505050565b601281565b60008060019054906101000a900473ffffffffffffffffffffffffffffffffffffffff1673ffffffffffffffffffffffffffffffffffffffff163373ffffffffffffffffffffffffffffffffffffffff1614610a0157600080fd5b6000809054906101000a900460ff1615610a1a57600080fd5b610a2f8260035461104290919063ffffffff16565b600381905550610a8782600260008673ffffffffffffffffffffffffffffffffffffffff1673ffffffffffffffffffffffffffffffffffffffff1681526020019081526020016000205461104290919063ffffffff16565b600260008573ffffffffffffffffffffffffffffffffffffffff1673ffffffffffffffffffffffffffffffffffffffff168152602001908152602001600020819055508273ffffffffffffffffffffffffffffffffffffffff167f0f6798a560793a54c3bcfe86a93cde1e73087d944c0ea20544137d4121396885836040518082815260200191505060405180910390a28273ffffffffffffffffffffffffffffffffffffffff16600073ffffffffffffffffffffffffffffffffffffffff167fddf252ad1be2c89b69c2b068fc378daa952ba7f163c4a11628f55a4df523b3ef846040518082815260200191505060405180910390a36001905092915050565b6000600260008373ffffffffffffffffffffffffffffffffffffffff1673ffffffffffffffffffffffffffffffffffffffff168152602001908152602001600020549050919050565b60008060019054906101000a900473ffffffffffffffffffffffffffffffffffffffff1673ffffffffffffffffffffffffffffffffffffffff163373ffffffffffffffffffffffffffffffffffffffff1614610c2c57600080fd5b6000809054906101000a900460ff1615610c4557600080fd5b60016000806101000a81548160ff0219169083151502179055507fae5184fba832cb2b1f702aca6117b8d265eaf03ad33eb133f19dde0f5920fa0860405160405180910390a16001905090565b60008060019054906101000a900473ffffffffffffffffffffffffffffffffffffffff16905090565b600060019054906101000a900473ffffffffffffffffffffffffffffffffffffffff1681565b6040518060400160405280600281526020017f445400000000000000000000000000000000000000000000000000000000000081525081565b60008073ffffffffffffffffffffffffffffffffffffffff168373ffffffffffffffffffffffffffffffffffffffff161415610d5557600080fd5b600260003273ffffffffffffffffffffffffffffffffffffffff1673ffffffffffffffffffffffffffffffffffffffff16815260200190815260200160002054821115610ded576040517f08c379a000000000000000000000000000000000000000000000000000000000815260040180806020018281038252602681526020018061105d6026913960400191505060405180910390fd5b610e3f82600260003273ffffffffffffffffffffffffffffffffffffffff1673ffffffffffffffffffffffffffffffffffffffff1681526020019081526020016000205461102b90919063ffffffff16565b600260003273ffffffffffffffffffffffffffffffffffffffff1673ffffffffffffffffffffffffffffffffffffffff16815260200190815260200160002081905550610ed482600260008673ffffffffffffffffffffffffffffffffffffffff1673ffffffffffffffffffffffffffffffffffffffff1681526020019081526020016000205461104290919063ffffffff16565b600260008573ffffffffffffffffffffffffffffffffffffffff1673ffffffffffffffffffffffffffffffffffffffff168152602001908152602001600020819055508273ffffffffffffffffffffffffffffffffffffffff163273ffffffffffffffffffffffffffffffffffffffff167fddf252ad1be2c89b69c2b068fc378daa952ba7f163c4a11628f55a4df523b3ef846040518082815260200191505060405180910390a36001905092915050565b6000600160008473ffffffffffffffffffffffffffffffffffffffff1673ffffffffffffffffffffffffffffffffffffffff16815260200190815260200160002060008373ffffffffffffffffffffffffffffffffffffffff1673ffffffffffffffffffffffffffffffffffffffff16815260200190815260200160002054905092915050565b6110228160035461102b90919063ffffffff16565b60038190555050565b60008282111561103757fe5b818303905092915050565b600081830190508281101561105357fe5b8090509291505056fe6d73672e73656e64657220646f65736e2774206861766520656e6f7567682062616c616e6365a2646970667358221220b3d9cbda4ecb68f9134c7969e44e6a04713d2b2ca8941757a313fb5f21608a7964736f6c63430006010033",
  "source": "// SPDX-License-Identifier: MIT\npragma solidity >=0.6.0;\n\nimport \"./ERC20.sol\";\n\n\ncontract Token {\n    ERC20 erc20Contract;\n    uint256 supplyLimit;\n    address owner;\n    uint256 conversionRate;\n\n    // mutex: prevent re-entrant\n    bool locked = false;\n    modifier noReEntrant {\n        require(!locked, \"No re-entrancy\");\n        _;\n    }\n    modifier ownerOnly {\n        require (msg.sender == owner, \"you are not allowed to use this function\");\n        _;\n    }\n\n   bool public contractStopped = false;\n    modifier stoppedInEmergency {\n        if (!contractStopped) _;\n    }\n\n\n    constructor() public {\n        ERC20 e = new ERC20(); //deploying a new contract \n        erc20Contract = e;\n        owner = msg.sender; //setting owner of the token contract\n        supplyLimit = 10000;\n        conversionRate= 100;\n    }\n\n    //cashing in ether for DT token \n    function getCredit() public payable  stoppedInEmergency {\n        uint256 amt = msg.value / 10000000000000000; // exchange rate for 1Eth : 100DT\n        require(erc20Contract.totalSupply() + amt <= supplyLimit);\n        //minting the DT token and transfering the token to sender acct\n        erc20Contract.mint(msg.sender, amt);\n    }\n\n    //check amount of token one has \n    function checkCredit() public view returns (uint256) {\n        return erc20Contract.balanceOf(tx.origin);\n    }\n\n    //transfer token from sender to recipient \n    function transfer(address sender, address recipient, uint256 tokens) public   stoppedInEmergency {\n        erc20Contract.transferFrom(sender,recipient,tokens);\n    } \n\n    //get owner of contract \n    function getOwner() public view returns (address) {\n        return owner;\n    }\n    //setter for conversion\n    function setConversionRate(uint256 rate) public ownerOnly  {\n        conversionRate= rate;\n        \n    }\n    //getter for conversion \n    function getConversionRate() public view returns (uint256) {\n         return conversionRate;\n        \n    }\n\n\n\n    //get token supply\n    function getSupply() public view returns (uint256) {\n        return supplyLimit - erc20Contract.totalSupply(); \n    }\n\n    function cashOut(uint256 amt) public noReEntrant  stoppedInEmergency {\n        erc20Contract.returned(amt);\n        locked = true;\n        address payable recipient = payable (tx.origin);\n        recipient.transfer(amt/0.01 ether);\n         locked = false;\n    }\n    \n\n        // self-destruct function \n     function destroyContract() public ownerOnly {\n        address payable receiver = payable(owner);\n         selfdestruct(receiver);\n     }\n\n     //Emergency \n    function toggleContactStopped() public  ownerOnly {\n        contractStopped = !contractStopped;\n    }\n\n\n}",
  "sourcePath": "/Users/oliviama/AY21:22 sem 2/IS4302/project/contracts/Token.sol",
  "compiler": {
    "name": "solc",
    "version": "0.6.1+commit.e6f7d5a4.Emscripten.clang"
  },
  "schemaVersion": "3.4.4",
  "updatedAt": "2022-03-28T17:50:17.052Z",
  "devdoc": {
    "methods": {}
  },
  "userdoc": {
    "methods": {}
  }
}